:100000000C9462000C948A000C948A000C948A0070
:100010000C948A000C948A000C948A000C948A0038
:100020000C94C40D0C94970D0C948A000C941E0D26
:100030000C948A000C948A000C948A000C948A0018
:100040000C948A000C948A000C94D5100C948A00AD
:100050000C943E100C94AC0C0C948A000C948A0006
:100060000C948A000C948A00010049033600FF00BA
:100070006B00D100A000B800D500A6000A019900CD
:100080003F018E0074018400A9017C00DE01740030
:1000900013026C00480265007D025D00B20256004A
:1000A000E7024E001C03460051033D008603320068
:1000B000BB032200F00303006C098609610BEF0EFD
:1000C0006311681111241FBECFEFD4E0DEBFCDBF96
:1000D00012E0A0E0B1E0E4E0F8E202C005900D9289
:1000E000AA31B107D9F714E0AAE1B2E001C01D922C
:1000F000A630B107E1F710E0C4ECD0E004C02297CD
:10010000FE010E94FC13C83BD107C9F70E941608E4
:100110000C9400140C940000A0E0B0E0E2E9F0E0E0
:100120000C94C313DC012B01FA019C91923008F46A
:1001300039C1EB018881823008F433C1943069F40D
:10014000843009F02FC111969C91119789819817DD
:1001500009F428C1A0E0B1E025C1843009F421C12F
:100160008230A9F4923009F01DC19A01AD0188E0F6
:10017000EA010990AE01E90109929E018150C1F79F
:10018000E201898111969C918923818308C1923073
:1001900009F407C112962D903C901397EB018A81C8
:1001A0009B811496AD90BD90CD90DC901797EC801C
:1001B000FD800E811F819101281B390BB90137FF8A
:1001C00004C066277727621B730B603271050CF041
:1001D00061C0121613066CF537014801062E04C0E3
:1001E00096948794779467940A94D2F721E030E04C
:1001F00040E050E004C0220F331F441F551F6A9592
:10020000D2F721503040404050402E213F21402322
:100210005123211531054105510521F021E030E040
:1002200040E050E079018A01E628F72808291929D9
:100230003CC0232BD1F1260E371E35014601062E78
:1002400004C096948794779467940A94D2F721E037
:1002500030E040E050E004C0220F331F441F551F20
:100260006A95D2F721503040404050402A213B212E
:100270004C215D21211531054105510521F021E079
:1002800030E040E050E059016A01A628B728C828AC
:10029000D9280BC0821593052CF01C01AA24BB247D
:1002A000650103C0EE24FF24870111969C91D201C1
:1002B00011968C91981709F445C0992339F0A8013B
:1002C00097012A193B094C095D0906C0A601950151
:1002D0002E193F09400B510B57FD08C01182338284
:1002E000228224833583468357831DC081E0818326
:1002F0003382228288279927DC01821B930BA40B6F
:10030000B50B84839583A683B7830DC0220F331F5B
:10031000441F551F248335834683578382819381ED
:100320000197938382832481358146815781DA0145
:10033000C9010197A109B1098F5F9F4FAF4FBF431B
:1003400028F30BC0918333822282EA0CFB1C0C1D24
:100350001D1DE482F5820683178383E08083248158
:1003600035814681578157FF1AC0C901AA2797FDD9
:10037000A095BA2F81709070A070B0705695479577
:1003800037952795822B932BA42BB52B84839583AC
:10039000A683B78382819381019693838283DF0151
:1003A00001C0D201CD01CDB7DEB7E2E10C94DF137D
:1003B000A0E2B0E0EEEDF1E00C94CF1369837A8314
:1003C0008B839C832D833E834F835887E9E0EE2EF9
:1003D000F12CEC0EFD1ECE010196B7010E946605C0
:1003E0008E010F5E1F4FCE010596B8010E94660573
:1003F0008A8991E089278A8BC701B801AE01475EDF
:100400005F4F0E948C000E949104A096E6E00C943D
:10041000EB13A0E2B0E0EFE0F2E00C94CF136983BD
:100420007A838B839C832D833E834F835887F9E0A7
:10043000EF2EF12CEC0EFD1ECE010196B7010E94AD
:1004400066058E010F5E1F4FCE010596B8010E9412
:100450006605C701B801AE01475E5F4F0E948C0080
:100460000E949104A096E6E00C94EB13A0E2B0E0A9
:10047000ECE3F2E00C94C31369837A838B839C834F
:100480002D833E834F835887CE010196BE01675F5F
:100490007F4F0E946605CE010596BE016F5E7F4FBD
:1004A0000E9466059985923088F089898230C8F06B
:1004B000943019F4823051F404C0843029F492301D
:1004C00081F480E091E0C6C0923049F420E09A8542
:1004D0008A89981321E02A87CE010996BBC0823011
:1004E00049F420E09A858A89981321E02A8BCE016D
:1004F0004196B0C02D843E844F8458886D887E8894
:100500008F88988CEE24FF248701AA24BB246501E0
:1005100040E050E060E070E0E0E0F0E0C1018170B8
:100520009070892BE9F0E60CF71C081D191D9A0143
:10053000AB012A0D3B1D4C1D5D1D80E090E0A0E04D
:10054000B0E0E614F7040805190520F481E090E016
:10055000A0E0B0E0BA01A901480F591F6A1F7B1F34
:10056000AA0CBB1CCC1CDD1C97FE08C081E090E0EF
:10057000A0E0B0E0A82AB92ACA2ADB2A3196E032E4
:10058000F10549F0660C771C881C991C5694479419
:1005900037942794C3CFFA85EA892B893C898B85C8
:1005A0009C85280F391F2E5F3F4F17C0CA018170ED
:1005B0009070892B61F016950795F794E79480E089
:1005C00090E0A0E0B0E8E82AF92A0A2B1B2B7695E8
:1005D0006795579547952F5F3F4F77FDE7CF0CC045
:1005E000440F551F661F771F17FD4160EE0CFF1C5F
:1005F000001F111F21503040403090E0590790E01B
:10060000690790E4790760F32B8F3C8FDB01CA0107
:100610008F779070A070B07080349105A105B105FE
:1006200061F447FD0AC0E114F1040105110529F048
:10063000405C5F4F6F4F7F4F40781A8EFE1711F06E
:1006400081E08A8F4D8F5E8F6F8F78A383E0898FD3
:10065000CE0149960E949104A096E2E10C94DF132A
:10066000A8E1B0E0E6E3F3E00C94CF1369837A836A
:100670008B839C832D833E834F83588789E0E82EAC
:10068000F12CEC0EFD1ECE010196B7010E9466050D
:100690008E010F5E1F4FCE010596B8010E946605C0
:1006A0008985823040F08989823028F0C701B801FD
:1006B0000E94DE0501C08FEF6896E6E00C94EB1314
:1006C000A8E1B0E0E6E6F3E00C94CF1369837A8307
:1006D0008B839C832D833E834F83588789E0E82E4C
:1006E000F12CEC0EFD1ECE010196B7010E946605AD
:1006F0008E010F5E1F4FCE010596B8010E94660560
:100700008985823040F08989823028F0C701B8019C
:100710000E94DE0501C081E06896E6E00C94EB13D0
:10072000A8E0B0E0E6E9F3E00C94CC139B01AC0147
:1007300083E08983DA01C9018827B7FD839599276A
:10074000AA27BB27B82E211531054105510519F4FB
:1007500082E089833AC08823A9F0203080E03807FE
:1007600080E0480780E8580729F460E070E080E006
:100770009FEC30C0EE24FF248701E21AF30A040B39
:10078000150B02C079018A018EE1C82ED12CDC82C2
:10079000CB82ED82FE820F831887C801B7010E94C9
:1007A000420401971816190684F4082E04C0EE0CB2
:1007B000FF1C001F111F0A94D2F7ED82FE820F83E7
:1007C0001887C81AD90ADC82CB82BA82CE01019678
:1007D0000E9491042896E9E00C94E813ACE0B0E0A4
:1007E000E4EFF3E00C94D31369837A838B839C83C7
:1007F000CE010196BE016B5F7F4F0E9466058D8121
:10080000823061F1823050F1843021F48E8188236E
:1008100051F12EC02F81388537FD20C06E812F31D8
:1008200031051CF06623F9F023C08EE190E0821BB5
:10083000930B29853A854B855C8504C05695479571
:10084000379527958A95D2F76623B1F05095409554
:10085000309521953F4F4F4F5F4F0EC020E030E065
:1008600040E050E009C02FEF3FEF4FEF5FE704C0DB
:1008700020E030E040E050E8B901CA012C96E2E007
:100880000C94EF13EF92FF920F931F937B018C0157
:1008900080E0E81680E0F80681E0080780E01807AD
:1008A00088F48FEFE816F1040105110531F028F006
:1008B00088E090E0A0E0B0E017C080E090E0A0E029
:1008C000B0E012C080E0E81680E0F80680E008079B
:1008D00081E0180728F088E190E0A0E0B0E004C0D3
:1008E00080E190E0A0E0B0E020E230E040E050E0C5
:1008F000281B390B4A0B5B0B04C016950795F79420
:10090000E7948A95D2F7F701E85FFE4F8081281BB4
:10091000310941095109C9011F910F91FF90EF90D1
:100920000895DF92EF92FF920F931F93FC01E480F2
:10093000F58006811781D1808081823048F480E083
:1009400090E0A0E1B0E0E82AF92A0A2B1B2BA5C011
:10095000843009F49FC0823021F4EE24FF24870103
:1009600005C0E114F1040105110519F4E0E0F0E01F
:1009700096C0628173819FEF623879070CF05BC08B
:1009800022E83FEF261B370B2A3131052CF020E0FF
:1009900030E040E050E02AC0B801A701022E04C0B8
:1009A00076956795579547950A94D2F781E090E040
:1009B000A0E0B0E004C0880F991FAA1FBB1F2A95B2
:1009C000D2F70197A109B1098E219F21A023B1235C
:1009D0000097A105B10521F081E090E0A0E0B0E032
:1009E0009A01AB01282B392B4A2B5B2BDA01C90169
:1009F0008F779070A070B07080349105A105B1051B
:100A000039F427FF09C0205C3F4F4F4F5F4F04C0B0
:100A1000215C3F4F4F4F5F4FE0E0F0E02030A0E01F
:100A20003A07A0E04A07A0E45A0710F0E1E0F0E03E
:100A300079018A0127C06038710564F5FB01E1582E
:100A4000FF4FD801C7018F779070A070B0708034CD
:100A50009105A105B10539F4E7FE0DC080E490E0F1
:100A6000A0E0B0E004C08FE390E0A0E0B0E0E80ECA
:100A7000F91E0A1F1B1F17FF05C016950795F7944F
:100A8000E794319687E016950795F794E7948A9551
:100A9000D1F705C0EE24FF248701EFEFF0E06E2FC1
:100AA000679566276795902F9F77D794DD24D79415
:100AB0008E2F8695492F462B582F5D29B701CA01E5
:100AC0001F910F91FF90EF90DF900895FC01DB01E3
:100AD000408151812281622F6F7770E0221F22278F
:100AE000221F9381892F880F822B282F30E0991F96
:100AF0009927991F11969C93119721153105A9F5F6
:100B0000411551056105710511F482E037C082E895
:100B10009FEF13969C938E9312979A01AB0167E017
:100B2000220F331F441F551F6A95D1F783E08C9322
:100B30000DC0220F331F441F551F12968D919C919B
:100B40001397019713969C938E931297203080E011
:100B5000380780E0480780E4580758F314962D932F
:100B60003D934D935C93179708952F3F310579F48A
:100B7000411551056105710519F484E08C930895C0
:100B800064FF03C081E08C9312C01C9210C02F57E9
:100B9000304013963C932E93129783E08C9387E01A
:100BA000440F551F661F771F8A95D1F770641496FE
:100BB0004D935D936D937C93179708951F93DC017C
:100BC000FB019C91923008F447C08081823008F488
:100BD00043C0943051F411961C91843099F5818171
:100BE000682F70E0611B71093FC0843021F09230A2
:100BF00031F48230B9F18181882389F12DC01196B9
:100C00001C9111978230F1F081811817D9F4129656
:100C10002D913C911397828193818217930794F0D1
:100C200028173907BCF014968D919D910D90BC91B9
:100C3000A02D2481358146815781281739074A071D
:100C40005B0718F4112341F00AC082179307A40729
:100C5000B50740F4112319F061E070E005C06FEFB3
:100C60007FEF02C060E070E0CB011F910895FB01AF
:100C7000DC0102C005900D9241505040D8F7089514
:100C8000A0E0B0E0E6E4F6E00C94CD137C01EB01CB
:100C90008A01690109C0CE012196F6010995F70183
:100CA00081937F010150104001151105A1F7CDB7C7
:100CB000DEB7E8E00C94E913A0E0B0E0E2E6F6E08D
:100CC0000C94CD13EC017B018A01690109C0CE01AE
:100CD0002196F70161917F01F601099501501040BD
:100CE00001151105A1F7CDB7DEB7E8E00C94E913C3
:100CF0009C01F999FECF32BD21BDF89A80B50895C7
:100D00009C01F999FECF1FBA32BD21BD60BD0FB65F
:100D1000F894FA9AF99A0FBE08950F931F93DF93F0
:100D2000CF9300D0CDB7DEB79C018B01CE010196E9
:100D3000B90142E050E028E736E00E944006898190
:100D40009A818F5F9F4F11F41A83098389819A8159
:100D50000F900F90CF91DF911F910F910895DF9326
:100D6000CF9300D0CDB7DEB7CE01019660E070E042
:100D700042E050E028E736E00E9440063A8184E6EF
:100D8000389FC00111242981820F911D893C910552
:100D900001F132503D3F70F0F999FECF1FBA82E069
:100DA00090E092BD81BD87E080BD0FB6F894FA9ABD
:100DB000F99A0FBE81E0898382E08A8380E090E027
:100DC000BE016F5F7F4F42E050E020E836E00E94B6
:100DD0005C060F900F90CF91DF9108959C01F999D7
:100DE000FECF32BD21BDF89A80B508950F931F93B1
:100DF000CF93DF938C01262F332727FD309584E195
:100E000090E0289FF001299FF00D389FF00D1124EC
:100E1000EE0FFF1FEE0FFF1FE25EFD4F41E050E0BF
:100E200060817181061717070CF040C04150504097
:100E300084E190E0289FD001299FB00D389FB00D2C
:100E40001124FD01E40FF51F4F5F5F4FEE0FFF1FF1
:100E5000EE0FFF1FCF01865E9D4FEC012881398187
:100E6000E45EFD4F0190F081E02D021B130BA40FF7
:100E7000B51FAA0FBB1FAA0FBB1FA45EBD4F8D914C
:100E80009C918E1B9F0B621B730B9C01029FC001E8
:100E9000039F900D129F900D11240E949C136E0FC2
:100EA0007F1F6F3F710591F08CF00BC0842F8F5F17
:100EB0004F5F5F4F34964431510509F0B1CF843113
:100EC00019F46FEF70E002C060E070E0CB01DF91D9
:100ED000CF911F910F910895DF93CF930F92CDB7CC
:100EE000DEB7BC01CE01019641E050E02EEE36E0C7
:100EF0000E94400690E089818F3F09F091E0892FA0
:100F00000F90CF91DF910895EF92FF920F931F936F
:100F1000F82EE92E162F072F862F972F0E946C0789
:100F2000882359F08F2D9E2D612F702F40E550E0C2
:100F30002EEE36E00E94400608C08F2D9E2D68E6FA
:100F400070E040E550E00E9437061F910F91FF903E
:100F5000EF9008958AE192E060E071E00E948407DA
:100F60008AE692E060E871E00E9484070895FC013F
:100F7000108211820895FC0110820895EF92FF9271
:100F80000F931F93CF93DF93EC0188818823B9F0EF
:100F900089818823A1F4EA80FB800C811D818CE08B
:100FA00093E00E94D30CE61AF70A080B190B1E14E3
:100FB0001F04100611061CF0188281E089838981C4
:100FC000DF91CF911F910F91FF90EF900895CF92F5
:100FD000DF92EF92FF920F931F938C016A017B01C6
:100FE00081E0F801808311828CE093E00E94D30CB1
:100FF0006C0D7D1D8E1D9F1DF8016283738384839C
:1010000095831F910F91FF90EF90DF90CF900895FF
:101010000E94AA070E94AF068CE093E00E94ED0DAB
:101020008AEB92E060E00E943D0808950E94080863
:101030008CE093E060E070E00E94F70C78940E94EE
:10104000D60A0E9428088AEB92E00E948208F7CF15
:101050000F931F930AE413E0C8010E94020CC80119
:1010600082960E94020C1F910F910895FC017383D8
:1010700062830895FC01608308951F93CF93DF93EB
:10108000EC01162F8981662349F58823B1F1888107
:10109000882399F18C81882381F1CE010D960E94DD
:1010A000BE07882351F181E090E09E838D838CE020
:1010B00093E060E070E00E94E90D6B897C898D8986
:1010C0009E8928EE33E040E050E00E947D13AB01A2
:1010D000BC01CE0107960E94E7070FC0882359F490
:1010E0008881882341F04F8D58A169A17AA1CE0152
:1010F0000D960E94E7071E821D821983DF91CF9112
:101100001F9108950F931F93CF93DF93EC018C8170
:10111000882309F471C08D819E81892B09F46CC0EC
:101120008E01095F1F4FC8010E94BE07882309F482
:1011300078C08D819E818230910539F1833091058F
:1011400024F4019709F06DC007C083309105A9F11F
:10115000049709F066C047C082E090E09E838D83CB
:101160006F89788D898D9A8D28EE33E040E050E0CC
:101170000E947D13AB01BC01C8010E94E7076A8190
:101180007B81709561957F4F48C083E090E09E839E
:101190008D836B897C898D899E8928EE33E040E0C0
:1011A00050E00E947D13AB01BC01C8010E94E7071B
:1011B0008CE093E060E070E032C084E090E09E83D9
:1011C0008D836B8D7C8D8D8D9E8D28EE33E040E080
:1011D00050E00E947D13AB01BC01C8010E94E707EB
:1011E0006A817B811AC08CE093E060E070E00E942D
:1011F000E90D1E821D8215C08981882319F460E0E3
:1012000070E00BC088812A813B81882311F0B901ED
:1012100004C066277727621B730B8CE093E00E9463
:10122000E90DDF91CF911F910F9108950F931F93B7
:101230008C0181E0F801848384E090E065E070E057
:101240000E948D06A0E0B0E0F801838B948BA58B03
:10125000B68B86E090E064EF71E00E948D06A0E01E
:10126000B0E0F801878B908FA18FB28F88E090E07B
:101270006CE271E00E948D06A0E0B0E0F801838F7F
:10128000948FA58FB68F8AE090E06CE271E00E94A7
:101290008D06A0E0B0E0F801878F90A3A1A3B2A3D0
:1012A0001F910F9108950F931F938C0181E0F80116
:1012B000808311821382128216821582C8010796DA
:1012C0000E94B707C8010D960E94B707C8010E9487
:1012D00016091F910F9108958AEB92E00E9453091D
:1012E00008959C01F999FECF32BD21BDF89A80B5D1
:1012F00008959C01F999FECF1FBA32BD21BD60BD92
:101300000FB6F894FA9AF99A0FBE08958DED92E00F
:101310000E94B70708957F928F929F92AF92BF92DB
:10132000CF92DF92EF92FF920F931F93DF93CF93B1
:10133000CDB7DEB760970FB6F894DEBF0FBECDBF56
:101340008C016B01FC018081882309F41AC1702E85
:10135000812EC80161E00E94BE128A3009F4C6C025
:101360008B3098F4823089F1833030F4882311F186
:10137000813009F006C126C0843009F49FC0843052
:1013800058F1883009F0FDC0A4C0893169F18A3173
:1013900038F48C3009F4C4C0863109F0F2C0CDC0F5
:1013A0008E3109F4D5C08F3109F4DFC08A3109F0DC
:1013B000E8C042C0C60161E00E942B13C60169EC7F
:1013C00070E0D0C08093E302D9C0C60161E00E9402
:1013D0002B138AE493E0C2C0C80162E00E94C312EA
:1013E000BC018AE493E0C8C0C80162E00E94C31255
:1013F0005C01C80164E00E94BE12813158F5E82EFC
:10140000FF248E010F5F1F4FC801B501A70121E71F
:1014100039E00E944006C60161E00E942B13E00EF5
:10142000F11E06C0C601F80161918F010E942B13C5
:101430000E151F05B9F712C0C80162E00E94C31261
:10144000A82E992EC80164E00E94BE12B82EF0E1C9
:10145000F81730F4C60162E00E942B1381E092C0BD
:101460008E010F5F1F4FC8016A2D792D4B2D50E063
:1014700021E739E00E944006780115E00B2D0B5F53
:1014800009C0872D982D612F0E94BE12F70181930C
:101490007F011F5F1017A9F78A2D992DBE016F5F7D
:1014A0007F4F4B2D50E029E739E00E945C06C601D2
:1014B00061E00E942B13C6016B2DCECFC80162E004
:1014C0000E94BE12682F8AEB92E070E00E943608FC
:1014D00055C0C80162E00E94BE1260E0813009F48C
:1014E00061E08AEB92E00E943A0848C0C80162E0DD
:1014F0000E94BE12682F70E07695679561708AEB46
:1015000092E00E943A08C80162E00E94BE12682F71
:1015100070E0617070708AEB92E00E943D082EC00E
:10152000C80162E00E94BE12682F70E061707070A6
:101530008CE093E00E94E00C21C0C60161E00E94B3
:101540002B138AE493E00E94AC0B682FC60184CF72
:10155000C60161E00E942B138CE693E00E94FA0B17
:10156000BC01C6010E94471379CFC80162E00E9406
:10157000C312BC018CE693E00E94A80BC60161E097
:101580006BCF80E060960FB6F894DEBF0FBECDBF84
:10159000CF91DF911F910F91FF90EF90DF90CF904F
:1015A000BF90AF909F908F907F9008958091F103AE
:1015B0009091F203892B09F47DC08091F103909101
:1015C000F203049709F07CC075C01092E3020E94F8
:1015D00008088091CB039091CC03892B21F1809155
:1015E000CB039091CC030497F1F08091DD02882326
:1015F00049F48DED92E040E25EE460E070E00E942C
:10160000E70711C08DED92E00E94BE07882359F0D4
:1016100088EA93E00E94231284E08093CA0387EA59
:1016200093E00E9400108091CA03882341F088EA69
:1016300093E00E94311287EA93E00E9400108091AB
:10164000CB039091CC030497D9F58DED92E00E94E5
:10165000BB078EEC93E00E94DD1288EA93E06EEC0B
:1016600073E00E94660B8823E1F488EA93E060E06F
:101670000E94BE128823A9F488EA93E06EEC73E01E
:101680000E94660B882369F488EA93E06EEC73E0AD
:101690000E948B09882329F48EEC93E065E00E9478
:1016A0002B1388EA93E00E94311287EA93E00E94AC
:1016B0009B1008958091E302882309F48ACF85CF97
:1016C000089584EE92E00E94D5120895CF92DF92A1
:1016D000EF92FF920F931F93CF93DF938C017B01C7
:1016E000FC018081882351F16801C80160E00E94FB
:1016F000BE12982F8077803709F59037B1F4C70173
:101700000E94DD12C1E0D0E009C0C6016C2F0E942A
:10171000BE12682FC7010E942B132196F801808109
:1017200090E0C817D9078CF307C0913739F092378A
:1017300029F080E0933719F481E001C080E0DF9167
:10174000CF911F910F91FF90EF90DF90CF90089570
:10175000FC01758F648F08959F92AF92BF92CF92D4
:10176000DF92EF92FF920F931F938C01FC01628531
:101770007385882777FD8095982F0E9490035B01E1
:101780006C01F801648D758D882777FD8095982F01
:101790000E9490037B018C0123E333E343E75FE383
:1017A0000E9436029B01AC01C601B5010E943003C4
:1017B000181614F0992413C09924C801B7012DEC10
:1017C0003CEC4CE85FE30E9436029B01AC01C60191
:1017D000B5010E946003882314F499249394892D01
:1017E0001F910F91FF90EF90DF90CF90BF90AF903F
:1017F0009F900895FC010190F081E02D22813381BA
:10180000C90108950F931F93CF93DF93EC018C01CF
:101810000C5F1F4FC8010E94BE07882391F1E88129
:10182000F981A081B1812D913C91CF01F9010995F8
:10183000882339F1C8014CE350E060E070E00E9479
:10184000E707E881F981228133812A873B87CE012E
:101850000C96B9010E94A511BC0197FF03C060E07E
:1018600070E006C08F3F910519F014F06FEF70E043
:10187000EA81FB81A081B1812D913C91CF01F901D9
:101880000995DF91CF911F910F910895EF92FF92EB
:101890000F931F938C01FC017183608353834283F8
:1018A00084E0E82EF12CE00EF11EC7010E94B7077C
:1018B000F80113861286168E178E10A211A2C80187
:1018C0000C960E949F1120E030E040EA50E4F801BD
:1018D00024873587468757878DEC9CECACECBDE3BD
:1018E000808B918BA28BB38B248B358B468B578B44
:1018F000158E148EC7014CE350E060E070E00E944A
:10190000E7071F910F91FF90EF90089597B1809591
:10191000982397B998B1982398B9EAE7F0E08081C5
:101920008F6880830895982FF89480917A0086FFBD
:1019300003C0789480E0089570930B0360930A03CA
:101940009F70906490937C0080917A008064809373
:101950007A00789481E008951F920F920FB60F924B
:1019600011242F933F934F938F939F93EF93FF9364
:101970002091780040917900E0910A03F0910B03E7
:10198000942F80E030E0822B932B91838083FF9112
:10199000EF919F918F914F913F912F910F900FBE9B
:1019A0000F901F901895FC018FB7F894EE57FF4FDA
:1019B00020813181428153818FBFB901CA010895CD
:1019C000E091A003F091A103308181E090E00090CC
:1019D000A60302C0880F991F0A94E2F7282F6623F6
:1019E00009F480E020952323822B80830895DF93E0
:1019F000CF93CDB7DEB727970FB6F894DEBF0FBEF3
:101A0000CDBFDE011196E4EFF3E086E001900D9288
:101A10008150E1F7E981FA819081672B11F080E232
:101A200001C080E09F7D892B808327960FB6F894B4
:101A3000DEBF0FBECDBFCF91DF9108951F920F92F1
:101A40000FB60F9211248F939F93AF93BF93809102
:101A50008E0390918F03A0919003B0919103805CCD
:101A60009F4FAF4FBF4F80938E0390938F03A093F0
:101A70009003B0939103BF91AF919F918F910F907D
:101A80000FBE0F901F901895613810F06FEF02C0D5
:101A9000611160E8862F81508E3FD0F083E0809303
:101AA000B000E0919903F0919A03308181E090E0D9
:101AB00000909F0302C0880F991F0A94E2F7282F15
:101AC0006F3F09F080E020952323822B80830895C7
:101AD0006093B30083E88093B0000895613810F0FC
:101AE0006FEF02C0611160E8862F81508E3FC8F011
:101AF00010927000E0919203F0919303308181E0A5
:101B000090E00090980302C0880F991F0A94E2F7B2
:101B1000282F6F3F09F080E020952323822B8083BC
:101B200008956093B40085E08093700008951F923B
:101B30000F920FB60F9211242F933F938F939F9381
:101B4000EF93FF938091B400882399F0E091920382
:101B5000F0919303308181E090E00090980302C0FF
:101B6000880F991F0A94E2F7282F20952323282B0A
:101B70002083FF91EF919F918F913F912F910F9033
:101B80000FBE0F901F9018951F920F920FB60F92D5
:101B900011242F938F939F93EF93FF93E0919203E0
:101BA000F0919303208181E090E00090980302C0BF
:101BB000880F991F0A94E2F7809582238083FF9112
:101BC000EF919F918F912F910F900FBE0F901F90CB
:101BD0001895CB010E945B0F08950F931F93DF931D
:101BE000CF93CDB7DEB727970FB6F894DEBF0FBE01
:101BF000CDBF8C010E94180F1092800089E0809365
:101C000081001092820080E094E09093890080939C
:101C1000880082E080936F00DE011196E4EFF3E02C
:101C200086E001900D928150E1F7ED81FE81808187
:101C300080628083E0919203F0919303208141E0E0
:101C400050E0CA010090980302C0880F991F0A94BF
:101C5000E2F7809582238083E0919603F0919703C9
:101C60003081CA010090980302C0880F991F0A941E
:101C7000E2F7282F20952323282B2083E091990336
:101C8000F0919A032081CA0100909F0302C0880F3F
:101C9000991F0A94E2F7809582238083E0919D0347
:101CA000F0919E033081CA0100909F0302C0880F0B
:101CB000991F0A94E2F7282F20952323282B2083AD
:101CC000E091A003F091A1032081CA010090A60336
:101CD00002C0880F991F0A94E2F7809582238083BF
:101CE000E091A403F091A50390810090A60302C0A7
:101CF000440F551F0A94E2F7842F80958923842B83
:101D0000808383E88093B00082E08093B1001092DA
:101D1000B3001092B40085E080937000C8010E9467
:101D2000F30FC8014D960E94F30FC801CE9660E0F4
:101D300070E00E94A80BC801805A9F4F60E070E0DD
:101D40000E94A80B87EA93E061E00E942F1088EAC6
:101D500093E00E94311227960FB6F894DEBF0FBEB3
:101D6000CDBFCF91DF911F910F910895EF92FF9218
:101D70000F931F938C0163E040E00E94B50F8DE14B
:101D8000E82EF12CE00EF11EC70166E041E00E9452
:101D9000B50F82E192E0F80193AF82AF8CE092E060
:101DA00095AF84AFA801465C5F4FC801CE96B801DD
:101DB0000E94460CC801805A9F4FB701045C1F4F18
:101DC000A8010E94460C0A5B1F4FF8011082118285
:101DD000128213821F910F91FF90EF9008958CE073
:101DE00093E00E94B60EA2E9B3E0EAEFF3E086E0EA
:101DF00001900D928150E1F781E080939803A9E969
:101E0000B3E0E4EFF3E086E001900D928150E1F75A
:101E100083E080939F03A0EAB3E0E4EFF3E086E081
:101E200001900D928150E1F784E08093A60308951C
:101E3000DF93CF93CDB7DEB765970FB6F894DEBFCB
:101E40000FBECDBF83E084BD85BD18BC10926E006F
:101E5000DE011196E0E0F4E086E001900D92815001
:101E6000E1F7ED81FE81808180628083DE0118963A
:101E7000E0E0F4E086E001900D928150E1F7E88522
:101E8000F98580818F7D8083DE011F96E0E0F4E09C
:101E900086E001900D928150E1F7EB89FC89808109
:101EA0008068808365960FB6F894DEBF0FBECDBF05
:101EB000CF91DF910895DF93CF93CDB7DEB76597CC
:101EC0000FB6F894DEBF0FBECDBFAC01009789F40A
:101ED00083E084BDDE011196E0E0F4E086E001904D
:101EE0000D928150E1F7E981FA8180818F7D8083B5
:101EF00010C0DE011896E0E0F4E086E001900D925B
:101F00008150E1F7E885F98580818062808383E2F2
:101F100084BD90E057FF04C091E0509541955F4F1C
:101F2000DE011F96E0E0F4E086E001900D92815022
:101F3000E1F7EF85F8892081992311F480E801C049
:101F400080E02F77822B8083CA014F3F510519F023
:101F500014F08FEF90E088BD65960FB6F894DEBF61
:101F60000FBECDBFCF91DF910895FC0188E192E0D3
:101F7000918380836483138E448F80E090E0108689
:101F80001782019632968A309105C9F708950F930A
:101F90001F93CF93DF93EC01F8940D811E81789409
:101FA000BC016B5F7F4F8C810E94930C8823B1F042
:101FB0008B8D90E0FC01EE0FFF1FEC0FFD1F1087D3
:101FC000078301966AE070E00E949C138B8FC80122
:101FD0006C8D0E94F6069B838A8381E0DF91CF910E
:101FE0001F910F91089521E030E0FC01048002C0B0
:101FF000220F331F0A94E2F7822F0E94860C089565
:10200000DF93CF93CDB7DEB72E970FB6F894DEBF30
:102010000FBECDBFDE011196EAEFF3E086E001903E
:102020000D928150E1F7E981FA8180818B7F808375
:10203000DE011896E0E0F4E086E001900D92815018
:10204000E1F7E885F98580818F7E80832E960FB633
:10205000F894DEBF0FBECDBFCF91DF910895FC0194
:1020600060838081882321F08091C100806C03C04F
:102070008091C1008F738093C10008951F920F92C9
:102080000FB60F9211242F933F934F935F936F934B
:102090007F938F939F93AF93BF93EF93FF93DF93C0
:1020A000CF93CDB7DEB72E97DEBFCDBF8091F103C2
:1020B0009091F203892B69F08091F1039091F203E2
:1020C000049739F08EEC93E00E94E5128093C600ED
:1020D0001CC0DE011196EAEFF3E086E001900D925C
:1020E0008150E1F7E981FA8180818B7F8083DE0175
:1020F0001896E0E0F4E086E001900D928150E1F75F
:10210000E885F98580818F7E80832E96DEBFCDBFE6
:10211000CF91DF91FF91EF91BF91AF919F918F91FF
:102120007F916F915F914F913F912F910F900FBED3
:102130000F901F901895DF93CF93CDB7DEB72E97F2
:102140000FB6F894DEBF0FBECDBFFC01808188239F
:1021500019F1CF0187960E94E512982FDE011196A2
:10216000EAEFF3E086E001900D928150E1F7E9811A
:10217000FA81808184608083DE011896E0E0F4E0DB
:1021800086E001900D928150E1F7E885F985808124
:10219000806180839093C6002E960FB6F894DEBFC0
:1021A0000FBECDBFCF91DF9108951F920F920FB652
:1021B0000F9211242F933F934F935F936F937F93CD
:1021C0008F939F93AF93BF93EF93FF936091C6005C
:1021D00088EA93E00E943812FF91EF91BF91AF918E
:1021E0009F918F917F916F915F914F913F912F912F
:1021F0000F900FBE0F901F9018950F931F93DF93B2
:10220000CF93CDB7DEB76C970FB6F894DEBF0FBE95
:10221000CDBF8C01FC011192CF010E942A12C8018E
:1022200087960E94D5121092C50089E18093C40060
:1022300080E48093C00088E18093C10086E08093B1
:10224000C200DE011196EAEFF3E001900D92815099
:10225000E1F7ED81FE81808184608083DE01189644
:10226000E0E0F4E086E001900D928150E1F7EC852A
:10227000FD85808180618083DE011F96EAEFF3E0B7
:1022800086E001900D928150E1F7EF85F889808119
:102290008B7F8083DE015696E0E0F4E086E00190DB
:1022A0000D928150E1F7EE89FF8980818F7E8083D6
:1022B0006C960FB6F894DEBF0FBECDBFCF91DF9105
:1022C0001F910F91089587EA93E00E94FD100895F1
:1022D00085E290E09093F5038093F40383E290E02D
:1022E0009093F7038093F60384E290E09093F903D0
:1022F0008093F80388E290E09093FB038093FA03C5
:1023000086E290E09093FD038093FC0387E290E0E7
:102310009093FF038093FE038BE290E0909301047F
:102320008093000489E290E0909303048093020478
:102330008AE290E090930504809304040895FC01E0
:10234000178616861586148608954F925F926F92AF
:102350007F928F929F92AF92BF92CF92DF92EF9235
:10236000FF920F931F93CF93DF93EC014888598816
:10237000461A570A8E859F85840D951D9F878E87E7
:102380008F3F910529F024F08FEF90E09F878E8793
:102390008E859F8581509F4F24F481E09FEF9F871A
:1023A0008E87B201882777FD8095982F0E94900331
:1023B000288139814A815B810E9436023B014C01B0
:1023C0006E857F85882777FD8095982F0E949003E2
:1023D0002C813D814E815F810E9436025B016C0140
:1023E0008C859D85B201681B790B882777FD8095C8
:1023F000982F0E949003288539854A855B850E9425
:1024000036027B018C015D864C86C401B301A601B6
:1024100095010E940902A80197010E9409020E94E9
:10242000EE03CB01DF91CF911F910F91FF90EF90C1
:10243000DF90CF90BF90AF909F908F907F906F90E4
:102440005F904F900895FC011182108212A214A295
:1024500013A20895FC011182108212A214A213A2E9
:102460000895FC011182108212A214A213A20895F1
:10247000DC0193968D919C919497892B91F4653D05
:1024800019F481E090E066C011961C9211971C929D
:1024900092961C92929794961C921E92939781E02A
:1024A00020C093968D919C9194970197E9F46032A6
:1024B00060F495966C93959795968C919597882353
:1024C00009F438C082E090E045C011961C92119743
:1024D0001C9292961C92929794961C921E9293979D
:1024E00082E092968C93089593968D919C91949707
:1024F000029719F58C918032B8F411968C9111974E
:10250000862728E09CE880FB86950EF489272A958B
:10251000D1F711968C9311978C91FD01E80FF11D65
:1025200062838C918F5F8C939C9195968C919597FB
:10253000981718F183E090E00DC093968D919C91CF
:1025400094970397D1F411968C911197861739F4CB
:1025500084E090E094969C938E93939708951196BF
:102560001C9211971C9292961C92929794961C9290
:102570001E92939783E092968C930895FC01E60F48
:10258000F11D82810895E62FF0E0DC01AE0FBF1F40
:1025900012962C913196E80FF91F4281942F80E01A
:1025A00030E0282B392BC9010895FC0111821082DB
:1025B00012A214A213A215A20895FC011182108286
:1025C00012A214A213A215A20895DC0193968D9174
:1025D0009C919497892B41F481E090E094969C9390
:1025E0008E93939725ED35C093968D919C919497FA
:1025F000019739F42C918C918823B9F082E090E016
:1026000024C093968D919C919497029789F4959606
:102610008C919597FD01E80FF11D22818F5F9596B2
:102620008C9395979C918917A0F083E090E00DC062
:1026300093968D919C919497039711F020E009C097
:1026400011962C91119784E090E094969C938E9330
:102650009397822F0895DC018C918032B8F4119603
:102660008C911197862728E09CE880FB86950EF4D4
:1026700089272A95D1F711968C9311978C91FD019A
:10268000E80FF11D62838C918F5F8C930895DC01BC
:102690008C918032B8F411968C911197862728E09E
:1026A0009CE880FB86950EF489272A95D1F7119630
:1026B0008C9311978C91FD01E80FF11D62838C9131
:1026C0008F5F8C938C918032B8F411968C91119716
:1026D000872728E09CE880FB86950EF489272A95B9
:1026E000D1F711968C9311978C91FD01E80FF11D94
:1026F00072838C918F5F8C930895629FD001739F3A
:10270000F001829FE00DF11D649FE00DF11D929F8D
:10271000F00D839FF00D749FF00D659FF00D9927CC
:10272000729FB00DE11DF91F639FB00DE11DF91FF0
:10273000BD01CF011124089597FB092E07260AD069
:1027400077FD04D00CD006D000201AF47095619566
:102750007F4F0895F6F7909581959F4F0895AA1B96
:10276000BB1B51E107C0AA1FBB1FA617B70710F07C
:10277000A61BB70B881F991F5A95A9F780959095AE
:10278000BC01CD0108952F923F924F925F926F92BC
:102790007F928F929F92AF92BF92CF92DF92EF92F1
:1027A000FF920F931F93CF93DF93CDB7DEB7CA1B72
:1027B000DB0B0FB6F894DEBF0FBECDBF09942A889D
:1027C000398848885F846E847D848C849B84AA8445
:1027D000B984C884DF80EE80FD800C811B81AA81D2
:1027E000B981CE0FD11D0FB6F894DEBF0FBECDBF9D
:1027F000ED010895EE0FFF1F0590F491E02D09946F
:04280000F894FFCF7A
:1028040000000000000000000001020203030303B3
:10281400040404040404040405050505050505056C
:10282400050505050505050506060606060606064C
:102834000606060606060606060606060606060634
:10284400060606060606060607070707070707071C
:102854000707070707070707070707070707070704
:1028640007070707070707070707070707070707F4
:1028740007070707070707070707070707070707E4
:1028840007070707070707070808080808080808CC
:1028940008080808080808080808080808080808B4
:1028A40008080808080808080808080808080808A4
:1028B4000808080808080808080808080808080894
:1028C4000808080808080808080808080808080884
:1028D4000808080808080808080808080808080874
:1028E4000808080808080808080808080808080864
:1028F4000808080808080808080808080808080854
:102904000808080808080808000000006E0D000008
:0A2914000000440D00000000C70F92
:00000001FF
