:100000000C9485000C94AD000C94AD000C94AD00E4
:100010000C94AD000C94AD000C94AD000C94AD00AC
:100020000C94890F0C944E0F0C94010F0C94270F15
:100030000C94320F0C94AD000C94AD000C94AD00F8
:100040000C9459110C94AD000C945E130C94AD00FB
:100050000C940B130C94930D0C94AD000C94AD0008
:100060000C94AD000C94AD00FD081D092109280970
:100070009809320A320A320AA309320AB009320A4E
:10008000CA09D709060A320A320A320A320A320A81
:10009000320A320AE3099109320A30095609320A52
:1000A000320A320AEE09F7091D0A240A050901007D
:1000B00049033600FF006B00D100A000B800D50056
:1000C000A6000A0199003F018E0074018400A90175
:1000D0007C00DE01740013026C00480265007D02A2
:1000E0005D00B2025600E7024E001C0346005103B9
:1000F0003D0086033200BB032200F0030300CA0860
:100100003A0CED101C12B113B61311241FBECFEF21
:10011000D4E0DEBFCDBF12E0A0E0B1E0E2EEFDE250
:1001200002C005900D92A832B107D9F713E0A8E2FA
:10013000B2E001C01D92A037B107E1F710E0CAE0BC
:10014000D1E004C02297FE010E94BA16CE3FD1072B
:10015000C9F70E94E50A0C94EF160C940000A0E089
:10016000B0E0E5EBF0E00C948116DC012B01FA0124
:100170009C91923008F439C1EB018881823008F4F7
:1001800033C1943069F4843009F02FC111969C91E9
:1001900011978981981709F428C1A9E0B1E025C118
:1001A000843009F421C18230A9F4923009F01DC1D4
:1001B0009A01AD0188E0EA010990AE01E9010992D6
:1001C0009E018150C1F7E201898111969C9189239A
:1001D000818308C1923009F407C112962D903C909A
:1001E0001397EB018A819B811496AD90BD90CD90C1
:1001F000DC901797EC80FD800E811F819101281BF8
:10020000390BB90137FF04C066277727621B730BD0
:10021000603271050CF061C0121613066CF53701DF
:100220004801062E04C096948794779467940A94A4
:10023000D2F721E030E040E050E004C0220F331F4D
:10024000441F551F6A95D2F721503040404050401E
:100250002E213F2140235123211531054105510510
:1002600021F021E030E040E050E079018A01E62809
:10027000F728082919293CC0232BD1F1260E371E57
:1002800035014601062E04C09694879477946794AE
:100290000A94D2F721E030E040E050E004C0220FA1
:1002A000331F441F551F6A95D2F7215030404040FC
:1002B00050402A213B214C215D212115310541056A
:1002C000510521F021E030E040E050E059016A01A1
:1002D000A628B728C828D9280BC0821593052CF06A
:1002E0001C01AA24BB24650103C0EE24FF2487015E
:1002F00011969C91D20111968C91981709F445C0E2
:10030000992339F0A80197012A193B094C095D0985
:1003100006C0A60195012E193F09400B510B57FD50
:1003200008C0118233822282248335834683578317
:100330001DC081E081833382228288279927DC01D6
:10034000821B930BA40BB50B84839583A683B78381
:100350000DC0220F331F441F551F2483358346834E
:10036000578382819381019793838283248135818E
:1003700046815781DA01C9010197A109B1098F5F4F
:100380009F4FAF4FBF4328F30BC09183338222822C
:10039000EA0CFB1C0C1D1D1DE482F58206831783ED
:1003A00083E08083248135814681578157FF1AC0BD
:1003B000C901AA2797FDA095BA2F81709070A070EF
:1003C000B0705695479537952795822B932BA42B84
:1003D000B52B84839583A683B7838281938101960D
:1003E00093838283DF0101C0D201CD01CDB7DEB797
:1003F000E2E10C949D16A0E2B0E0E1E0F2E00C94A2
:100400008D1669837A838B839C832D833E834F83F0
:100410005887E9E0EE2EF12CEC0EFD1ECE01019680
:10042000B7010E94D2058E010F5E1F4FCE010596C7
:10043000B8010E94D2058A8991E089278A8BC70179
:10044000B801AE01475E5F4F0E94AF000E94FD04FD
:10045000A096E6E00C94A916A0E2B0E0E2E3F2E098
:100460000C948D1669837A838B839C832D833E83C2
:100470004F835887F9E0EF2EF12CEC0EFD1ECE01D4
:100480000196B7010E94D2058E010F5E1F4FCE016B
:100490000596B8010E94D205C701B801AE01475EBA
:1004A0005F4F0E94AF000E94FD04A096E6E00C940E
:1004B000A916A0E2B0E0EFE5F2E00C9481166983A2
:1004C0007A838B839C832D833E834F835887CE0111
:1004D0000196BE01675F7F4F0E94D205CE0105964F
:1004E000BE016F5E7F4F0E94D2059985923088F0E1
:1004F00089898230C8F0943019F4823051F404C0F4
:10050000843029F4923081F489E091E0C6C09230C1
:1005100049F420E09A858A89981321E02A87CE0140
:100520000996BBC0823049F420E09A858A899813E5
:1005300021E02A8BCE014196B0C02D843E844F84A9
:1005400058886D887E888F88988CEE24FF248701D8
:10055000AA24BB24650140E050E060E070E0E0E0E8
:10056000F0E0C10181709070892BE9F0E60CF71C76
:10057000081D191D9A01AB012A0D3B1D4C1D5D1D67
:1005800080E090E0A0E0B0E0E614F704080519056B
:1005900020F481E090E0A0E0B0E0BA01A901480FAA
:1005A000591F6A1F7B1FAA0CBB1CCC1CDD1C97FEAD
:1005B00008C081E090E0A0E0B0E0A82AB92ACA2AE9
:1005C000DB2A3196E032F10549F0660C771C881C75
:1005D000991C5694479437942794C3CFFA85EA8997
:1005E0002B893C898B859C85280F391F2E5F3F4FB7
:1005F00017C0CA0181709070892B61F0169507951C
:10060000F794E79480E090E0A0E0B0E8E82AF92AC7
:100610000A2B1B2B76956795579547952F5F3F4F74
:1006200077FDE7CF0CC0440F551F661F771F17FDDE
:100630004160EE0CFF1C001F111F21503040403064
:1006400090E0590790E0690790E4790760F32B8FF9
:100650003C8FDB01CA018F779070A070B07080343E
:100660009105A105B10561F447FD0AC0E114F1044B
:100670000105110529F0405C5F4F6F4F7F4F4078B7
:100680001A8EFE1711F081E08A8F4D8F5E8F6F8F6B
:1006900078A383E0898FCE0149960E94FD04A0963D
:1006A000E2E10C949D16A8E1B0E0E9E5F3E00C94DA
:1006B0008D1669837A838B839C832D833E834F833E
:1006C000588789E0E82EF12CEC0EFD1ECE01019634
:1006D000B7010E94D2058E010F5E1F4FCE01059615
:1006E000B8010E94D2058985823040F08989823024
:1006F00028F0C701B8010E944A0601C081E068964F
:10070000E6E00C94A916A8E0B0E0E9E8F3E00C9468
:100710008A169B01AC0183E08983DA01C90188272D
:10072000B7FD83959927AA27BB27B82E2115310538
:100730004105510519F482E089833AC08823A9F064
:10074000203080E0380780E0480780E8580729F427
:1007500060E070E080E09FEC30C0EE24FF24870171
:10076000E21AF30A040B150B02C079018A018EE12B
:10077000C82ED12CDC82CB82ED82FE820F831887BB
:10078000C801B7010E94AE0401971816190684F437
:10079000082E04C0EE0CFF1C001F111F0A94D2F794
:1007A000ED82FE820F831887C81AD90ADC82CB82B9
:1007B000BA82CE0101960E94FD042896E9E00C94CD
:1007C000A616ACE0B0E0E7EEF3E00C949116698376
:1007D0007A838B839C83CE010196BE016B5F7F4F32
:1007E0000E94D2058D81823061F1823050F18430D7
:1007F00021F48E81882351F12EC02F81388537FD59
:1008000020C06E812F3131051CF06623F9F023C022
:100810008EE190E0821B930B29853A854B855C85A0
:1008200004C056954795379527958A95D2F7662344
:10083000B1F050954095309521953F4F4F4F5F4F08
:100840000EC020E030E040E050E009C02FEF3FEF65
:100850004FEF5FE704C020E030E040E050E8B9012E
:10086000CA012C96E2E00C94AD16A8E0B0E0EBE3F0
:10087000F4E00C9489167B018C01611571058105EA
:10088000910519F482E0898360C083E089838EE159
:10089000C82ED12CDC82CB82ED82FE820F8318879A
:1008A000C801B7010E94AE04FC013197F7FF3BC0BD
:1008B000222733272E1B3F0B57016801022E04C04D
:1008C000D694C794B794A7940A94D2F740E050E026
:1008D00060E070E081E090E0A0E0B0E004C0880F4C
:1008E000991FAA1FBB1F2A95D2F70197A109B10929
:1008F0008E219F21A023B1230097A105B10521F0EE
:1009000041E050E060E070E04A295B296C297D29D4
:100910004D835E836F8378878EE190E08E1B9F0B03
:100920009C838B8312C0309781F00E2E04C0EE0C96
:10093000FF1C001F111F0A94D2F7ED82FE820F8365
:100940001887CE1ADF0ADC82CB821A82CE0101968A
:100950000E94FD042896EAE00C94A516EF92FF92FF
:100960000F931F937B018C0180E0E81680E0F8066E
:1009700081E0080780E0180788F48FEFE816F1049B
:100980000105110531F028F088E090E0A0E0B0E02A
:1009900017C080E090E0A0E0B0E012C080E0E81670
:1009A00080E0F80680E0080781E0180728F088E179
:1009B00090E0A0E0B0E004C080E190E0A0E0B0E012
:1009C00020E230E040E050E0281B390B4A0B5B0B83
:1009D00004C016950795F794E7948A95D2F7F70126
:1009E000EF5EFE4F8081281B310941095109C90181
:1009F0001F910F91FF90EF900895DF92EF92FF9279
:100A00000F931F93FC01E480F58006811781D1804C
:100A10008081823048F480E090E0A0E1B0E0E82AF4
:100A2000F92A0A2B1B2BA5C0843009F49FC0823001
:100A300021F4EE24FF24870105C0E114F10401052F
:100A4000110519F4E0E0F0E096C0628173819FEF38
:100A5000623879070CF05BC022E83FEF261B370BAA
:100A60002A3131052CF020E030E040E050E02AC08F
:100A7000B801A701022E04C0769567955795479552
:100A80000A94D2F781E090E0A0E0B0E004C0880FC3
:100A9000991FAA1FBB1F2A95D2F70197A109B10977
:100AA0008E219F21A023B1230097A105B10521F03C
:100AB00081E090E0A0E0B0E09A01AB01282B392B57
:100AC0004A2B5B2BDA01C9018F779070A070B07050
:100AD00080349105A105B10539F427FF09C0205CD8
:100AE0003F4F4F4F5F4F04C0215C3F4F4F4F5F4F11
:100AF000E0E0F0E02030A0E03A07A0E04A07A0E400
:100B00005A0710F0E1E0F0E079018A0127C060386F
:100B1000710564F5FB01E158FF4FD801C7018F77DC
:100B20009070A070B07080349105A105B10539F4C2
:100B3000E7FE0DC080E490E0A0E0B0E004C08FE3E9
:100B400090E0A0E0B0E0E80EF91E0A1F1B1F17FF9F
:100B500005C016950795F794E794319687E01695AA
:100B60000795F794E7948A95D1F705C0EE24FF2402
:100B70008701EFEFF0E06E2F679566276795902F5E
:100B80009F77D794DD24D7948E2F8695492F462BB7
:100B9000582F5D29B701CA011F910F91FF90EF9067
:100BA000DF900895FC01DB01408151812281622F99
:100BB0006F7770E0221F2227221F9381892F880FD1
:100BC000822B282F30E0991F9927991F11969C930B
:100BD000119721153105A9F54115510561057105DB
:100BE00011F482E037C082E89FEF13969C938E93B6
:100BF00012979A01AB0167E0220F331F441F551F64
:100C00006A95D1F783E08C930DC0220F331F441FE8
:100C1000551F12968D919C911397019713969C9353
:100C20008E931297203080E0380780E0480780E4F8
:100C3000580758F314962D933D934D935C93179753
:100C400008952F3F310579F441155105610571056E
:100C500019F484E08C93089564FF03C081E08C93C1
:100C600012C01C9210C02F57304013963C932E9305
:100C7000129783E08C9387E0440F551F661F771F00
:100C80008A95D1F7706414964D935D936D937C9320
:100C9000179708951F93DC01FB019C91923008F493
:100CA00047C08081823008F443C0943051F41196DB
:100CB0001C91843099F58181682F70E0611B710966
:100CC0003FC0843021F0923031F48230B9F181811B
:100CD000882389F12DC011961C9111978230F1F073
:100CE00081811817D9F412962D913C911397828126
:100CF00093818217930794F028173907BCF0149654
:100D00008D919D910D90BC91A02D248135814681BE
:100D10005781281739074A075B0718F4112341F058
:100D20000AC082179307A407B50740F4112319F0EE
:100D300061E070E005C06FEF7FEF02C060E070E03F
:100D4000CB011F910895CF92DF92EF92FF920F9304
:100D50001F93CF93DF938C017B01FC01808188235B
:100D600051F16801C80160E00E947C15982F8077DE
:100D7000803709F59037B1F4C7010E949B15C1E097
:100D8000D0E009C0C6016C2F0E947C15682FC701F6
:100D90000E94E9152196F801808190E0C817D907D3
:100DA0008CF307C0913739F0923729F080E0933700
:100DB00019F481E001C080E0DF91CF911F910F9184
:100DC000FF90EF90DF90CF900895EF92FF920F93F6
:100DD0001F93DF93CF9300D0CDB7DEB79C01F42EE5
:100DE000052F162FE72ECE010196B90142E050E003
:100DF0000E94C71669816F3F19F48A818F3FE9F01D
:100E000070E080E090E00E9435047B018C016A81F3
:100E100070E080E090E00E94350420E030E040E89F
:100E20005BE30E9459029B01AC01C801B7010E941B
:100E30002C02F62E072F182FE92E2F2D302F412FA1
:100E40005E2DB901CA010F900F90CF91DF911F91D4
:100E50000F91FF90EF9008950F931F93DF93CF931F
:100E600000D0CDB7DEB79C018B01CE010196B90150
:100E700042E050E00E94C71689819A818F5F9F4FA0
:100E800011F41A83098389819A810F900F90CF9171
:100E9000DF911F910F910895DF93CF9300D0CDB7CD
:100EA000DEB7CE01019660E070E042E050E00E94C3
:100EB000C7163A8184E6389FC00111242981820F28
:100EC000911D8D3C9105A1F032503D3F28F082E00C
:100ED00090E06BE10E94E11685E0898382E08A83DD
:100EE000CE01019660E070E042E050E00E94D7162B
:100EF0000F900F90CF91DF910895FC0176AF65AF11
:100F00000895FC01448D558D25AD36ADC90102977C
:100F10004817590714F480E0089580E02E5F3F4F92
:100F2000241735070CF081E00895FC0185AD96ADDE
:100F30000895FC010190F081E02D22813381C901E7
:100F400008950F931F93CF93DF93EC018C01025F01
:100F50001F4FC8010E94270D882391F0E881F98175
:100F6000A081B1812D913C91CF01F9010995882390
:100F7000B1F1488D598D6A8D7B8DC8010E944C0D51
:100F80008E010C5F1F4FC8010E94270D882339F185
:100F9000C80140E251EA67E070E00E944C0DE88130
:100FA000F981228133812C8F3D8FCE018096B9014A
:100FB0000E94F513BC0197FF03C060E070E006C01B
:100FC0008F3F910519F014F06FEF70E0EA81FB811B
:100FD000A081B1812D913C91CF01F9010995DF915B
:100FE000CF911F910F9108956F927F928F929F9250
:100FF000AF92BF92CF92DF92EF92FF920F931F9327
:10100000CF93DF93EC011D8E1C8E8E8D9F8D40E063
:1010100050E060EE70E40E94E5063B014C018E8DCD
:101020009F8D029646E656E666EA7EE30E94E50656
:101030005B016C018E8D9F8D049640E050E060E175
:1010400072E40E94E5067B018C01CE0180960E942D
:10105000C013C401B30120E030E040E050E00E9442
:101060005303882391F5C601B50120E030E040E04C
:1010700050E00E945303882341F5C801B70120E0E6
:1010800030E040E050E00E9453038823F1F40F2E3B
:10109000F0E06F2EF0E07F2EF0EE8F2EF0E49F2E2A
:1010A000F02D0F2EF6E6AF2EF6E6BF2EF6EACF2E87
:1010B000FEE3DF2EF02D0F2EF0E0EF2EF0E0FF2EFE
:1010C000F0E10F2FF2E41F2FF02D68A279A28AA27F
:1010D0009BA2ACA2BDA2CEA2DFA2E8A6F9A60AA757
:1010E0001BA71EAE1DAECE01049640E251EA67E09A
:1010F00070E00E944C0D488D598D6A8D7B8DCE011C
:101100000E960E944C0DDF91CF911F910F91FF9091
:10111000EF90DF90CF90BF90AF909F908F907F9097
:101120006F900895AF92BF92CF92DF92EF92FF92AD
:101130000F931F93CF93DF93EC01580169017983DB
:1011400068835B834A8304960E94200DCE010E962D
:101150000E94200DA88EB98ECA8EDB8EFF8EEE8E79
:10116000CE0180960E94C0138E8D9F8D892B21F415
:101170008CE090E09F8F8E8FCE010E94F407DF916C
:10118000CF911F910F91FF90EF90DF90CF90BF9084
:10119000AF90089588E292E00E94200D08957F921A
:1011A0008F929F92AF92BF92CF92DF92EF92FF9277
:1011B0000F931F93DF93CF93CDB7DEB760970FB632
:1011C000F894DEBF0FBECDBFFC016B018081882388
:1011D00009F448C17F01CF0161E00E947C15E82F2E
:1011E000F0E0E332F10508F03DC1EC5CFF4FEE0F9B
:1011F000FF1F0590F491E02D0994C60161E00E9463
:10120000E915C6016DEC70E029C1C60161E00E94DC
:10121000E9150FC00E2D10E000501F4FC601F80158
:1012200060810E94E915F8018081882309F418C1C2
:10123000E394FEE1FE1570F713C181E08093320262
:1012400074C0C60161E00E94E91589E892E0CCC053
:10125000C70162E00E948115BC0189E892E0D3C019
:10126000C70162E00E9481155C01C70164E00E9431
:101270007C15813148F5E82EFF248E010F5F1F4F4A
:10128000C801B501A7010E94C716C60161E00E940E
:10129000E915E00EF11E06C0C601F80161918F014B
:1012A0000E94E9150E151F05B9F7DAC0C70162E003
:1012B0000E948115882E792EC70164E00E947C155A
:1012C000982EF0E1F81728F4C60162E00E94E915B3
:1012D000C7C08E010F5F1F4FC801682D772D492DA4
:1012E00050E00E94C716580115E0092D0B5F08C099
:1012F000C701612F0E947C15F50181935F011F5F7B
:101300001017B1F7CE010196682D772D492D50E0C9
:101310000E94D716C60161E00E94E915C601692D39
:10132000D5CF83E392E00E94F40AC60161E0CECFFC
:10133000C70162E00E947C15682F83E392E070E0B1
:101340000E94F00AF2CFC70162E00E947C1560E0C3
:10135000813009F461E083E392E00E94FA0AE5CF6C
:10136000C70162E00E947C15682F70E07695679552
:10137000617083E392E00E94FA0AC70162E00E9472
:101380007C15682F70E06170707083E392E00E94BA
:10139000FD0ACBCFC70162E00E947C15682F70E088
:1013A0006170707083E692E00E946F0EBECFC7013D
:1013B00062E00E947C15682F70E06170707083E6B7
:1013C00092E00E94790EC60161E00E94E91589E869
:1013D00092E00E948107682FC60178CFC60161E0C4
:1013E0000E94E91588EC92E00E94990735C083E6D7
:1013F00092E061E00E94FC0EC70162E00E9481154C
:10140000BC0188EC92E00E947D078FCFC70162E0AB
:101410000E947C15482F8F3F31F483E692E060E014
:101420004FEF5FEF07C0853B08F044EB83E692E0A7
:1014300060E050E00E94D60D78CFC60161E00E94C6
:10144000E91589E892E006C0C60161E00E94E9154D
:1014500088EC92E00E949507BC01C6010E94051627
:1014600081E001C080E060960FB6F894DEBF0FBE49
:10147000CDBFCF91DF911F910F91FF90EF90DF9043
:10148000CF90BF90AF909F908F907F900895809164
:101490006A0390916B03892B09F481C080916A03E0
:1014A00090916B03049709F080C079C010923202CA
:1014B0000E94D60A8091440390914503892B21F123
:1014C00080914403909145030497F1F080912802A4
:1014D000882349F488E292E040E25EE460E070E054
:1014E0000E944C0D11C088E292E00E94270D8823D3
:1014F00059F081E293E00E94E11484E08093430379
:1015000080E293E00E94F41280914303882361F00B
:1015100088E292E00E94240D81E293E00E94EF14A1
:1015200080E293E00E94F41280914403909145037D
:101530000497D9F587E493E00E949B1581E293E03C
:1015400067E473E00E94A3068823E1F481E293E05C
:1015500060E00E947C158823A9F481E293E067E4AF
:1015600073E00E94A306882369F481E293E067E4B4
:1015700073E00E94CF08882329F487E493E065E0B4
:101580000E94E91588E292E00E94240D81E293E036
:101590000E94EF1480E293E00E944213089580912C
:1015A0003202882309F486CF81CF0895F8940E94EF
:1015B000620C0E944C0783E692E00E94C40F83E312
:1015C00092E00E941D0C789408950E94D60A0E9411
:1015D000470A0E943F0C83E392E00E944A0BF7CF38
:1015E000FC01738362830895FC01848191E0892763
:1015F00084830895FC01608308951F93CF93DF9344
:10160000EC01162F8981662349F58823F1F1888141
:101610008823D9F18D818823C1F1CE0142960E94A1
:10162000270D882391F181E090E09F838E8383E6EC
:1016300092E060E070E00E94C00F6C8D7D8D8E8D19
:101640009F8D28EE33E040E050E00E943B16AB0156
:10165000BC01CE0108960E944C0D17C0882399F456
:101660008881882381F068A579A58AA59BA528EEA5
:1016700033E040E050E00E943B16AB01BC01CE01DC
:1016800042960E944C0D1F821E821983DF91CF91DA
:101690001F9108950F931F93CF93DF93EC018D81DA
:1016A000882309F471C08E819F81892B09F46CC055
:1016B0008E01085F1F4FC8010E94270D882309F47F
:1016C0007BC08E819F818230910539F183309105F5
:1016D00024F4019709F070C007C083309105A9F187
:1016E000049709F069C047C082E090E09F838E8331
:1016F00068A179A18AA19BA128EE33E040E050E0E7
:101700000E943B16AB01BC01C8010E944C0D6A81CE
:101710007B81709561957F4F4BC083E090E09F8304
:101720008E836C8D7D8D8E8D9F8D28EE33E040E015
:1017300050E00E943B16AB01BC01C8010E944C0D59
:1017400083E692E060E070E035C084E090E09F8343
:101750008E836CA17DA18EA19FA128EE33E040E095
:1017600050E00E943B16AB01BC01C8010E944C0D29
:101770006A817B811DC083E692E060E070E00E9498
:10178000C00F1F821E8218C08C81882379F4898142
:10179000882361F088812A813B81882311F0B90177
:1017A00007C066277727621B730B02C060E070E0FA
:1017B00083E692E00E94C00FDF91CF911F910F91BD
:1017C00008950F931F938C01FC01158284E090E033
:1017D00065E070E00E942C07A0E0B0E0F801848F83
:1017E000958FA68FB78F86E090E064EF71E00E943E
:1017F0002C07A0E0B0E0F80180A391A3A2A3B3A3BB
:1018000088E090E06CE271E00E942C07A0E0B0E07C
:10181000F80184A395A3A6A3B7A38AE090E06CE2A5
:1018200071E00E942C07A0E0B0E0F80180A791A72A
:10183000A2A7B3A71F910F910895FC0181E08083B7
:10184000148211821382128217821682CF010E94A3
:10185000E10B08950F931F938C0108960E94200DB1
:10186000C80142960E94200DC8010E941D0C1F91C4
:101870000F91089583E392E00E942A0C089589E86D
:1018800092E00E94A10780910703882321F088EC51
:1018900092E00E94A1070895DF93CF930F92CDB7F6
:1018A000DEB7BC01CE01019641E050E00E94C716B0
:1018B00090E089818F3F09F091E0892F0F90CF91BF
:1018C000DF91089580E091E00E944C0C80935F02CC
:1018D00080E891E00E944C0C809360020895DF93B1
:1018E000CF9300D000D0CDB7DEB7982FE62FFF27DB
:1018F000E7FDF095E15AFD4F80818823C1F0662312
:1019000019F060E871E002C060E071E0892F99276A
:1019100087FD9095880F991F880F991F680F791F71
:10192000CE01019644E050E00E94C71610C0692F16
:10193000772767FD7095660F771F660F771F6255D3
:101940007F4FCE01019644E050E00E94BE166981AF
:101950007A818B819C810F900F900F900F90CF9187
:10196000DF910895AF92BF92CF92DF92EF92FF92F4
:101970000F931F93CF93DF937C01A62E00E033E1FA
:10198000B32E19E0812F6A2D0E946F0C412F55272D
:1019900047FD5095E616F70664F4802F992787FDDA
:1019A0009095840F951F62E070E00E945A16B12E48
:1019B0000BC08B2D992787FD9095840F951F62E0B2
:1019C00070E00E945A16012F162F0617DCF2802FA6
:1019D0006A2D0E946F0C6C01EB018B2D6A2D0E9409
:1019E0006F0C9C01002319F4EC16FD06DCF083E17A
:1019F000B81619F46E157F05ACF0EC1AFD0A2C1917
:101A00003D096C1B7D0BE29EC001E39E900DF29E92
:101A1000900D11240E945A166C0D7D1D6F3F7105AB
:101A200019F014F06FEF70E0CB01DF91CF911F91AF
:101A30000F91FF90EF90DF90CF90BF90AF900895FF
:101A4000FC01108211820895FC0110820895CF9349
:101A5000DF93EC0188818823D9F089818823C1F440
:101A600083E692E00E94DB0D2A813B814C815D81FF
:101A7000621B730B840B950B2E813F814885598522
:101A8000621773078407950718F0188281E089832D
:101A90008981DF91CF910895CF92DF92EF92FF92EB
:101AA0000F931F938C016A017B0181E0F801808311
:101AB000118283E692E00E94DB0DF801628373835A
:101AC00084839583C682D782E086F1861F910F9129
:101AD000FF90EF90DF90CF90089597B18095982375
:101AE00097B998B1982398B9EAE7F0E080818F68B8
:101AF00080830895282F80917A0086FF02C080E0BD
:101B000008959FB7F89470936202609361022F70FA
:101B1000206420937C0080917A00806480937A0016
:101B20009FBF81E008951F920F920FB60F9211246C
:101B30002F933F934F938F939F93EF93FF93209116
:101B4000780040917900E0916102F0916202942F57
:101B500080E030E0822B932B91838083FF91EF9183
:101B60009F918F914F913F912F910F900FBE0F90AA
:101B70001F901895FC018081A82FB0E012964C911F
:101B8000129781818F7021E030E002C0220F331F55
:101B90008A95E2F7922F662311F0822F01C080E030
:101BA00090959423892B12968C930895509310034B
:101BB00040930F030895FC018FB7F894EB55FF4F46
:101BC00020813181428153818FBFB901CA010895BB
:101BD0001F93DF93CF93CDB7DEB72A970FB6F89454
:101BE000DEBF0FBECDBF262F009769F51FB7F89453
:101BF000442379F01092700080916E0389838A816A
:101C0000807F81608A8360E0211161E0CE010196CE
:101C100044C0862F81508E3F80F0109270008091DA
:101C20006E038B838C81807F81608C8360E02F3F8B
:101C300009F461E0CE01039630C06093B40085E002
:101C40008093700032C0019791F51FB7F894442338
:101C500081F083E08093B00080916D038D838E814D
:101C6000807F83608E8360E0211161E0CE01059664
:101C700014C0862F81508E3F98F083E08093B0008F
:101C800080916D038F838885807F8360888760E083
:101C90002F3F09F461E0CE0107960E94BA0D05C0FE
:101CA0006093B30083E88093B0001FBF0EC08091A3
:101CB0006D0389878A85807F84608A8760E021112F
:101CC00061E0CE0109960E94BA0D2A960FB6F894EB
:101CD000DEBF0FBECDBFCF91DF911F9108958091E0
:101CE00013029091140261116FEF41E00E94E80D20
:101CF0000895FC01EC55FF4F108261116FEF80E0F9
:101D000090E041E00E94E80D0895DF93CF9300D06A
:101D1000CDB7DEB780916D0389838A81807F85602E
:101D20008A8320E0672B09F021E0CE010196622F23
:101D30000E94BA0D0F900F90CF91DF910895FC0192
:101D4000EB55FF4F80819181A281B3818C53964FD7
:101D5000AF4FBF4F80839183A283B38383E692E02A
:101D600060E070E00E94850E809113038823C1F526
:101D700080910F03909110038F5F9F4FA9F0299AD4
:101D800020910F033091100380EA90E0AC01249F72
:101D9000C001259F900D349F900D112480589A4DBD
:101DA0009093890080938800809111039091120391
:101DB0008F5F9F4FA9F02A9A20911103309112034F
:101DC00080EA90E0AC01249FC001259F900D349FD4
:101DD000900D112480589A4D90938B0080938A0027
:101DE000809113038F5F80931303809113038930D5
:101DF00010F0109213030895FC01EC55FF4F60831F
:101E000008951F920F920FB60F9211242F933F93B4
:101E10004F935F936F937F938F939F93AF93BF93F2
:101E2000EF93FF9383E692E00E949F0EFF91EF9164
:101E3000BF91AF919F918F917F916F915F914F91E2
:101E40003F912F910F900FBE0F901F9018951F92EA
:101E50000F920FB60F92112429980F900FBE0F907A
:101E60001F9018951F920F920FB60F9211242A9867
:101E70000F900FBE0F901F90189540910E03809108
:101E80001102909112020E94E80D089580910C03B6
:101E900090910D0341E00E94E80D08951F920F926A
:101EA0000FB60F9211242F933F934F935F936F932D
:101EB0007F938F939F93AF93BF93EF93FF93DF93A2
:101EC000CF9300D0CDB7DEB78091B400882361F006
:101ED00080916E0389838A81807F81608A83CE01AD
:101EE000019661E00E94BA0D0F900F90CF91DF91A3
:101EF000FF91EF91BF91AF919F918F917F916F91E2
:101F00005F914F913F912F910F900FBE0F901F90B7
:101F100018951F920F920FB60F9211242F933F9393
:101F20004F935F936F937F938F939F93AF93BF93E1
:101F3000EF93FF93DF93CF9300D0CDB7DEB78091BF
:101F40006E0389838A81807F81608A83CE010196B6
:101F500060E00E94BA0D0F900F90CF91DF91FF913A
:101F6000EF91BF91AF919F918F917F916F915F9111
:101F70004F913F912F910F900FBE0F901F9018958A
:101F8000CB010E94F2100895EF92FF920F931F93DE
:101F9000DF93CF9300D000D000D0CDB7DEB78C0157
:101FA0008FEF9FEF9093100380930F039093120392
:101FB000809311030E942F1282E08093800089E1B8
:101FC000809381001092820080E49CE990938700C6
:101FD0008093860086E280936F0080E7E82EF12CE4
:101FE000F7011082E0916D03F0E0818180628183CE
:101FF00080916E0389838A81807F81608A83CE018C
:10200000019660E00E94BA0DE0916E03F0E08181DC
:102010008260818380916D038B838C81807F83605C
:102020008C83CE01039660E00E94BA0DE0916D03AF
:10203000F0E081818860818380916D038D838E8142
:10204000807F84608E83CE01059660E00E94BA0D89
:10205000E0916D03F0E081818061818383E880936A
:10206000B00086E08093B1001092B3001092B400EB
:1020700085E0F7018083C8010E94DA12C801419609
:102080000E94DA12C80186960E94F407C8018B5993
:102090009F4F0E94F40780E090E00E94F21000E25F
:1020A00013E0C80161E00E94FC12C80101960E9481
:1020B000EF1485B1897F85B984B1866084B980E0E9
:1020C0000E94501110920E0326960FB6F894DEBFB0
:1020D0000FBECDBFCF91DF911F910F91FF90EF9079
:1020E0000895AF92BF92CF92DF92EF92FF920F933B
:1020F0001F936C0163E040E00E949E12A1E1AA2EB2
:10210000B12CAC0CBD1CC50166E041E00E949E12E2
:102110008FE192E0F60193A382A389E192E095A377
:1021200084A3A6014E5D5F4FC6018696B60100E509
:1021300013EC20E030E0FCE0EF2EF12C0E9492083E
:10214000C6018B599F4FB50124E230E0C20ED31E69
:10215000A60100E513EC20E030E0E2E1EE2EF12CE8
:102160000E94920880E890E0C80ED91E81E0F60136
:102170008193108211821282138288E190E064E8D8
:1021800070E40E942C079C0136952795369527957B
:1021900023703070309312022093110234E0969530
:1021A00087953A95E1F79C012370307030930D03C9
:1021B00020930C03969587959695879583709070DC
:1021C00090931402809313021F910F91FF90EF9050
:1021D000DF90CF90BF90AF90089583E692E00E9489
:1021E000711008951F93CF93DF93EC018091140336
:1021F00090911503C817D90709F44EC0D093150361
:10220000C09314031FB7F894809116038823E9F54F
:1022100010926E00209731F483E084BD8BE193E04F
:1022200060E008C0CF3FD10541F483E084BD8BE17D
:1022300093E061E00E94BA0D0DC08BE193E061E094
:102240000E94BA0D80911A03882311F083E801C01F
:1022500083E284BD60E0D7FF04C061E0D095C19502
:10226000DF4FCF3FD10519F014F0CFEFD0E081E080
:1022700068278DE193E00E94BA0D80911A038823AC
:1022800011F0C7BD08C0C8BD06C014BC83E085BD41
:1022900081E080936E001FBFDF91CF911F91089561
:1022A0008093160380911403909115030E94F210FD
:1022B00008951F920F920FB60F921124EF92FF9282
:1022C0000F931F932F933F934F935F936F937F933E
:1022D0008F939F93AF93BF93EF93FF93DF93CF932E
:1022E000CDB7DEB72897DEBFCDBF20911403309164
:1022F00015038091170390911803820F931F9093F9
:102300001803809317034CE08337940754F08357E6
:102310009C409093180380931703809119038E5F5C
:102320000BC097FF0CC08D58934F90931803809368
:102330001703809119038250877080931903232B10
:1023400059F080911F038F5F80931F03815080FDA0
:1023500003C0EE24E39401C0EE2421E030E00090BD
:10236000190302C0220F331F0A94E2F780916F0312
:1023700089838A81807F87608A83022F10E060E0F2
:10238000822F837C09F061E0CE0101960E94BA0D94
:1023900090916F03FF24F394FE2411F060E005C0D8
:1023A00060E0802F8D7D09F061E08C81807F856009
:1023B0008C839B83CE0103960E94BA0D80916D039E
:1023C0008D838E81807F8E8360E0802F807F09F0F7
:1023D00061E0CE0105960E94BA0D90916F03FF2037
:1023E00011F060E006C060E007771070012B09F083
:1023F00061E08885807F866088879F83CE0107960D
:102400000E94BA0D2896DEBFCDBFCF91DF91FF911C
:10241000EF91BF91AF919F918F917F916F915F915C
:102420004F913F912F911F910F91FF90EF900F903F
:102430000FBE0F901F90189580916F0380931B0320
:1024400090911C03907F956090931C0380931D03D3
:1024500080911E03807F876080931E0308951F93E1
:10246000DF93CF9300D000D0CDB7DEB71092150325
:102470001092140383E084BD85BD18BC10926E00D9
:10248000E0916F03F0E081818062818380916F032E
:1024900089838A81807F85608A83CE01019660E08E
:1024A0000E94BA0DE0916F03F0E081818068818322
:1024B000E0916F03F0E081818064818380916F03FC
:1024C0008B838C81807F86608C83CE01039660E055
:1024D0000E94BA0DE0916D03F0E0818181608183FB
:1024E00010921603109218031092170311E0109324
:1024F000190388E190E064E870E40E942C0780FFF3
:1025000015C010931A0390916F0380911C03807F74
:10251000866080931C0390931B0390916D038091C0
:102520001E03807F80931E0390931D030F900F90D6
:102530000F900F90CF91DF911F910895FC0185E2DC
:1025400092E09183808364831786408B1086178284
:1025500012861186148613861686158608950F93A3
:102560001F93CF93DF93EC018FB7F8940D811E81F9
:102570008FBFBE016B5F7F4F8C810E947A0D8823D5
:10258000A1F08F8590E0FC01EE0FFF1FEC0FFD1F07
:10259000108707830196837090708F87C8016889C0
:1025A0000E94B20C9B838A8381E0DF91CF911F91BF
:1025B0000F91089521E030E0FC01048002C0220F59
:1025C000331F0A94E2F7822F0E946D0D0895E09167
:1025D0006E03F0E082818B7F8283E0916F03F0E0F5
:1025E00082818F7E828308951F931FB7F8940E9483
:1025F000E7121FBF1F910895FC016083808188232B
:1026000021F08091C100806C03C08091C1008F7364
:102610008093C10008951F920F920FB60F9211245C
:102620002F933F934F935F936F937F938F939F93DA
:10263000AF93BF93EF93FF9380916A0390916B03E5
:10264000892B69F080916A0390916B03049739F0AC
:1026500087E493E00E94A3158093C60002C00E9405
:10266000E712FF91EF91BF91AF919F918F917F9171
:102670006F915F914F913F912F910F900FBE0F90EF
:102680001F9018951F93FC0180818823A9F01FB724
:10269000F894CF0187960E94A315E0916E03F0E0B5
:1026A000928194609283E0916F03F0E09281906157
:1026B00092838093C6001FBF1F9108951F920F92AF
:1026C0000FB60F9211242F933F934F935F936F9305
:1026D0007F938F939F93AF93BF93EF93FF936091FB
:1026E000C60081E293E00E94F614FF91EF91BF9142
:1026F000AF919F918F917F916F915F914F913F919A
:102700002F910F900FBE0F901F9018950F931F934E
:102710008C01FC011192CF010E94E814C801879638
:102720000E9493151092C50089E18093C40080E453
:102730008093C00088E18093C10086E08093C2004E
:10274000E0916E03F0E0818184608183E0916F030A
:10275000F0E08181806181830E94E7121F910F91D7
:10276000089580E293E00E948613089583E28093A7
:102770006D0386E280936E0389E280936F03089570
:10278000CF93DF93EC011C8E1B8E1A8E198E1E8E3A
:102790001D8E80E090E0A0E0B0E088879987AA874E
:1027A000BB878C839D83AE83BF8388839983AA83F1
:1027B000BB83188E0BC0E82FF0E03696EE0FFF1F9C
:1027C000EC0FFD1F118210828F5F888F888D8430FF
:1027D00090F3188E80E090E0A0E0B0E08C8B9D8BB1
:1027E000AE8BBF8BDF91CF9108952F923F924F9286
:1027F0005F926F927F928F929F92AF92BF92CF9291
:10280000DF92EF92FF920F931F93DF93CF93CDB799
:10281000DEB728970FB6F894DEBF0FBECDBF9887FE
:102820008F83FC01058CF68DE02DE61BF70BFA83F8
:10283000E983FC01838D948D29813A81820F931F56
:10284000948F838F8150914024F080E091E0948FA9
:10285000838FEF81F885838D948D80509F4F34F462
:1028600080E09FEFEF81F885948F838F29813A81F3
:10287000B901882777FD8095982F0E948303EF8107
:10288000F88520813181428153810E9459026B83F6
:102890007C838D839E83EF81F885638D748D88277B
:1028A00077FD8095982F0E948303EF81F88524811E
:1028B0003581468157810E9459021B012C01EF810D
:1028C000F885818D928DC980DA80C81AD90A008D69
:1028D00010E00A5F1F4F3801660C771C6E0E7F1EDA
:1028E000F30160817181882777FD8095982F0E9480
:1028F00083039B01AC01EF81F88564897589868922
:1029000097890E94FB014B015C01EF81F885648B84
:10291000758B868B978BF301D182C082EE24D7FC16
:10292000E094FE2CC701B6010E9483039B01AC0119
:10293000C501B4010E942C02EF81F885648B758B70
:10294000868B978B0550104003701070008F208588
:102950003185428553850E9459027B018C01298172
:102960003A81EF81F885328F218F6B817C818D8157
:102970009E81A20191010E942C02A80197010E9450
:102980002C020E94E1039B01AC01220F331FC901FD
:1029900028960FB6F894DEBF0FBECDBFCF91DF9162
:1029A0001F910F91FF90EF90DF90CF90BF90AF906D
:1029B0009F908F907F906F905F904F903F902F905F
:1029C0000895FC011182108212A214A213A208958C
:1029D000FC011182108212A214A213A20895FC011C
:1029E0001182108212A214A213A20895DC01939600
:1029F0008D919C919497892B91F4653D19F481E018
:102A000090E066C011961C9211971C9292961C92AF
:102A1000929794961C921E92939781E020C0939671
:102A20008D919C9194970197E9F4603260F49596AA
:102A30006C93959795968C919597882309F438C057
:102A400082E090E045C011961C9211971C929296DC
:102A50001C92929794961C921E92939782E0929663
:102A60008C93089593968D919C919497029719F564
:102A70008C918032B8F411968C911197862728E0BA
:102A80009CE880FB86950EF489272A95D1F711964C
:102A90008C9311978C91FD01E80FF11D62838C914D
:102AA0008F5F8C939C9195968C919597981718F1C0
:102AB00083E090E00DC093968D919C91949703973D
:102AC000D1F411968C911197861739F484E090E037
:102AD00094969C938E939397089511961C921197B8
:102AE0001C9292961C92929794961C921E92939787
:102AF00083E092968C930895FC01E60FF11D82818C
:102B00000895E62FF0E0DC01AE0FBF1F12962C9166
:102B10003196E80FF91F4281942F80E030E0282B96
:102B2000392BC9010895FC011182108212A214A24E
:102B300013A215A20895FC011182108212A214A200
:102B400013A215A20895DC0193968D919C91949700
:102B5000892B41F481E090E094969C938E93939717
:102B600025ED35C093968D919C919497019739F4FA
:102B70002C918C918823B9F082E090E024C0939648
:102B80008D919C919497029789F495968C91959745
:102B9000FD01E80FF11D22818F5F95968C9395972B
:102BA0009C918917A0F083E090E00DC093968D91E1
:102BB0009C919497039711F020E009C011962C91F5
:102BC000119784E090E094969C938E939397822F34
:102BD0000895DC018C918032B8F411968C91119794
:102BE000862728E09CE880FB86950EF489272A95A5
:102BF000D1F711968C9311978C91FD01E80FF11D7F
:102C000062838C918F5F8C930895DC018C9180326C
:102C1000B8F411968C911197862728E09CE880FBE8
:102C200086950EF489272A95D1F711968C931197E2
:102C30008C91FD01E80FF11D62838C918F5F8C9365
:102C40008C918032B8F411968C911197872728E0E7
:102C50009CE880FB86950EF489272A95D1F711967A
:102C60008C9311978C91FD01E80FF11D72838C916B
:102C70008F5F8C930895629FD001739FF001829FB4
:102C8000E00DF11D649FE00DF11D929FF00D839FFB
:102C9000F00D749FF00D659FF00D9927729FB00D98
:102CA000E11DF91F639FB00DE11DF91FBD01CF01AB
:102CB0001124089597FB092E07260AD077FD04D02A
:102CC0000CD006D000201AF4709561957F4F0895BE
:102CD000F6F7909581959F4F0895AA1BBB1B51E174
:102CE00007C0AA1FBB1FA617B70710F0A61BB70B7C
:102CF000881F991F5A95A9F780959095BC01CD0121
:102D000008952F923F924F925F926F927F928F928F
:102D10009F92AF92BF92CF92DF92EF92FF920F936A
:102D20001F93CF93DF93CDB7DEB7CA1BDB0B0FB674
:102D3000F894DEBF0FBECDBF09942A883988488831
:102D40005F846E847D848C849B84AA84B984C884C7
:102D5000DF80EE80FD800C811B81AA81B981CE0FBE
:102D6000D11D0FB6F894DEBF0FBECDBFED010895A3
:102D7000EE0FFF1F0590F491E02D0994FB01DC019B
:102D800002C005900D9241505040D8F70895DC01E3
:102D9000CB01FC01F999FECF06C0F2BDE1BDF89A66
:102DA000319600B40D9241505040B8F70895DC01BF
:102DB000CB0103C02D910E94E21641505040D0F744
:102DC0000895262FF999FECF1FBA92BD81BD20BD6F
:102DD0000FB6F894FA9AF99A0FBE01960895F894EE
:022DE000FFCF23
:102DE200457874727564657200000000000000008E
:102DF20000000102020303030304040404040404A4
:102E02000405050505050505050505050505050571
:102E12000506060606060606060606060606060651
:102E22000606060606060606060606060606060640
:102E32000607070707070707070707070707070721
:102E42000707070707070707070707070707070710
:102E52000707070707070707070707070707070700
:102E620007070707070707070707070707070707F0
:102E720007080808080808080808080808080808D1
:102E820008080808080808080808080808080808C0
:102E920008080808080808080808080808080808B0
:102EA20008080808080808080808080808080808A0
:102EB2000808080808080808080808080808080890
:102EC2000808080808080808080808080808080880
:102ED2000808080808080808080808080808080870
:102EE2000808080808080808080808080808080860
:102EF200080100020000000000460F000000003D33
:082F02000F00000000AF1200F7
:00000001FF
