:100000000C9483000C94AB000C94AB000C94AB00EC
:100010000C94AB000C94AB000C94AB000C94AB00B4
:100020000C945E0E0C94310E0C94AB000C94C20D2B
:100030000C94AB000C94AB000C94AB000C94AB0094
:100040000C943C100C94AB000C9483110C94AB00FA
:100050000C941F110C943E0D0C94AB000C94AB004F
:100060000C94AB000C94AB00ED08F508F9080009FE
:100070006F09F309F309F3097A09F3098709F30909
:10008000A109AE09F309F309F309F309F309F30927
:10009000F309F309BA096A09F30908092E09F309F2
:1000A000F309F309C509CE09DF09E609010049038F
:1000B0003600FF006B00D100A000B800D500A600FC
:1000C0000A0199003F018E0074018400A9017C009F
:1000D000DE01740013026C00480265007D025D00C1
:1000E000B2025600E7024E001C03460051033D00D9
:1000F00086033200BB032200F0030300BA08FC0BA6
:100100008F0FD611DB1111241FBECFEFD4E0DEBF5D
:10011000CDBF12E0A0E0B1E0ECE2FAE202C005904F
:100120000D92AA31B107D9F713E0AAE1B2E001C0FC
:100130001D92A43FB107E1F710E0C6E0D1E004C092
:100140002297FE010E94DF14CC3FD107C9F70E941D
:10015000A60A0C9414150C940000A0E0B0E0E3EBA8
:10016000F0E00C94A614DC012B01FA019C91923072
:1001700008F439C1EB018881823008F433C194302E
:1001800069F4843009F02FC111969C9111978981EF
:10019000981709F428C1A0E0B1E025C1843009F422
:1001A00021C18230A9F4923009F01DC19A01AD013C
:1001B00088E0EA010990AE01E90109929E018150AF
:1001C000C1F7E201898111969C918923818308C13D
:1001D000923009F407C112962D903C901397EB01D1
:1001E0008A819B811496AD90BD90CD90DC9017973D
:1001F000EC80FD800E811F819101281B390BB90114
:1002000037FF04C066277727621B730B60327105C6
:100210000CF061C0121613066CF537014801062E6A
:1002200004C096948794779467940A94D2F721E057
:1002300030E040E050E004C0220F331F441F551F40
:100240006A95D2F721503040404050402E213F2146
:1002500040235123211531054105510521F021E0AD
:1002600030E040E050E079018A01E628F7280829CB
:1002700019293CC0232BD1F1260E371E350146012A
:10028000062E04C096948794779467940A94D2F7C4
:1002900021E030E040E050E004C0220F331F441F53
:1002A000551F6A95D2F721503040404050402A21D6
:1002B0003B214C215D21211531054105510521F0DE
:1002C00021E030E040E050E059016A01A628B7285B
:1002D000C828D9280BC0821593052CF01C01AA242C
:1002E000BB24650103C0EE24FF24870111969C9175
:1002F000D20111968C91981709F445C0992339F0D1
:10030000A80197012A193B094C095D0906C0A601FD
:1003100095012E193F09400B510B57FD08C0118262
:100320003382228224833583468357831DC081E034
:1003300081833382228288279927DC01821B930BD9
:10034000A40BB50B84839583A683B7830DC0220FBE
:10035000331F441F551F248335834683578382816F
:1003600093810197938382832481358146815781CC
:10037000DA01C9010197A109B1098F5F9F4FAF4F02
:10038000BF4328F30BC0918333822282EA0CFB1C0B
:100390000C1D1D1DE482F5820683178383E0808394
:1003A000248135814681578157FF1AC0C901AA2788
:1003B00097FDA095BA2F81709070A070B07056957F
:1003C000479537952795822B932BA42BB52B8483A8
:1003D0009583A683B78382819381019693838283D9
:1003E000DF0101C0D201CD01CDB7DEB7E2E10C944F
:1003F000C214A0E2B0E0EFEFF1E00C94B214698314
:100400007A838B839C832D833E834F835887E9E0D7
:10041000EE2EF12CEC0EFD1ECE010196B7010E94CE
:10042000D0058E010F5E1F4FCE010596B8010E94C8
:10043000D0058A8991E089278A8BC701B801AE016E
:10044000475E5F4F0E94AD000E94FB04A096E6E06D
:100450000C94CE14A0E2B0E0E0E3F2E00C94B2140D
:1004600069837A838B839C832D833E834F83588754
:10047000F9E0EF2EF12CEC0EFD1ECE010196B70136
:100480000E94D0058E010F5E1F4FCE010596B80168
:100490000E94D005C701B801AE01475E5F4F0E94C0
:1004A000AD000E94FB04A096E6E00C94CE14A0E2FE
:1004B000B0E0EDE5F2E00C94A61469837A838B83B7
:1004C0009C832D833E834F835887CE010196BE01C6
:1004D000675F7F4F0E94D005CE010596BE016F5E1B
:1004E0007F4F0E94D0059985923088F089898230AB
:1004F000C8F0943019F4823051F404C0843029F4E7
:10050000923081F480E091E0C6C0923049F420E05E
:100510009A858A89981321E02A87CE010996BBC063
:10052000823049F420E09A858A89981321E02A8B49
:10053000CE014196B0C02D843E844F8458886D888A
:100540007E888F88988CEE24FF248701AA24BB2400
:10055000650140E050E060E070E0E0E0F0E0C10103
:1005600081709070892BE9F0E60CF71C081D191DAD
:100570009A01AB012A0D3B1D4C1D5D1D80E090E0F2
:10058000A0E0B0E0E614F7040805190520F481E0C6
:1005900090E0A0E0B0E0BA01A901480F591F6A1F1E
:1005A0007B1FAA0CBB1CCC1CDD1C97FE08C081E085
:1005B00090E0A0E0B0E0A82AB92ACA2ADB2A319646
:1005C000E032F10549F0660C771C881C991C5694A2
:1005D000479437942794C3CFFA85EA892B893C89BD
:1005E0008B859C85280F391F2E5F3F4F17C0CA018E
:1005F00081709070892B61F016950795F794E794B8
:1006000080E090E0A0E0B0E8E82AF92A0A2B1B2B52
:1006100076956795579547952F5F3F4F77FDE7CFC5
:100620000CC0440F551F661F771F17FD4160EE0C6D
:10063000FF1C001F111F21503040403090E059072F
:1006400090E0690790E4790760F32B8F3C8FDB0122
:10065000CA018F779070A070B07080349105A105A9
:10066000B10561F447FD0AC0E114F104010511056B
:1006700029F0405C5F4F6F4F7F4F40781A8EFE1716
:1006800011F081E08A8F4D8F5E8F6F8F78A383E0AA
:10069000898FCE0149960E94FB04A096E2E10C945A
:1006A000C214A8E1B0E0E7E5F3E00C94B21469836A
:1006B0007A838B839C832D833E834F83588789E085
:1006C000E82EF12CEC0EFD1ECE010196B7010E9422
:1006D000D0058E010F5E1F4FCE010596B8010E9416
:1006E000D0058985823040F08989823028F0C701A1
:1006F000B8010E94480601C081E06896E6E00C94CB
:10070000CE14A8E0B0E0E7E8F3E00C94AF149B014E
:10071000AC0183E08983DA01C9018827B7FD83959D
:100720009927AA27BB27B82E211531054105510568
:1007300019F482E089833AC08823A9F0203080E050
:10074000380780E0480780E8580729F460E070E047
:1007500080E09FEC30C0EE24FF248701E21AF30A08
:10076000040B150B02C079018A018EE1C82ED12C31
:10077000DC82CB82ED82FE820F831887C801B7012D
:100780000E94AC0401971816190684F4082E04C0C0
:10079000EE0CFF1C001F111F0A94D2F7ED82FE829F
:1007A0000F831887C81AD90ADC82CB82BA82CE019D
:1007B00001960E94FB042896E9E00C94CB14ACE06F
:1007C000B0E0E5EEF3E00C94B61469837A838B8392
:1007D0009C83CE010196BE016B5F7F4F0E94D005C6
:1007E0008D81823061F1823050F1843021F48E812C
:1007F000882351F12EC02F81388537FD20C06E81AE
:100800002F3131051CF06623F9F023C08EE190E012
:10081000821B930B29853A854B855C8504C05695D0
:100820004795379527958A95D2F76623B1F050956D
:100830004095309521953F4F4F4F5F4F0EC020E0C0
:1008400030E040E050E009C02FEF3FEF4FEF5FE7AF
:1008500004C020E030E040E050E8B901CA012C9625
:10086000E2E00C94D214A8E0B0E0E9E3F4E00C94E8
:10087000AE147B018C01611571058105910519F498
:1008800082E0898360C083E089838EE1C82ED12C09
:10089000DC82CB82ED82FE820F831887C801B7010C
:1008A0000E94AC04FC013197F7FF3BC0222733279D
:1008B0002E1B3F0B57016801022E04C0D694C7942B
:1008C000B794A7940A94D2F740E050E060E070E05B
:1008D00081E090E0A0E0B0E004C0880F991FAA1F5B
:1008E000BB1F2A95D2F70197A109B1098E219F213B
:1008F000A023B1230097A105B10521F041E050E00C
:1009000060E070E04A295B296C297D294D835E8374
:100910006F8378878EE190E08E1B9F0B9C838B8387
:1009200012C0309781F00E2E04C0EE0CFF1C001F89
:10093000111F0A94D2F7ED82FE820F831887CE1A18
:10094000DF0ADC82CB821A82CE0101960E94FB0470
:100950002896EAE00C94CA14EF92FF920F931F932B
:100960007B018C0180E0E81680E0F80681E0080752
:1009700080E0180788F48FEFE816F10401051105EF
:1009800031F028F088E090E0A0E0B0E017C080E00F
:1009900090E0A0E0B0E012C080E0E81680E0F80649
:1009A00080E0080781E0180728F088E190E0A0E0E7
:1009B000B0E004C080E190E0A0E0B0E020E230E0F0
:1009C00040E050E0281B390B4A0B5B0B04C0169526
:1009D0000795F794E7948A95D2F7F701E85FFE4F01
:1009E0008081281B310941095109C9011F910F91CB
:1009F000FF90EF900895DF92EF92FF920F931F9375
:100A0000FC01E480F58006811781D18080818230ED
:100A100048F480E090E0A0E1B0E0E82AF92A0A2B4F
:100A20001B2BA5C0843009F49FC0823021F4EE2432
:100A3000FF24870105C0E114F1040105110519F433
:100A4000E0E0F0E096C0628173819FEF6238790741
:100A50000CF05BC022E83FEF261B370B2A31310533
:100A60002CF020E030E040E050E02AC0B801A701BF
:100A7000022E04C076956795579547950A94D2F74C
:100A800081E090E0A0E0B0E004C0880F991FAA1FA9
:100A9000BB1F2A95D2F70197A109B1098E219F2189
:100AA000A023B1230097A105B10521F081E090E0DA
:100AB000A0E0B0E09A01AB01282B392B4A2B5B2B2D
:100AC000DA01C9018F779070A070B0708034910501
:100AD000A105B10539F427FF09C0205C3F4F4F4FF6
:100AE0005F4F04C0215C3F4F4F4F5F4FE0E0F0E0AD
:100AF0002030A0E03A07A0E04A07A0E45A0710F02F
:100B0000E1E0F0E079018A0127C06038710564F501
:100B1000FB01E158FF4FD801C7018F779070A0709B
:100B2000B07080349105A105B10539F4E7FE0DC020
:100B300080E490E0A0E0B0E004C08FE390E0A0E0AB
:100B4000B0E0E80EF91E0A1F1B1F17FF05C016951F
:100B50000795F794E794319687E016950795F794F3
:100B6000E7948A95D1F705C0EE24FF248701EFEFC3
:100B7000F0E06E2F679566276795902F9F77D79443
:100B8000DD24D7948E2F8695492F462B582F5D292B
:100B9000B701CA011F910F91FF90EF90DF90089568
:100BA000FC01DB01408151812281622F6F7770E06F
:100BB000221F2227221F9381892F880F822B282F03
:100BC00030E0991F9927991F11969C931197211531
:100BD0003105A9F5411551056105710511F482E052
:100BE00037C082E89FEF13969C938E9312979A01D9
:100BF000AB0167E0220F331F441F551F6A95D1F7E1
:100C000083E08C930DC0220F331F441F551F129693
:100C10008D919C911397019713969C938E931297A5
:100C2000203080E0380780E0480780E4580758F318
:100C300014962D933D934D935C93179708952F3FF2
:100C4000310579F4411551056105710519F484E008
:100C50008C93089564FF03C081E08C9312C01C92B2
:100C600010C02F57304013963C932E93129783E079
:100C70008C9387E0440F551F661F771F8A95D1F725
:100C8000706414964D935D936D937C9317970895BC
:100C90001F93DC01FB019C91923008F447C08081D6
:100CA000823008F443C0943051F411961C91843082
:100CB00099F58181682F70E0611B71093FC0843014
:100CC00021F0923031F48230B9F18181882389F1A9
:100CD0002DC011961C9111978230F1F08181181767
:100CE000D9F412962D913C911397828193818217AA
:100CF000930794F028173907BCF014968D919D91B5
:100D00000D90BC91A02D24813581468157812817F3
:100D100039074A075B0718F4112341F00AC082170C
:100D20009307A407B50740F4112319F061E070E0C0
:100D300005C06FEF7FEF02C060E070E0CB011F9154
:100D40000895CF92DF92EF92FF920F931F93CF936C
:100D5000DF938C017B01FC018081882351F16801C4
:100D6000C80160E00E94A113982F8077803709F5B1
:100D70009037B1F4C7010E94C013C1E0D0E009C0B0
:100D8000C6016C2F0E94A113682FC7010E940E1488
:100D90002196F801808190E0C817D9078CF307C02D
:100DA000913739F0923729F080E0933719F481E0D8
:100DB00001C080E0DF91CF911F910F91FF90EF90E4
:100DC000DF90CF900895EF92FF920F931F93DF93E0
:100DD000CF9300D0CDB7DEB79C01F42E052F162F90
:100DE000E72ECE010196B90142E050E00E94EC14DA
:100DF00069816F3F19F48A818F3FE9F070E080E0EC
:100E000090E00E9433047B018C016A8170E080E0F5
:100E100090E00E94330420E030E040E85BE30E9471
:100E200057029B01AC01C801B7010E942A02F62EAD
:100E3000072F182FE92E2F2D302F412F5E2DB901AE
:100E4000CA010F900F90CF91DF911F910F91FF90EA
:100E5000EF9008950F931F93DF93CF9300D0CDB7FA
:100E6000DEB79C018B01CE010196B90142E050E052
:100E70000E94EC1489819A818F5F9F4F11F41A832D
:100E8000098389819A810F900F90CF91DF911F91F3
:100E90000F910895DF93CF9300D0CDB7DEB7CE0189
:100EA000019660E070E042E050E00E94EC143A816C
:100EB00084E6389FC00111242981820F911D8B3C4B
:100EC0009105A1F032503D3F28F082E090E067E0CC
:100ED0000E94061583E0898382E08A83CE01019611
:100EE00060E070E042E050E00E94FC140F900F9030
:100EF000CF91DF910895FC0174AF63AF0895FC01B9
:100F0000448D558D23AD34ADC9010297481759075B
:100F100014F480E0089580E02E5F3F4F24173507DA
:100F20000CF081E00895FC0183AD94AD0895FC01BF
:100F30000190F081E02D22813381C90108950F9342
:100F40001F93CF93DF93EC018C01025F1F4FC80109
:100F50000E94D20C882391F0E881F981A081B181AF
:100F60002D913C91CF01F90109958823B1F1488D6C
:100F7000598D6A8D7B8DC8010E94F70C8E010C5F24
:100F80001F4FC8010E94D20C882339F1C80140E2EA
:100F900051EA67E070E00E94F70CE881F981228154
:100FA00033812C8F3D8FCE014E96B9010E941A12CB
:100FB000BC0197FF03C060E070E006C08F3F910561
:100FC00019F014F06FEF70E0EA81FB81A081B1812C
:100FD0002D913C91CF01F9010995DF91CF911F919E
:100FE0000F9108956F927F928F929F92AF92BF92CE
:100FF000CF92DF92EF92FF920F931F93CF93DF93E5
:10100000EC011D8E1C8E8CE090E040E050E060EE24
:1010100070E40E94E3063B014C018EE090E046E65E
:1010200056E666EA7EE30E94E3065B016C0180E11E
:1010300090E040E050E060E172E40E94E3067B0152
:101040008C01CE014E960E94E511C401B30120E04F
:1010500030E040E050E00E945103882391F5C60142
:10106000B50120E030E040E050E00E9451038823C9
:1010700041F5C801B70120E030E040E050E00E94B7
:1010800051038823F1F40F2EF0E06F2EF0E07F2E55
:10109000F0EE8F2EF0E49F2EF02D0F2EF6E6AF2E01
:1010A000F6E6BF2EF6EACF2EFEE3DF2EF02D0F2E52
:1010B000F0E0EF2EF0E0FF2EF0E10F2FF2E41F2F13
:1010C000F02D6E8E7F8E88A299A2AAA2BBA2CCA27E
:1010D000DDA2EEA2FFA208A719A71CAE1BAECE018F
:1010E000049640E251EA67E070E00E94F70C488DF8
:1010F000598D6A8D7B8DCE010E960E94F70CDF9183
:10110000CF911F910F91FF90EF90DF90CF90BF9004
:10111000AF909F908F907F906F900895AF92BF9205
:10112000CF92DF92EF92FF920F931F937C015801B1
:101130006901FC01718360835383428304960E949A
:10114000CB0CC7010E960E94CB0CF701A08EB18E7E
:10115000C28ED38EC7014E960E94E511C7010E9430
:10116000F2071F910F91FF90EF90DF90CF90BF900B
:10117000AF9008958AE192E00E94CB0C08957F928F
:101180008F929F92AF92BF92CF92DF92EF92FF9297
:101190000F931F93DF93CF93CDB7DEB760970FB652
:1011A000F894DEBF0FBECDBFFC016B0180818823A8
:1011B00009F419C17F01CF0161E00E94A113E82F5A
:1011C000F0E0E232F10508F00EC1EC5CFF4FEE0FEB
:1011D000FF1F0590F491E02D0994C60161E00E9483
:1011E0000E14C6016BEC70E0FBC081E0809324021A
:1011F000E3C0C60161E00E940E1489E193E0CBC018
:10120000C70162E00E94A613BC0189E193E0D2C04D
:10121000C70162E00E94A6135C01C70164E00E945E
:10122000A113813148F5E82EFF248E010F5F1F4F77
:10123000C801B501A7010E94EC14C60161E00E943B
:101240000E14E00EF11E06C0C601F80161918F0177
:101250000E940E140E151F05B9F712C0C70162E0F7
:101260000E94A613882E792EC70164E00E94A11364
:10127000982EF0E1F81730F4C60162E00E940E14D7
:1012800081E0B2C08E010F5F1F4FC801682D772D1E
:10129000492D50E00E94EC14580115E0092D0B5F18
:1012A00008C0C701612F0E94A113F50181935F015E
:1012B0001F5F1017B1F7CE010196682D772D492DCC
:1012C00050E00E94FC14C60161E00E940E14C601A9
:1012D000692DD4CF85E292E00E94B50A6DC0C701A6
:1012E00062E00E94A113682F85E292E070E00E9404
:1012F000B10A62C0C70162E00E94A11360E08130C0
:1013000009F461E085E292E00E94BB0A55C0C70182
:1013100062E00E94A113682F70E076956795617076
:1013200085E292E00E94BB0AC70162E00E94A1131D
:10133000682F70E06170707085E292E00E94BE0AD2
:101340003BC0C70162E00E94A113682F70E061708A
:10135000707083EF92E00E94720D2EC0C70162E0B0
:101360000E94A113682F70E06170707083EF92E0AB
:101370000E948C0DC60161E00E940E1489E193E089
:101380000E947F07682FC60179CFC60161E00E94E5
:101390000E1486E593E00E94970720C083EF92E049
:1013A00061E00E94BD0DC70162E00E94A613BC016E
:1013B00086E593E00E947B07C60161E05FCFC6012E
:1013C00061E00E940E1489E193E006C0C60161E06D
:1013D0000E940E1486E593E00E949307BC01C601AB
:1013E0000E942A144DCF80E060960FB6F894DEBFBD
:1013F0000FBECDBFCF91DF911F910F91FF90EF9066
:10140000DF90CF90BF90AF909F908F907F90089586
:101410008091EE039091EF03892B09F481C08091B4
:10142000EE039091EF03049709F080C079C0109209
:1014300024020E94970A8091C8039091C903892BC6
:1014400021F18091C8039091C9030497F1F0809134
:101450001A02882349F48AE192E040E25EE460E007
:1014600070E00E94F70C11C08AE192E00E94D20C59
:10147000882359F085EA93E00E94061384E0809364
:10148000C70384EA93E00E9456118091C703882322
:1014900061F08AE192E00E94CF0C85EA93E00E941D
:1014A000141384EA93E00E9456118091C80390912E
:1014B000C9030497D9F58BEC93E00E94C01385EA29
:1014C00093E06BEC73E00E94A1068823E1F485EAC7
:1014D00093E060E00E94A1138823A9F485EA93E0D9
:1014E0006BEC73E00E94A106882369F485EA93E01F
:1014F0006BEC73E00E94BF08882329F48BEC93E027
:1015000065E00E940E148AE192E00E94CF0C85EA09
:1015100093E00E94141384EA93E00E945E11089500
:1015200080912402882309F486CF81CF0895F8940E
:101530000E94BE0C0E944A0783EF92E00E94890E2F
:1015400085E292E00E94DF0B789408950E94970A4A
:101550000E94080A0E94010C85E292E00E940B0B97
:10156000F7CFFC01738362830895FC01848191E0CD
:10157000892784830895FC01608308951F93CF9386
:10158000DF93EC01162F8981662349F58823F1F159
:1015900088818823D9F18D818823C1F1CE014296BB
:1015A0000E94D20C882391F181E090E09F838E838A
:1015B00083EF92E060E070E00E94850E6C8D7D8D7F
:1015C0008E8D9F8D28EE33E040E050E00E94601445
:1015D000AB01BC01CE0108960E94F70C17C088230E
:1015E00099F48881882381F068A579A58AA59BA5AF
:1015F00028EE33E040E050E00E946014AB01BC01F3
:10160000CE0142960E94F70C1F821E821983DF9141
:10161000CF911F9108950F931F93CF93DF93EC0108
:101620008D81882309F471C08E819F81892B09F4F3
:101630006CC08E01085F1F4FC8010E94D20C882326
:1016400009F47BC08E819F818230910539F183300E
:10165000910524F4019709F070C007C0833091050B
:10166000A9F1049709F069C047C082E090E09F8328
:101670008E8368A179A18AA19BA128EE33E040E086
:1016800050E00E946014AB01BC01C8010E94F70C3D
:101690006A817B81709561957F4F4BC083E090E0BC
:1016A0009F838E836C8D7D8D8E8D9F8D28EE33E094
:1016B00040E050E00E946014AB01BC01C8010E94F0
:1016C000F70C83EF92E060E070E035C084E090E0DA
:1016D0009F838E836CA17DA18EA19FA128EE33E014
:1016E00040E050E00E946014AB01BC01C8010E94C0
:1016F000F70C6A817B811DC083EF92E060E070E0AF
:101700000E94850E1F821E8218C08C81882379F466
:101710008981882361F088812A813B81882311F0A7
:10172000B90107C066277727621B730B02C060E010
:1017300070E083EF92E00E94850EDF91CF911F91C0
:101740000F9108950F931F938C0181E0F801858319
:1017500084E090E065E070E00E942A07A0E0B0E03D
:10176000F801848F958FA68FB78F86E090E064EFA5
:1017700071E00E942A07A0E0B0E0F80180A391A3E5
:10178000A2A3B3A388E090E06CE271E00E942A0774
:10179000A0E0B0E0F80184A395A3A6A3B7A38AE0D4
:1017A00090E06CE271E00E942A07A0E0B0E0F8014E
:1017B00080A791A7A2A7B3A71F910F910895FC013D
:1017C00081E0808314821182138212821782168232
:1017D000CF010E94A20B08950F931F938C010896CE
:1017E0000E94CB0CC80142960E94CB0CC8010E94FB
:1017F000DF0B1F910F91089585E292E00E94EC0BA0
:10180000089589E193E00E949F07809193038823C4
:1018100021F086E593E00E949F0708950F931F93A0
:10182000CF93DF938C01262F332727FD309584E15A
:1018300090E0289FF001299FF00D389FF00D1124B2
:10184000EE0FFF1FEE0FFF1FEB5AFD4F41E050E080
:1018500060817181061717070CF040C0415050405D
:1018600084E190E0289FD001299FB00D389FB00DF2
:101870001124FD01E40FF51F4F5F5F4FEE0FFF1FB7
:10188000EE0FFF1FCF018F5A9D4FEC012881398148
:10189000ED5AFD4F0190F081E02D021B130BA40FB8
:1018A000B51FAA0FBB1FAA0FBB1FAD5ABD4F8D910D
:1018B0009C918E1B9F0B621B730B9C01029FC001AE
:1018C000039F900D129F900D11240E947F146E0FA4
:1018D0007F1F6F3F710591F08CF00BC0842F8F5FDD
:1018E0004F5F5F4F34964431510509F0B1CF8431D9
:1018F00019F46FEF70E002C060E070E0CB01DF919F
:10190000CF911F910F910895DF93CF930F92CDB791
:10191000DEB7BC01CE01019641E050E00E94EC141C
:1019200090E089818F3F09F091E0892F0F90CF914E
:10193000DF910895EF92FF920F931F93F82EE92EF7
:10194000162F072F862F972F0E94840C882349F08B
:101950008F2D9E2D612F702F40E550E00E94EC14DA
:1019600008C08F2D9E2D6CEA70E040E550E00E948B
:10197000E3141F910F91FF90EF90089581E592E09D
:1019800060E071E00E949A0C81EA92E060E871E008
:101990000E949A0C0895FC01108211820895FC01A6
:1019A00010820895CF93DF93EC0188818823D9F0CA
:1019B00089818823C1F483EF92E00E94650D2A811A
:1019C0003B814C815D81621B730B840B950B2E81D7
:1019D0003F8148855985621773078407950718F07A
:1019E000188281E089838981DF91CF910895CF9218
:1019F000DF92EF92FF920F931F938C016A017B019C
:101A000081E0F8018083118283EF92E00E94650DEE
:101A1000F8016283738384839583C682D782E086CC
:101A2000F1861F910F91FF90EF90DF90CF90089576
:101A300097B18095982397B998B1982398B9EAE718
:101A4000F0E080818F6880830895282F80917A004C
:101A500086FF02C080E008959FB7F8947093F20269
:101A60006093F1022F70206420937C0080917A00B3
:101A7000806480937A009FBF81E008951F920F9247
:101A80000FB60F9211242F933F934F938F939F93F1
:101A9000EF93FF932091780040917900E091F1025B
:101AA000F091F202942F80E030E0822B932B91830F
:101AB0008083FF91EF919F918F914F913F912F9153
:101AC0000F900FBE0F901F901895FC018FB7F894E0
:101AD000EF55FF4F20813181428153818FBFB90182
:101AE000CA01089580919C03E82FF0E04281809123
:101AF0009D038F7021E030E002C0220F331F8A95D2
:101B0000E2F7922F662311F0822F01C080E09095BA
:101B10009423892B82830895FC015FB7F894E056E3
:101B2000FF4F10821092700080919803E82FF0E030
:101B30004281809199038F7021E030E002C0220F32
:101B4000331F8A95E2F7922F662311F0822F01C08E
:101B500080E090959423892B82835FBF08958091C4
:101B6000F103E82FF0E09281672B11F080E201C0D1
:101B700080E09F7D892B82830895FC01E056FF4F12
:101B8000608308951F920F920FB60F9211248F93C6
:101B90009F93AF93BF938091940390919503A091ED
:101BA0009603B0919703805C9F4FAF4FBF4F8093D8
:101BB000940390939503A0939603B0939703BF91DA
:101BC000AF919F918F910F900FBE0F901F9018951E
:101BD0005FB7F894862F81508E3FE8F083E08093C2
:101BE000B00080919A03E82FF0E0428180919B033E
:101BF0008F7021E030E002C0220F331F8A95E2F798
:101C0000922F6F3F11F4822F01C080E090959423B2
:101C1000892B828305C06093B30083E88093B00072
:101C20005FBF08955FB7F894109270008091980399
:101C3000E82FF0E04281809199038F7021E030E03D
:101C400002C0220F331F8A95E2F7922F662311F00C
:101C5000822F01C080E090959423892B82835FBFFF
:101C600008951F920F920FB60F9211242F933F9356
:101C70008F939F93EF93FF938091B400882399F003
:101C8000E0919803F0E03281209199032F7081E078
:101C900090E002C0880F991F2A95E2F7282F20951F
:101CA0002323282B2283FF91EF919F918F913F91C6
:101CB0002F910F900FBE0F901F9018951F920F92AB
:101CC0000FB60F9211242F933F938F939F93EF930F
:101CD000FF93E0919803F0E03281209199032F70F7
:101CE00081E090E002C0880F991F2A95E2F7809565
:101CF00083238283FF91EF919F918F913F912F9149
:101D00000F900FBE0F901F901895CB010E94E70F08
:101D100008950F931F93CF93DF938C010E94B00F10
:101D20001092800089E0809381001092820080E010
:101D300094E0909389008093880062E060936F0044
:101D4000A0E7B0E01C92E091F103F0E081818062B5
:101D50008183E0919803F0E02281809199038F7054
:101D600041E050E0EA0102C0CC0FDD1F8A95E2F7A6
:101D7000CE01809582238283E0919803F0E0318147
:101D8000809199038F70EA0102C0CC0FDD1F8A9504
:101D9000E2F72C2F209523232C2B2183E0919A030B
:101DA000F0E0228180919B038F70EA0102C0CC0F8A
:101DB000DD1F8A95E2F7CE01809582238283E09130
:101DC0009A03F0E0318180919B038F70EA0102C099
:101DD000CC0FDD1F8A95E2F72C2F209523232C2B87
:101DE0002183E0919C03F0E0228180919D038F701C
:101DF000EA0102C0CC0FDD1F8A95E2F7CE01809583
:101E000082238283E0919C03F0E0918180919D0385
:101E10008F7002C0440F551F8A95E2F7842F80957A
:101E20008923842B818383E88093B0006093B10081
:101E30001092B3001092B40085E08C93C8010E9408
:101E4000F010C80141960E94F010C80186960E94C9
:101E5000F207C8018D599F4F0E94F20780E090E081
:101E60000E94E70F04EA13E0C80161E00E94FD1040
:101E7000C80101960E94141381E00E943310DF9183
:101E8000CF911F910F910895CF92DF92EF92FF9221
:101E90000F931F937C0163E040E00E94B41081E146
:101EA000C82ED12CCE0CDF1CC60166E041E00E949A
:101EB000B41082E192E0F70193A382A38CE092E058
:101EC00095A384A3A7014E5D5F4FC7018696B70116
:101ED00000E513EC20E030E00E948E08C7018D5928
:101EE0009F4FB60124E230E0E20EF31EA70100E5A9
:101EF00013EC20E030E00E948E088CE790E0E80EC2
:101F0000F91E81E0F70181931082118212821382FF
:101F10001F910F91FF90EF90DF90CF90089583EF86
:101F200092E00E94440F8091F20380939803809185
:101F30009903807F8160809399039091F10390933E
:101F40009A0380919B03807F836080939B0390938F
:101F50009C0380919D03807F846080939D030895FE
:101F600010929F0310929E0383E084BD85BD18BC30
:101F700010926E00E091F303F0E081818062818332
:101F8000E091F303F0E082818F7D8283E091F3039F
:101F9000F0E0818180688183E091F303F0E081814A
:101FA00080648183E091F303F0E082818F7B828300
:101FB000E091F103F0E08181816081831092A003C0
:101FC0001092A2031092A1031092A30308959C0102
:101FD00080919E0390919F032817390709F442C00E
:101FE00030939F0320939E035FB7F8948091A003E2
:101FF000882389F510926E00E091F30321153105D5
:1020000039F483E084BDF0E082818F7D828306C055
:10201000F0E082818062828383E284BD40E037FF0A
:1020200004C041E0309521953F4F8091F303E82FA4
:10203000F0E09281442311F480E401C080E09F7BB2
:10204000892B8283C9012F3F310519F014F08FEFDE
:1020500090E088BD06C014BC83E085BD81E080931C
:102060006E005FBF08958093A00380919E039091BE
:102070009F030E94E70F08951F920F920FB60F92D1
:1020800011242F933F934F935F938F939F93EF93DD
:10209000FF9320919E0330919F038091A103909123
:1020A000A203280F391F3093A2032093A10388E1D4
:1020B000273E380708F44BC0275E38413093A2030F
:1020C0002093A1038091A30390E001968770907004
:1020D0008093A30321E030E002C0220F331F8A95D2
:1020E000E2F7422F50E08091F303E82FF0E0928175
:1020F000822F837C09F080E89F77892B82838091EF
:10210000F303E82FF0E09281842F8D7D09F080E2C7
:102110009F7D892B82838091F103E82FF0E032814B
:1021200090E0842F807F09F091E03E7F932B928393
:102130008091F303E82FF0E0928147775070452BB0
:1021400011F480E001C080E49F7B892B8283FF91A2
:10215000EF919F918F915F914F913F912F910F90B0
:102160000FBE0F901F901895FC0188E192E09183BB
:10217000808364831786408B1086178212861186AF
:10218000148613861686158608950F931F93CF9392
:10219000DF93EC018FB7F8940D811E818FBFBE01D4
:1021A0006B5F7F4F8C810E94250D8823A1F08F8566
:1021B00090E0FC01EE0FFF1FEC0FFD1F108707835F
:1021C0000196837090708F87C80168890E940E0CF9
:1021D0009B838A8381E0DF91CF911F910F910895B6
:1021E00021E030E0FC01048002C0220F331F0A947A
:1021F000E2F7822F0E94180D0895FC016083808110
:10220000882321F08091C100806C03C08091C100BF
:102210008F738093C1000895E091F203F0E0828112
:102220008B7F8283E091F303F0E082818F7E828353
:1022300083EF92E060E070E00E94AF0D08951F927E
:102240000F920FB60F9211242F933F934F935F93EA
:102250006F937F938F939F93AF93BF93EF93FF936E
:102260008091EE039091EF03892B69F08091EE034A
:102270009091EF03049739F08BEC93E00E94C81320
:102280008093C60002C00E940C11FF91EF91BF9194
:10229000AF919F918F917F916F915F914F913F91FE
:1022A0002F910F900FBE0F901F9018951F931FB77F
:1022B000F8940E940C111FBF1F9108950F931F9354
:1022C000FC0180818823E1F00FB7F894CF01879655
:1022D0000E94C813182FE091F203F0E0828184601D
:1022E0008283E091F303F0E082818061828383EF57
:1022F00092E061E070E00E94AF0D1093C6000FBF46
:102300001F910F9108951F920F920FB60F921124F3
:102310002F933F934F935F936F937F938F939F93ED
:10232000AF93BF93EF93FF936091C60085EA93E06C
:102330000E941B13FF91EF91BF91AF919F918F91DD
:102340007F916F915F914F913F912F910F900FBEB1
:102350000F901F9018950F931F938C01FC01119201
:10236000CF010E940D13C80187960E94B8131092E6
:10237000C50089E18093C40080E48093C00088E1B7
:102380008093C10086E08093C200E091F203F0E008
:10239000818184608183E091F303F0E08181806139
:1023A00081830E940C111F910F91089584EA93E09C
:1023B0000E94AB11089583E28093F10386E280933B
:1023C000F20389E28093F3030895CF93DF93EC0146
:1023D0001C8E1B8E1A8E198E1E8E1D8E80E090E034
:1023E000A0E0B0E088879987AA87BB878C839D830C
:1023F000AE83BF8388839983AA83BB83188E0BC067
:10240000E82FF0E03696EE0FFF1FEC0FFD1F118254
:1024100010828F5F888F888D843090F3188E80E0D3
:1024200090E0A0E0B0E08C8B9D8BAE8BBF8BDF91FA
:10243000CF9108952F923F924F925F926F927F9229
:102440008F929F92AF92BF92CF92DF92EF92FF92C4
:102450000F931F93DF93CF93CDB7DEB728970FB6B7
:10246000F894DEBF0FBECDBF98878F83FC01058C2B
:10247000F68DE02DE61BF70BFA83E983FC01838DD3
:10248000948D29813A81820F931F948F838F81507D
:10249000914024F080E091E0948F838FEF81F88564
:1024A000838D948D80509F4F34F480E09FEFEF81B7
:1024B000F885948F838F29813A81B901882777FD28
:1024C0008095982F0E948103EF81F88520813181CA
:1024D000428153810E9457026B837C838D839E834C
:1024E000EF81F885638D748D882777FD8095982F0F
:1024F0000E948103EF81F8852481358146815781CF
:102500000E9457021B012C01EF81F885818D928D6D
:10251000C980DA80C81AD90A008D10E00A5F1F4FFF
:102520003801660C771C6E0E7F1EF301608171818D
:10253000882777FD8095982F0E9481039B01AC012D
:10254000EF81F88564897589868997890E94F901E8
:102550004B015C01EF81F885648B758B868B978BC3
:10256000F301D182C082EE24D7FCE094FE2CC70197
:10257000B6010E9481039B01AC01C501B4010E9418
:102580002A02EF81F885648B758B868B978B0550BB
:10259000104003701070008F20853185428553856F
:1025A0000E9457027B018C0129813A81EF81F885D5
:1025B000328F218F6B817C818D819E81A20191015F
:1025C0000E942A02A80197010E942A020E94DF03AA
:1025D0009B01AC01220F331FC90128960FB6F89456
:1025E000DEBF0FBECDBFCF91DF911F910F91FF9046
:1025F000EF90DF90CF90BF90AF909F908F907F90A3
:102600006F905F904F903F902F900895FC01118242
:10261000108212A214A213A20895FC01118210824A
:1026200012A214A213A20895FC011182108212A218
:1026300014A213A20895DC0193968D919C91949716
:10264000892B91F4653D19F481E090E066C0119604
:102650001C9211971C9292961C92929794961C929F
:102660001E92939781E020C093968D919C919497B0
:102670000197E9F4603260F495966C93959795967E
:102680008C919597882309F438C082E090E045C08A
:1026900011961C9211971C9292961C929297949666
:1026A0001C921E92939782E092968C930895939633
:1026B0008D919C919497029719F58C918032B8F482
:1026C00011968C911197862728E09CE880FB8695CF
:1026D0000EF489272A95D1F711968C9311978C9136
:1026E000FD01E80FF11D62838C918F5F8C939C91AB
:1026F00095968C919597981718F183E090E00DC00E
:1027000093968D919C9194970397D1F411968C9107
:102710001197861739F484E090E094969C938E93F9
:102720009397089511961C9211971C9292961C9261
:10273000929794961C921E92939783E092968C9314
:102740000895FC01E60FF11D82810895E62FF0E067
:10275000DC01AE0FBF1F12962C913196E80FF91FC6
:102760004281942F80E030E0282B392BC901089555
:10277000FC011182108212A214A213A215A20895C4
:10278000FC011182108212A214A213A215A20895B4
:10279000DC0193968D919C919497892B41F481E073
:1027A00090E094969C938E93939725ED35C09396E5
:1027B0008D919C919497019739F42C918C91882359
:1027C000B9F082E090E024C093968D919C9194970B
:1027D000029789F495968C919597FD01E80FF11D6C
:1027E00022818F5F95968C9395979C918917A0F085
:1027F00083E090E00DC093968D919C919497039700
:1028000011F020E009C011962C91119784E090E01E
:1028100094969C938E939397822F0895DC018C91CC
:102820008032B8F411968C911197862728E09CE8A5
:1028300080FB86950EF489272A95D1F711968C9303
:1028400011978C91FD01E80FF11D62838C918F5FD0
:102850008C930895DC018C918032B8F411968C91A0
:102860001197862728E09CE880FB86950EF489273F
:102870002A95D1F711968C9311978C91FD01E80F51
:10288000F11D62838C918F5F8C938C918032B8F4B0
:1028900011968C911197872728E09CE880FB8695FC
:1028A0000EF489272A95D1F711968C9311978C9164
:1028B000FD01E80FF11D72838C918F5F8C93089559
:1028C000629FD001739FF001829FE00DF11D649F14
:1028D000E00DF11D929FF00D839FF00D749FF00DA0
:1028E000659FF00D9927729FB00DE11DF91F639F41
:1028F000B00DE11DF91FBD01CF011124089597FB13
:10290000092E07260AD077FD04D00CD006D000206F
:102910001AF4709561957F4F0895F6F7909581951B
:102920009F4F0895AA1BBB1B51E107C0AA1FBB1FE5
:10293000A617B70710F0A61BB70B881F991F5A954B
:10294000A9F780959095BC01CD0108952F923F92F3
:102950004F925F926F927F928F929F92AF92BF92AF
:10296000CF92DF92EF92FF920F931F93CF93DF935B
:10297000CDB7DEB7CA1BDB0B0FB6F894DEBF0FBEB8
:10298000CDBF09942A88398848885F846E847D8405
:102990008C849B84AA84B984C884DF80EE80FD8007
:1029A0000C811B81AA81B981CE0FD11D0FB6F8947D
:1029B000DEBF0FBECDBFED010895EE0FFF1F0590E6
:1029C000F491E02D0994FB01DC0102C005900D9209
:1029D00041505040D8F70895DC01CB01FC01F99932
:1029E000FECF06C0F2BDE1BDF89A319600B40D925B
:1029F00041505040B8F70895DC01CB0103C02D9140
:102A00000E94071541505040D0F70895262FF9999C
:102A1000FECF1FBA92BD81BD20BD0FB6F894FA9AC1
:0C2A2000F99A0FBE01960895F894FFCFBC
:102A2C000000000000000000000102020303030389
:102A3C000404040404040404050505050505050542
:102A4C000505050505050505060606060606060622
:102A5C00060606060606060606060606060606060A
:102A6C0006060606060606060707070707070707F2
:102A7C0007070707070707070707070707070707DA
:102A8C0007070707070707070707070707070707CA
:102A9C0007070707070707070707070707070707BA
:102AAC0007070707070707070808080808080808A2
:102ABC00080808080808080808080808080808088A
:102ACC00080808080808080808080808080808087A
:102ADC00080808080808080808080808080808086A
:102AEC00080808080808080808080808080808085A
:102AFC00080808080808080808080808080808084A
:102B0C000808080808080808080808080808080839
:102B1C000808080808080808080808080808080829
:102B2C00080808080808080800000000120E000039
:0A2B3C000000E80D00000000C510C5
:00000001FF
