:100000000C9483000C94AB000C94AB000C94AB00EC
:100010000C94AB000C94AB000C94AB000C949F0DB3
:100020000C94AB000C94AB000C94AB000C94AB00A4
:100030000C94AB000C94AB000C94AB000C94AB0094
:100040000C94AB000C94AB000C941B110C94AB0003
:100050000C94BE100C943E0D0C94AB000C94AB00B1
:100060000C94AB000C94AB00ED08F508F9080009FE
:100070006F09F309F309F3097A09F3098709F30909
:10008000A109AE09F309F309F309F309F309F30927
:10009000F309F309BA096A09F30908092E09F309F2
:1000A000F309F309C509CE09DF09E609010049038F
:1000B0003600FF006B00D100A000B800D500A600FC
:1000C0000A0199003F018E0074018400A9017C009F
:1000D000DE01740013026C00480265007D025D00C1
:1000E000B2025600E7024E001C03460051033D00D9
:1000F00086033200BB032200F0030300BA08FC0BA6
:10010000D60E78117D1111241FBECFEFD8E0DEBFCF
:10011000CDBF12E0A0E0B1E0E0E7F9E202C0059057
:100120000D92A032B107D9F713E0A0E2B2E001C00E
:100130001D92A93EB107E1F710E0C6E0D1E004C08E
:100140002297FE010E948114CC3FD107C9F70E947B
:10015000A60A0C94B6140C940000A0E0B0E0E3EB07
:10016000F0E00C944814DC012B01FA019C919230D0
:1001700008F439C1EB018881823008F433C194302E
:1001800069F4843009F02FC111969C9111978981EF
:10019000981709F428C1A0E0B1E025C1843009F422
:1001A00021C18230A9F4923009F01DC19A01AD013C
:1001B00088E0EA010990AE01E90109929E018150AF
:1001C000C1F7E201898111969C918923818308C13D
:1001D000923009F407C112962D903C901397EB01D1
:1001E0008A819B811496AD90BD90CD90DC9017973D
:1001F000EC80FD800E811F819101281B390BB90114
:1002000037FF04C066277727621B730B60327105C6
:100210000CF061C0121613066CF537014801062E6A
:1002200004C096948794779467940A94D2F721E057
:1002300030E040E050E004C0220F331F441F551F40
:100240006A95D2F721503040404050402E213F2146
:1002500040235123211531054105510521F021E0AD
:1002600030E040E050E079018A01E628F7280829CB
:1002700019293CC0232BD1F1260E371E350146012A
:10028000062E04C096948794779467940A94D2F7C4
:1002900021E030E040E050E004C0220F331F441F53
:1002A000551F6A95D2F721503040404050402A21D6
:1002B0003B214C215D21211531054105510521F0DE
:1002C00021E030E040E050E059016A01A628B7285B
:1002D000C828D9280BC0821593052CF01C01AA242C
:1002E000BB24650103C0EE24FF24870111969C9175
:1002F000D20111968C91981709F445C0992339F0D1
:10030000A80197012A193B094C095D0906C0A601FD
:1003100095012E193F09400B510B57FD08C0118262
:100320003382228224833583468357831DC081E034
:1003300081833382228288279927DC01821B930BD9
:10034000A40BB50B84839583A683B7830DC0220FBE
:10035000331F441F551F248335834683578382816F
:1003600093810197938382832481358146815781CC
:10037000DA01C9010197A109B1098F5F9F4FAF4F02
:10038000BF4328F30BC0918333822282EA0CFB1C0B
:100390000C1D1D1DE482F5820683178383E0808394
:1003A000248135814681578157FF1AC0C901AA2788
:1003B00097FDA095BA2F81709070A070B07056957F
:1003C000479537952795822B932BA42BB52B8483A8
:1003D0009583A683B78382819381019693838283D9
:1003E000DF0101C0D201CD01CDB7DEB7E2E10C944F
:1003F0006414A0E2B0E0EFEFF1E00C9454146983D0
:100400007A838B839C832D833E834F835887E9E0D7
:10041000EE2EF12CEC0EFD1ECE010196B7010E94CE
:10042000D0058E010F5E1F4FCE010596B8010E94C8
:10043000D0058A8991E089278A8BC701B801AE016E
:10044000475E5F4F0E94AD000E94FB04A096E6E06D
:100450000C947014A0E2B0E0E0E3F2E00C945414C9
:1004600069837A838B839C832D833E834F83588754
:10047000F9E0EF2EF12CEC0EFD1ECE010196B70136
:100480000E94D0058E010F5E1F4FCE010596B80168
:100490000E94D005C701B801AE01475E5F4F0E94C0
:1004A000AD000E94FB04A096E6E00C947014A0E25C
:1004B000B0E0EDE5F2E00C94481469837A838B8315
:1004C0009C832D833E834F835887CE010196BE01C6
:1004D000675F7F4F0E94D005CE010596BE016F5E1B
:1004E0007F4F0E94D0059985923088F089898230AB
:1004F000C8F0943019F4823051F404C0843029F4E7
:10050000923081F480E091E0C6C0923049F420E05E
:100510009A858A89981321E02A87CE010996BBC063
:10052000823049F420E09A858A89981321E02A8B49
:10053000CE014196B0C02D843E844F8458886D888A
:100540007E888F88988CEE24FF248701AA24BB2400
:10055000650140E050E060E070E0E0E0F0E0C10103
:1005600081709070892BE9F0E60CF71C081D191DAD
:100570009A01AB012A0D3B1D4C1D5D1D80E090E0F2
:10058000A0E0B0E0E614F7040805190520F481E0C6
:1005900090E0A0E0B0E0BA01A901480F591F6A1F1E
:1005A0007B1FAA0CBB1CCC1CDD1C97FE08C081E085
:1005B00090E0A0E0B0E0A82AB92ACA2ADB2A319646
:1005C000E032F10549F0660C771C881C991C5694A2
:1005D000479437942794C3CFFA85EA892B893C89BD
:1005E0008B859C85280F391F2E5F3F4F17C0CA018E
:1005F00081709070892B61F016950795F794E794B8
:1006000080E090E0A0E0B0E8E82AF92A0A2B1B2B52
:1006100076956795579547952F5F3F4F77FDE7CFC5
:100620000CC0440F551F661F771F17FD4160EE0C6D
:10063000FF1C001F111F21503040403090E059072F
:1006400090E0690790E4790760F32B8F3C8FDB0122
:10065000CA018F779070A070B07080349105A105A9
:10066000B10561F447FD0AC0E114F104010511056B
:1006700029F0405C5F4F6F4F7F4F40781A8EFE1716
:1006800011F081E08A8F4D8F5E8F6F8F78A383E0AA
:10069000898FCE0149960E94FB04A096E2E10C945A
:1006A0006414A8E1B0E0E7E5F3E00C945414698326
:1006B0007A838B839C832D833E834F83588789E085
:1006C000E82EF12CEC0EFD1ECE010196B7010E9422
:1006D000D0058E010F5E1F4FCE010596B8010E9416
:1006E000D0058985823040F08989823028F0C701A1
:1006F000B8010E94480601C081E06896E6E00C94CB
:100700007014A8E0B0E0E7E8F3E00C9451149B010A
:10071000AC0183E08983DA01C9018827B7FD83959D
:100720009927AA27BB27B82E211531054105510568
:1007300019F482E089833AC08823A9F0203080E050
:10074000380780E0480780E8580729F460E070E047
:1007500080E09FEC30C0EE24FF248701E21AF30A08
:10076000040B150B02C079018A018EE1C82ED12C31
:10077000DC82CB82ED82FE820F831887C801B7012D
:100780000E94AC0401971816190684F4082E04C0C0
:10079000EE0CFF1C001F111F0A94D2F7ED82FE829F
:1007A0000F831887C81AD90ADC82CB82BA82CE019D
:1007B00001960E94FB042896E9E00C946D14ACE0CD
:1007C000B0E0E5EEF3E00C94581469837A838B83F0
:1007D0009C83CE010196BE016B5F7F4F0E94D005C6
:1007E0008D81823061F1823050F1843021F48E812C
:1007F000882351F12EC02F81388537FD20C06E81AE
:100800002F3131051CF06623F9F023C08EE190E012
:10081000821B930B29853A854B855C8504C05695D0
:100820004795379527958A95D2F76623B1F050956D
:100830004095309521953F4F4F4F5F4F0EC020E0C0
:1008400030E040E050E009C02FEF3FEF4FEF5FE7AF
:1008500004C020E030E040E050E8B901CA012C9625
:10086000E2E00C947414A8E0B0E0E9E3F4E00C9446
:1008700050147B018C01611571058105910519F4F6
:1008800082E0898360C083E089838EE1C82ED12C09
:10089000DC82CB82ED82FE820F831887C801B7010C
:1008A0000E94AC04FC013197F7FF3BC0222733279D
:1008B0002E1B3F0B57016801022E04C0D694C7942B
:1008C000B794A7940A94D2F740E050E060E070E05B
:1008D00081E090E0A0E0B0E004C0880F991FAA1F5B
:1008E000BB1F2A95D2F70197A109B1098E219F213B
:1008F000A023B1230097A105B10521F041E050E00C
:1009000060E070E04A295B296C297D294D835E8374
:100910006F8378878EE190E08E1B9F0B9C838B8387
:1009200012C0309781F00E2E04C0EE0CFF1C001F89
:10093000111F0A94D2F7ED82FE820F831887CE1A18
:10094000DF0ADC82CB821A82CE0101960E94FB0470
:100950002896EAE00C946C14EF92FF920F931F9389
:100960007B018C0180E0E81680E0F80681E0080752
:1009700080E0180788F48FEFE816F10401051105EF
:1009800031F028F088E090E0A0E0B0E017C080E00F
:1009900090E0A0E0B0E012C080E0E81680E0F80649
:1009A00080E0080781E0180728F088E190E0A0E0E7
:1009B000B0E004C080E190E0A0E0B0E020E230E0F0
:1009C00040E050E0281B390B4A0B5B0B04C0169526
:1009D0000795F794E7948A95D2F7F701E85FFE4F01
:1009E0008081281B310941095109C9011F910F91CB
:1009F000FF90EF900895DF92EF92FF920F931F9375
:100A0000FC01E480F58006811781D18080818230ED
:100A100048F480E090E0A0E1B0E0E82AF92A0A2B4F
:100A20001B2BA5C0843009F49FC0823021F4EE2432
:100A3000FF24870105C0E114F1040105110519F433
:100A4000E0E0F0E096C0628173819FEF6238790741
:100A50000CF05BC022E83FEF261B370B2A31310533
:100A60002CF020E030E040E050E02AC0B801A701BF
:100A7000022E04C076956795579547950A94D2F74C
:100A800081E090E0A0E0B0E004C0880F991FAA1FA9
:100A9000BB1F2A95D2F70197A109B1098E219F2189
:100AA000A023B1230097A105B10521F081E090E0DA
:100AB000A0E0B0E09A01AB01282B392B4A2B5B2B2D
:100AC000DA01C9018F779070A070B0708034910501
:100AD000A105B10539F427FF09C0205C3F4F4F4FF6
:100AE0005F4F04C0215C3F4F4F4F5F4FE0E0F0E0AD
:100AF0002030A0E03A07A0E04A07A0E45A0710F02F
:100B0000E1E0F0E079018A0127C06038710564F501
:100B1000FB01E158FF4FD801C7018F779070A0709B
:100B2000B07080349105A105B10539F4E7FE0DC020
:100B300080E490E0A0E0B0E004C08FE390E0A0E0AB
:100B4000B0E0E80EF91E0A1F1B1F17FF05C016951F
:100B50000795F794E794319687E016950795F794F3
:100B6000E7948A95D1F705C0EE24FF248701EFEFC3
:100B7000F0E06E2F679566276795902F9F77D79443
:100B8000DD24D7948E2F8695492F462B582F5D292B
:100B9000B701CA011F910F91FF90EF90DF90089568
:100BA000FC01DB01408151812281622F6F7770E06F
:100BB000221F2227221F9381892F880F822B282F03
:100BC00030E0991F9927991F11969C931197211531
:100BD0003105A9F5411551056105710511F482E052
:100BE00037C082E89FEF13969C938E9312979A01D9
:100BF000AB0167E0220F331F441F551F6A95D1F7E1
:100C000083E08C930DC0220F331F441F551F129693
:100C10008D919C911397019713969C938E931297A5
:100C2000203080E0380780E0480780E4580758F318
:100C300014962D933D934D935C93179708952F3FF2
:100C4000310579F4411551056105710519F484E008
:100C50008C93089564FF03C081E08C9312C01C92B2
:100C600010C02F57304013963C932E93129783E079
:100C70008C9387E0440F551F661F771F8A95D1F725
:100C8000706414964D935D936D937C9317970895BC
:100C90001F93DC01FB019C91923008F447C08081D6
:100CA000823008F443C0943051F411961C91843082
:100CB00099F58181682F70E0611B71093FC0843014
:100CC00021F0923031F48230B9F18181882389F1A9
:100CD0002DC011961C9111978230F1F08181181767
:100CE000D9F412962D913C911397828193818217AA
:100CF000930794F028173907BCF014968D919D91B5
:100D00000D90BC91A02D24813581468157812817F3
:100D100039074A075B0718F4112341F00AC082170C
:100D20009307A407B50740F4112319F061E070E0C0
:100D300005C06FEF7FEF02C060E070E0CB011F9154
:100D40000895CF92DF92EF92FF920F931F93CF936C
:100D5000DF938C017B01FC018081882351F16801C4
:100D6000C80160E00E944313982F8077803709F50F
:100D70009037B1F4C7010E946213C1E0D0E009C00E
:100D8000C6016C2F0E944313682FC7010E94B01345
:100D90002196F801808190E0C817D9078CF307C02D
:100DA000913739F0923729F080E0933719F481E0D8
:100DB00001C080E0DF91CF911F910F91FF90EF90E4
:100DC000DF90CF900895EF92FF920F931F93DF93E0
:100DD000CF9300D0CDB7DEB79C01F42E052F162F90
:100DE000E72ECE010196B90142E050E00E948E1438
:100DF00069816F3F19F48A818F3FE9F070E080E0EC
:100E000090E00E9433047B018C016A8170E080E0F5
:100E100090E00E94330420E030E040E85BE30E9471
:100E200057029B01AC01C801B7010E942A02F62EAD
:100E3000072F182FE92E2F2D302F412F5E2DB901AE
:100E4000CA010F900F90CF91DF911F910F91FF90EA
:100E5000EF9008950F931F93DF93CF9300D0CDB7FA
:100E6000DEB79C018B01CE010196B90142E050E052
:100E70000E948E1489819A818F5F9F4F11F41A838B
:100E8000098389819A810F900F90CF91DF911F91F3
:100E90000F910895DF93CF9300D0CDB7DEB7CE0189
:100EA000019660E070E042E050E00E948E143A81CA
:100EB00084E6389FC00111242981820F911D8B3C4B
:100EC0009105A1F032503D3F28F082E090E067E0CC
:100ED0000E94A81483E0898382E08A83CE01019670
:100EE00060E070E042E050E00E949E140F900F908E
:100EF000CF91DF910895FC0174AF63AF0895FC01B9
:100F0000448D558D23AD34ADC9010297481759075B
:100F100014F480E0089580E02E5F3F4F24173507DA
:100F20000CF081E00895FC0183AD94AD0895FC01BF
:100F30000190F081E02D22813381C90108950F9342
:100F40001F93CF93DF93EC018C01025F1F4FC80109
:100F50000E94D20C882391F0E881F981A081B181AF
:100F60002D913C91CF01F90109958823B1F1488D6C
:100F7000598D6A8D7B8DC8010E94F70C8E010C5F24
:100F80001F4FC8010E94D20C882339F1C80140E2EA
:100F900051EA67E070E00E94F70CE881F981228154
:100FA00033812C8F3D8FCE014E96B9010E94BC112A
:100FB000BC0197FF03C060E070E006C08F3F910561
:100FC00019F014F06FEF70E0EA81FB81A081B1812C
:100FD0002D913C91CF01F9010995DF91CF911F919E
:100FE0000F9108956F927F928F929F92AF92BF92CE
:100FF000CF92DF92EF92FF920F931F93CF93DF93E5
:10100000EC011D8E1C8E8CE090E040E050E060EE24
:1010100070E40E94E3063B014C018EE090E046E65E
:1010200056E666EA7EE30E94E3065B016C0180E11E
:1010300090E040E050E060E172E40E94E3067B0152
:101040008C01CE014E960E948711C401B30120E0AD
:1010500030E040E050E00E945103882391F5C60142
:10106000B50120E030E040E050E00E9451038823C9
:1010700041F5C801B70120E030E040E050E00E94B7
:1010800051038823F1F40F2EF6E6AF2EF6E6BF2EBD
:10109000F6EACF2EFEE3DF2EF02D0F2EF0E0EF2E3E
:1010A000F0E0FF2EF0E10F2FF2E41F2FF02D0F2EB6
:1010B000F0E06F2EF0E07F2EF0EE8F2EF0E49F2E0A
:1010C000F02D6E8E7F8E88A299A2AAA2BBA2CCA27E
:1010D000DDA2EEA2FFA208A719A71CAE1BAECE018F
:1010E000049640E251EA67E070E00E94F70C488DF8
:1010F000598D6A8D7B8DCE010E960E94F70CDF9183
:10110000CF911F910F91FF90EF90DF90CF90BF9004
:10111000AF909F908F907F906F900895AF92BF9205
:10112000CF92DF92EF92FF920F931F937C015801B1
:101130006901FC01718360835383428304960E949A
:10114000CB0CC7010E960E94CB0CF701A08EB18E7E
:10115000C28ED38EC7014E960E948711C7010E948E
:10116000F2071F910F91FF90EF90DF90CF90BF900B
:10117000AF90089580E292E00E94CB0C08957F9298
:101180008F929F92AF92BF92CF92DF92EF92FF9297
:101190000F931F93DF93CF93CDB7DEB760970FB652
:1011A000F894DEBF0FBECDBFFC016B0180818823A8
:1011B00009F419C17F01CF0161E00E944313E82FB8
:1011C000F0E0E232F10508F00EC1EC5CFF4FEE0FEB
:1011D000FF1F0590F491E02D0994C60161E00E9483
:1011E000B013C6016BEC70E0FBC081E080932A0273
:1011F000E3C0C60161E00E94B01388E193E0CBC078
:10120000C70162E00E944813BC0188E193E0D2C0AC
:10121000C70162E00E9448135C01C70164E00E94BC
:101220004313813148F5E82EFF248E010F5F1F4FD5
:10123000C801B501A7010E948E14C60161E00E9499
:10124000B013E00EF11E06C0C601F80161918F01D6
:101250000E94B0130E151F05B9F712C0C70162E056
:101260000E944813882E792EC70164E00E94431320
:10127000982EF0E1F81730F4C60162E00E94B01336
:1012800081E0B2C08E010F5F1F4FC801682D772D1E
:10129000492D50E00E948E14580115E0092D0B5F76
:1012A00008C0C701612F0E944313F50181935F01BC
:1012B0001F5F1017B1F7CE010196682D772D492DCC
:1012C00050E00E949E14C60161E00E94B013C60166
:1012D000692DD4CF8BE292E00E94B50A6DC0C701A0
:1012E00062E00E944313682F8BE292E070E00E945C
:1012F000B10A62C0C70162E00E94431360E081301E
:1013000009F461E08BE292E00E94BB0A55C0C7017C
:1013100062E00E944313682F70E0769567956170D4
:101320008BE292E00E94BB0AC70162E00E94431375
:10133000682F70E0617070708BE292E00E94BE0ACC
:101340003BC0C70162E00E944313682F70E06170E8
:10135000707089EF92E00E94720D2EC0C70162E0AA
:101360000E944313682F70E06170707089EF92E003
:101370000E94800DC60161E00E94B01388E193E0F5
:101380000E947F07682FC60179CFC60161E00E94E5
:10139000B01385E593E00E94970720C089EF92E0A3
:1013A00061E00E949A0DC70162E00E944813BC01EF
:1013B00085E593E00E947B07C60161E05FCFC6012F
:1013C00061E00E94B01388E193E006C0C60161E0CD
:1013D0000E94B01385E593E00E949307BC01C6010B
:1013E0000E94CC134DCF80E060960FB6F894DEBF1C
:1013F0000FBECDBFCF91DF911F910F91FF90EF9066
:10140000DF90CF90BF90AF909F908F907F90089586
:101410008091E3039091E403892B09F481C08091CA
:10142000E3039091E403049709F080C079C010921F
:101430002A020E94970A8091BD039091BE03892BD6
:1014400021F18091BD039091BE030497F1F080914A
:101450002002882349F480E292E040E25EE460E00A
:1014600070E00E94F70C11C080E292E00E94D20C62
:10147000882359F08AE993E00E94A81284E08093BF
:10148000BC0389E993E00E949F108091BC038823EC
:1014900061F080E292E00E94CF0C8AE993E00E9422
:1014A000B61289E993E00E949F108091BD0390914C
:1014B000BE030497D9F580EC93E00E9462138AE999
:1014C00093E060EC73E00E94A1068823E1F48AE9CE
:1014D00093E060E00E9443138823A9F48AE993E033
:1014E00060EC73E00E94A106882369F48AE993E026
:1014F00060EC73E00E94BF08882329F480EC93E03D
:1015000065E00E94B01380E292E00E94CF0C8AE96D
:1015100093E00E94B61289E993E00E94FF100895BB
:1015200080912A02882309F486CF81CF0895F89408
:101530000E94BE0C0E944A0789EF92E00E94FC0DB7
:101540008BE292E00E94DF0B789408950E94970A44
:101550000E94080A0E94010C8BE292E00E940B0B91
:10156000F7CFFC01738362830895FC01848191E0CD
:10157000892784830895FC01608308951F93CF9386
:10158000DF93EC01162F8981662349F58823F1F159
:1015900088818823D9F18D818823C1F1CE014296BB
:1015A0000E94D20C882391F181E090E09F838E838A
:1015B00089EF92E060E070E00E94F80D6C8D7D8D07
:1015C0008E8D9F8D28EE33E040E050E00E940214A3
:1015D000AB01BC01CE0108960E94F70C17C088230E
:1015E00099F48881882381F068A579A58AA59BA5AF
:1015F00028EE33E040E050E00E940214AB01BC0151
:10160000CE0142960E94F70C1F821E821983DF9141
:10161000CF911F9108950F931F93CF93DF93EC0108
:101620008D81882309F471C08E819F81892B09F4F3
:101630006CC08E01085F1F4FC8010E94D20C882326
:1016400009F47BC08E819F818230910539F183300E
:10165000910524F4019709F070C007C0833091050B
:10166000A9F1049709F069C047C082E090E09F8328
:101670008E8368A179A18AA19BA128EE33E040E086
:1016800050E00E940214AB01BC01C8010E94F70C9B
:101690006A817B81709561957F4F4BC083E090E0BC
:1016A0009F838E836C8D7D8D8E8D9F8D28EE33E094
:1016B00040E050E00E940214AB01BC01C8010E944E
:1016C000F70C89EF92E060E070E035C084E090E0D4
:1016D0009F838E836CA17DA18EA19FA128EE33E014
:1016E00040E050E00E940214AB01BC01C8010E941E
:1016F000F70C6A817B811DC089EF92E060E070E0A9
:101700000E94F80D1F821E8218C08C81882379F4F4
:101710008981882361F088812A813B81882311F0A7
:10172000B90107C066277727621B730B02C060E010
:1017300070E089EF92E00E94F80DDF91CF911F9148
:101740000F9108950F931F938C0181E0F801858319
:1017500084E090E065E070E00E942A07A0E0B0E03D
:10176000F801848F958FA68FB78F86E090E064EFA5
:1017700071E00E942A07A0E0B0E0F80180A391A3E5
:10178000A2A3B3A388E090E06CE271E00E942A0774
:10179000A0E0B0E0F80184A395A3A6A3B7A38AE0D4
:1017A00090E06CE271E00E942A07A0E0B0E0F8014E
:1017B00080A791A7A2A7B3A71F910F910895FC013D
:1017C00081E0808314821182138212821782168232
:1017D000CF010E94A20B08950F931F938C010896CE
:1017E0000E94CB0CC80142960E94CB0CC8010E94FB
:1017F000DF0B1F910F9108958BE292E00E94EC0B9A
:10180000089588E193E00E949F07809192038823C6
:1018100021F085E593E00E949F0708950F931F93A1
:10182000CF93DF938C01262F332727FD309584E15A
:1018300090E0289FF001299FF00D389FF00D1124B2
:10184000EE0FFF1FEE0FFF1FE55AFD4F41E050E086
:1018500060817181061717070CF040C0415050405D
:1018600084E190E0289FD001299FB00D389FB00DF2
:101870001124FD01E40FF51F4F5F5F4FEE0FFF1FB7
:10188000EE0FFF1FCF01895A9D4FEC01288139814E
:10189000E75AFD4F0190F081E02D021B130BA40FBE
:1018A000B51FAA0FBB1FAA0FBB1FA75ABD4F8D9113
:1018B0009C918E1B9F0B621B730B9C01029FC001AE
:1018C000039F900D129F900D11240E9421146E0F02
:1018D0007F1F6F3F710591F08CF00BC0842F8F5FDD
:1018E0004F5F5F4F34964431510509F0B1CF8431D9
:1018F00019F46FEF70E002C060E070E0CB01DF919F
:10190000CF911F910F910895DF93CF930F92CDB791
:10191000DEB7BC01CE01019641E050E00E948E147A
:1019200090E089818F3F09F091E0892F0F90CF914E
:10193000DF910895EF92FF920F931F93F82EE92EF7
:10194000162F072F862F972F0E94840C882349F08B
:101950008F2D9E2D612F702F40E550E00E948E1438
:1019600008C08F2D9E2D6CEA70E040E550E00E948B
:1019700085141F910F91FF90EF90089587E592E0F5
:1019800060E071E00E949A0C87EA92E060E871E002
:101990000E949A0C0895FC01108211820895FC01A6
:1019A00010820895CF93DF93EC0188818823D9F0CA
:1019B00089818823C1F489EF92E00E94650D2A8114
:1019C0003B814C815D81621B730B840B950B2E81D7
:1019D0003F8148855985621773078407950718F07A
:1019E000188281E089838981DF91CF910895CF9218
:1019F000DF92EF92FF920F931F938C016A017B019C
:101A000081E0F8018083118289EF92E00E94650DE8
:101A1000F8016283738384839583C682D782E086CC
:101A2000F1861F910F91FF90EF90DF90CF90089576
:101A300097B18095982397B998B1982398B9EAE718
:101A4000F0E080818F6880830895282F80917A004C
:101A500086FF02C080E008959FB7F8947093F80263
:101A60006093F7022F70206420937C0080917A00AD
:101A7000806480937A009FBF81E008951F920F9247
:101A80000FB60F9211242F933F934F938F939F93F1
:101A9000EF93FF932091780040917900E091F70255
:101AA000F091F802942F80E030E0822B932B918309
:101AB0008083FF91EF919F918F914F913F912F9153
:101AC0000F900FBE0F901F901895FC018FB7F894E0
:101AD000E656FF4F20813181428153818FBFB9018A
:101AE000CA0108958091E603E82FF0E09281662311
:101AF00011F084E001C080E09B7F892B82830895F0
:101B0000FC012FB7F894E756FF4F108280918000B8
:101B10008F73809380008091E603E82FF0E092813C
:101B2000662311F082E001C080E09D7F892B8283D3
:101B30002FBF0895FC01E756FF4F608308951F9261
:101B40000F920FB60F9211248F939F93AF93BF9371
:101B50008091930390919403A0919503B091960383
:101B6000805C9F4FAF4FBF4F80939303909394033C
:101B7000A0939503B0939603BF91AF919F918F91DE
:101B80000F900FBE0F901F9018952FB7F894862FC7
:101B900081508E3F88F084B58F7384BD8091E803B7
:101BA000E82FF0E092816F3F11F480E401C080E003
:101BB0009F7B892B828304C067BD84B5806884BD08
:101BC0002FBF08952FB7F894809180008F73809372
:101BD00080008091E603E82FF0E09281662311F007
:101BE00082E001C080E09D7F892B82832FBF089512
:101BF000CB010E94F80E08950F931F938C010E9451
:101C0000DB0EE091E603F0E082818B7F8283E0913E
:101C1000E603F0E0818184608183E091E603F0E0F7
:101C200082818D7F8283E091E603F0E08181826092
:101C30008183E091E803F0E082818F7B8283E091F1
:101C4000E803F0E081818064818392E09093B000AA
:101C500083E08093B10080E28093B30090937000A2
:101C600081E0809380008BE0809381001092890056
:101C70001092880010928B0010928A0010926F00D0
:101C8000C8010E94A40FC8010A960E94730FC801E0
:101C90004F960E94F207C801845A9F4F0E94F20794
:101CA00080E090E00E94F80E09E913E0C80161E0CD
:101CB0000E94AF10C80101960E94B6121F910F91A9
:101CC0000895CF92DF92EF92FF920F931F93DF93CD
:101CD000CF9300D000D000D0CDB7DEB77C0180918B
:101CE000E80389838A81807F84608A839091E603F8
:101CF0009B838C81807F85608C839D838E81807F98
:101D000084608E83C701BE016F5F7F4FAE014D5F60
:101D10005F4F9E012B5F3F4F0E94800F8AE0C82ECD
:101D2000D12CCE0CDF1CC60166E041E00E94370FCB
:101D300082E192E0F701948F838F8CE092E0968F9E
:101D4000858FA701455E5F4FC7014F96B70100E23F
:101D500011EA27E030E00E948E08C701845A9F4FA5
:101D6000B6012DE130E0E20EF31EA70100E513EC11
:101D700020E030E00E948E088CE790E0E80EF91E2B
:101D800081E0F701819310821182128213822696DC
:101D90000FB6F894DEBF0FBECDBFCF91DF911F917C
:101DA0000F91FF90EF90DF90CF90089589EF92E030
:101DB0000E94610E0895109298031092970383E099
:101DC00084BD85BD18BC10926E00E091E803F0E080
:101DD000818180628183E091E803F0E082818F7DE0
:101DE0008283E091E603F0E0818181608183089540
:101DF0009C01809197039091980328173907B1F1BE
:101E000030939803209397035FB7F894E091E80329
:101E10002115310541F484B58F7C84BDF0E08281C9
:101E20008F7D828307C0F0E082818062828384B5E7
:101E3000806284BD40E037FF04C041E030952195C9
:101E40003F4F8091E603E82FF0E082818E7F90E0A3
:101E5000442309F491E0892B8283C9012F3F310586
:101E600019F014F08FEF90E088BD5FBF0895FC017A
:101E700088E192E09183808364831786408B10868B
:101E80001782128611861486138616861586089583
:101E90000F931F93CF93DF93EC018FB7F8940D81CD
:101EA0001E818FBFBE016B5F7F4F8C810E94250D0D
:101EB0008823A1F08F8590E0FC01EE0FFF1FEC0F4F
:101EC000FD1F108707830196837090708F87C8016C
:101ED00068890E940E0C9B838A8381E0DF91CF91F9
:101EE0001F910F91089521E030E0FC01048002C0B1
:101EF000220F331F0A94E2F7822F0E94180D0895D3
:101F0000FC01DB018EE192E0918380836C9111965C
:101F10009C919F708581807F892B85836483DA0102
:101F20006C9111969C919F708781807F892B87830C
:101F30006683D9014C9111969C919F708185807F19
:101F4000892B818740870895DC011496EC911497C2
:101F5000F0E0318115968C9115978F7041E050E03B
:101F6000BA0102C0660F771F8A95E2F7262F2095E7
:101F70002323262B21831696EC911697F0E03181CE
:101F800017968C9117978F70BA0102C0660F771F52
:101F90008A95E2F7262F20952323262B2183189656
:101FA000EC911897F0E0918119968C918F7002C096
:101FB000440F551F8A95E2F74095492341830895C0
:101FC0000F931F93CF93DF93DC011496EC9114973A
:101FD000F0E0328115962C9115972F7081E090E0FA
:101FE00002C0880F991F2A95E2F780958323828388
:101FF000000000000000000000001696EC9116970B
:10200000F0E0328117962C9117972F7081E090E0C5
:1020100002C0880F991F2A95E2F780958323828357
:102020000000000000000000000060E070E04FEFE2
:102030005FEFC1E0D0E01696EC911697F0E03281A8
:1020400017968C9117978F708E0102C0000F111F89
:102050008A95E2F7202F20952323202B228300004E
:1020600000000000000000004A30510598F4660F9F
:10207000771F1896EC911897F0E0808190E0199600
:102080002C9119972F7002C0959587952A95E2F7A4
:1020900080FD61601696EC911697F0E0228117960C
:1020A0008C9117978F708E0102C0000F111F8A95B7
:1020B000E2F7C801809582238283000000000000BF
:1020C000000000004F5F5F4F4F30510509F0B3CF64
:1020D0001496EC911497F0E0328115962C91159797
:1020E0002F7081E090E002C0880F991F2A95E2F7D7
:1020F000282F20952323282B228300000000000096
:10210000000000001696EC911697F0E032811796C9
:102110002C9117972F7081E090E002C0880F991FD3
:102120002A95E2F780958323828313967C936E939E
:10213000129781E0DF91CF911F910F9108959FB782
:10214000F894E091E703F0E082818E7F8283E09152
:10215000E703F0E082818D7F82839FBF0895FC01B9
:1021600060838081882321F08091C100806C03C04E
:102170008091C1008F738093C10008951F920F92C8
:102180000FB60F9211242F933F934F935F936F934A
:102190007F938F939F93AF93BF93EF93FF93809120
:1021A000E3039091E403892B69F08091E30390911C
:1021B000E403049739F080EC93E00E946A13809363
:1021C000C6000CC0E091E703F0E082818E7F82833D
:1021D000E091E703F0E082818D7F8283FF91EF91B0
:1021E000BF91AF919F918F917F916F915F914F912F
:1021F0003F912F910F900FBE0F901F9018951F9336
:10220000FC0180818823A9F01FB7F894CF0187963D
:102210000E946A13E091E703F0E09281916092835B
:10222000E091E703F0E09281926092838093C60090
:102230001FBF1F9108951F920F920FB60F92112486
:102240002F933F934F935F936F937F938F939F93BE
:10225000AF93BF93EF93FF936091C6008AE993E039
:102260000E94BD12FF91EF91BF91AF919F918F910D
:102270007F916F915F914F913F912F910F900FBE82
:102280000F901F9018950F931F938C01FC011192D2
:10229000CF010E94AF12C80187960E945A13109274
:1022A000C50089E18093C40080E48093C00088E188
:1022B0008093C10086E08093C200E091E703F0E0E4
:1022C000818181608183E091E703F0E08181826018
:1022D0008183E091E703F0E082818E7F8283E09149
:1022E000E703F0E082818D7F82831F910F91089533
:1022F00089E993E00E944311089583E28093E60305
:1023000086E28093E70389E28093E8030895CF9300
:10231000DF93EC011C8E1B8E1A8E198E1E8E1D8E65
:1023200080E090E0A0E0B0E088879987AA87BB872B
:102330008C839D83AE83BF8388839983AA83BB8369
:10234000188E0BC0E82FF0E03696EE0FFF1FEC0F53
:10235000FD1F118210828F5F888F888D843090F3EB
:10236000188E80E090E0A0E0B0E08C8B9D8BAE8B6F
:10237000BF8BDF91CF9108952F923F924F925F9242
:102380006F927F928F929F92AF92BF92CF92DF9285
:10239000EF92FF920F931F93DF93CF93CDB7DEB7EA
:1023A00028970FB6F894DEBF0FBECDBF98878F83F6
:1023B000FC01058CF68DE02DE61BF70BFA83E98313
:1023C000FC01838D948D29813A81820F931F948F14
:1023D000838F8150914024F080E091E0948F838F2F
:1023E000EF81F885838D948D80509F4F34F480E089
:1023F0009FEFEF81F885948F838F29813A81B9010E
:10240000882777FD8095982F0E948103EF81F885BA
:1024100020813181428153810E9457026B837C83EA
:102420008D839E83EF81F885638D748D882777FD7A
:102430008095982F0E948103EF81F8852481358152
:10244000468157810E9457021B012C01EF81F885BC
:10245000818D928DC980DA80C81AD90A008D10E06A
:102460000A5F1F4F3801660C771C6E0E7F1EF3014A
:1024700060817181882777FD8095982F0E94810364
:102480009B01AC01EF81F8856489758986899789FC
:102490000E94F9014B015C01EF81F885648B758B1B
:1024A000868B978BF301D182C082EE24D7FCE09417
:1024B000FE2CC701B6010E9481039B01AC01C5013E
:1024C000B4010E942A02EF81F885648B758B868B9C
:1024D000978B0550104003701070008F2085318558
:1024E000428553850E9457027B018C0129813A81E4
:1024F000EF81F885328F218F6B817C818D819E8168
:10250000A20191010E942A02A80197010E942A02B9
:102510000E94DF039B01AC01220F331FC9012896E3
:102520000FB6F894DEBF0FBECDBFCF91DF911F91E4
:102530000F91FF90EF90DF90CF90BF90AF909F9062
:102540008F907F906F905F904F903F902F90089565
:10255000FC011182108212A214A213A20895FC01A0
:102560001182108212A214A213A20895FC011182FA
:10257000108212A214A213A20895DC0193968D91E9
:102580009C919497892B91F4653D19F481E090E03A
:1025900066C011961C9211971C9292961C9292976B
:1025A00094961C921E92939781E020C093968D91F1
:1025B0009C9194970197E9F4603260F495966C933E
:1025C000959795968C919597882309F438C082E069
:1025D00090E045C011961C9211971C9292961C9205
:1025E000929794961C921E92939782E092968C9367
:1025F000089593968D919C919497029719F58C91DB
:102600008032B8F411968C911197862728E09CE8C7
:1026100080FB86950EF489272A95D1F711968C9325
:1026200011978C91FD01E80FF11D62838C918F5FF2
:102630008C939C9195968C919597981718F183E0BF
:1026400090E00DC093968D919C9194970397D1F44F
:1026500011968C911197861739F484E090E0949646
:102660009C938E939397089511961C9211971C92A8
:1026700092961C92929794961C921E92939783E046
:1026800092968C930895FC01E60FF11D82810895C6
:10269000E62FF0E0DC01AE0FBF1F12962C913196B1
:1026A000E80FF91F4281942F80E030E0282B392B6E
:1026B000C9010895FC011182108212A214A213A272
:1026C00015A20895FC011182108212A214A213A275
:1026D00015A20895DC0193968D919C919497892B76
:1026E00041F481E090E094969C938E93939725ED2E
:1026F00035C093968D919C919497019739F42C91C4
:102700008C918823B9F082E090E024C093968D915B
:102710009C919497029789F495968C919597FD01D9
:10272000E80FF11D22818F5F95968C9395979C9170
:102730008917A0F083E090E00DC093968D919C9155
:102740009497039711F020E009C011962C911197EE
:1027500084E090E094969C938E939397822F0895B3
:10276000DC018C918032B8F411968C9111978627F8
:1027700028E09CE880FB86950EF489272A95D1F7FE
:1027800011968C9311978C91FD01E80FF11D6283D6
:102790008C918F5F8C930895DC018C918032B8F41A
:1027A00011968C911197862728E09CE880FB8695EE
:1027B0000EF489272A95D1F711968C9311978C9155
:1027C000FD01E80FF11D62838C918F5F8C938C91DA
:1027D0008032B8F411968C911197872728E09CE8F5
:1027E00080FB86950EF489272A95D1F711968C9354
:1027F00011978C91FD01E80FF11D72838C918F5F11
:102800008C930895629FD001739FF001829FE00D29
:10281000F11D649FE00DF11D929FF00D839FF00D5F
:10282000749FF00D659FF00D9927729FB00DE11D0B
:10283000F91F639FB00DE11DF91FBD01CF011124E8
:10284000089597FB092E07260AD077FD04D00CD0F7
:1028500006D000201AF4709561957F4F0895F6F721
:10286000909581959F4F0895AA1BBB1B51E107C00E
:10287000AA1FBB1FA617B70710F0A61BB70B881F10
:10288000991F5A95A9F780959095BC01CD0108959F
:102890002F923F924F925F926F927F928F929F9270
:1028A000AF92BF92CF92DF92EF92FF920F931F935E
:1028B000CF93DF93CDB7DEB7CA1BDB0B0FB6F8940F
:1028C000DEBF0FBECDBF09942A88398848885F844F
:1028D0006E847D848C849B84AA84B984C884DF80C0
:1028E000EE80FD800C811B81AA81B981CE0FD11DA4
:1028F0000FB6F894DEBF0FBECDBFED010895EE0F09
:10290000FF1F0590F491E02D0994FB01DC0102C04A
:1029100005900D9241505040D8F70895DC01CB014D
:10292000FC01F999FECF06C0F2BDE1BDF89A3196DF
:1029300000B40D9241505040B8F70895DC01CB012E
:1029400003C02D910E94A91441505040D0F7089522
:10295000262FF999FECF1FBA92BD81BD20BD0FB6BB
:10296000F894FA9AF99A0FBE01960895F894FFCF59
:102970000000000000000000000102020303030346
:1029800004040404040404040505050505050505FF
:1029900005050505050505050606060606060606DF
:1029A00006060606060606060606060606060606C7
:1029B00006060606060606060707070707070707AF
:1029C0000707070707070707070707070707070797
:1029D0000707070707070707070707070707070787
:1029E0000707070707070707070707070707070777
:1029F000070707070707070708080808080808085F
:102A00000808080808080808080808080808080846
:102A10000808080808080808080808080808080836
:102A20000808080808080808080808080808080826
:102A30000808080808080808080808080808080816
:102A40000808080808080808080808080808080806
:102A500008080808080808080808080808080808F6
:102A600008080808080808080808080808080808E6
:102A7000080808080808080800000000E20D000027
:102A80000000C50D00000000480F00000000E00F2E
:00000001FF
