:100000000C9483000C94AB000C94AB000C94AB00EC
:100010000C94AB000C94AB000C94AB000C94AB00B4
:100020000C94510E0C94230E0C94AB000C94B20D56
:100030000C94AB000C94AB000C94AB000C94AB0094
:100040000C94AB000C94AB000C94DA100C94AB0045
:100050000C9474100C942B0D0C94AB000C94AB000E
:100060000C94AB000C94AB00DA08E208E608ED084B
:100070005C09E009E009E0096709E0097409E009A1
:100080008E099B09E009E009E009E009E009E009BF
:10009000E009E009A7095709E009F5081B09E0098B
:1000A000E009E009B209BB09CC09D3090100490301
:1000B0003600FF006B00D100A000B800D500A600FC
:1000C0000A0199003F018E0074018400A9017C009F
:1000D000DE01740013026C00480265007D025D00C1
:1000E000B2025600E7024E001C03460051033D00D9
:1000F00086033200BB032200F0030300A708E90BCC
:10010000770F2F11341111241FBECFEFD4E0DEBFC3
:10011000CDBF12E0A0E0B1E0E0EFF8E202C0059050
:100120000D92AA31B107D9F713E0AAE1B2E001C0FC
:100130001D92A83EB107E1F710E0C6E0D1E004C08F
:100140002297FE010E944114CC3FD107C9F70E94BB
:10015000930A0C9476140C940000A0E0B0E0E3EB5A
:10016000F0E00C940814DC012B01FA019C91923010
:1001700008F439C1EB018881823008F433C194302E
:1001800069F4843009F02FC111969C9111978981EF
:10019000981709F428C1A0E0B1E025C1843009F422
:1001A00021C18230A9F4923009F01DC19A01AD013C
:1001B00088E0EA010990AE01E90109929E018150AF
:1001C000C1F7E201898111969C918923818308C13D
:1001D000923009F407C112962D903C901397EB01D1
:1001E0008A819B811496AD90BD90CD90DC9017973D
:1001F000EC80FD800E811F819101281B390BB90114
:1002000037FF04C066277727621B730B60327105C6
:100210000CF061C0121613066CF537014801062E6A
:1002200004C096948794779467940A94D2F721E057
:1002300030E040E050E004C0220F331F441F551F40
:100240006A95D2F721503040404050402E213F2146
:1002500040235123211531054105510521F021E0AD
:1002600030E040E050E079018A01E628F7280829CB
:1002700019293CC0232BD1F1260E371E350146012A
:10028000062E04C096948794779467940A94D2F7C4
:1002900021E030E040E050E004C0220F331F441F53
:1002A000551F6A95D2F721503040404050402A21D6
:1002B0003B214C215D21211531054105510521F0DE
:1002C00021E030E040E050E059016A01A628B7285B
:1002D000C828D9280BC0821593052CF01C01AA242C
:1002E000BB24650103C0EE24FF24870111969C9175
:1002F000D20111968C91981709F445C0992339F0D1
:10030000A80197012A193B094C095D0906C0A601FD
:1003100095012E193F09400B510B57FD08C0118262
:100320003382228224833583468357831DC081E034
:1003300081833382228288279927DC01821B930BD9
:10034000A40BB50B84839583A683B7830DC0220FBE
:10035000331F441F551F248335834683578382816F
:1003600093810197938382832481358146815781CC
:10037000DA01C9010197A109B1098F5F9F4FAF4F02
:10038000BF4328F30BC0918333822282EA0CFB1C0B
:100390000C1D1D1DE482F5820683178383E0808394
:1003A000248135814681578157FF1AC0C901AA2788
:1003B00097FDA095BA2F81709070A070B07056957F
:1003C000479537952795822B932BA42BB52B8483A8
:1003D0009583A683B78382819381019693838283D9
:1003E000DF0101C0D201CD01CDB7DEB7E2E10C944F
:1003F0002414A0E2B0E0EFEFF1E00C941414698350
:100400007A838B839C832D833E834F835887E9E0D7
:10041000EE2EF12CEC0EFD1ECE010196B7010E94CE
:10042000D0058E010F5E1F4FCE010596B8010E94C8
:10043000D0058A8991E089278A8BC701B801AE016E
:10044000475E5F4F0E94AD000E94FB04A096E6E06D
:100450000C943014A0E2B0E0E0E3F2E00C94141449
:1004600069837A838B839C832D833E834F83588754
:10047000F9E0EF2EF12CEC0EFD1ECE010196B70136
:100480000E94D0058E010F5E1F4FCE010596B80168
:100490000E94D005C701B801AE01475E5F4F0E94C0
:1004A000AD000E94FB04A096E6E00C943014A0E29C
:1004B000B0E0EDE5F2E00C94081469837A838B8355
:1004C0009C832D833E834F835887CE010196BE01C6
:1004D000675F7F4F0E94D005CE010596BE016F5E1B
:1004E0007F4F0E94D0059985923088F089898230AB
:1004F000C8F0943019F4823051F404C0843029F4E7
:10050000923081F480E091E0C6C0923049F420E05E
:100510009A858A89981321E02A87CE010996BBC063
:10052000823049F420E09A858A89981321E02A8B49
:10053000CE014196B0C02D843E844F8458886D888A
:100540007E888F88988CEE24FF248701AA24BB2400
:10055000650140E050E060E070E0E0E0F0E0C10103
:1005600081709070892BE9F0E60CF71C081D191DAD
:100570009A01AB012A0D3B1D4C1D5D1D80E090E0F2
:10058000A0E0B0E0E614F7040805190520F481E0C6
:1005900090E0A0E0B0E0BA01A901480F591F6A1F1E
:1005A0007B1FAA0CBB1CCC1CDD1C97FE08C081E085
:1005B00090E0A0E0B0E0A82AB92ACA2ADB2A319646
:1005C000E032F10549F0660C771C881C991C5694A2
:1005D000479437942794C3CFFA85EA892B893C89BD
:1005E0008B859C85280F391F2E5F3F4F17C0CA018E
:1005F00081709070892B61F016950795F794E794B8
:1006000080E090E0A0E0B0E8E82AF92A0A2B1B2B52
:1006100076956795579547952F5F3F4F77FDE7CFC5
:100620000CC0440F551F661F771F17FD4160EE0C6D
:10063000FF1C001F111F21503040403090E059072F
:1006400090E0690790E4790760F32B8F3C8FDB0122
:10065000CA018F779070A070B07080349105A105A9
:10066000B10561F447FD0AC0E114F104010511056B
:1006700029F0405C5F4F6F4F7F4F40781A8EFE1716
:1006800011F081E08A8F4D8F5E8F6F8F78A383E0AA
:10069000898FCE0149960E94FB04A096E2E10C945A
:1006A0002414A8E1B0E0E7E5F3E00C9414146983A6
:1006B0007A838B839C832D833E834F83588789E085
:1006C000E82EF12CEC0EFD1ECE010196B7010E9422
:1006D000D0058E010F5E1F4FCE010596B8010E9416
:1006E000D0058985823040F08989823028F0C701A1
:1006F000B8010E94480601C081E06896E6E00C94CB
:100700003014A8E0B0E0E7E8F3E00C9411149B018A
:10071000AC0183E08983DA01C9018827B7FD83959D
:100720009927AA27BB27B82E211531054105510568
:1007300019F482E089833AC08823A9F0203080E050
:10074000380780E0480780E8580729F460E070E047
:1007500080E09FEC30C0EE24FF248701E21AF30A08
:10076000040B150B02C079018A018EE1C82ED12C31
:10077000DC82CB82ED82FE820F831887C801B7012D
:100780000E94AC0401971816190684F4082E04C0C0
:10079000EE0CFF1C001F111F0A94D2F7ED82FE829F
:1007A0000F831887C81AD90ADC82CB82BA82CE019D
:1007B00001960E94FB042896E9E00C942D14ACE00D
:1007C000B0E0E5EEF3E00C94181469837A838B8330
:1007D0009C83CE010196BE016B5F7F4F0E94D005C6
:1007E0008D81823061F1823050F1843021F48E812C
:1007F000882351F12EC02F81388537FD20C06E81AE
:100800002F3131051CF06623F9F023C08EE190E012
:10081000821B930B29853A854B855C8504C05695D0
:100820004795379527958A95D2F76623B1F050956D
:100830004095309521953F4F4F4F5F4F0EC020E0C0
:1008400030E040E050E009C02FEF3FEF4FEF5FE7AF
:1008500004C020E030E040E050E8B901CA012C9625
:10086000E2E00C943414A8E0B0E0E9E3F4E00C9486
:1008700010147B018C01611571058105910519F436
:1008800082E0898360C083E089838EE1C82ED12C09
:10089000DC82CB82ED82FE820F831887C801B7010C
:1008A0000E94AC04FC013197F7FF3BC0222733279D
:1008B0002E1B3F0B57016801022E04C0D694C7942B
:1008C000B794A7940A94D2F740E050E060E070E05B
:1008D00081E090E0A0E0B0E004C0880F991FAA1F5B
:1008E000BB1F2A95D2F70197A109B1098E219F213B
:1008F000A023B1230097A105B10521F041E050E00C
:1009000060E070E04A295B296C297D294D835E8374
:100910006F8378878EE190E08E1B9F0B9C838B8387
:1009200012C0309781F00E2E04C0EE0CFF1C001F89
:10093000111F0A94D2F7ED82FE820F831887CE1A18
:10094000DF0ADC82CB821A82CE0101960E94FB0470
:100950002896EAE00C942C14EF92FF920F931F93C9
:100960007B018C0180E0E81680E0F80681E0080752
:1009700080E0180788F48FEFE816F10401051105EF
:1009800031F028F088E090E0A0E0B0E017C080E00F
:1009900090E0A0E0B0E012C080E0E81680E0F80649
:1009A00080E0080781E0180728F088E190E0A0E0E7
:1009B000B0E004C080E190E0A0E0B0E020E230E0F0
:1009C00040E050E0281B390B4A0B5B0B04C0169526
:1009D0000795F794E7948A95D2F7F701E85FFE4F01
:1009E0008081281B310941095109C9011F910F91CB
:1009F000FF90EF900895DF92EF92FF920F931F9375
:100A0000FC01E480F58006811781D18080818230ED
:100A100048F480E090E0A0E1B0E0E82AF92A0A2B4F
:100A20001B2BA5C0843009F49FC0823021F4EE2432
:100A3000FF24870105C0E114F1040105110519F433
:100A4000E0E0F0E096C0628173819FEF6238790741
:100A50000CF05BC022E83FEF261B370B2A31310533
:100A60002CF020E030E040E050E02AC0B801A701BF
:100A7000022E04C076956795579547950A94D2F74C
:100A800081E090E0A0E0B0E004C0880F991FAA1FA9
:100A9000BB1F2A95D2F70197A109B1098E219F2189
:100AA000A023B1230097A105B10521F081E090E0DA
:100AB000A0E0B0E09A01AB01282B392B4A2B5B2B2D
:100AC000DA01C9018F779070A070B0708034910501
:100AD000A105B10539F427FF09C0205C3F4F4F4FF6
:100AE0005F4F04C0215C3F4F4F4F5F4FE0E0F0E0AD
:100AF0002030A0E03A07A0E04A07A0E45A0710F02F
:100B0000E1E0F0E079018A0127C06038710564F501
:100B1000FB01E158FF4FD801C7018F779070A0709B
:100B2000B07080349105A105B10539F4E7FE0DC020
:100B300080E490E0A0E0B0E004C08FE390E0A0E0AB
:100B4000B0E0E80EF91E0A1F1B1F17FF05C016951F
:100B50000795F794E794319687E016950795F794F3
:100B6000E7948A95D1F705C0EE24FF248701EFEFC3
:100B7000F0E06E2F679566276795902F9F77D79443
:100B8000DD24D7948E2F8695492F462B582F5D292B
:100B9000B701CA011F910F91FF90EF90DF90089568
:100BA000FC01DB01408151812281622F6F7770E06F
:100BB000221F2227221F9381892F880F822B282F03
:100BC00030E0991F9927991F11969C931197211531
:100BD0003105A9F5411551056105710511F482E052
:100BE00037C082E89FEF13969C938E9312979A01D9
:100BF000AB0167E0220F331F441F551F6A95D1F7E1
:100C000083E08C930DC0220F331F441F551F129693
:100C10008D919C911397019713969C938E931297A5
:100C2000203080E0380780E0480780E4580758F318
:100C300014962D933D934D935C93179708952F3FF2
:100C4000310579F4411551056105710519F484E008
:100C50008C93089564FF03C081E08C9312C01C92B2
:100C600010C02F57304013963C932E93129783E079
:100C70008C9387E0440F551F661F771F8A95D1F725
:100C8000706414964D935D936D937C9317970895BC
:100C90001F93DC01FB019C91923008F447C08081D6
:100CA000823008F443C0943051F411961C91843082
:100CB00099F58181682F70E0611B71093FC0843014
:100CC00021F0923031F48230B9F18181882389F1A9
:100CD0002DC011961C9111978230F1F08181181767
:100CE000D9F412962D913C911397828193818217AA
:100CF000930794F028173907BCF014968D919D91B5
:100D00000D90BC91A02D24813581468157812817F3
:100D100039074A075B0718F4112341F00AC082170C
:100D20009307A407B50740F4112319F061E070E0C0
:100D300005C06FEF7FEF02C060E070E0CB011F9154
:100D40000895CF92DF92EF92FF920F931F93CF936C
:100D5000DF938C017B01FC018081882351F16801C4
:100D6000C80160E00E940313982F8077803709F54F
:100D70009037B1F4C7010E942213C1E0D0E009C04E
:100D8000C6016C2F0E940313682FC7010E947013C5
:100D90002196F801808190E0C817D9078CF307C02D
:100DA000913739F0923729F080E0933719F481E0D8
:100DB00001C080E0DF91CF911F910F91FF90EF90E4
:100DC000DF90CF900895EF92FF920F931F93DF93E0
:100DD000CF9300D0CDB7DEB79C01F42E052F162F90
:100DE000E72ECE010196B90142E050E00E944E1478
:100DF00069816F3F19F48A818F3FE9F070E080E0EC
:100E000090E00E9433047B018C016A8170E080E0F5
:100E100090E00E94330420E030E040E85BE30E9471
:100E200057029B01AC01C801B7010E942A02F62EAD
:100E3000072F182FE92E2F2D302F412F5E2DB901AE
:100E4000CA010F900F90CF91DF911F910F91FF90EA
:100E5000EF9008950F931F93DF93CF9300D0CDB7FA
:100E6000DEB79C018B01CE010196B90142E050E052
:100E70000E944E1489819A818F5F9F4F11F41A83CB
:100E8000098389819A810F900F90CF91DF911F91F3
:100E90000F910895DF93CF9300D0CDB7DEB7CE0189
:100EA000019660E070E042E050E00E944E143A810A
:100EB00084E6389FC00111242981820F911D8B3C4B
:100EC0009105A1F032503D3F28F082E090E067E0CC
:100ED0000E94681483E0898382E08A83CE010196B0
:100EE00060E070E042E050E00E945E140F900F90CE
:100EF000CF91DF910895FC0170AF67AB0895FC01BD
:100F0000408D518D27A930ADC90102974817590767
:100F100014F480E0089580E02E5F3F4F24173507DA
:100F20000CF081E00895FC0187A990AD0895FC01C3
:100F30000190F081E02D22813381C90108950F9342
:100F40001F93CF93DF93EC018C01025F1F4FC80109
:100F50000E94BF0C882391F0E881F981A081B181C2
:100F60002D913C91CF01F90109958823B1F1C80178
:100F700040E553EC60E070E00E94E40C8E010C5FF1
:100F80001F4FC8010E94BF0C882339F1C80140E2FD
:100F900051EA67E070E00E94E40CE881F981228167
:100FA0003381288F398FCE014A96B9010E947C1176
:100FB000BC0197FF03C060E070E006C08F3F910561
:100FC00019F014F06FEF70E0EA81FB81A081B1812C
:100FD0002D913C91CF01F9010995DF91CF911F919E
:100FE0000F9108956F927F928F929F92AF92BF92CE
:100FF000CF92DF92EF92FF920F931F93CF93DF93E5
:10100000EC01198E188E8CE090E040E050E060EE2C
:1010100070E40E94E3063B014C018EE090E046E65E
:1010200056E666EA7EE30E94E3065B016C0180E11E
:1010300090E040E050E060E172E40E94E3067B0152
:101040008C01CE014A960E944711C401B30120E0F1
:1010500030E040E050E00E945103882391F5C60142
:10106000B50120E030E040E050E00E9451038823C9
:1010700041F5C801B70120E030E040E050E00E94B7
:1010800051038823F1F40F2EF0E06F2EF0E07F2E55
:10109000F0EE8F2EF0E49F2EF02D0F2EF6E6AF2E01
:1010A000F6E6BF2EF6EACF2EFEE3DF2EF02D0F2E52
:1010B000F0E0EF2EF0E0FF2EF0E10F2FF2E41F2F13
:1010C000F02D6A8E7B8E8C8E9D8EAE8EBF8EC8A2CA
:1010D000D9A2EAA2FBA20CA31DA318AE1FAACE019F
:1010E000049640E251EA67E070E00E94E40CCE0111
:1010F0000E9640E553EC60E070E00E94E40CDF9156
:10110000CF911F910F91FF90EF90DF90CF90BF9004
:10111000AF909F908F907F906F9008950F931F9343
:101120008C01FC01718360835383428304960E9487
:10113000B80CC8010E960E94B80CC8014A960E94CD
:101140004711C8010E94F2071F910F9108958AE18B
:1011500092E00E94B80C08957F928F929F92AF9276
:10116000BF92CF92DF92EF92FF920F931F93DF9384
:10117000CF93CDB7DEB760970FB6F894DEBF0FBE42
:10118000CDBFFC016B018081882309F419C17F0167
:10119000CF0161E00E940313E82FF0E0E232F10595
:1011A00008F00EC1EC5CFF4FEE0FFF1F0590F491AD
:1011B000E02D0994C60161E00E947013C6016BEC3A
:1011C00070E0FBC081E080932402E3C0C60161E0CF
:1011D0000E94701389E193E0CBC0C70162E00E94D6
:1011E0000813BC0189E193E0D2C0C70162E00E940C
:1011F00008135C01C70164E00E940313813148F5C4
:10120000E82EFF248E010F5F1F4FC801B501A70113
:101210000E944E14C60161E00E947013E00EF11EA0
:1012200006C0C601F80161918F010E9470130E156E
:101230001F05B9F712C0C70162E00E940813882E8B
:10124000792EC70164E00E940313982EF0E1F8178D
:1012500030F4C60162E00E94701381E0B2C08E01DA
:101260000F5F1F4FC801682D772D492D50E00E9458
:101270004E14580115E0092D0B5F08C0C701612FFE
:101280000E940313F50181935F011F5F1017B1F7EF
:10129000CE010196682D772D492D50E00E945E14F5
:1012A000C60161E00E947013C601692DD4CF85E2AA
:1012B00092E00E94A20A6DC0C70162E00E9403137F
:1012C000682F85E292E070E00E949E0A62C0C7012A
:1012D00062E00E94031360E0813009F461E085E27E
:1012E00092E00E94A80A55C0C70162E00E94031361
:1012F000682F70E076956795617085E292E00E94B4
:10130000A80AC70162E00E940313682F70E06170B1
:10131000707085E292E00E94AB0A3BC0C70162E0B8
:101320000E940313682F70E06170707083EF92E089
:101330000E945F0D2EC0C70162E00E940313682F58
:1013400070E06170707083EF92E00E947A0DC601C8
:1013500061E00E94701389E193E00E947F07682F8B
:10136000C60179CFC60161E00E94701382E593E067
:101370000E94970720C083EF92E061E00E94AD0DCC
:10138000C70162E00E940813BC0182E593E00E945D
:101390007B07C60161E05FCFC60161E00E94701368
:1013A00089E193E006C0C60161E00E94701382E506
:1013B00093E00E949307BC01C6010E948C134DCF9D
:1013C00080E060960FB6F894DEBF0FBECDBFCF9120
:1013D000DF911F910F91FF90EF90DF90CF90BF9022
:1013E000AF909F908F907F9008958091E2039091AD
:1013F000E303892B09F481C08091E2039091E30318
:10140000049709F080C079C0109224020E94840AD7
:101410008091BC039091BD03892B21F18091BC0385
:101420009091BD030497F1F080911A02882349F44A
:101430008AE192E040E25EE460E070E00E94E40C49
:1014400011C08AE192E00E94BF0C882359F089E91B
:1014500093E00E94681284E08093BB0388E993E0E4
:101460000E94AB108091BB03882361F08AE192E077
:101470000E94BC0C89E993E00E94761288E993E00F
:101480000E94AB108091BC039091BD030497D9F5E5
:101490008FEB93E00E94221389E993E06FEB73E0F6
:1014A0000E94A1068823E1F489E993E060E00E94AC
:1014B00003138823A9F489E993E06FEB73E00E949A
:1014C000A106882369F489E993E06FEB73E00E9439
:1014D000AC08882329F48FEB93E065E00E94701339
:1014E0008AE192E00E94BC0C89E993E00E947612A6
:1014F00088E993E00E94B310089580912402882324
:1015000009F486CF81CF0895F8940E94AB0C0E9415
:101510004A0783EF92E00E947D0E85E292E00E94EE
:10152000CC0B789408950E94840A0E94F5090E94C9
:10153000EE0B85E292E00E94F80AF7CFFC0173837C
:1015400062830895FC01848191E089278483089552
:10155000FC01608308951F93CF93DF93EC01162F56
:101560008981662349F58823F1F188818823D9F19F
:101570008D818823C1F1CE0142960E94BF0C882341
:1015800091F181E090E09F838E8383EF92E060E0B1
:1015900070E00E94790E6C8D7D8D8E8D9F8D28EE72
:1015A00033E040E050E00E94C213AB01BC01CE0129
:1015B00008960E94E40C17C0882399F48881882338
:1015C00081F068A579A58AA59BA528EE33E040E0C7
:1015D00050E00E94C213AB01BC01CE0142960E94B2
:1015E000E40C1F821E821983DF91CF911F91089511
:1015F0000F931F93CF93DF93EC018D81882309F420
:1016000071C08E819F81892B09F46CC08E01085FA7
:101610001F4FC8010E94BF0C882309F47BC08E8134
:101620009F818230910539F18330910524F401972F
:1016300009F070C007C083309105A9F1049709F043
:1016400069C047C082E090E09F838E8368A179A142
:101650008AA19BA128EE33E040E050E00E94C21333
:10166000AB01BC01C8010E94E40C6A817B817095CA
:1016700061957F4F4BC083E090E09F838E836C8D9C
:101680007D8D8E8D9F8D28EE33E040E050E00E94EE
:10169000C213AB01BC01C8010E94E40C83EF92E0CD
:1016A00060E070E035C084E090E09F838E836CA1A1
:1016B0007DA18EA19FA128EE33E040E050E00E9482
:1016C000C213AB01BC01C8010E94E40C6A817B819A
:1016D0001DC083EF92E060E070E00E94790E1F82EF
:1016E0001E8218C08C81882379F48981882361F057
:1016F00088812A813B81882311F0B90107C06627C0
:101700007727621B730B02C060E070E083EF92E00A
:101710000E94790EDF91CF911F910F9108950F9341
:101720001F938C0181E0F801858384E090E065E0FF
:1017300070E00E942A07A0E0B0E0F801848F958F46
:10174000A68FB78F86E090E064EF71E00E942A07D1
:10175000A0E0B0E0F80180A391A3A2A3B3A388E026
:1017600090E06CE271E00E942A07A0E0B0E0F8018E
:1017700084A395A3A6A3B7A38AE090E06CE271E0EE
:101780000E942A07A0E0B0E0F80180A791A7A2A7D5
:10179000B3A71F910F910895FC0181E0808314820B
:1017A00011821382128217821682CF010E948F0B40
:1017B00008950F931F938C0108960E94B80CC801DE
:1017C00042960E94B80CC8010E94CC0B1F910F9149
:1017D000089585E292E00E94D90B089589E193E093
:1017E0000E949F0780918B03882321F082E593E07C
:1017F0000E949F0708950F931F93CF93DF938C014F
:10180000262F332727FD309584E190E0289FF001B3
:10181000299FF00D389FF00D1124EE0FFF1FEE0FE2
:10182000FF1FEB5AFD4F41E050E0608171810617C8
:1018300017070CF040C04150504084E190E0289FD1
:10184000D001299FB00D389FB00D1124FD01E40F88
:10185000F51F4F5F5F4FEE0FFF1FEE0FFF1FCF0112
:101860008F5A9D4FEC0128813981ED5AFD4F01902F
:10187000F081E02D021B130BA40FB51FAA0FBB1F95
:10188000AA0FBB1FAD5ABD4F8D919C918E1B9F0B14
:10189000621B730B9C01029FC001039F900D129F5E
:1018A000900D11240E94E1136E0F7F1F6F3F710591
:1018B00091F08CF00BC0842F8F5F4F5F5F4F349699
:1018C0004431510509F0B1CF843119F46FEF70E064
:1018D00002C060E070E0CB01DF91CF911F910F91CA
:1018E0000895DF93CF930F92CDB7DEB7BC01CE0141
:1018F000019641E050E00E944E1490E089818F3FB4
:1019000009F091E0892F0F90CF91DF910895EF9228
:10191000FF920F931F93F82EE92E162F072F862F75
:10192000972F0E94710C882349F08F2D9E2D612FD7
:10193000702F40E550E00E944E1408C08F2D9E2D60
:101940006CEA70E040E550E00E9445141F910F9151
:10195000FF90EF90089581E592E060E071E00E94D1
:10196000870C81EA92E060E871E00E94870C08959C
:10197000FC01108211820895FC0110820895CF931A
:10198000DF93EC0188818823D9F089818823C1F411
:1019900083EF92E00E94520D2A813B814C815D8150
:1019A000621B730B840B950B2E813F8148855985F3
:1019B000621773078407950718F0188281E08983FE
:1019C0008981DF91CF910895CF92DF92EF92FF92BC
:1019D0000F931F938C016A017B0181E0F8018083E2
:1019E000118283EF92E00E94520DF80162837383AB
:1019F00084839583C682D782E086F1861F910F91FA
:101A0000FF90EF90DF90CF90089597B18095982345
:101A100097B998B1982398B9EAE7F0E080818F6888
:101A200080830895282F80917A0086FF02C080E08D
:101A300008959FB7F8947093F2026093F1022F70AB
:101A4000206420937C0080917A00806480937A00E7
:101A50009FBF81E008951F920F920FB60F9211243D
:101A60002F933F934F938F939F93EF93FF932091E7
:101A7000780040917900E091F102F091F202942F08
:101A800080E030E0822B932B91838083FF91EF9154
:101A90009F918F914F913F912F910F900FBE0F907B
:101AA0001F901895FC018FB7F894E756FF4F2081DF
:101AB0003181428153818FBFB901CA01089580915C
:101AC00094038F70E82FF0E042A1809195038F700E
:101AD00021E030E002C0220F331F8A95E2F7922FF7
:101AE000662311F0822F01C080E090959423892B0A
:101AF00082A30895FC015FB7F894E856FF4F108267
:101B000010927000809190038F70E82FF0E042A156
:101B1000809191038F7021E030E002C0220F331FCB
:101B20008A95E2F7922F662311F0822F01C080E0A0
:101B300090959423892B82A35FBF08958091E5033C
:101B40008F70E82FF0E092A1672B11F080E201C0C6
:101B500080E09F7D892B82A30895FC01E856FF4F0A
:101B6000608308951F920F920FB60F9211248F93E6
:101B70009F93AF93BF9380918C0390918D03A0911D
:101B80008E03B0918F03805C9F4FAF4FBF4F809308
:101B90008C0390938D03A0938E03B0938F03BF911A
:101BA000AF919F918F910F900FBE0F901F9018953E
:101BB0005FB7F894862F81508E3FF0F083E08093DA
:101BC000B000809192038F70E82FF0E042A18091E5
:101BD00093038F7021E030E002C0220F331F8A95FB
:101BE000E2F7922F6F3F11F4822F01C080E09095B1
:101BF0009423892B82A305C06093B30083E880936C
:101C0000B0005FBF08955FB7F894109270008091A4
:101C100090038F70E82FF0E042A1809191038F70C4
:101C200021E030E002C0220F331F8A95E2F7922FA5
:101C3000662311F0822F01C080E090959423892BB8
:101C400082A35FBF08951F920F920FB60F921124C7
:101C50002F933F938F939F93EF93FF938091B400C3
:101C60008823A1F0E0919003EF70F0E032A1209181
:101C700091032F7081E090E002C0880F991F2A9590
:101C8000E2F7282F20952323282B22A3FF91EF9101
:101C90009F918F913F912F910F900FBE0F901F90AA
:101CA00018951F920F920FB60F9211242F933F9306
:101CB0008F939F93EF93FF93E0919003EF70F0E089
:101CC00032A1209191032F7081E090E002C0880F33
:101CD000991F2A95E2F78095832382A3FF91EF91C4
:101CE0009F918F913F912F910F900FBE0F901F905A
:101CF0001895CB010E94C60F08950F931F93CF93A1
:101D0000DF938C010E94A60F1092800089E08093DF
:101D100081001092820080E094E09093890080938B
:101D2000880062E060936F00A0E7B0E01C92E09151
:101D3000E503EF70F0E081A1806281A3E091900360
:101D4000EF70F0E022A1809191038F7041E050E0AC
:101D5000EA0102C0CC0FDD1F8A95E2F7CE01809523
:101D6000822382A3E0919003EF70F0E031A1809193
:101D700091038F70EA0102C0CC0FDD1F8A95E2F754
:101D80002C2F209523232C2B21A3E0919203EF707D
:101D9000F0E022A1809193038F70EA0102C0CC0F82
:101DA000DD1F8A95E2F7CE018095822382A3E09120
:101DB0009203EF70F0E031A1809193038F70EA01FC
:101DC00002C0CC0FDD1F8A95E2F72C2F209523232C
:101DD0002C2B21A3E0919403EF70F0E022A18091DD
:101DE00095038F70EA0102C0CC0FDD1F8A95E2F7E0
:101DF000CE018095822382A3E0919403EF70F0E0FE
:101E000091A1809195038F7002C0440F551F8A9550
:101E1000E2F7842F80958923842B81A383E8809324
:101E2000B0006093B1001092B3001092B40085E04E
:101E30008C93C8010E944310C80141960E94431030
:101E4000C80186960E94F207C801815A9F4F0E94DE
:101E5000F20780E090E00E94C60F08E913E0C80195
:101E600061E00E945010C80101960E947612DF9135
:101E7000CF911F910F910895EF92FF920F931F93AF
:101E80008C0163E040E00E94071081E1E82EF12C14
:101E9000E00EF11EC70166E041E00E94071082E1FA
:101EA00092E0F80193A382A38CE092E095A384A32F
:101EB000A8014E5D5F4FC8018696B8010E948E084A
:101EC000C801815A9F4FB7010C5D1F4FA8010E94A6
:101ED0008E080C581F4F81E0F80181931082118207
:101EE000128213821F910F91FF90EF90089583EF5C
:101EF00092E00E943C0F9091E6039F7080919003C6
:101F0000807F892B8093900380919103807F8160F3
:101F1000809391039091E5039F7080919203807F5D
:101F2000892B8093920380919303807F83608093B9
:101F3000930380919403807F892B809394038091F5
:101F40009503807F84608093950308951092970392
:101F50001092960383E084BD85BD18BC10926E007C
:101F6000E091E703EF70F0E081A1806281A3E0914E
:101F7000E703EF70F0E082A18F7D82A3E091E70399
:101F8000EF70F0E081A1806881A308959C018091A9
:101F900096039091970328173907C1F1309397035F
:101FA000209396035FB7F894E091E703211531057C
:101FB00041F483E084BDEF70F0E082A18F7D82A3C5
:101FC00007C0EF70F0E082A1806282A383E284BD4B
:101FD00040E037FF04C041E0309521953F4F8091AC
:101FE000E7038F70E82FF0E092A1442311F480E81A
:101FF00001C080E09F77892B82A3C9012F3F310563
:1020000019F014F08FEF90E088BD5FBF0895FC01D8
:1020100088E192E09183808364831786408B1086E9
:1020200017821286118614861386168615860895E1
:102030000F931F93CF93DF93EC018FB7F8940D812B
:102040001E818FBFBE016B5F7F4F8C810E94120D7E
:102050008823A1F08F8590E0FC01EE0FFF1FEC0FAD
:10206000FD1F108707830196837090708F87C801CA
:1020700068890E94FB0B9B838A8381E0DF91CF916B
:102080001F910F91089521E030E0FC01048002C00F
:10209000220F331F0A94E2F7822F0E94050D089544
:1020A000FC0160838081882321F08091C100806CD5
:1020B00003C08091C1008F738093C1000895E091A7
:1020C000E603EF70F0E082A18B7F82A3E091E7034B
:1020D000EF70F0E082A18F7E82A383EF92E060E058
:1020E00070E00E949E0D08951F920F920FB60F92FE
:1020F00011242F933F934F935F936F937F938F930D
:102100009F93AF93BF93EF93FF938091E2039091DE
:10211000E303892B69F08091E2039091E303049734
:1021200039F08FEB93E00E942A138093C60002C01F
:102130000E945F10FF91EF91BF91AF919F918F919E
:102140007F916F915F914F913F912F910F900FBEB3
:102150000F901F9018951F931FB7F8940E945F105F
:102160001FBF1F9108950F931F93FC018081882347
:10217000F1F00FB7F894CF0187960E942A13182F19
:10218000E091E603EF70F0E082A1846082A3E09129
:10219000E703EF70F0E082A1806182A383EF92E019
:1021A00061E070E00E949E0D1093C6000FBF1F916A
:1021B0000F9108951F920F920FB60F9211242F9333
:1021C0003F934F935F936F937F938F939F93AF93BF
:1021D000BF93EF93FF936091C60089E993E00E945B
:1021E0007D12FF91EF91BF91AF919F918F917F9160
:1021F0006F915F914F913F912F910F900FBE0F9074
:102200001F9018950F931F938C01FC011192CF0121
:102210000E946F12C80187960E941A131092C5007F
:1022200089E18093C40080E48093C00088E18093BA
:10223000C10086E08093C200E091E603EF70F0E019
:1022400081A1846081A3E091E703EF70F0E081A1B8
:10225000806181A30E945F101F910F91089588E90A
:1022600093E00E94021108958091E503807F8360CE
:102270008093E5038091E603807F86608093E60388
:102280008091E703807F89608093E7030895CF936F
:10229000DF93EC011C8E1B8E1A8E198E1E8E1D8EE6
:1022A00080E090E0A0E0B0E088879987AA87BB87AC
:1022B0008C839D83AE83BF8388839983AA83BB83EA
:1022C000188E0BC0E82FF0E03696EE0FFF1FEC0FD4
:1022D000FD1F118210828F5F888F888D843090F36C
:1022E000188E80E090E0A0E0B0E08C8B9D8BAE8BF0
:1022F000BF8BDF91CF9108952F923F924F925F92C3
:102300006F927F928F929F92AF92BF92CF92DF9205
:10231000EF92FF920F931F93DF93CF93CDB7DEB76A
:1023200028970FB6F894DEBF0FBECDBF98878F8376
:10233000FC01058CF68DE02DE61BF70BFA83E98393
:10234000FC01838D948D29813A81820F931F948F94
:10235000838F8150914024F080E091E0948F838FAF
:10236000EF81F885838D948D80509F4F34F480E009
:102370009FEFEF81F885948F838F29813A81B9018E
:10238000882777FD8095982F0E948103EF81F8853B
:1023900020813181428153810E9457026B837C836B
:1023A0008D839E83EF81F885638D748D882777FDFB
:1023B0008095982F0E948103EF81F88524813581D3
:1023C000468157810E9457021B012C01EF81F8853D
:1023D000818D928DC980DA80C81AD90A008D10E0EB
:1023E0000A5F1F4F3801660C771C6E0E7F1EF301CB
:1023F00060817181882777FD8095982F0E948103E5
:102400009B01AC01EF81F88564897589868997897C
:102410000E94F9014B015C01EF81F885648B758B9B
:10242000868B978BF301D182C082EE24D7FCE09497
:10243000FE2CC701B6010E9481039B01AC01C501BE
:10244000B4010E942A02EF81F885648B758B868B1C
:10245000978B0550104003701070008F20853185D8
:10246000428553850E9457027B018C0129813A8164
:10247000EF81F885328F218F6B817C818D819E81E8
:10248000A20191010E942A02A80197010E942A023A
:102490000E94DF039B01AC01220F331FC901289664
:1024A0000FB6F894DEBF0FBECDBFCF91DF911F9165
:1024B0000F91FF90EF90DF90CF90BF90AF909F90E3
:1024C0008F907F906F905F904F903F902F900895E6
:1024D000FC011182108212A214A213A20895FC0121
:1024E0001182108212A214A213A20895FC0111827B
:1024F000108212A214A213A20895DC0193968D916A
:102500009C919497892B91F4653D19F481E090E0BA
:1025100066C011961C9211971C9292961C929297EB
:1025200094961C921E92939781E020C093968D9171
:102530009C9194970197E9F4603260F495966C93BE
:10254000959795968C919597882309F438C082E0E9
:1025500090E045C011961C9211971C9292961C9285
:10256000929794961C921E92939782E092968C93E7
:10257000089593968D919C919497029719F58C915B
:102580008032B8F411968C911197862728E09CE848
:1025900080FB86950EF489272A95D1F711968C93A6
:1025A00011978C91FD01E80FF11D62838C918F5F73
:1025B0008C939C9195968C919597981718F183E040
:1025C00090E00DC093968D919C9194970397D1F4D0
:1025D00011968C911197861739F484E090E09496C7
:1025E0009C938E939397089511961C9211971C9229
:1025F00092961C92929794961C921E92939783E0C7
:1026000092968C930895FC01E60FF11D8281089546
:10261000E62FF0E0DC01AE0FBF1F12962C91319631
:10262000E80FF91F4281942F80E030E0282B392BEE
:10263000C9010895FC011182108212A214A213A2F2
:1026400015A20895FC011182108212A214A213A2F5
:1026500015A20895DC0193968D919C919497892BF6
:1026600041F481E090E094969C938E93939725EDAE
:1026700035C093968D919C919497019739F42C9144
:102680008C918823B9F082E090E024C093968D91DC
:102690009C919497029789F495968C919597FD015A
:1026A000E80FF11D22818F5F95968C9395979C91F1
:1026B0008917A0F083E090E00DC093968D919C91D6
:1026C0009497039711F020E009C011962C9111976F
:1026D00084E090E094969C938E939397822F089534
:1026E000DC018C918032B8F411968C911197862779
:1026F00028E09CE880FB86950EF489272A95D1F77F
:1027000011968C9311978C91FD01E80FF11D628356
:102710008C918F5F8C930895DC018C918032B8F49A
:1027200011968C911197862728E09CE880FB86956E
:102730000EF489272A95D1F711968C9311978C91D5
:10274000FD01E80FF11D62838C918F5F8C938C915A
:102750008032B8F411968C911197872728E09CE875
:1027600080FB86950EF489272A95D1F711968C93D4
:1027700011978C91FD01E80FF11D72838C918F5F91
:102780008C930895629FD001739FF001829FE00DAA
:10279000F11D649FE00DF11D929FF00D839FF00DE0
:1027A000749FF00D659FF00D9927729FB00DE11D8C
:1027B000F91F639FB00DE11DF91FBD01CF01112469
:1027C000089597FB092E07260AD077FD04D00CD078
:1027D00006D000201AF4709561957F4F0895F6F7A2
:1027E000909581959F4F0895AA1BBB1B51E107C08F
:1027F000AA1FBB1FA617B70710F0A61BB70B881F91
:10280000991F5A95A9F780959095BC01CD0108951F
:102810002F923F924F925F926F927F928F929F92F0
:10282000AF92BF92CF92DF92EF92FF920F931F93DE
:10283000CF93DF93CDB7DEB7CA1BDB0B0FB6F8948F
:10284000DEBF0FBECDBF09942A88398848885F84CF
:102850006E847D848C849B84AA84B984C884DF8040
:10286000EE80FD800C811B81AA81B981CE0FD11D24
:102870000FB6F894DEBF0FBECDBFED010895EE0F89
:10288000FF1F0590F491E02D0994FB01DC0102C0CB
:1028900005900D9241505040D8F70895DC01CB01CE
:1028A000FC01F999FECF06C0F2BDE1BDF89A319660
:1028B00000B40D9241505040B8F70895DC01CB01AF
:1028C00003C02D910E94691441505040D0F70895E3
:1028D000262FF999FECF1FBA92BD81BD20BD0FB63C
:1028E000F894FA9AF99A0FBE01960895F894FFCFDA
:1028F00000000000000000000001020203030303C7
:10290000040404040404040405050505050505057F
:10291000050505050505050506060606060606065F
:102920000606060606060606060606060606060647
:10293000060606060606060607070707070707072F
:102940000707070707070707070707070707070717
:102950000707070707070707070707070707070707
:1029600007070707070707070707070707070707F7
:1029700007070707070707070808080808080808DF
:1029800008080808080808080808080808080808C7
:1029900008080808080808080808080808080808B7
:1029A00008080808080808080808080808080808A7
:1029B0000808080808080808080808080808080897
:1029C0000808080808080808080808080808080887
:1029D0000808080808080808080808080808080877
:1029E0000808080808080808080808080808080867
:1029F000080808080808080800000000030E000086
:0A2A00000000D80D000000001810BF
:00000001FF
