:100000000C947A000C94A4000C94A4000C94A4000A
:100010000C94A4000C94A4000C94A4000C94A400D0
:100020000C94A4000C94A4000C94A4000C94A400C0
:100030000C94A4000C94A4000C94A4000C947F29AC
:100040000C94A4000C94942A0C94A4000C94A40086
:100050000C94A4000C94A4000C94A4000C94A40090
:100060000C94A4000C94A42D0C94A4000C94152DB5
:100070000C94A4000C94A4000C94A4000C94A40070
:100080000C94A4000C94A4000C94A4000C94A40060
:100090000C94782D0C94A4000C94C92C0C94A400FE
:1000A0000C94A4000C94A4000C94A4000C94A40040
:1000B0000C94A4000C94A4000C94A4000C94A40030
:1000C0000C94A4000C94A4000C94A4000C94A40020
:1000D0000C94A4000C94A4000C94A4000C94A40010
:1000E0000C94A4005C01DE034D05030DB310F82948
:1000F000222E2D2E11241FBECFEFD1E2DEBFCDBFA9
:1001000012E0A0E0B2E0ECE9F2E600E00BBF02C0D2
:1001100007900D92A631B107D9F718E0A6E1B2E039
:1001200001C01D92AA31B107E1F710E0C4EFD0E0A1
:1001300004C02297FE010E94D430C43ED107C9F703
:100140000E9434090C944C310C940000F894809176
:100150001803909119032091160330911703281B5F
:10016000390B7894C90108958093200308958091F4
:1001700020030895809118039091190320E0892BA2
:1001800009F421E0822F0895482F8091180390915F
:100190001903609116037091170386179707E8F407
:1001A000209118033091190380911A0390911B0339
:1001B000820F931F0E946E30E0911C03F0911D038B
:1001C000E80FF91F4083809118039091190301965D
:1001D0009093190380931803089581E080931E0380
:1001E0000895109219031092180310921E03109292
:1001F0001F0310922203109221030895CF93DF93DF
:10020000EC018A819B81892B21F481E0898780E040
:1002100019C08C819D8128813981B9010E946E307D
:10022000EE81FF81E80FF91F8C819D810196B90154
:100230000E946E309D838C838A819B8101979B8372
:100240008A838081DF91CF910895DF92EF92FF92B0
:100250000F931F9306E113E0C8010E94FE00D82E01
:10026000C8010E94FE00E82EC8010E94FE00F82E80
:10027000C8010E94FE00982F6D2D7E2D8F2D1F919D
:100280000F91FF90EF90DF900895FF920F931F93CF
:1002900006E113E0C8010E94FE00F82EC8010E948A
:1002A000FE00982F8F2D1F910F91FF90089586E1EA
:1002B00093E00E94FE00089580E091E09093170380
:1002C00080931603109219031092180310921B03C7
:1002D00010921A0386E192E090931D0380931C0311
:1002E00010921E0310921F0383E293E00E944A10B3
:1002F0008DE293E00E944A1008956F927F928F9250
:100300009F92AF92BF92CF92DF92EF92FF920F93A4
:100310001F93DF93CF93CDB7DEB768970FB6F894EE
:10032000DEBF0FBECDBF0E944309882309F53FC041
:10033000209118033091190380911A0390911B03A7
:10034000820F931F0E946E30E0911C03F0911D03F9
:10035000E80FF91F408380911803909119030196CB
:10036000909319038093180304C010931E0301C0D7
:1003700011E0209118033091190380911603909198
:1003800017038217930799F00E944909882379F08F
:100390000E94C009482F8091180390911903609121
:1003A0001603709117038617970710F2DECF80911E
:1003B0002003882309F0EDC180912103909122034D
:1003C000039781F40E94080C882341F08DE293E0AA
:1003D0000E945110882331F00E948E0C109222034B
:1003E000109221038091210390912203019741F4FF
:1003F0000E94080C882321F41092220310922103FA
:100400008091210390912203029751F483E293E0BB
:100410000E945110882321F0109222031092210390
:100420008091210390912203049771F50E949D1001
:10043000882351F10E949A108C010E9497107C0130
:10044000C8010E942A2FC80160E00E947E2FC801C7
:1004500066E10E947E2F0E94B81002C00E94D41054
:100460000E94AE108823D1F3F70182A1882351F4B2
:10047000C70161E00E940B2F882321F01092220314
:10048000109221030E94AB108091210390912203CE
:10049000892B09F07EC18091180390911903892B53
:1004A00009F477C180911A0390911B03C090160341
:1004B000D0901703E0901C03F0901D03B6010E943A
:1004C0006E30F701E80FF91F1081113891F5809116
:1004D000180390911903419708F45BC186E193E0FA
:1004E0000E94FE0081E090E090932203809321031C
:1004F0000E9425013B014C010E9425015B016C011A
:100500000E9425017B018C010E942501AB01BC01E9
:1005100069827A828B829C82AD82BE82CF82D886AB
:10052000E986FA860B871C87CE0101960E94290F67
:1005300030C1163881F48091180390911903029705
:1005400008F427C186E193E00E94FE0086E193E073
:100550000E94FE001EC1193851F580911803909138
:100560001903029708F415C186E193E00E94FE008A
:1005700086E193E00E94FE00D82EDD1CDD24DD1C08
:1005800000E010E0E82EFF24C701002E02C0959580
:1005900087950A94E2F780FF04C0802F6D2D0E949A
:1005A000740E0F5F1F4F0330110571F7F2C0123840
:1005B00031F580911803909119030D9708F4E9C063
:1005C00086E193E00E94FE000E9425015B016C0120
:1005D0000E9425017B018C010E942501AD86BE860B
:1005E000CF86D88AE98AFA8A0B8B1C8B6D8B7E8B1F
:1005F0008F8B988FCE010D960E94930CCAC0153830
:1006000001F58091180390911903059708F4C1C072
:1006100082E090E0909322038093210386E193E0AF
:100620000E94FE000E94250128EE33E040E050E0E9
:100630000E944F30AB01BC0183E293E00E94761030
:10064000A8C0812F83588230A0F580911803909123
:100650001903089708F49DC086E193E00E94FE000C
:100660000E945701082F0E9425016B017C010E9406
:10067000450123E030E03093220320932103A0E0E2
:10068000B0E0BC01CD0120E432E44FE050E00E9434
:100690004F30AB01BC018DE293E00E94761080E008
:1006A000143809F481E0602FA70196010E94850E9D
:1006B00070C01738D1F480911803909119030697F0
:1006C00008F467C084E090E09093220380932103B4
:1006D00086E193E00E94FE0086E193E00E94FE0026
:1006E0000E9445010E94450154C0183809F051C0CC
:1006F0008091180390911903049708F44AC08091DF
:100700001A0390911B03209118033091190303964B
:10071000B6010E946E30E80EF91EF701808190E06C
:10072000049628173907A8F10E949D10882389F1A3
:100730000E949A107C010E942A2F86E193E00E9479
:10074000FE0086E193E00E94FE00682FC7010E9430
:100750007E2F86E193E00E94FE00682FC7010E9471
:100760007E2F0E945701C82EDD2400E010E00AC051
:1007700086E193E00E94FE00682FC7010E947E2F51
:100780000F5F1F4F0C151D059CF30E94B8100E94AF
:10079000AB1068960FB6F894DEBF0FBECDBFCF91F9
:1007A000DF911F910F91FF90EF90DF90CF90BF905E
:1007B000AF909F908F907F906F90089587E393E024
:1007C0000E94222F08956F927F928F929F92AF92F4
:1007D000BF92CF92DF92EF92FF920F931F93DF931E
:1007E000CF93CDB7DEB764970FB6F894DEBF0FBED8
:1007F000CDBF7C016B01FC018081882309F4E2C03C
:100800003701C70160E00E940B2F982F8077803757
:1008100009F0D8C09037B9F4C6010E942A2F01E030
:1008200010E00AC0C301602F0E940B2F682FC60181
:100830000E947E2F0F5F1F4FF701808190E0081705
:10084000190784F3C1C0913709F4BCC0923709F489
:10085000B9C0933709F07FC00E949A105C010E94D2
:1008600097104C01C5010E942A2F01E010E00AC038
:10087000C301602F0E940B2F682FC5010E947E2F9D
:100880000F5F1F4FF701808190E00817190784F36D
:100890008E010F5F1F4FC8010E944A10C80140E53A
:1008A00053EC60E070E00E947610F02E012F0FC034
:1008B0008F2D902F0E945110882349F0C60168E0C7
:1008C0000E947E2F8EED96E062E070E026C00E94CE
:1008D0009D10882369F38E01055F1F4FC8010E9498
:1008E0004A10C80140E553EC60E070E00E947610C9
:1008F0000E94B8100E94AB10F02E012F13C08F2D54
:10090000902F0E945110882359F0C60167E00E9481
:100910007E2F8EED96E061E070E00E945E2954C06B
:100920000E94D4100E94AE10882349F3740100E0A5
:1009300010E00AC0C701602F0E940B2F682FC6016C
:100940000E947E2F0F5F1F4FF401808190E00817F7
:10095000190784F339C0943739F40E94F100C601B5
:1009600061E00E947E2F30C09637A1F4C70161E09C
:100970000E940B2F182FC70162E00E940B2F682FD7
:10098000112329F48EED96E070E00E945E29C601E5
:1009900061E016C09737B1F4C70161E00E940B2FE8
:1009A000182FC60161E00E947E2F112339F48EEDCD
:1009B00096E00E947C29682FC60102C0C60160E053
:1009C0000E947E2F80E001C081E064960FB6F8940B
:1009D000DEBF0FBECDBFCF91DF911F910F91FF9072
:1009E000EF90DF90CF90BF90AF909F908F907F90CF
:1009F0006F9008951F93DF93CF930F92CDB7DEB71B
:100A00009C01162FCE010196B90141E050E00E94F1
:100A1000243189818F3F09F4198389810F90CF9107
:100A2000DF911F910895DF93CF9300D0CDB7DEB74C
:100A3000CE01019660E070E042E050E00E94243177
:100A40003A8184E6389FC00111242981820F911DCB
:100A50008A3C9105E9F032503D3F78F082E090E029
:100A600062E00E943E3183E090E06FE10E943E31FF
:100A700080E290E060E00E943E3182E089838A83D8
:100A8000CE01019660E070E042E050E00E94343117
:100A90000F900F90CF91DF9108958DE593E00E9424
:100AA0004A100895AF92BF92CF92DF92EF92FF92D9
:100AB0000F931F93DF93CF93CDB7DEB72A970FB66F
:100AC000F894DEBF0FBECDBF6C018E010F5F1F4FCC
:100AD000C8010E944A10C80142E350E060E070E0A3
:100AE0000E947610F02E012F11C08F2D902F0E94A2
:100AF0005110882359F0C60167E00E947E2F8EEDC9
:100B000096E062E070E00E945E293DC00E949D1068
:100B1000882359F30E949A108C010E9497107C013F
:100B2000C8010E942A2FC80160E00E947E2FC801E0
:100B300067E10E947E2F0E94B8100E94AB1002C095
:100B40000E94D4100E94AE108823D1F3F70182A135
:100B5000843021F0570100E010E00FC0C60167E0CB
:100B60000E947E2F10C0C501602F0E940B2F682F9E
:100B7000C6010E947E2F0F5F1F4FF701808190E01A
:100B80000817190784F32A960FB6F894DEBF0FBE34
:100B9000CDBFCF91DF911F910F91FF90EF90DF902C
:100BA000CF90BF90AF9008956F927F928F929F9257
:100BB000AF92BF92CF92DF92EF92FF920F931F936B
:100BC000DF93CF93CDB7DEB7C554D0400FB6F894BE
:100BD000DEBF0FBECDBF7C015B01FC01808188239D
:100BE00009F4F7C17E2C6F2CC70160E00E940B2F27
:100BF00087FDEFC18A3009F406C18B3098F4833049
:100C000099F1843030F4813009F4FAC0823080F5F3
:100C100021C0873049F1883009F4E9C0843009F0F7
:100C2000D8C130C08E3009F472C08F3038F48C30A7
:100C300009F474C18D3008F095C15BC1803109F4AD
:100C40007BC0803108F46CC0813171F0823109F0D1
:100C5000C0C199C0C50161E00E947E2FC5016AEC48
:100C600070E00E949A2FB3C181E080936703C8C0EF
:100C7000C50161E00E947E2F0E94A600AC0160E0E9
:100C800070E056C0F894CE010B960E94D10CC501BD
:100C900061E00E947E2F4B855C856D857E85C50158
:100CA0000E94D02F4F85588969897A89C5010E9491
:100CB000D02F4B895C896D897E89C5010E94D02F18
:100CC00043E0E42EF12CCC240894E108F1088701DC
:100CD00034E0000F111F3A95E1F70E0D1F1D02526F
:100CE000194FC8010E94AA2B882311F4DD2402C0E9
:100CF00022E0D22EC8010E94CA2BCC0CCC0CCD28ED
:100D0000C82AE114F10401F7C5016C2D03C1C50126
:100D100061E00E947E2FC70103960E94B50B30C090
:100D2000C50161E00E947E2F0E945D09AB01BC01FC
:100D3000C5010E94D02F4BC1C50161E00E947E2FEA
:100D400097E2C92ED12CCC0EDD1E01E010E00AC0C6
:100D5000872D962D602F0E940B2FF60181936F0136
:100D60000F5F1F4FF701808190E00817190784F388
:100D7000FE01EB5BFF4F1082CE0187960E94820B33
:100D8000682FC50122C1C50161E00E947E2F8E2D12
:100D90009F2D61E00E940B2F882349F00E94F40BE5
:100DA000BC01009721F0C5010E947E2F1DC08E015D
:100DB000095D1F4FC8016FE10E94880A682FC501B5
:100DC0000E947E2F8FE1E82EF12CE00EF11E08C06C
:100DD000C5010E947E2F0F5F1F4F0E151F0521F0CA
:100DE000F80160816623A1F7C50160E0EEC00E94B2
:100DF000B70091E089270E94B400C5010E94520506
:100E0000C50161E0E2C0F7018081823048F4C5018C
:100E100060E00E947E2F8EED96E068E070E01EC0DC
:100E20008E010F5F1F4FC8010E944A10C80142E3A4
:100E300050E060E070E00E947610D02E012F11C0CB
:100E40008D2D902F0E945110882359F0C50167E025
:100E50000E947E2F8EED96E062E070E00E945E2997
:100E6000B6C00E949D10882359F30E949A104C012D
:100E70000E9497106C01C4010E942A2F01E010E02B
:100E80000BC0872D962D602F0E940B2F682FC40159
:100E90000E947E2F0F5F1F4FF701808190E008179F
:100EA00019077CF30E94B8100E94AB1002C00E9488
:100EB000D4100E94AE108823D1F3F60182A18430B1
:100EC00021F0760100E010E00DC0C50167E07DC0B3
:100ED000C701602F0E940B2F682FC5010E947E2F33
:100EE0000F5F1F4FF601808190E00817190784F308
:100EF0006EC0C50161E00E947E2FF8940E94080C2C
:100F0000882309F07DC00E94BA00882309F478C0C4
:100F100061E0C5010E947E2F789459C0C70161E04D
:100F20000E94102F6C01C70163E00E940B2FE82E76
:100F3000FF248E01095E1F4FC801B601A7010E9460
:100F40002431C50161E00E947E2FE00EF11E06C033
:100F5000C501F80161918F010E947E2F0E151F05BA
:100F6000B9F735C0C70161E00E94102FC82E992E35
:100F7000C70163E00E940B2FD82E8E01095E1F4F20
:100F8000C8016C2D792D4D2D50E00E94243178013F
:100F900014E00D2D0C5F09C0872D962D612F0E9446
:100FA0000B2FF70181937F011F5F1017A9F7CE0167
:100FB00047966C2D792D4D2D50E00E943431C5019E
:100FC00061E00E947E2FC5016D2D0E947E2F81E081
:100FD00001C080E0CB5BDF4F0FB6F894DEBF0FBEE1
:100FE000CDBFCF91DF911F910F91FF90EF90DF90D8
:100FF000CF90BF90AF909F908F907F906F9008950B
:1010000060E087CFCF92DF92EF92FF920F931F9312
:10101000CF93DF93EC017B0188818823A1F16E01DE
:10102000CE0160E00E940B2F87FF2DC00E94460971
:10103000882341F0CE010E94C809C70161E00E94E7
:101040007E2F1FC0F89418810E94A600212F30E047
:101050008217930788F0C0E0D0E0890107C0C6017D
:101060006C2F0E940B2F0E94C4002196C017D1073D
:10107000B4F3C70161E002C0C70162E00E947E2FA5
:10108000789481E001C080E0DF91CF911F910F91B2
:10109000FF90EF90DF90CF9008958091B3079091EB
:1010A000B407892B09F476C08091B3079091B407F7
:1010B000049709F075C06EC01092670380E00E942B
:1010C000D108089580918D0790918E07892B01F1A9
:1010D00080918D0790918E070497D1F080915D03E8
:1010E000882349F48DE593E040E25EE460E070E03F
:1010F0000E9476100DC08DE593E00E945110882368
:1011000039F08AE697E00E94702E84E080938C0785
:1011100080918C07882351F08EED96E064E070E0BA
:101120000E945E298AE697E00E947E2E80918D07BC
:1011300090918E070497A1F58DE593E00E944E10E3
:1011400080E997E00E942A2F8AE697E060E977E03D
:101150000E94E3038823A9F48AE697E060E977E038
:101160000E940208882369F48AE697E060E977E044
:101170000E94D405882329F480E997E065E00E9465
:101180007E2F8AE697E00E947E2E88E697E00E94F6
:101190004D2D089580916703882309F493CF8CCF58
:1011A0000895FF920F931F93DF93CF93CDB7DEB7D0
:1011B0002A970FB6F894DEBF0FBECDBF182FF89454
:1011C0000E947C090E948E0C0E94F1000E9413056F
:1011D0008EED96E00E94BE2A78941123A9F08E012C
:1011E0000F5F1F4FC8010E944A10C80140EA55E234
:1011F00066E270E00E947610F02E012F8F2D902F66
:101200000E9451108823D1F30E9425118823F9F4FC
:1012100083E397E060E00E94532B8E010F5F1F4F26
:10122000C8010E944A10C80140EE53E964E070E032
:101230000E947610F02E012F8F2D902F0E945110BA
:101240008823D1F383E397E061E00E94532B7894E5
:101250002A960FB6F894DEBF0FBECDBFCF91DF91B7
:101260001F910F91FF9008958EED96E00E94110C52
:1012700081E00E94D10878940E94D4100E944D0809
:101280000E947D01F9CF80917103089580917003D0
:1012900008958091770308951092710380916E03F1
:1012A00090916F03009721F00E945F1D0E94AF2074
:1012B00010926F0310926E0308958091700388233B
:1012C00081F080916E0390916F03009721F00E944E
:1012D0005F1D0E94AF2010926F0310926E03109258
:1012E00070030E947C096091720370917303809176
:1012F000740390917503089580917103882311F010
:101300000E944C0980917003882311F00E945D09AE
:1013100080916C0390916D03009731F00E94F71556
:1013200010926D0310926C0380916A0390916B038D
:10133000009731F00E94911110926B0310926A0392
:101340008091680390916903009731F00E94731EA9
:101350001092690310926803089580916E03909132
:101360006F0366E773E041E050E00E94381310928B
:101370007703181619061CF481E08093770308950B
:101380001F93109176030E94AD09812F1F9108953C
:10139000CF93DF93EC0180916E0390916F030097E0
:1013A000E1F0BE016E5F7F4F488150E00E948214E1
:1013B00028818091720390917303A0917403B0917E
:1013C0007503820F911DA11DB11D8093720390932F
:1013D0007303A0937403B0937503DF91CF910895C5
:1013E000DF93CF93CDB7DEB7AB970FB6F894DEBFE0
:1013F0000FBECDBFBC0180916C0390916D03AE0117
:101400004F5F5F4F0E94FB1C811181E0AB960FB6CE
:10141000F894DEBF0FBECDBFCF91DF9108950F933B
:101420001F93CF93DF93EC018B010EC0C801BE0167
:101430000E94F330009741F480916C0390916D030A
:101440000E94FD1581E009C080916C0390916D03AD
:10145000B8010E94E116882349F7DF91CF911F91CF
:101460000F9108950F931F93DF93CF93CDB7DEB7FE
:10147000AB970FB6F894DEBF0FBECDBF8E010F5FE6
:101480001F4FB8010E940F0A882341F080916A0320
:1014900090916B03B8010E940A1681E0AB960FB6DB
:1014A000F894DEBF0FBECDBFCF91DF911F910F919A
:1014B0000895EF92FF920F931F93DF93CF93CDB7D1
:1014C000DEB7AB970FB6F894DEBF0FBECDBF7B0182
:1014D0008E010F5F1F4FB8010E940F0A882359F039
:1014E00080916A0390916B03B8010E94AC1DF701D3
:1014F0009183808381E0AB960FB6F894DEBF0FBE78
:10150000CDBFCF91DF911F910F91FF90EF90089584
:10151000AF92BF92DF92EF92FF920F931F93DF93F0
:10152000CF93CDB7DEB7AB970FB6F894DEBF0FBE43
:10153000CDBF7C0185E0D82E5E010894A11CB11CB2
:10154000062F10E00150104080916C0390916D03C4
:10155000B5010E94E1168823D1F080E090E005C03B
:10156000F701E80FF91F208301968017910734F4E3
:10157000F501E80FF91F2081222391F7F701E80F09
:10158000F91F1082892B29F4DA94F1F602C0F701D1
:10159000108280E090E0AB960FB6F894DEBF0FBEED
:1015A000CDBFCF91DF911F910F91FF90EF90DF9012
:1015B000BF90AF9008950F931F93DF93CF93CDB754
:1015C000DEB7AB970FB6F894DEBF0FBECDBF8091EC
:1015D0006A0390916B0360E072E08E010F5F1F4F12
:1015E000A8010E94E21D80916A0390916B03B801EB
:1015F0000E946F1D90936D0380936C0320E0892BF4
:1016000009F021E0822FAB960FB6F894DEBF0FBE33
:10161000CDBFCF91DF911F910F9108958091680305
:10162000909169030E94DF1890936B0380936A0383
:1016300020E0892B09F021E0822F08950F9389EC97
:1016400090E267E871E240ED5FE125EA32E200E016
:101650000E947B1E9093690380936803892B79F421
:1016600089EC90E267E871E240ED5FE125EA32E261
:101670000FEF0E947B1E909369038093680320E024
:101680008091680390916903892B09F021E0822FF2
:101690000F9108950E94F721882371F40E94571F2B
:1016A000882329F40E947C0921E030E029C00E94AF
:1016B0007C0922E030E024C00E941E0B882329F41C
:1016C0000E947C0923E030E01BC00E940E0B88239F
:1016D00029F40E947C0924E030E012C00E94DB0A59
:1016E000882329F40E947C0925E030E009C00E948B
:1016F000601F882319F420E030E002C026E030E0CB
:10170000C90108950F931F93CF93DF938C010E941B
:101710007C090E944A0BEC010097D9F410927203E5
:1017200010927303109274031092750310926F035A
:1017300010926E03C8016EE673E00E94590A882376
:1017400031F080916E0390916F03892B41F4C7E0D3
:10175000D0E0CE01DF91CF911F910F91089581E0EC
:10176000809371030E94AD09F4CF0F931F93CF9321
:10177000DF93EC010E947C090E944A0B8C010097C8
:1017800069F5109272031092730310927403109211
:10179000750310926F0310926E03CE010E94320AFD
:1017A000CE010E94F009882319F407E010E016C06A
:1017B000CE016EE673E00E94590A882319F403E013
:1017C00010E00CC080916E0390916F03892B19F487
:1017D00008E010E003C081E080937003C801DF914E
:1017E000CF911F910F9108950E947C090E944A0B8E
:1017F0009C01009719F08630910541F480916C03AB
:1018000090916D030E94FD1520E030E0C90108951C
:1018100080917803882311F081E008958091080475
:1018200008950F931F93DF93CF93CDB7DEB76197E2
:101830000FB6F894DEBF0FBECDBFBC011092780387
:1018400041E853E020E030E00BE110E01E861F8607
:10185000188A198A1A861B861C861D861E821F827C
:10186000188619861A821B821C821D82209FF00115
:10187000219FF00D309FF00D1124EF57FC4F89810F
:10188000828F8A819B81AC81BD81868B978BA08F53
:10189000B18F8E819F81A885B985828B938BA48B14
:1018A000B58B8A859B85AC85BD8586879787A08B00
:1018B000B18BDA011A961D921D921D921C921D97F2
:1018C00016961D921D921D921C9219978E859F85CA
:1018D000A889B98982839383A483B583C901E4E08D
:1018E000880F991FEA95E1F7820F931F860F971FC4
:1018F000FA01918380832F5F3F4F455E5F4F253014
:10190000310509F0A3CF61960FB6F894DEBF0FBE84
:10191000CDBFCF91DF911F910F9108951092780361
:10192000109208040895FC0180819181A281B38105
:101930008093830390938403A0938503B0938603DD
:1019400084819581A681B78180939E0390939F03A4
:10195000A093A003B093A10380859185A285B38550
:101960008093B9039093BA03A093BB03B093BC03D5
:1019700084859585A685B7858093D4039093D503F8
:10198000A093D603B093D70380899189A289B389A4
:101990008093EF039093F003A093F103B093F203CD
:1019A0000895EF92FF920F931F93FC0180918303A0
:1019B00090918403A0918503B091860320919E03AA
:1019C00030919F034091A0035091A103E090B9038F
:1019D000F090BA030091BB031091BC038083918304
:1019E000A283B3832483358346835783E086F186BD
:1019F00002871387CF011F910F91FF90EF900895F9
:101A0000809309040895E1E8F3E0118210827B9647
:101A100084E0E830F807C9F708958F929F92AF925B
:101A2000BF92CF92DF92EF92FF920F931F93CF93CB
:101A3000DF9380917803882309F4B1C080917D03FE
:101A400090917E03A0917F03B09180030197A1093B
:101A5000B10980937D0390937E03A0937F03B0939D
:101A600080030196A11DB11D0097A105B10519F4D0
:101A70001092780391C001E813E0EE24FF24ABE15B
:101A80008A2E912CA0907903B0907A03C0907B03AA
:101A9000D0907C03E89CE001E99CD00DF89CD00D2F
:101AA0001124CF57DC4F8A899B89AC89BD892E8947
:101AB0003F89488D598D280F391F4A1F5B1F2A8B7C
:101AC0003B8B4C8B5D8B8A899B89AC89BD89B7FD2B
:101AD00059C06A8DF801808191810E94542B8A89B6
:101AE0009B89AC89BD898A199B09AC09BD098A8B80
:101AF0009B8BAC8BBD8B8A8DF80120813181882333
:101B0000E1F0C9010E94AA2B882331F4F8018081F9
:101B1000918161E00E94742BE89CF001E99CF00D3A
:101B2000F89CF00D1124EF57FC4F82819381A48122
:101B3000B5810196A11DB11D1BC0C9010E94CA2B10
:101B4000882331F4F8018081918161E00E94742B37
:101B5000E89CF001E99CF00DF89CF00D1124EF5782
:101B6000FC4F82819381A481B5810197A109B109BC
:101B700082839383A483B583F8018081918160E09F
:101B80000E94742B0894E11CF11C055E1F4FF5E0C8
:101B9000EF16F10409F076CF8091780398C0809118
:101BA0000804882309F493C01092080401E813E0A4
:101BB000AA24BB24FBE18F2E912CC0907903D090F6
:101BC0007A03E0907B03F0907C03A89CE001A99C41
:101BD000D00DB89CD00D1124CF57DC4F8E899F8932
:101BE000A88DB98D0097A105B10509F45EC08A8959
:101BF0009B89AC89BD892E893F89488D598D280FD5
:101C0000391F4A1F5B1F2A8B3B8B4C8B5D8B8A894C
:101C10009B89AC89BD89B7FD4BC06A8DF801808175
:101C200091810E94542B8A899B89AC89BD898C192A
:101C30009D09AE09BF098A8B9B8BAC8BBD8B8A8DAE
:101C4000F80120813181882399F0C9010E94AA2BD3
:101C5000882359F5F8018081918161E00E94742BFD
:101C60008A819B81AC81BD810196A11DB11D12C0ED
:101C7000C9010E94CA2B8823C1F4F8018081918197
:101C800061E00E94742B8A819B81AC81BD810197A8
:101C9000A109B1098A839B83AC83BD83F80180814C
:101CA000918160E00E94742B03C08091080481112F
:101CB00081E0809308040894A11CB11C055E1F4FAD
:101CC000F5E0AF16B10409F078CF80910804DF91F8
:101CD000CF911F910F91FF90EF90DF90CF90BF9029
:101CE000AF909F908F90089590E02BE130E0829F1D
:101CF000F001839FF00D929FF00D1124EF57FC4FE0
:101D0000808191810E948F2B08952F923F924F9254
:101D10005F926F927F928F929F92AF92BF92CF927B
:101D2000DF92EF92FF920F931F93DF93CF9300D038
:101D30000F92CDB7DEB78983162F8FEF9FEFAFEFEE
:101D4000BFE780937D0390937E03A0937F03B093BE
:101D5000800396E056954795379527959A95D1F744
:101D60002093790330937A0340937B0350937C0351
:101D7000CA01B90122E030E040E050E00E94B730F3
:101D8000882499245401821A930AA40AB50A81E886
:101D9000C82E83E0D82EEE24FF240BE1202E312C18
:101DA000012F10E0B1E04B2E512C612C712CE29CE4
:101DB000C001E39C900DF29C900D11248F579C4F15
:101DC0009B838A83FC01828A938AA48AB58AC8018C
:101DD0000E2C02C0959587950A94E2F780FF0FC0FC
:101DE0008981828FF6018081918161E00E948F2B31
:101DF000EA81FB81468A578A608E718E06C0EA812D
:101E0000FB81168A178A108E118E0894E11CF11C32
:101E10008BE190E0C80ED91E93E0E916F10439F683
:101E200081E0809308040F900F900F90CF91DF9185
:101E30001F910F91FF90EF90DF90CF90BF90AF90E8
:101E40009F908F907F906F905F904F903F902F90DA
:101E500008953F924F925F926F927F928F929F92DE
:101E6000AF92BF92CF92DF92EF92FF920F931F93A8
:101E7000DF93CF9300D000D000D0CDB7DEB7498339
:101E80005A836B837C833C0131E8832E33E0932EAD
:101E9000AA24BB2465011E821D822BE1422E512CF7
:101EA00033243394F30180819181A281B3812D8108
:101EB0003E81249DF001259DF00D349DF00D1124EF
:101EC000EF57FC4F86879787A08BB18B86859785C8
:101ED000A089B1892281338144815581821B930B72
:101EE000A40BB50B868B978BA08FB18F328E868912
:101EF0009789A08DB18D0097A105B10531F0F4014E
:101F00008081918161E00E948F2B2D813E81249DF3
:101F1000F001259DF00D349DF00D1124EF57FC4F7D
:101F200086899789A08DB18DB7FF10C08689978962
:101F3000A08DB18DB095A095909581959F4FAF4F95
:101F4000BF4F868B978BA08FB18F128E8D819E8114
:101F5000849DF001859DF00D949DF00D1124EF57A7
:101F6000FC4FE688F788008D118D029779F48091F7
:101F70000904882359F48091B7039091B80360E075
:101F8000E114F1040105110551F008C0E114F10458
:101F90000105110531F0F4018081918161E00E9419
:101FA0008F2BAE14BF04C006D10614F4570168018C
:101FB0002D813E812F5F3F4F3E832D8384E090E053
:101FC000680E791EEBE1F0E08E0E9F1E2330310586
:101FD00009F068CFC601B50129813A814B815C8146
:101FE0000E944F3020E430E040E050E00E94B730E3
:101FF000B901CA016093790370937A0380937B03DC
:1020000090937C0360937D0370937E0380937F03A2
:102010009093800322E030E040E050E00E94B7302F
:1020200050954095309521953F4F4F4F5F4F2093EE
:102030009303309394034093950350939603209316
:10204000AE033093AF034093B0035093B10320939A
:10205000C9033093CA034093CB035093CC0381E070
:102060008093780326960FB6F894DEBF0FBECDBFDF
:10207000CF91DF911F910F91FF90EF90DF90CF9064
:10208000BF90AF909F908F907F906F905F904F9098
:102090003F900895FC01108211820895FC01108286
:1020A0000895CF93DF93EC0188818823D9F089814B
:1020B0008823C1F48EED96E00E9451292A813B814C
:1020C0004C815D81621B730B840B950B2E813F81CC
:1020D00048855985621773078407950718F0188299
:1020E00081E089838981DF91CF910895CF92DF923A
:1020F000EF92FF920F931F938C016A017B0181E0A5
:10210000F801808311828EED96E00E945129F8013A
:102110006283738384839583C682D782E086F18647
:102120001F910F91FF90EF90DF90CF90089588EB73
:1021300097E008958EED97E0089580910A04882332
:1021400041F480910B04882321F481E080930B04F7
:10215000089580E0089510920B04089580910A0478
:1021600091E0892708958CE094E00E944A10089538
:102170000F931F9381E080930A048CE094E040E584
:1021800053EC60E070E00E94761083E080930202DE
:1021900008EB17E0C8010E947E2EC80102970E943A
:1021A0004D2D1F910F91089580910A04882309F401
:1021B0004BC08091DB079091DC07049719F41092D3
:1021C0000A0408958091DA07882369F08091020259
:1021D000882399F410920A048EED96E063E070E093
:1021E0000E945E2908958CE094E00E94511088239B
:1021F00059F1809102028823C1F08150809302023C
:102200008CE094E040E553EC60E070E00E947610D2
:102210008EED97E00E94322F88EB97E00E947E2E91
:1022200086EB97E00E944D2D089588EB97E00E9481
:10223000702E84E08093DA0710920A048EED96E007
:1022400061E070E00E945E290895FF920F931F9352
:10225000DF93CF93CDB7DEB72A970FB6F894DEBFE2
:102260000FBECDBF8E010F5F1F4FC8010E944A10E5
:10227000C80140E553EC60E070E00E947610F02E5B
:10228000012F06C081E080930B0410920A0413C052
:1022900080910A04882341F480910B04882321F45F
:1022A00081E080930B0407C08F2D902F0E94511066
:1022B000882371F3E7CF8EED97E00E942A2F8EEDF1
:1022C00097E060E00E947E2F8EED97E061E00E9433
:1022D0007E2F0E94B8108CE094E040E553EC60E063
:1022E00070E00E94761010920B0402C00E94D4107D
:1022F00080910A048823D1F78091DB079091DC0755
:1023000020E0049709F421E0822F2A960FB6F89472
:10231000DEBF0FBECDBFCF91DF911F910F91FF9018
:102320000895FC01009711F0118210820895DF9347
:10233000CF9300D0CDB7DEB7DC01009781F16230DA
:10234000710568F1ED91FC911197660F771F80E0A0
:1023500090E016962D913D914D915C911997620FE9
:10236000731F841F951F0190F081E02DAE014F5F18
:102370005F4F22E030E00995882389F029813A8176
:102380002115310571F08FEF273F380741F0C90162
:102390004096079720F08FEF283F380710F020E095
:1023A00030E0C9010F900F90CF91DF9108954F92C7
:1023B0005F926F927F928F929F92AF92BF92CF92D5
:1023C000DF92EF92FF920F931F93DF93CF9300D092
:1023D000CDB7DEB75C01009709F449C062307105E2
:1023E00008F445C0DC0116966D907D908D909C9010
:1023F00019972E010894411C511C660F771F7B0111
:1024000000E010E0E60CF71C081D191DD501ED9148
:10241000FC910190F081E02DC801B701A20122E0FA
:1024200030E00995882319F1C980DA80C114D104FC
:1024300001F1C60140960897D0F0B8EFCB16BFEF78
:10244000DB0610F0CC24DD241A821982D501ED912F
:10245000FC910480F581E02DC801B701A20122E0C2
:1024600030E00995B601C114D10439F602C080E00C
:1024700001C081E00F900F90CF91DF911F910F91DC
:10248000FF90EF90DF90CF90BF90AF909F908F9094
:102490007F906F905F904F9008952F923F924F9250
:1024A0005F926F927F928F929F92AF92BF92CF92E4
:1024B000DF92EF92FF920F931F93DF93CF93CDB7ED
:1024C000DEB72C970FB6F894DEBF0FBECDBF4C0120
:1024D0001B01CA018114910409F4ABC0D401ED9130
:1024E000FC911197208131813C872B874481558154
:1024F0005A87498716962D913D914D915C91199778
:102500002D833E834F8358875A96AD90BC905B973E
:102510001A962D913D914D915C911D975695479539
:10252000379527953C832B835B961C921E925A9776
:102530003C012901CC24DD2454C0B2E0AB16B10427
:1025400028F0EB81FC81AE16BF0618F042E0A42E05
:10255000B12CC501880F991F7C0100E010E02D818E
:102560003E814F815885E20EF31E041F151FC801DE
:10257000B701AE014F5F5F4F22E030E0AB85BC8515
:10258000FD010995882309F454C089819A81892B1A
:1025900011F56114710421F4F401B38EA28E27C0E9
:1025A000C114D10429F42FEF3FEF3A83298302C0ED
:1025B000DA82C982C801B701AE014F5F5F4F22E0E6
:1025C00030E0A985BA85FD010995882371F1089449
:1025D0006108710865010894410851080894A11C1C
:1025E000B11C4114510409F0A8CF6728F1F4B2E0FE
:1025F0002B16310400F1C982DA82220C331CB1019E
:1026000080E090E02D813E814F815885620F731FDD
:10261000841F951FAE014F5F5F4F22E030E0A98518
:10262000BA85FD010995882331F4C401B6010E94E1
:10263000D711CC24DD24C6012C960FB6F894DEBF4A
:102640000FBECDBFCF91DF911F910F91FF90EF9003
:10265000DF90CF90BF90AF909F908F907F906F90C2
:102660005F904F903F902F90089580E190E0089503
:102670002F923F924F925F926F927F928F929F9292
:10268000AF92BF92CF92DF92EF92FF920F931F9380
:10269000DF93CF93CDB7DEB72A970FB6F894DEBF9E
:1026A0000FBECDBF2C017A8369835C834B83009777
:1026B00009F409C1672B09F406C1452B09F403C1CC
:1026C000DC019D96AD90BD90CD90DC90D097959615
:1026D0002D913D914D915C919897EB81FC81CF01BB
:1026E000A0E0B0E08A0D9B1DAC1DBD1D2817390769
:1026F0004A075B0740F4B9016A197B097C836B8345
:10270000672B09F4E3C0D201ED91FC911197208869
:102710003188D196ED91FC91D297FA87E987EF2B1A
:10272000F1F593962D913C9194973A872987232B25
:1027300039F4A114B104C104D10409F4C7C0C3C061
:10274000A114B104C104D10451F186017501310114
:102750008824992466277727CB0166197709880989
:1027600099096D837E838F83988714C0D2018D91E0
:102770009C9169857A850E9497119A878987892B10
:1027800009F4A1C06D817E818F819885E60EF71EC8
:10279000081F191FE614F7040805190538F70894EF
:1027A00021083108A220B3200894211C311CCB80C1
:1027B000DC80D201ED90FC90E114F10409F1E9858F
:1027C000FA85E230F105E0F03297BF0180E090E059
:1027D0003296FA87E987D70150962D913C9151970F
:1027E00040E050E00E944F309B01AC01F70182892C
:1027F0009389A489B589280F391F4A1F5B1F04C01C
:1028000020E030E040E050E081010A191B09C016C9
:10281000D10608F48601D701ED91FC91C501A0E035
:10282000B0E0280F391F4A1F5B1F0190F081E02D97
:10283000CA01B90149815A8198010995882341F15A
:10284000C01AD10AC801A0E0B0E0F20125A536A562
:1028500047A550A9280F391F4A1F5B1FD2019D961B
:102860002D933D934D935C93D097C8018A0D9B1D8A
:1028700082159305A0F08D919C9169857A850E94BF
:1028800097119A878987892B41F4F20112AA11AA1C
:102890004B815C814C195D091BC0AA24BB24E985CE
:1028A000FA85D201D296FC93EE93D197C114D1044C
:1028B00039F029813A81200F311F3A83298379CF5A
:1028C0004B815C8105C04FEF5FEF02C040E050E0FC
:1028D000CA012A960FB6F894DEBF0FBECDBFCF91C6
:1028E000DF911F910F91FF90EF90DF90CF90BF90FD
:1028F000AF909F908F907F906F905F904F903F90A0
:102900002F9008952F923F924F925F926F927F92F5
:102910008F929F92AF92BF92CF92DF92EF92FF92EF
:102920000F931F93DF93CF9300D000D000D0CDB78B
:10293000DEB76C017A8369835C834B83009709F46B
:102940003AC1672B09F437C1452B09F434C1DC01C6
:102950009D968D909D90AD90BC90D09795968D91C1
:102960009D910D90BC91A02D88159905AA05BB05D8
:1029700008F421C1D601ED91FC911197208831888E
:10298000D1962D913C91D2973E832D83232B09F034
:1029900057C093968D919C9194979E838D83892B9C
:1029A000B9F481149104A104B10409F004C1CF0168
:1029B00060E070E041E050E00E944D129E838D8304
:1029C000D60194969C938E939397892B09F4F3C028
:1029D000F601E5A4F6A407A510A9E114F104010588
:1029E000110531F52DC0E418F50806091709D601BF
:1029F0008D919C916D817E810E949711009719F0B5
:102A00009E838D8318C0E114F1040105110509F0BE
:102A1000D2C0F601808191816D817E8141E050E0DC
:102A20000E944D12009709F4C6C09E838D8303C097
:102A3000210166247724E414F5040605170598F6A9
:102A4000089421083108822093200894211C311C0D
:102A5000AB80BC80D601ED90FC90E114F10409F14B
:102A6000ED81FE81E230F105E0F03297BF0180E0B8
:102A700090E03296FE83ED83D70150962D913C91E4
:102A8000519740E050E00E944F309B01AC01F701AC
:102A900082899389A489B589280F391F4A1F5B1F32
:102AA00004C020E030E040E050E08101081919093D
:102AB000A016B10608F48501D701ED91FC91C4017F
:102AC000A0E0B0E0280F391F4A1F5B1F0480F5818A
:102AD000E02DCA01B90149815A81980109958823DD
:102AE00009F44DC0A01AB10AC801A0E0B0E0F60197
:102AF00025A536A547A550A9280F391F4A1F5B1FDA
:102B0000D6019D962D933D934D935C93D097C8012C
:102B1000880D991D8215930518F18D919C916D81F9
:102B20007E810E949711009719F09E838D8316C0B5
:102B3000A114B10459F0F601808191816D817E81EB
:102B400041E050E00E944D12009731F4D601D29638
:102B50001C921E92D19713C09E838D838824992442
:102B60002D813E81F60132AB21ABA114B10439F0C5
:102B700089819A81800F911F9A8389836BCFD601B7
:102B80009D962D913D914D915C91D09795968D910B
:102B90009D910D90BC91A02D82179307A407B507B6
:102BA00028F4F60125A336A347A350A74B815C81E7
:102BB0004A195B0902C04FEF5FEFCA0126960FB6B4
:102BC000F894DEBF0FBECDBFCF91DF911F910F9163
:102BD000FF90EF90DF90CF90BF90AF909F908F903D
:102BE0007F906F905F904F903F902F900895FC01E1
:102BF000009711F0118210820895FC01009711F4E2
:102C000080E0089583A194A196A785A710AA17A68E
:102C100081E008957F928F929F92AF92BF92CF9260
:102C2000DF92EF92FF920F931F93DF93CF93CDB775
:102C3000DEB72C970FB6F894DEBF0FBECDBF6C0188
:102C40005B01009709F44EC06115710509F44AC093
:102C5000DB019796ED90FD900D911C919A97E114F0
:102C6000F10401051105F1F14E010894811C911C3C
:102C700075EE772ED601ED91FC910190F081E02D5B
:102C8000C801B701A4012CE030E00995882351F177
:102C90007982D601ED91FC910480F581E02DC80187
:102CA000B701A4012CE030E009958823D9F08C8588
:102CB0008F3049F480E290E0A0E0B0E0E80EF91E29
:102CC0000A1F1B1FD7CFD50191966D917C919297CA
:102CD0006115710529F0C6010E94D711882319F0EA
:102CE00081E001C080E02C960FB6F894DEBF0FBEE5
:102CF000CDBFCF91DF911F910F91FF90EF90DF90AB
:102D0000CF90BF90AF909F908F907F900895CF927B
:102D1000DF92EF92FF920F931F93DF93CF93CDB784
:102D2000DEB760970FB6F894DEBF0FBECDBF8C0143
:102D30006230710510F480E035C0009729F440E05E
:102D400050E060E070E016C06250704080E090E0BB
:102D5000F8012089318940E050E00E944F30AB01FA
:102D6000BC01F80182899389A489B589480F591F4C
:102D70006A1F7B1FDE01119680E1FD0111928A9589
:102D8000E9F7F8018081918120893189FC01C680B1
:102D9000D780CB01BA01AD0105E313E1EE24FF2496
:102DA000F601099560960FB6F894DEBF0FBECDBF51
:102DB000CF91DF911F910F91FF90EF90DF90CF9017
:102DC00008952F923F924F925F926F927F928F92CF
:102DD0009F92AF92BF92CF92DF92EF92FF920F93AA
:102DE0001F93DF93CF93CDB7DEB7A6970FB6F894B6
:102DF000DEBF0FBECDBF2C01009709F4A5C0611541
:102E0000710509F4A1C0DC018D909C901197F4012B
:102E1000208831889D96AD90BC909E979F966D902E
:102E20007C90D097FE01319686E0DF011D928A9555
:102E3000E9F7A114B10409F076C0F40122883388BF
:102E400086899789281A390A6EC0730100E010E05C
:102E5000A114B10441F4D40156966D917D918D91E8
:102E60009C9159972DC08114910421F1B2E0AB16C9
:102E7000B10400F1EEEFFFEFAE0EBF1EB50180E032
:102E800090E022E030E0A20EB31ED40150962D91C6
:102E90003C91519740E050E00E944F309B01AC01C3
:102EA000F40182899389A489B589280F391F4A1FA3
:102EB0005B1F04C020E030E040E050E0CA01B901EF
:102EC0006E0D7F1D801F911F1C821B82D401ED910E
:102ED000FC918101061917090280F381E02DAE01F2
:102EE000495F5F4F20E230E0AEEBEA2EA7E1FA2E19
:102EF0006E010894C11CD11C0995882329F18B818E
:102F00009C81680E791E6214730478F0C401B501C7
:102F10000E9497115C0166247724009731F4F20136
:102F2000A3A0B4A006C07A8369838E81882309F4A4
:102F30008CCFD2019E96BC92AE929D97D0967C92F9
:102F40006E929F978E8101C080E0A6960FB6F8948E
:102F5000DEBF0FBECDBFCF91DF911F910F91FF90CC
:102F6000EF90DF90CF90BF90AF909F908F907F9029
:102F70006F905F904F903F902F900895CF92DF9287
:102F8000EF92FF920F931F93DF93CF93CDB7DEB7EE
:102F90002D970FB6F894DEBF0FBECDBF8C016A012E
:102FA0007B01B901D9014D915C91119712968D91D8
:102FB0009C911397809613969C938E931297F80189
:102FC0009081953E11F0992321F4DB0114961C9217
:102FD000E6C0F80183858F3009F04FC0D9011496FF
:102FE0009C91992319F08585981789F08BE2FA0155
:102FF00011928A95E9F7D8011D968C91FB01848383
:10300000DA019796CD92DD92ED92FC929A97F801B3
:10301000808190E08F73907001972DE030E0829F67
:10302000B001839F700D929F700D1124DE011196E7
:10303000E3E0F2E08DE001900D928150E1F7DA01DA
:10304000A60FB71F20E030E0AE014F5F5F4F0FC00B
:10305000FA01E20FF31F8081F801E80FF11D808172
:103060008D932F5F3F4F2D30310509F498C0C90172
:10307000860F971F4F9760F392C0DA018C918823D7
:10308000C9F0F901B481F801A1E0892F90E09C0119
:10309000359527959695982F882797958795982FFA
:1030A000922B8181980FAF5F3196AB3071F7B917D2
:1030B00009F45AC08BE2DA011D928A95E9F7FA0108
:1030C000C7A2D0A6E1A6F2A67801DA01680120E045
:1030D000F60190819032A1F09C93F801848583FFE2
:1030E00008C0F6018081813420F08B3510F4905EA9
:1030F0009C932F5F0894C11CD11C1196283041F776
:10310000DA018C91853011F485EE8C93F80180857D
:10311000803231F1FA01E20FF11D8EE28083322F0D
:103120003F5F2C5FD70118969C919032C1F0FA0155
:10313000E30FF11D9083D8011C968C9184FF09C088
:10314000D70118968C91813420F08B3510F4905E65
:1031500090833F5F0894E11CF11C321719F7232F6D
:10316000FA01E20FF11D1082F8018385DA019096D1
:103170008C939097828D938D92969C938E9391973A
:10318000848D958DA68DB78DFA0183A394A3A5A3F5
:10319000B6A381E0DB0115968C9380E001C081E04D
:1031A0002D960FB6F894DEBF0FBECDBFCF91DF9145
:1031B0001F910F91FF90EF90DF90CF9008952F9285
:1031C0003F924F925F926F927F928F929F92AF92B7
:1031D000BF92CF92DF92EF92FF920F931F93DF93F4
:1031E000CF93CDB7DEB7A8970FB6F894DEBF0FBE6A
:1031F000CDBF98A78FA3009709F45CC1DC0114969A
:103200008D919C911597892B09F454C116968D9137
:103210009C911797892B09F44DC168C1EBEAF4E042
:103220008CE1DF011D928A95E9F7EFA1F8A5F093F3
:10323000AC04E093AB042184328443845484A9E039
:10324000220C331C441C551CAA95D1F7C201B101B4
:10325000655F7F4F8F4F9F4F0190F081E02DAE0152
:103260004F5F5F4F29E130E00995882309F445C19C
:10327000E981FA81FBA3EAA32C813D81FB81FCA3B8
:103280004E818F8198859EA38DA3E985FA856C85F3
:103290007D856E887F88888C998C61147104810487
:1032A000910431F4309709F428C13F01882499240E
:1032B0006115710509F421C1C901A0E0B0E08A8F50
:1032C0009B8FAC8FBD8F80E090E0242F30E040E0FA
:1032D00050E00E944F306E8F7F8F88A399A38401A6
:1032E00073012A8D3B8D4C8D5D8DE21AF30A040B20
:1032F000150BE61AF70A080B190B8AA19BA1019777
:103300002DA13EA1F5E0220F331FFA95E1F7820FC0
:10331000931F6AA17BA10E946E3080E090E0E61AC4
:10332000F70A080B190B8CA1282F30E040E050E081
:10333000C801B7010E94953079018A0195EFE9161D
:103340009FE0F90690E0090790E0190708F4D5C05E
:10335000A5EFEA16AFEFFA06A0E00A07A0E01A0709
:1033600028F486E0EFA1F8A5808705C08BE0AFA127
:10337000B8A518968C9388E1EDEAF4E0DF011D9280
:103380008A95E9F7EAA1FBA15F01CC24DD24C40101
:10339000B301A60195010E944F306093AD04709374
:1033A000AE048093AF049093B004C601B5012A8D9A
:1033B0003B8D4C8D5D8D0E944F30260E371E481E72
:1033C000591E2092B1043092B2044092B30450923C
:1033D000B404AFA1B8A518968C91863029F064E0AA
:1033E00070E080E090E004C062E070E080E090E097
:1033F00022E030E040E050E0E20EF31E041F151F13
:10340000A80197010E944F306093B5047093B604F1
:103410008093B7049093B8044AA15BA15093BA0477
:103420004093B9045CA1852F90E0DC01EAA1FBA1E7
:10343000AE9FC001AF9F900DBE9F900D1124909341
:10344000BC048093BB046E8D7F8D88A199A1A601D9
:1034500095010E944F302091B1043091B204409107
:10346000B3045091B404620F731F841F951F6093BF
:10347000C1047093C2048093C3049093C404ADA1AB
:10348000BEA19D0140E050E0E5E0220F331F441F44
:10349000551FEA95D1F7620F731F841F951F609324
:1034A000BD047093BE048093BF049093C0042BEAC4
:1034B00034E002C020E030E0C901A8960FB6F894CD
:1034C000DEBF0FBECDBFCF91DF911F910F91FF9057
:1034D000EF90DF90CF90BF90AF909F908F907F90B4
:1034E0006F905F904F903F902F9008958091AB0424
:1034F0009091AC04892BF1F691CE1092AC0410920D
:10350000AB04D8CF2F923F924F925F926F927F92EF
:103510008F929F92AF92BF92CF92DF92EF92FF92E3
:103520000F931F93DF93CF9300D00F92CDB7DEB7E9
:103530001C019B01009709F4D2C04115510509F403
:10354000CEC0FA0101900020E9F7E41BF50BCF0192
:103550000B966DE070E00E946E30862F8F5F8B833C
:10356000D90193964D905C9094974114510451F079
:10357000AA24BB246501EE24FF2487016624772456
:1035800043010BC0F101E688F788008D118D628838
:10359000738884889588570168011A82E614F704B5
:1035A0000805190509F06EC04114510409F497C0CB
:1035B000E114F1040105110589F1C101B2010E9474
:1035C0009711009751F5C101B20141E050E00E940E
:1035D0004D128C01009709F482C002501040B801CE
:1035E00080E090E00E5F1F4FD10150962D913C91ED
:1035F000519740E050E00E944F305B016C01F101B7
:1036000082899389A489B589A80EB91ECA1EDB1EBA
:10361000C101B8010E94871665C02C01F2E04F1667
:10362000510420F4EE24FF2487011DC02EEF3FEF4C
:10363000420E531EB20180E090E0A2E0B0E04A0EDC
:103640005B1EF1012089318940E050E00E944F303B
:103650007B018C01F10182899389A489B589E80EE7
:10366000F91E0A1F1B1FD10150968D919C915197F5
:103670003C01882499246E0C7F1C801E911E5701EA
:1036800068011A82D101ED91FC910190F081E02D49
:10369000C801B701AE014F5F5F4F21E030E00995EF
:1036A0008823E9F08981853E11F0882379F4BA8175
:1036B000BF5FBA83EB81BE17A8F480E290E0A0E080
:1036C000B0E0E80EF91E0A1F1B1F68CF80E290E0F1
:1036D000A0E0B0E0E80EF91E0A1F1B1F5CCFAA2471
:1036E000BB246501B501C6010F900F900F90CF91DB
:1036F000DF911F910F91FF90EF90DF90CF90BF90DF
:10370000AF909F908F907F906F905F904F903F9081
:103710002F9008952F923F924F925F926F927F92D7
:103720008F929F92AF92BF92CF92DF92EF92FF92D1
:103730000F931F93DF93CF93CDB7DEB7A0970FB64C
:10374000F894DEBF0FBECDBFFC018B01009709F4DA
:1037500038C16115710509F434C10190F081E02D83
:1037600024803580DB019796AD90BD90CD90DC90A4
:103770009A97E62E912EFB0101900020E9F73197F0
:10378000FE2EF61A8F2D90E00C966DE070E00E94F0
:103790008230762ECE01019660E270E04BE050E080
:1037A0000E94E130C8016EE270E00E941931FC0114
:1037B0000097E1F09C012F5F3F4F81818823B1F09A
:1037C000D9010D900020E9F71197A21BB30B8A2FA6
:1037D0008095F80EBE01675F7F4F4A2FA43008F036
:1037E00043E0CB01B90150E00E94D830CE010196F0
:1037F000B8E0BF1588F06E2D792D4F2D50E00E9456
:10380000D830F80180818E3291F581818E3209F4B1
:103810008281882359F12BC0DC018E2D992D9C01CA
:10382000F90188E001900D928150E1F7D80191965D
:103830002C91822F90E0203A40F4B4E09595879542
:10384000BA95E1F7982F905D07C0A4E0959587950C
:10385000AA95E1F7982F9F59822F8F708A3010F424
:10386000805D01C08F599F83888701C0772489813B
:10387000853E11F485E08983FCE08F2E912C8C0E1F
:103880009D1E85E1F40111928A95E9F7D801909681
:103890008C9190978C8791968D919C9192979C8F0B
:1038A0008B8F93968D919D910D90BC91A02D8D8FB6
:1038B0009E8FAF8FB8A3672D70E0E5E0660F771F8E
:1038C000EA95E1F780E090E06A0D7B1D8C1D9D1D5F
:1038D000AE014F5F5F4F20E230E0F1010995882390
:1038E00009F46FC0E980FE013296A4018E2D90E0AC
:1038F0009C01359527959695982F882797958795BC
:10390000E82EE22A8191E80EE417F50779F7F72C03
:103910004E010894811C911C8DE0482E512CBFE073
:103920006B2E4AC0C4016FEF70E040E250E00E948D
:10393000E1308F2D90E00197849DD001859DB00DE1
:10394000949DB00D1124A00FB11F91E0F401E90F77
:10395000F11D8C918083892F8F5FF401E80FF11D99
:1039600010829E5F9B3019F09A3121F402C09EE0D4
:1039700001C09CE18C91882321F09F3110F41196B5
:10398000E5CFF982F71419F48F2D806489836C8652
:10399000EE861D861B8E1C8EC601B501A40120E299
:1039A00030E0F101099580E290E0A0E0B0E0A80EDF
:1039B000B91ECA1EDB1EFA94FF2009F0B3CF81E0C6
:1039C00001C080E0A0960FB6F894DEBF0FBECDBF59
:1039D000CF91DF911F910F91FF90EF90DF90CF90EB
:1039E000BF90AF909F908F907F906F905F904F901F
:1039F0003F902F900895AF92BF92CF92DF92EF92B7
:103A0000FF920F931F93CF93DF938C017B01EA0109
:103A1000009709F448C06115710509F444C0FB0121
:103A20008081882309F43FC041155105E1F1B42E8E
:103A3000AD2EC801BE010E94E116882379F0C701AE
:103A40006B2D7A2D0E94F330009799F7F80183A12E
:103A500094A196A785A710AA17A625C0F801C08033
:103A6000D1808BE2FE0111928A95E9F78B2D9A2D78
:103A7000B7014FE150E00E940A31C601B801AE0122
:103A80000E94821A6FA378A789A79AA7611571056A
:103A90008105910541F0C601BE010E948A1B882361
:103AA00019F081E001C080E0DF91CF911F910F916B
:103AB000FF90EF90DF90CF90BF90AF900895CF939D
:103AC000DF93EC01009741F0FC0181919191BF01DE
:103AD0000E948A1B19821882DF91CF910895CF939B
:103AE000DF93AC01DB01009789F16115710571F17C
:103AF00090968C91909784FF29C0809116049091A4
:103B00001704892B19F4E6E1F4E008C0809147041A
:103B100090914804892BD1F4E7E4F4E09F012E5FF3
:103B20003F4FBD018BE2EB010990BE01E901099213
:103B30009E018150C1F75183408391968D919C9154
:103B4000929796A785A710AA17A602C0E0E0F0E01A
:103B5000CF01DF91CF910895CF93DF939C01FB01BB
:103B6000009731F06115710519F080A184FF23C021
:103B700020E030E0C901DF91CF910895CAE7D4E099
:103B8000DF018BE20D9009928150E1F730937904C7
:103B9000209378041092A5041092A6041092A70412
:103BA0001092A80481A192A19093AA048093A904E1
:103BB00028E734E0DFCF8091780490917904892B55
:103BC000B9F6DCCF6F927F928F929F92AF92BF92A5
:103BD000CF92DF92EF92FF920F931F93CF93DF93D9
:103BE0004C01EB017A01009709F467C0611571057A
:103BF00009F463C08881882309F45FC04115510529
:103C000009F45BC08F3209F421968BE2F70111921F
:103C10008A95E9F780E1F70180A3370101C0E5014A
:103C20008881882309F44BC0C401B7010E946F1D2D
:103C30006C01009709F441C0CE016FE270E00E9470
:103C4000E830009739F0482F4C1B5C010894A11C08
:103C5000B11C2AC0FE0101900020E9F731974E2FD8
:103C60004C1B5E01A40EB11C1FC0F301019000208B
:103C7000E9F73197E619F709E017F107B9F4CE0132
:103C8000B301A8010E94FC30009781F4F601118273
:103C900010820C0F1D1FF8018081882381F0F7012D
:103CA00080A184FDBCCF09C0042F10E0C601B7017C
:103CB0000E94E1168823C9F612C080E001C081E0AD
:103CC000DF91CF911F910F91FF90EF90DF90CF90F8
:103CD000BF90AF909F908F907F906F900895F60166
:103CE000118210829DCFFC01009711F480E00895AD
:103CF000108681E008958F929F92AF92BF92CF92EB
:103D0000DF92EF92FF920F93DF93CF93CDB7DEB7A1
:103D100060970FB6F894DEBF0FBECDBF7C016B017C
:103D20005A014901009709F493C06115710509F41E
:103D30008FC004300CF08CC007FD1DC0602F7727AA
:103D400067FD7095E4E0660F771FEA95E1F762542E
:103D50007E4F882777FD8095982FAE014F5F5F4F8C
:103D600020E130E0F7010995882309F471C08D81C5
:103D7000882309F46DC08091CF04882309F068C0BE
:103D80007CC08D818093CF042A8530E040E050E0F4
:103D9000542F432F322F22278B8590E0A0E0B0E0F4
:103DA000DC0199278827282B392B4A2B5B2B898507
:103DB00090E0A0E0B0E0282B392B4A2B5B2B8C85C0
:103DC00090E0A0E0B0E0B82FAA2799278827282BF9
:103DD000392B4A2B5B2B2093D0043093D104409392
:103DE000D2045093D3042E8530E040E050E0542FAD
:103DF000432F322F22278F8590E0A0E0B0E0DC0136
:103E000099278827282B392B4A2B5B2B8D8590E00F
:103E1000A0E0B0E0282B392B4A2B5B2B888990E05F
:103E2000A0E0B0E0B82FAA2799278827282B392BA4
:103E30004A2B5B2B2093D4043093D5044093D604B3
:103E40005093D70403C08FEF8093CF049F0102C02B
:103E500020E030E0C90160960FB6F894DEBF0FBED7
:103E6000CDBFCF91DF910F91FF90EF90DF90CF907A
:103E7000BF90AF909F908F900895E7ECF4E081E1C0
:103E8000DF011D928A95E9F7F092C804E092C70419
:103E9000D092CA04C092C904B092CC04A092CB04C0
:103EA0009092CE048092CD0407FF6BCFCCCFE091EF
:103EB0000A08F0910B08808186958095817008959D
:103EC000E0910808F0910908808190E025E095953F
:103ED00087952A95E1F781700895282F8FEF8EBD81
:103EE0000DB407FEFDCF8DB58F778DBD8EB5822FBA
:103EF00080648EBD0DB407FEFDCF8DB58F778DBD6F
:103F0000872F9927AA27BB278EBD0DB407FEFDCFAB
:103F10008DB58F778DBDCB01AA27BB278EBD0DB484
:103F200007FEFDCF8DB58F778DBDBB27A72F962FB1
:103F3000852F8EBD0DB407FEFDCF8DB58F778DBD5E
:103F40004EBD0DB407FEFDCF8DB58F778DBD2223FD
:103F500019F0283069F406C085E98EBD0DB407FE5E
:103F6000FDCF0BC087E88EBD0DB407FEFDCF05C0A9
:103F70008FEF8EBD0DB407FEFDCF8DB58F778DBD54
:103F800090E02FEF2EBD0DB407FEFDCF8DB58F77DE
:103F90008DBD8EB58F3F19F49F5F9A3099F70895C4
:103FA0002F923F924F925F926F927F928F929F9249
:103FB000AF92BF92CF92DF92EF92FF920F931F9337
:103FC000CF93DF934B015C012A013901E09108088E
:103FD000F0910908808185FFA3C0ABC0E401D170D6
:103FE000CE01A0E0B0E085017401E81AF90A0A0BDD
:103FF0001B0BC12CB2E0DB2ECC1ADD0A6C147D0445
:1040000008F463018091D9049091DA04A091DB0453
:10401000B091DC04E816F9060A071B07F9F00E94C4
:10402000AF20882309F485C0209729F480E0C816C2
:1040300082E0D80658F4C801B7014DED54E020E005
:1040400032E00E94C920882309F473C0E092D904A9
:10405000F092DA040093DB041093DC048DED481633
:1040600084E0580671F09E0123523B4FC901B20112
:10407000A6010E94D8301092D8046C147D0409F473
:104080005AC0289888E1B801A7010E946D1F8823B3
:1040900011F0289A4EC08EEF8EBD0DB407FEFDCFF5
:1040A0008DB58F778DBDEDEDF4E081918EBD0DB4B2
:1040B00007FEFDCF8DB58F778DBD86E0ED3DF8070E
:1040C000A1F73EBC0DB407FEFDCF8DB58F778DBD3A
:1040D0003EBC0DB407FEFDCF8DB58F778DBD3EBCC8
:1040E0000DB407FEFDCF8DB58F778DBD8EB58F3F9B
:1040F000B1F78EBD0DB407FEFDCF8DB58F778DBDA9
:104100008EB5289A4C0C5D1CC601A0E0B0E0880E6C
:10411000991EAA1EBB1E6C187D082092D80404C0EC
:1041200033243A94222423946114710409F056CF65
:1041300002C080E001C081E0DF91CF911F910F911B
:10414000FF90EF90DF90CF90BF90AF909F908F90B7
:104150007F906F905F904F903F902F900895809147
:10416000D804882311F081E008956091D9047091FA
:10417000DA048091DB049091DC044DED54E020E002
:1041800032E00E94D01F882319F081E08093D80488
:1041900008953F924F925F926F927F928F929F927B
:1041A000AF92BF92CF92DF92EF92FF920F931F9345
:1041B000CF93DF933B014C016A01290133243A94E8
:1041C0008FC01FEFA12E11E0B12EA620B720C50190
:1041D000A0E0B0E084017301E81AF90A0A0B1B0B96
:1041E000C0E0D2E0CA19DB094C165D0608F4E20112
:1041F0008091D9049091DA04A091DB04B091DC04A1
:10420000E816F9060A071B0709F457C00E94AF20F9
:10421000882309F46AC0289881E1B801A7010E94A7
:104220006D1F882319F0289A80E05FC03EBC0DB452
:1042300007FEFDCF8DB58F778DBD8EB58E3FB1F763
:10424000EDEDF4E03EBC0DB407FEFDCF8DB58F77EC
:104250008DBD8EB5808386E0EC3DF80711F0319678
:10426000F1CFE092D904F092DA040093DB041093CA
:10427000DC04950123523B4FC601B901AE010E94F7
:10428000D8303EBC0DB407FEFDCF8DB58F778DBD08
:104290008EB53EBC0DB407FEFDCF8DB58F778DBDBD
:1042A0008EB5289A3EBC0DB407FEFDCFCC0EDD1EA8
:1042B0008DB58F778DBD8EB50AC0950123523B4FCA
:1042C000C601B901AE010E94D830CC0EDD1E4C1AD9
:1042D0005D0ACE01A0E0B0E0680E791E8A1E9B1E2A
:1042E0004114510409F06DCF81E0DF91CF911F910E
:1042F0000F91FF90EF90DF90CF90BF90AF909F9085
:104300008F907F906F905F904F903F9008952F9285
:104310003F924F925F926F927F928F929F92AF9255
:10432000BF92CF92DF92EF92FF920F931F93DF9392
:10433000CF9300D000D0CDB7DEB74B015C013A017E
:104340003C832B832701DA82C98241155105A9F1EB
:104350002115310591F10217130778F1E114F104E9
:1043600061F119013094219431083394021B130B2D
:104370006901EE24FF24C501B401A3012B813C8116
:104380000E94C9208823C9F0C301B501A401298175
:104390003A81F2010995882391F0020D131D8B815A
:1043A0009C81800F911F2B813C818217930738F0ED
:1043B0008C0C9D1CAE1CBF1CDECF80E001C081E0D8
:1043C0000F900F900F900F90CF91DF911F910F9151
:1043D000FF90EF90DF90CF90BF90AF909F908F9025
:1043E0007F906F905F904F903F902F9008950F9324
:1043F0001F93CF93DF93E0910A08F0910B0881811E
:104400008D7F8183E0910808F091090881818F7D7B
:104410008183229A219A209A2398289A83E58CBD39
:104420008DB58E7F8DBD1092DD06E0910A08F0916A
:104430000B08808181FD1FC090E02FEF2EBD0DB4D1
:1044400007FEFDCF8DB58F778DBD8EB59F5F9A30FE
:10445000A9F72898C0E0D0E080E040E050E060E0BC
:1044600070E00E946D1F182F813049F081E0CF3F2E
:10447000D80719F4289A80E063C02196EDCF87E32E
:1044800040E050E060E070E00E946D1F89E240E093
:1044900050E060E070E00E946D1F82FD02C010934A
:1044A000DD068091DD06082F10E003701070C0E07B
:1044B000D0E00115110549F087E340E050E060E0ED
:1044C00070E00E946D1F89E201C081E040E050E091
:1044D00060E070E00E946D1F80FF06C08FE7CF3F55
:1044E000D80741F22196E5CF80E140E052E060E05C
:1044F00070E00E946D1F882309F0BCCF289A8CB50C
:104500008C7F8CBD8DB581608DBD8FEF9FEFAFEF40
:10451000BFEF8093D9049093DA04A093DB04B093A7
:10452000DC0481E08093D80460E070E080E090E0FB
:104530004DED54E020E032E00E94C920811181E07D
:10454000DF91CF911F910F9108954F925F926F92DB
:104550007F928F929F92AF92BF92CF92DF92EF9213
:10456000FF920F931F93CF93DF935B016C014A017E
:10457000E901380127014115510571F101151105B6
:1045800059F1FF242115310511F5FF24F3941FC0C3
:10459000C401B601A5019201F30109958C010097B0
:1045A000E9F0FF2019F4C817D907B0F0C601B5012A
:1045B000A40198010E94D01F882371F0C801A0E0D7
:1045C000B0E0A80EB91ECA1EDB1EC01BD10BFF2017
:1045D000F9F62097E9F602C080E001C081E0DF91A2
:1045E000CF911F910F91FF90EF90DF90CF90BF90F0
:1045F000AF909F908F907F906F905F904F900895B5
:10460000CF93DF93FC01A085B18512962C91129770
:1046100082858F7041E050E0BA0102C0660F771FBB
:104620008A95E2F7CB018095822312968C9365E000
:10463000862F8A95F1F7A085B18512963C91129745
:1046400082858F70EA0102C0CC0FDD1F8A95E2F7E8
:104650002C2F209523232C2B12962C936A95F1F75F
:10466000A085B18512969C91129782858F7002C0A9
:10467000440F551F8A95E2F74095492312964C93B3
:1046800080E991E00197F1F7DF91CF910895AF9222
:10469000BF92CF92DF92EF92FF920F931F93CF932F
:1046A000DF937C018C01C0E0D0E091E0C92ED12CD9
:1046B00070E0F801A385B48511963C911197FE0135
:1046C000EE0FFF1FEC0FFD1FEE0DFF1D85858F7098
:1046D000A60102C0440F551F8A95E2F7242F2095AA
:1046E0002323242B11962C93D8011B96AD90BC90BC
:1046F0001C97D50112965C9185858F70960102C03A
:10470000220F331F8A95E2F7422FCB010C2E02C0F5
:10471000959587950A94E2F780FF02C0822F01C029
:1047200080E040954523842BF501828321960D5F1F
:104730001F4FC430D10509F0BCCFC7010E94002330
:10474000DF91CF911F910F91FF90EF90DF90CF906D
:10475000BF90AF900895AF92BF92CF92DF92EF9249
:10476000FF920F931F93CF93DF937C018C01C0E0E6
:10477000D0E031E0C32ED12C70E0F801A385B485E0
:1047800011963C911197FE01EE0FFF1FEC0FFD1FDC
:10479000EE0DFF1D85858F70A60102C0440F551FC9
:1047A0008A95E2F7242F20952323242B11962C930E
:1047B000D8011B96AD90BC901C97D50112965C91C8
:1047C00085858F70960102C0220F331F8A95E2F70C
:1047D000422FCB010C2E02C0959587950A94E2F7E3
:1047E00080FF02C0822F01C080E040954523842BCA
:1047F000F501828321960D5F1F4FC830D10509F066
:10480000BCCFC7010E940023DF91CF911F910F9170
:10481000FF90EF90DF90CF90BF90AF9008951F93DF
:10482000CF93DF93EC01162FEA81FB8152818C81BB
:104830008F7021E030E002C0220F331F8A95E2F72B
:10484000922F442311F0822F01C080E09095952390
:10485000892B8283ED81FE818FEFEF3FF80769F0AE
:1048600032812F812F7081E090E002C0880F991F64
:104870002A95E2F78095832382838BA184FF05C06C
:10488000CE01612F0E94AB230EC0612F70E044E087
:10489000759567954A95E1F7CE010E944723CE01B1
:1048A000612F0E944723DF91CF911F91089541E02E
:1048B0000E940F24089540E00E940F240895FC01F7
:1048C00064A1862F846084A36C60CF010E945B2466
:1048D000089562E00E945B2480E49FE10197F1F774
:1048E000089561E00E945B2480E49FE10197F1F765
:1048F00008950F931F93CF93DF93EC01423018F08C
:104900008BA188608BA34FA318A6222329F04130E6
:1049100019F48BA184608BA384EF91E020E931E04E
:10492000F9013197F1F70197D9F7EA81FB812281EB
:104930008C818F7041E050E0BA0102C0660F771F92
:104940008A95E2F7CB01809582238283E885F985F9
:1049500022818A858F70BA0102C0660F771F8A95FF
:10496000E2F7CB01809582238283ED81FE817FEF88
:10497000EF3FF70761F082819F819F7002C0440F73
:10498000551F9A95E2F7942F9095982392836BA1E7
:1049900064FD1DC0CE0163E00E94472300E516E4DC
:1049A000C8010197F1F7CE0163E00E944723C801D7
:1049B0000197F1F7CE0163E00E94472388E592E07A
:1049C0000197F1F7CE0162E00E94472316C06062B2
:1049D000CE010E945B2480E596E40197F1F76BA17C
:1049E0006062CE010E945B2488E592E00197F1F7B6
:1049F0006BA16062CE010E945B246BA16062CE015C
:104A00000E945B2484E08CA3CE010E945F24CE012F
:104A10000E94712482E08DA3CE0166E00E945B2497
:104A2000DF91CF911F910F910895AF92BF92CF92D6
:104A3000EF92FF920F931F93DF93CF93CDB7DEB723
:104A400029970FB6F894DEBF0FBECDBFDC012983D6
:104A50003A834B83EC82FD820E83AF82B886C9868F
:104A60009C012E5F3F4FAE014F5F5F4F83E0FA0125
:104A70000190AF01F90101929F018150C1F79D01A1
:104A80002B5F3F4FAE014C5F5F4F83E0FA01019017
:104A9000AF01F90101929F018150C1F79D01285F8B
:104AA0003F4FAE01495F5F4F83E0FA010190AF01D4
:104AB000F90101929F018150C1F79D01255F3F4F90
:104AC000AE014B5E5F4F83E0FA010190AF01F90147
:104AD00001929F018150C1F79D01225F3F4FAE01BE
:104AE000485E5F4F83E0FA010190AF01F901019246
:104AF0009F018150C1F79D012F5E3F4FAE01455E82
:104B00005F4F83E0FA010190AF01F90101929F012B
:104B10008150C1F79D012C5E3F4FAE01425E5F4F59
:104B200083E0FA010190AF01F90101929F018150E8
:104B3000C1F79D01295E3F4FAE014F5D5F4F83E09E
:104B4000FA010190AF01F90101929F018150C1F773
:104B50009D01265E3F4FAE014C5D5F4F83E0FA0141
:104B60000190AF01F90101929F018150C1F79D01B0
:104B7000235E3F4FAE01495D5F4F83E0FA01019034
:104B8000AF01F90101929F018150C1F79D01205EA3
:104B90003F4FAE01465D5F4F83E0FA010190AF01E8
:104BA000F90101929F018150C1F71296ED91FC919C
:104BB0001397318114968C9114978F7041E050E0D7
:104BC0008A0102C0000F111F8A95E2F7202F20955D
:104BD0002323202B21831596ED91FC9116971FEF2F
:104BE000EF3FF10779F0218117968C9117978F701D
:104BF00002C0440F551F8A95E2F7842F80958223C7
:104C0000842B81831896ED91FC91199731811A9626
:104C10002C911A972F7081E090E002C0880F991FA5
:104C20002A95E2F7282F20952323282B218366231A
:104C300021F093961C92939704C080E193968C93F5
:104C40009397CD0160E141E020E00E94792429960C
:104C50000FB6F894DEBF0FBECDBFCF91DF911F918D
:104C60000F91FF90EF90CF90BF90AF9008956F920B
:104C70007F928F929F92AF92BF92CF92DF92EF92EC
:104C8000FF920F931F93DF93CF93CDB7DEB76B9750
:104C90000FB6F894DEBF0FBECDBF3C01488B598BD9
:104CA0006A8B0B8B1C8B2D8BCE8ADF8AE88E898ECC
:104CB0009A8EAB8E84E192E0F301918380832FEF93
:104CC0003FEF338322838481807F848336832583EF
:104CD0008781807F8783318720878285807F828755
:104CE0003B9620E030E04FEF5FEF518340838281BD
:104CF000807F82832D5F3F4F339628313105A9F79E
:104D00005A8349838B81807F8B835D834C838E8123
:104D1000807F8E8358874F838985807F89875B87D3
:104D20004A878C85807F8C875E874D878F85807FC3
:104D30008F878DB79EB748970FB6F8949EBF0FBE6A
:104D40008DBF2DB73EB72F5F3F4FD901FE0176963D
:104D500083E001900D928150E1F7D9011396FE0195
:104D6000799683E001900D928150E1F7D901169672
:104D7000FE01BC9683E001900D928150E1F7D901CC
:104D80001996FE01BF9683E001900D928150E1F7E4
:104D9000D9011C96FE01349683E001900D9281505A
:104DA000E1F7D9011F96FE01379683E001900D923D
:104DB0008150E1F7D9015296FE013A9683E00190C5
:104DC0000D928150E1F7D9015596FE013D9683E0A1
:104DD00001900D928150E1F7C30161E02889398982
:104DE0004A89E980FA800B81AB88BC88CD880E9413
:104DF0001525EDB7FEB778960FB6F894FEBF0FBE37
:104E0000EDBF6B960FB6F894DEBF0FBECDBFCF914E
:104E1000DF911F910F91FF90EF90DF90CF90BF90A7
:104E2000AF909F908F907F906F9008950F931F93F6
:104E3000DF93CF93CDB7DEB7C05AD0400FB6F8940A
:104E4000DEBF0FBECDBF8C01FC0120E030E04FEF94
:104E50005FEF518340838281807F828354834383C9
:104E60008581807F8583578346838085807F808787
:104E7000528741878385807F8387558744878685CE
:104E8000807F86872F5E3F4F71962535310509F764
:104E900020910408309105084091060850910708B8
:104EA0003A8329838B81807F85608B83DE01A45BBD
:104EB000BF4FFE01319683E001900D928150E1F7E2
:104EC0003D832C838E81807F86608E83DE01A15B93
:104ED000BF4FFE01349683E001900D928150E1F7BF
:104EE00038872F838985807F84608987DE01AE5A69
:104EF000BF4FFE01379683E001900D928150E1F79C
:104F00005B874A878C85807F85608C87DE01AB5A02
:104F1000BF4FFE013A9683E001900D928150E1F778
:104F20005E874D878F85807F86608F87DE01A85AD8
:104F3000BF4FFE013D9683E001900D928150E1F755
:104F4000FE01E45BFF4F81E08787108AD80181E191
:104F500001900D928150E1F72091040830910508ED
:104F6000409112085091130860910608709107084B
:104F7000398B288B8A89807F82608A8BDE01A35AD5
:104F8000BF4FFE01709683E001900D928150E1F7D2
:104F90003C8B2B8B8D89807F83608D8BDE01A05AAB
:104FA000BF4FFE01739683E001900D928150E1F7AF
:104FB0003F8B2E8B888D807F8160888FDE01AD597D
:104FC000BF4FFE01769683E001900D928150E1F78C
:104FD0005A8F498F8B8D807F86608B8FDE01AA5917
:104FE000BF4FFE01799683E001900D928150E1F769
:104FF0007D8F6C8F8E8D807F84608E8FDE01A759B0
:10500000BF4FFE017C9683E001900D928150E1F745
:10501000FE01E35AFF4F81E08787108AD80151963D
:1050200081E101900D928150E1F758A34F8F89A142
:10503000807F89A3DE01A259BF4FFE017F9683E0E6
:1050400001900D928150E1F73BA32AA38CA1807FB0
:105050008CA3DE01AF58BF4FFE01B29683E00190F2
:105060000D928150E1F75EA34DA38FA1807F8160F7
:105070008FA3DE01AC58BF4FFE01B59683E00190CF
:105080000D928150E1F759A748A78AA5807F8460D7
:105090008AA7DE01A958BF4FFE01B89683E00190B0
:1050A0000D928150E1F75CA74BA78DA5807F8560AD
:1050B0008DA7DE01A658BF4FFE01BB9683E001908D
:1050C0000D928150E1F7FE01E259FF4F81E08787A1
:1050D000108AD801929681E101900D928150E1F7FA
:1050E000209114083091150860910C0870910D08FA
:1050F0003FA72EA788A9807F816088ABDE01A158D9
:10510000BF4FFE01BE9683E001900D928150E1F702
:105110003AAB29AB8BA9807F8BABDE01AE57BF4F7B
:10512000FE01F19683E001900D928150E1F77DAB95
:105130006CAB8EA9807F85608EABDE01AB57BF4F15
:10514000FE01F49683E001900D928150E1F78FEF1C
:105150009FEF98AF8FAB89AD807F89AFDE01A857F5
:10516000BF4FFE01F79683E001900D928150E1F769
:105170008FEF9FEF9BAF8AAF8CAD807F8CAFDE014E
:10518000A557BF4FFE01FA9683E001900D92815022
:10519000E1F7FE01E158FF4F81E08787108AD801CF
:1051A000D39681E101900D928150E1F72091100892
:1051B000309111087EAF6DAF8FAD807F83608FAF70
:1051C000DE01A057BF4FFE01FD9683E001900D92D6
:1051D0008150E1F7DE01A05CBF4F11963C932E9306
:1051E000FE01EE5BFF4F8081807F856080839E01A2
:1051F0002D563F4FFD0183E00190D9010D929D0195
:105200008150D1F7FE01ED5BFF4F518340838281D6
:10521000807F83608283DE01AA56BF4F83E00190C6
:105220000D928150E1F7FE01EA5BFF4F8FEF9FEF98
:10523000918380838281807F8283DE01A756BF4F66
:1052400083E001900D928150E1F7FE01E75BFF4F93
:105250008FEF9FEF918380838281807F8283DE0145
:10526000A456BF4F83E001900D928150E1F7FE01FB
:10527000E057FF4F81E08787108AD801AC5BBF4FB2
:1052800081E101900D928150E1F7C056DF4F0FB6DA
:10529000F894DEBF0FBECDBFCF91DF911F910F916C
:1052A0000895FC018FB7F894EA5AFF4F20813181AD
:1052B000428153818FBFB901CA01089561157105FB
:1052C00061F41092630710926207E0910608F09172
:1052D000070882818F7782830CC08091610790E0FC
:1052E0008617970731F082E090E0909363078093F0
:1052F00062076093610708958091610708951F9286
:105300000F920FB60F920BB60F9211242F933F936B
:105310008F939F93EF93FF9380916407909165071C
:105320001816190614F4019738C0809162079091FD
:10533000630781309105E1F48091660790916707DA
:105340000196909367078093660782E090E09093C0
:1053500063078093620782E190E0909365078093F2
:105360006407E0910608F091070882818F7732C0C8
:1053700082309105B9F48091610790E02091660731
:1053800030916707281739079CF083E090E09093ED
:1053900063078093620780E590E0909365078093B0
:1053A000640719C00397B9F4109267071092660753
:1053B00081E090E0909363078093620782E190E040
:1053C0009093650780936407E0910608F0910708C1
:1053D000828180688283FF91EF919F918F913F91AD
:1053E0002F910F900BBE0F900FBE0F901F9018952E
:1053F0008F929F92AF92CF92DF92EF920F931F9373
:10540000DF93CF93CDB7DEB762970FB6F894DEBFC8
:105410000FBECDBF8EED96E00E94162720910808A2
:10542000309109083A8329838B81807F84608B8344
:105430003D832C838E81807F83608E8380910A08D8
:1054400090910B0898878F838985807F87608987F3
:1054500020911008309111083B872A878C85807F26
:1054600082608C873E872D878F85807F81608F87C4
:10547000398B288B8A89807F8A8B00D000D000D01E
:105480002DB73EB72F5F3F4FD901FE013D9683E018
:1054900001900D928150E1F7D9011396FE017096AB
:1054A00083E001900D928150E1F788E397E0498114
:1054B0005A816B810C811D812E81CF80D884E98433
:1054C0008A849B84AC840E9437268DB79EB706964B
:1054D0000FB6F8949EBF0FBE8DBF62960FB6F894BC
:1054E000DEBF0FBECDBFCF91DF911F910F91EF9027
:1054F000DF90CF90AF909F908F900895FC01EA5A73
:10550000FF4F80819181A281B381805C9F4FAF4F1B
:10551000BF4F80839183A283B3830E94B700882307
:1055200011F40E940D0D08951F920F920FB60F9265
:105530000BB60F9211242F933F934F935F936F936A
:105540007F938F939F93AF93BF93EF93FF938EEDD2
:1055500096E00E947E2AFF91EF91BF91AF919F91BB
:105560008F917F916F915F914F913F912F910F900C
:105570000BBE0F900FBE0F901F901895EF92FF92E9
:105580000F931F93CF93DF937C01109263071092C8
:105590006207E0910608F091070882818F77828385
:1055A0001092610787010B5A1F4FC8010E94522BAE
:1055B000C80161E00E94532B81E00E94000DC0E011
:1055C000D0E0CE0124E0880F991F2A95E1F78C0FD7
:1055D0009D1F8E0D9F1D6C2F0E94EA2B2196C530BA
:1055E000D10579F788E697E061E00E94A82C8AE669
:1055F00097E00E947E2E86EB97E061E00E94A82C47
:1056000088EB97E00E947E2E1092800089E08093C4
:1056100081001092820080E094E090938900809352
:10562000880082E080936F001092B00087E0809342
:10563000B10081E080937000E0910608F0910708C6
:1056400081818068818388E397E060E144E020E025
:105650000E94792488E397E00E94712488E397E010
:105660000E94692488E397E068E40E94572488E355
:1056700097E065E60E94572488E397E06CE60E9475
:10568000572488E397E06CE60E94572488E397E06C
:105690006FE60E945724DF91CF911F910F91FF90E9
:1056A000EF90089508950895FC018089882311F0F2
:1056B00081E06827A081B18112964C911297828176
:1056C0008F7021E030E002C0220F331F8A95E2F78D
:1056D000922F662311F0822F01C080E090959423D1
:1056E000892B12968C930895FC01A381B4811296A4
:1056F0004C91129785818F7021E030E002C0220F1B
:10570000331F8A95E2F7922F662311F0822F01C092
:1057100080E090959423892B12968C930895FC0138
:10572000A681B78112964C91129780858F7021E0E7
:1057300030E002C0220F331F8A95E2F7922F6623D2
:1057400011F4822F01C080E090959423892B12964A
:105750008C930895DC011996ED91FC911A978FEFC7
:10576000EF3FF80711F420E013C0808190E01B9612
:105770002C911B972F7002C0959587952A95E2F77B
:10578000282F21701F968C91882311F081E0282703
:10579000822F0895DC011C96ED91FC911D978FEFEF
:1057A000EF3FF80711F420E013C0808190E01E96CF
:1057B0002C911E972F7002C0959587952A95E2F738
:1057C000282F21701F968C91882311F081E02827C3
:1057D000822F08950F931F93CF93DF93EC01062F31
:1057E000E881F98131818A818F7041E050E0BA010E
:1057F00002C0660F771F8A95E2F7262F2095232394
:10580000262B2183EB81FC8131818D818F70BA0140
:1058100002C0660F771F8A95E2F7262F2095232373
:10582000262B2183EE81FF81328188858F70BA011A
:1058300002C0660F771F8A95E2F7262F2095232353
:10584000262B2283EE81FF81918188858F7002C093
:10585000440F551F8A95E2F7842F80958923842B66
:10586000818382E090E062E00E94FA04182F83E0D6
:1058700090E060E00E94FA0487FD02C081E008C069
:1058800090E0002E02C0959587950A94E2F781700A
:105890008F87812F90E002C0959587950A95E2F752
:1058A00081709070888BE985FA857FEFEF3FF7076D
:1058B00011F141818B858F7021E030E0B90102C088
:1058C000660F771F8A95E2F7CB0180958423818349
:1058D000E985FA8542818B858F7002C0220F331FC4
:1058E0008A95E2F7922F8F85882309F420E090951E
:1058F0009423292B2283EC85FD857FEFEF3FF7076B
:1059000011F141818E858F7021E030E0B90102C034
:10591000660F771F8A95E2F7CB01809584238183F8
:10592000EC85FD8592818E858F7002C0220F331F1A
:105930008A95E2F7422F8F85882309F420E040956D
:105940004923242B2283DF91CF911F910F9108953A
:10595000FC016183E081EE2361F4662321F08091F4
:10596000C100806C03C08091C1008F738093C1001F
:105970000895E13069F4662331F08091C900806CAC
:105980008093C90008958091C9008F738093C900E6
:1059900008951F920F920FB60F920BB60F9211241B
:1059A0002F933F934F935F936F937F938F939F9327
:1059B000AF93BF93EF93FF938091010890910208FA
:1059C000892B69F08091010890910208049739F0C1
:1059D0008EED97E00E94382F8093CE0013C0E091A7
:1059E0000808F091090882818F7D8283E091080880
:1059F000F091090882818F7782838091C90080614C
:105A00008093C900FF91EF91BF91AF919F918F91CA
:105A10007F916F915F914F913F912F910F900BBEAE
:105A20000F900FBE0F901F9018951F920F920FB6F8
:105A30000F920BB60F9211242F933F934F935F93C6
:105A40006F937F938F939F93AF93BF93EF93FF9346
:105A50008091B3079091B407892B61F08091B307CF
:105A60009091B407049731F080E997E00E94382FB5
:105A70008093C600FF91EF91BF91AF919F918F915D
:105A80007F916F915F914F913F912F910F900BBE3E
:105A90000F900FBE0F901F901895CF93DF93EC01DE
:105AA0008981882311F1CE0188960E94382F982F82
:105AB0008881882319F49093C60017C08130A9F417
:105AC000E0910808F0910908828180628283E09168
:105AD0000808F09109088281806882838091C9005A
