:100000000C9446000C946E000C946E000C946E00E0
:100010000C946E000C946E000C946E000C946E00A8
:100020000C946E000C946E000C946E000C94F524ED
:100030000C946E000C94BB250C946E000C946E0016
:100040000C946E000C946E000C946E000C946E0078
:100050000C94B5280C946E000C9439280C946E0006
:100060000C946E000C946E000C946E000C946E0058
:100070000C948D280C946E000C94FC279B01F305C6
:10008000950A2C0D3210A0251929242911241FBEF0
:10009000CFEFD0E1DEBFCDBF11E0A0E0B1E0E0E105
:1000A000F8E502C005900D92A031B107D9F716E02E
:1000B000A0E1B1E001C01D92A03CB107E1F710E062
:1000C000CCE8D0E004C02297FE010E94022CCC377D
:1000D000D107C9F70E94D1090C94062C0C9400009A
:1000E000FB01DC0102C001900D9241505040D8F755
:1000F0000895DC0101C06D9341505040E0F7089530
:10010000FC018191861721F08823D9F7992708955A
:100110003197CF010895FB01DC018D910190801989
:100120000110D9F3990B0895FB01DC0141505040B7
:1001300030F08D910190801919F40020B9F7881BD7
:10014000990B0895FB01DC014150504048F00190AB
:100150000D920020C9F701C01D9241505040E0F7B8
:100160000895FC0181E090E00190061609F4CF01AA
:100170000020D1F701970895A0E0B0E0E2ECF0E0B4
:100180000C94D32B7C01EB018A01690109C0CE01DB
:100190002196F6010995F70181937F0101501040E6
:1001A00001151105A1F7CDB7DEB7E8E00C94EF2BF0
:1001B000A0E0B0E0EEEDF0E00C94D32BEC017B017D
:1001C0008A01690109C0CE012196F70161917F0181
:1001D000F60109950150104001151105A1F7CDB7A1
:1001E000DEB7E8E00C94EF2B9C01F999FECF32BD0D
:1001F00021BDF89A80B508959C01F999FECF1FBAE8
:1002000032BD21BD60BD0FB6F894FA9AF99A0FBEBF
:1002100008951F93DF93CF930F92CDB7DEB79C0164
:10022000162FCE010196B90141E050E024EF30E0F5
:100230000E94BC0089818F3F09F4198389810F9046
:10024000CF91DF911F910895DF93CF9300D0CDB769
:10025000DEB7CE01019660E070E042E050E024EFAE
:1002600030E00E94BC003A8184E6389FC00111242E
:100270002981820F911D883C910509F43BC03250C1
:100280003D3F08F429C0F999FECF1FBA82E090E003
:1002900092BD81BD82E080BD0FB6F894FA9AF99ABA
:1002A0000FBEF999FECF1FBA83E090E092BD81BDE9
:1002B0008FE180BD0FB6F894FA9AF99A0FBEF999BA
:1002C000FECF1FBA80E290E092BD81BD10BC0FB698
:1002D000F894FA9AF99A0FBE198282E08A8380E034
:1002E00090E0BE016F5F7F4F42E050E02CEF30E0C6
:1002F0000E94D8000F900F90CF91DF9108958CE568
:1003000096E0089582E896E0089580911001882390
:1003100041F480911101882321F481E0809311013F
:10032000089580E0089510921101089580911001C0
:1003300091E08927089582E191E00E9439090895AA
:1003400080911001882359F180917F069091800659
:10035000049719F410921001089580917E06882365
:1003600049F01092100181E995E063E070E00E948D
:10037000BB24089582E191E00E944009882379F02E
:100380008CE596E00E946D2984E080937E061092B1
:10039000100181E995E061E070E00E94BB240895BE
:1003A0000F931F9381E08093100182E191E040E57B
:1003B00053EC60E070E00E9469090CE516E0C801AA
:1003C0000E947B29C80102970E946D281F910F91FE
:1003D0000895FF920F931F93DF93CF9300D000D027
:1003E00000D0CDB7DEB78E010F5F1F4FC8010E944E
:1003F0003909C80140E45CE96FEF7FEF0E946909A9
:10040000F02E012F06C081E080931101109210019F
:1004100013C080911001882341F480911101882339
:1004200021F481E08093110107C08F2D902F0E944D
:100430004009882371F3E7CF82E896E00E94272ADB
:1004400082E896E060E00E94752A82E896E061E02A
:100450000E94752A0E94D00182E191E040E45CE9AB
:100460006FEF7FEF0E9469091092110102C00E9494
:10047000A001809110018823D1F780917F0690918F
:10048000800620E0049709F421E0822F26960FB61B
:10049000F894DEBF0FBECDBFCF91DF911F910F91BA
:1004A000FF90089580912101089580912001089581
:1004B0008091270108951092210180911E01909151
:1004C0001F01009721F00E94E71C0E9483201092D8
:1004D0001F0110921E01089580912001882381F050
:1004E00080911E0190911F01009721F00E94E71C4E
:1004F0000E94832010921F0110921E011092200171
:100500000E948B026091220170912301809124014D
:1005100090912501089580912101882311F00E9476
:100520005B0280912001882311F00E946C0280916F
:100530001C0190911D01009731F00E94B31510929B
:100540001D0110921C0180911A0190911B010097CE
:1005500031F00E944D1110921B0110921A018091EE
:10056000180190911901009731F00E94FB1D109223
:10057000190110921801089580911E0190911F0198
:1005800066E271E041E050E00E94F412109227010F
:10059000181619061CF481E08093270108951F9313
:1005A000109126010E94BC02812F1F910895CF93C4
:1005B000DF93EC0180911E0190911F010097E1F003
:1005C000BE016E5F7F4F488150E00E943E1428813B
:1005D0008091220190912301A0912401B0912501E5
:1005E000820F911DA11DB11D8093220190932301C3
:1005F000A0932401B0932501DF91CF910895DF935B
:10060000CF93CDB7DEB7AB970FB6F894DEBF0FBE72
:10061000CDBFBC0180911C0190911D01AE014F5FC7
:100620005F4F0E94831C811181E0AB960FB6F89456
:10063000DEBF0FBECDBFCF91DF9108950F931F9303
:10064000CF93DF93EC018B010EC0C801BE010E9465
:100650008B00009741F480911C0190911D010E9434
:10066000B91581E009C080911C0190911D01B8016C
:100670000E949D16882349F7DF91CF911F910F911A
:1006800008950F931F93DF93CF93CDB7DEB7AB974A
:100690000FB6F894DEBF0FBECDBF8E010F5F1F4FA8
:1006A000B8010E941E03882341F080911A019091A5
:1006B0001B01B8010E94C61581E0AB960FB6F894F5
:1006C000DEBF0FBECDBFCF91DF911F910F91089577
:1006D000EF92FF920F931F93DF93CF93CDB7DEB7C7
:1006E000AB970FB6F894DEBF0FBECDBF7B018E0176
:1006F0000F5F1F4FB8010E941E03882359F080919D
:100700001A0190911B01B8010E94341DF7019183D9
:10071000808381E0AB960FB6F894DEBF0FBECDBFED
:10072000CF91DF911F910F91FF90EF900895DF928D
:10073000EF92FF920F931F93DF93CF93CDB7DEB766
:10074000AB970FB6F894DEBF0FBECDBF8C01D62E8F
:1007500080911C0190911D017E010894E11CF11C07
:10076000B7010E949D168823C9F0A0E0B0E08D2D4E
:1007700090E00197B70105C0F801EA0FFB1F208345
:100780001196A817B90734F4FB01EA0FFB1F20816B
:10079000222391F7A00FB11F1C9202C0F801108212
:1007A00080E090E0AB960FB6F894DEBF0FBECDBFF1
:1007B000CF91DF911F910F91FF90EF90DF900895FF
:1007C0000F931F93DF93CF93CDB7DEB7AB970FB6E1
:1007D000F894DEBF0FBECDBF80911A0190911B012E
:1007E00060E071E08E010F5F1F4FA8010E946A1D3B
:1007F00080911A0190911B01B8010E94F71C9093FF
:100800001D0180931C0120E0892B09F021E0822F3B
:10081000AB960FB6F894DEBF0FBECDBFCF91DF9180
:100820001F910F91089580911801909119010E94D4
:10083000701890931B0180931A0120E0892B09F016
:1008400021E0822F08950F938DE990E26BE571E22C
:100850004BE85FE124EA32E200E00E94031E90933D
:10086000190180931801892B79F48DE990E26BE5E9
:1008700071E24BE85FE124EA32E20FEF0E94031ECF
:10088000909319018093180120E0809118019091B4
:100890001901892B09F021E0822F0F9108950E9400
:1008A000CB21882371F40E94DF1E882329F40E9443
:1008B0008B0221E030E029C00E948B0222E030E070
:1008C00024C00E942304882329F40E948B0223E081
:1008D00030E01BC00E941304882329F40E948B027D
:1008E00024E030E012C00E94E003882329F40E9433
:1008F0008B0225E030E009C00E94031F882319F411
:1009000020E030E002C026E030E0C90108950F93F6
:100910001F93CF93DF938C010E948B020E944F04A0
:10092000EC010097D9F41092220110922301109249
:1009300024011092250110921F0110921E01C8017E
:100940006EE171E00E946803882331F080911E01FE
:1009500090911F01892B41F4C7E0D0E0CE01DF91D7
:10096000CF911F910F91089581E0809321010E9402
:10097000BC02F4CF0F931F93CF93DF93EC010E943F
:100980008B020E944F048C01009769F5109222019E
:1009900010922301109224011092250110921F0140
:1009A00010921E01CE010E944103CE010E94FF025F
:1009B000882319F407E010E016C0CE016EE171E063
:1009C0000E946803882319F403E010E00CC08091B2
:1009D0001E0190911F01892B19F408E010E003C05B
:1009E00081E080932001C801DF91CF911F910F9189
:1009F00008950E948B020E944F049C01009719F0F9
:100A00008630910541F480911C0190911D010E9456
:100A1000B91520E030E0C9010895809128018823AC
:100A200011F081E00895809182010895EF92FF9284
:100A30000F931F93DF93CF93CDB7DEB761970FB6B8
:100A4000F894DEBF0FBECDBFBC011092280141E378
:100A500051E020E030E08BE1E82EF12C05E210E0DF
:100A60001E861F86188A198A1A861B861C861D8672
:100A70001E821F82188619861A821B821C821D8282
:100A80002E9DF0012F9DF00D3E9DF00D1124EF5C89
:100A9000FE4F8981828F8A819B81AC81BD81868B4B
:100AA000978BA08FB18F8E819F81A885B985828B0E
:100AB000938BA48BB58B8A859B85AC85BD858687FA
:100AC0009787A08BB18BDA011A961D921D921D9209
:100AD0001C921D9716961D921D921D921C9219979D
:100AE0008E859F85A889B98982839383A483B583E2
:100AF000209FC001219F900D309F900D1124860FE3
:100B0000971FFA01918380832F5F3F4F455E5F4FB0
:100B10002330310509F0A4CF61960FB6F894DEBFFB
:100B20000FBECDBFCF91DF911F910F91FF90EF903E
:100B3000089510922801109282010895FC0180818D
:100B40009181A281B3818093330190933401A0936A
:100B50003501B093360184819581A681B781809358
:100B60004E0190934F01A0935001B09351018085A5
:100B70009185A285B3858093690190936A01A093C2
:100B80006B01B0936C010895EF92FF920F931F9346
:100B9000FC018091330190913401A0913501B09115
:100BA000360120914E0130914F01409150015091FA
:100BB0005101E0906901F0906A0100916B01109180
:100BC0006C0180839183A283B3832483358346831E
:100BD0005783E086F18602871387CF011F910F911B
:100BE000FF90EF900895109232011092310110920F
:100BF0004D0110924C011092680110926701089506
:100C00008F929F92AF92BF92CF92DF92EF92FF921C
:100C10000F931F93CF93DF9380912801882309F4CA
:100C2000B1C080912D0190912E01A0912F01B09122
:100C300030010197A109B10980932D0190932E01F4
:100C4000A0932F01B09330010196A11DB11D009713
:100C5000A105B10519F41092280191C001E311E03A
:100C6000EE24FF242BE1822E912CA0902901B0903C
:100C70002A01C0902B01D0902C01E89CE001E99C56
:100C8000D00DF89CD00D1124CF5CDE4F8A899B8952
:100C9000AC89BD892E893F89488D598D280F391F10
:100CA0004A1F5B1F2A8B3B8B4C8B5D8B8A899B89F0
:100CB000AC89BD89B7FD59C06A8DF80180819181E9
:100CC0000E94B8268A899B89AC89BD898A199B09AB
:100CD000AC09BD098A8B9B8BAC8BBD8B8A8DF801CF
:100CE000208131818823E1F0C9010E94FB268823FD
:100CF00031F4F8018081918161E00E94D226E89C64
:100D0000F001E99CF00DF89CF00D1124EF5CFE4F12
:100D100082819381A481B5810196A11DB11D1BC063
:100D2000C9010E941427882331F4F8018081918140
:100D300061E00E94D226E89CF001E99CF00DF89C4D
:100D4000F00D1124EF5CFE4F82819381A481B58167
:100D50000197A109B10982839383A483B583F80124
:100D60008081918160E00E94D2260894E11CF11CF0
:100D7000055E1F4FF3E0EF16F10409F076CF809186
:100D8000280198C080918201882309F493C01092B1
:100D9000820101E311E0AA24BB249BE1892E912C5E
:100DA000C0902901D0902A01E0902B01F0902C01F5
:100DB000A89CE001A99CD00DB89CD00D1124CF5C5B
:100DC000DE4F8E899F89A88DB98D0097A105B10549
:100DD00009F45EC08A899B89AC89BD892E893F89C7
:100DE000488D598D280F391F4A1F5B1F2A8B3B8B5B
:100DF0004C8B5D8B8A899B89AC89BD89B7FD4BC0C3
:100E00006A8DF801808191810E94B8268A899B8928
:100E1000AC89BD898C199D09AE09BF098A8B9B8B52
:100E2000AC8BBD8B8A8DF80120813181882399F0AC
:100E3000C9010E94FB26882359F5F8018081918120
:100E400061E00E94D2268A819B81AC81BD8101969E
:100E5000A11DB11D12C0C9010E9414278823C1F42D
:100E6000F8018081918161E00E94D2268A819B8174
:100E7000AC81BD810197A109B1098A839B83AC83B1
:100E8000BD83F8018081918160E00E94D22603C079
:100E900080918201811181E0809382010894A11CDC
:100EA000B11C055E1F4FF3E0AF16B10409F078CF17
:100EB00080918201DF91CF911F910F91FF90EF9070
:100EC000DF90CF90BF90AF909F908F90089590E06B
:100ED0002BE130E0829FF001839FF00D929FF00D97
:100EE0001124EF5CFE4F808191810E94E7260895D6
:100EF0002F923F924F925F926F927F928F929F922A
:100F0000AF92BF92CF92DF92EF92FF920F931F9317
:100F1000DF93CF9300D00F92CDB7DEB78983162F22
:100F20008FEF9FEFAFEFBFE780932D0190932E01DE
:100F3000A0932F01B093300166E056954795379501
:100F400027956A95D1F72093290130932A01409380
:100F50002B0150932C01CA01B90122E030E040E09E
:100F600050E00E94AE2B882499245401821A930ADF
:100F7000A40AB50A51E3C52E51E0D52EEE24FF2474
:100F80004BE1242E312C012F10E031E0432E512C67
:100F9000612C712CE29CC001E39C900DF29C900DA1
:100FA00011248F5C9E4F9B838A83FC01828A938AE3
:100FB000A48AB58AC8010E2C02C0959587950A941B
:100FC000E2F780FF0FC08981828FF60180819181D5
:100FD00061E00E94E726EA81FB81468A578A608E9B
:100FE000718E06C0EA81FB81168A178A108E118ED7
:100FF0000894E11CF11C8BE190E0C80ED91E93E02F
:10100000E916F10439F681E0809382010F900F9088
:101010000F90CF91DF911F910F91FF90EF90DF9094
:10102000CF90BF90AF909F908F907F906F905F9088
:101030004F903F902F9008953F924F925F926F9202
:101040007F928F929F92AF92BF92CF92DF92EF9258
:10105000FF920F931F93DF93CF9300D000D000D067
:10106000CDB7DEB749835A836B837C833C01E1E3D0
:101070008E2EE1E09E2EAA24BB2465011E821D82D5
:101080007BE1472E512C33243394F30180819181ED
:10109000A281B3812D813E81249DF001259DF00D1B
:1010A000349DF00D1124EF5CFE4F86879787A08B4F
:1010B000B18B86859785A089B1892281338144814E
:1010C0005581821B930BA40BB50B868B978BA08F3E
:1010D000B18F328E86899789A08DB18D0097A10539
:1010E000B10531F0F4018081918161E00E94E72631
:1010F0002D813E81249DF001259DF00D349DF00D44
:101100001124EF5CFE4F86899789A08DB18DB7FFC2
:1011100010C086899789A08DB18DB095A0959095C6
:1011200081959F4FAF4FBF4F868B978BA08FB18F0D
:10113000128E8D819E81849DF001859DF00D949D80
:10114000F00D1124EF5CFE4FE688F788008D118DBD
:10115000029759F4809167019091680160E0E11471
:10116000F1040105110551F008C0E114F104010575
:10117000110531F0F4018081918161E00E94E72640
:10118000AE14BF04C006D10614F4570168012D81C6
:101190003E812F5F3F4F3E832D8384E090E0680EB9
:1011A000791EEBE1F0E08E0E9F1E2330310509F031
:1011B0006CCFC601B50129813A814B815C810E94C7
:1011C000462B20E430E040E050E00E94AE2BB90115
:1011D000CA016093290170932A0180932B01909397
:1011E0002C0160932D0170932E0180932F01909319
:1011F000300122E030E040E050E00E94AE2B5095FC
:101200004095309521953F4F4F4F5F4F20934301BD
:1012100030934401409345015093460120935E0171
:1012200030935F01409360015093610120937901F5
:1012300030937A0140937B0150937C0181E080934D
:10124000280126960FB6F894DEBF0FBECDBFCF9112
:10125000DF911F910F91FF90EF90DF90CF90BF90A3
:10126000AF909F908F907F906F905F904F903F9046
:101270000895FC01108211820895FC0110820895E6
:10128000EF92FF920F931F93CF93DF93EC0188812E
:101290008823B9F089818823A1F4EA80FB800C813E
:1012A0001D8181E995E00E94AE24E61AF70A080B39
:1012B000190B1E141F04100611061CF0188281E081
:1012C00089838981DF91CF911F910F91FF90EF90DA
:1012D0000895CF92DF92EF92FF920F931F938C01AC
:1012E0006A017B0181E0F8018083118281E995E048
:1012F0000E94AE246C0D7D1D8E1D9F1DF801628322
:101300007383848395831F910F91FF90EF90DF90FB
:10131000CF900895FF920F931F93DF93CF9300D048
:1013200000D000D0CDB7DEB7F8940E948B020E94A7
:1013300099050E942A0A0E9424010E94E90188233B
:10134000F9F480E096E060E00E9491268E010F5F44
:101350001F4FC8010E943909C80140EE53E96FEFE1
:101360007FEF0E946909F02E012F8F2D902F0E9490
:1013700040098823D1F380E096E060E00E94912646
:1013800081E995E00E94E125789426960FB6F894BD
:10139000DEBF0FBECDBFCF91DF911F910F91FF90A8
:1013A000089581E995E00E9416050E948A097894C3
:1013B0000E94A0010E94AF0F0E94B60AF9CFF894D4
:1013C000809185029091860220918302309184025F
:1013D000281B390B7894C901089580938D020895D4
:1013E00080918D020895809185029091860220E07F
:1013F000892B09F421E0822F0895482F80918502DE
:1014000090918602609183027091840286179707FB
:10141000E8F42091850230918602809187029091B4
:101420008802820F931F0E94652BE0918902F09140
:101430008A02E80FF91F408380918502909186020D
:1014400001969093860280938502089581E08093AF
:101450008B020895109286021092850210928B02E0
:1014600010928C0210928F0210928E020895CF93E8
:10147000DF93EC018A819B81892B21F481E08987AC
:1014800080E019C08C819D8128813981B9010E9439
:10149000652BEE81FF81E80FF91F8C819D810196FC
:1014A000B9010E94652B9D838C838A819B81019762
:1014B0009B838A838081DF91CF910895DF92EF92A1
:1014C000FF920F931F9303E812E0C8010E94370AAE
:1014D000D82EC8010E94370AE82EC8010E94370A98
:1014E000F82EC8010E94370A982F6D2D7E2D8F2D62
:1014F0001F910F91FF90EF90DF900895FF920F934F
:101500001F9303E812E0C8010E94370AF82EC801B1
:101510000E94370A982F8F2D1F910F91FF900895E9
:1015200083E892E00E94370A089580E091E090936A
:101530008402809383021092860210928502109298
:1015400088021092870283E891E090938A02809348
:10155000890210928B0210928C0280E992E00E9424
:10156000390986E992E00E94390908956F927F92C5
:101570008F929F92AF92BF92CF92DF92EF92FF92A3
:101580000F931F93DF93CF93CDB7DEB768970FB656
:10159000F894DEBF0FBECDBF0E945202882309F52A
:1015A0003FC0209185023091860280918702909100
:1015B0008802820F931F0E94652BE0918902F091AF
:1015C0008A02E80FF91F408380918502909186027C
:1015D0000196909386028093850204C010938B023B
:1015E00001C011E020918502309186028091830232
:1015F000909184028217930799F00E9458028823E1
:1016000079F00E94CF02482F809185029091860246
:1016100060918302709184028617970710F2DECFE3
:1016200080918D02882309F0EDC180918E02909106
:101630008F02039781F40E940D05882341F086E90B
:1016400092E00E944009882331F00E94990510928F
:101650008F0210928E0280918E0290918F020197DC
:1016600041F40E940D05882321F410928F021092FC
:101670008E0280918E0290918F02029751F480E940
:1016800092E00E944009882321F010928F0210926C
:101690008E0280918E0290918F02049771F50E94C4
:1016A0008501882351F10E9482018C010E947F01F3
:1016B0007C01C8010E94272AC80160E00E94752AA7
:1016C000C80166E10E94752A0E94D00102C00E94F2
:1016D000A0010E9496018823D1F3F70182A18823FB
:1016E00051F4C70161E00E94082A882321F010927A
:1016F0008F0210928E020E94930180918E0290912F
:101700008F02892B09F07EC180918502909186021B
:10171000892B09F477C18091870290918802C0904B
:101720008302D0908402E0908902F0908A02B60190
:101730000E94652BF701E80FF91F1081113891F510
:101740008091850290918602419708F45BC183E8FD
:1017500092E00E94370A81E090E090938F0280939C
:101760008E020E945E0A3B014C010E945E0A5B01F0
:101770006C010E945E0A7B018C010E945E0AAB0133
:10178000BC0169827A828B829C82AD82BE82CF82CA
:10179000D886E986FA860B871C87CE0101960E94BF
:1017A0001C0830C1163881F4809185029091860220
:1017B000029708F427C183E892E00E94370A83E881
:1017C00092E00E94370A1EC1193851F580918502B6
:1017D00090918602029708F415C183E892E00E9476
:1017E000370A83E892E00E94370AD82EDD1CDD24F8
:1017F000DD1C00E010E0E82EFF24C701002E02C02F
:10180000959587950A94E2F780FF04C0802F6D2D8F
:101810000E9467070F5F1F4F0330110571F7F2C079
:10182000123831F580918502909186020D9708F467
:10183000E9C083E892E00E94370A0E945E0A5B01D9
:101840006C010E945E0A7B018C010E945E0AAD86DB
:10185000BE86CF86D88AE98AFA8A0B8B1C8B6D8B61
:101860007E8B8F8B988FCE010D960E949E05CAC0ED
:10187000153801F58091850290918602059708F44C
:10188000C1C082E090E090938F0280938E0283E843
:1018900092E00E94370A0E945E0A28EE33E040E0A0
:1018A00050E00E94462BAB01BC0180E992E00E940F
:1018B0006909A8C0812F83588230A0F580918502E4
:1018C00090918602089708F49DC083E892E00E94F8
:1018D000370A0E94900A082F0E945E0A6B017C0161
:1018E0000E947E0A23E030E030938F0220938E0224
:1018F000A0E0B0E0BC01CD0120E432E44FE050E0D4
:101900000E94462BAB01BC0186E992E00E94690966
:1019100080E0143809F481E0602FA70196010E944D
:10192000780770C01738D1F48091850290918602B3
:10193000069708F467C084E090E090938F0280934C
:101940008E0283E892E00E94370A83E892E00E94C8
:10195000370A0E947E0A0E947E0A54C0183809F095
:1019600051C08091850290918602049708F44AC084
:1019700080918702909188022091850230918602A1
:101980000396B6010E94652BE80EF91EF7018081CF
:1019900090E0049628173907A8F10E948501882352
:1019A00089F10E9482017C010E94272A83E892E04B
:1019B0000E94370A83E892E00E94370A682FC70125
:1019C0000E94752A83E892E00E94370A682FC701B7
:1019D0000E94752A0E94900AC82EDD2400E010E0C3
:1019E0000AC083E892E00E94370A682FC7010E946C
:1019F000752A0F5F1F4F0C151D059CF30E94D00127
:101A00000E94930168960FB6F894DEBF0FBECDBF5B
:101A1000CF91DF911F910F91FF90EF90DF90CF90CA
:101A2000BF90AF909F908F907F906F9008959C0192
:101A3000F999FECF32BD21BDF89A80B508959C0179
:101A4000F999FECF1FBA32BD21BD60BD0FB6F89423
:101A5000FA9AF99A0FBE08958CE992E00E9439092A
:101A600008956F927F928F929F92AF92BF92CF9282
:101A7000DF92EF92FF920F931F93DF93CF93CDB737
:101A8000DEB7C154D0400FB6F894DEBF0FBECDBF55
:101A90007C015B01FC018081882309F4FCC17E2C60
:101AA0006F2CC70160E00E94082A87FDF4C18A30CC
:101AB00009F404C18B3090F4833091F1843028F420
:101AC000813071F1823080F521C0873049F1883052
:101AD00009F4EBC0843009F0DEC130C08E3009F467
:101AE00074C08F3038F48C3009F473C18D3008F035
:101AF00096C15AC1803109F47DC0803108F46EC0AE
:101B0000813171F0823109F0C6C19BC0C50161E02D
:101B10000E94752AC50168EC70E00E94912AB9C143
:101B200081E08093A202C7C0C50161E00E94752ACE
:101B30000E94DF09AC0160E070E058C0F894CE016B
:101B400007960E94C405C50161E00E94752A4F8175
:101B5000588569857A85C5010E94C72A4B855C85B1
:101B60006D857E85C5010E94C72A4F855889698980
:101B70007A89C5010E94C72A43E0C42ED12CFF24D4
:101B800035E2832E912C0894C108D108C89C8001AD
:101B9000C99C100DD89C100D11240F561A4FC80166
:101BA0000E94FB26882311F4EE2402C022E0E22EDC
:101BB000C8010E941427FF0CFF0CFE28F82AC1144C
:101BC000D10409F7C5016F2D00C1C50161E00E9474
:101BD000752AC70103960E94BA0430C0C50161E0AE
:101BE0000E94752A0E946C02AB01BC01C5010E94D3
:101BF000C72A4FC1C50161E00E94752A93E2C92E30
:101C0000D12CCC0EDD1E01E010E00AC0872D962DF0
:101C1000602F0E94082AF60181936F010F5F1F4F0A
:101C2000F701808190E00817190784F3FE01EF5B4C
:101C3000FF4F1082CE0183960E948704682FC50152
:101C400026C1C50161E00E94752A8E2D9F2D61E09D
:101C50000E94082A882349F00E94F904BC010097D9
:101C600021F0C5010E94752A1DC08E010D5D1F4F18
:101C7000C8016FE10E949703682FC5010E94752A71
:101C80008FE1E82EF12CE00EF11E08C0C5010E9484
:101C9000752A0F5F1F4F0E151F0521F0F801608197
:101CA0006623A1F7C50160E0F2C00E94F00991E04F
:101CB00089270E94ED09C50161E0E9C0F701808133
:101CC000823048F4C50160E00E94752A81E995E000
:101CD00068E070E01EC08E010F5F1F4FC8010E94B8
:101CE0003909C80142E350E060E070E00E946909F0
:101CF000D02E012F11C08D2D902F0E9440098823D6
:101D000059F0C50167E00E94752A81E995E062E01B
:101D100070E00E94BB24BDC00E948501882359F356
:101D20000E9482014C010E947F016C01C4010E944B
:101D3000272A01E010E00BC0872D962D602F0E940E
:101D4000082A682FC4010E94752A0F5F1F4FF701F0
:101D5000808190E0081719077CF30E94D0010E944F
:101D6000930102C00E94A0010E9496018823D1F332
:101D7000F60182A1843021F0760100E010E00DC070
:101D8000C50167E084C0C701602F0E94082A682F40
:101D9000C5010E94752A0F5F1F4FF601808190E0F8
:101DA0000817190784F375C0C50161E00E94752A00
:101DB000F8940E940D05882309F084C00E94F3095D
:101DC000882309F47FC061E0C5010E94752A7894D8
:101DD00060C0C70161E00E940D2A6C01C70163E089
:101DE0000E94082AE82EFF248E010D5E1F4FC801B5
:101DF000B601A70127E13DE00E94BC00C50161E0FA
:101E00000E94752AE00EF11E06C0C501F80161911D
:101E10008F010E94752A0E151F05B9F73AC0C70138
:101E200061E00E940D2AC82E992EC70163E00E942E
:101E3000082AD82E8E010D5E1F4FC8016C2D792DFA
:101E40004D2D50E027E13DE00E94BC00780114E0F8
:101E50000D2D0C5F09C0872D962D612F0E94082A39
:101E6000F70181937F011F5F1017A9F78C2D992D22
:101E7000BE016D5E7F4F4D2D50E02FE13DE00E9491
:101E8000D800C50161E00E94752AC5016D2D0E9430
:101E9000752A81E001C080E0CF5BDF4F0FB6F89478
:101EA000DEBF0FBECDBFCF91DF911F910F91FF908D
:101EB000EF90DF90CF90BF90AF909F908F907F90EA
:101EC0006F90089560E080CFCF92DF92EF92FF9203
:101ED0000F931F93CF93DF93EC017B0188818823BD
:101EE000A1F16E01CE0160E00E94082A87FF2DC09B
:101EF0000E945502882341F0CE010E94D702C701FB
:101F000061E00E94752A1FC0F89418810E94DF09C1
:101F1000212F30E08217930788F0C0E0D0E08901DC
:101F200007C0C6016C2F0E94082A0E94FD09219655
:101F3000C017D107B4F3C70161E002C0C70162E076
:101F40000E94752A789481E001C080E0DF91CF91F2
:101F50001F910F91FF90EF90DF90CF9008958091A7
:101F6000570690915806892B09F475C08091570641
:101F700090915806049709F074C06DC01092A202A7
:101F80000E948A0908958091310690913206892B2A
:101F900001F180913106909132060497D1F0809141
:101FA0009C02882349F48CE992E040E25EE460E020
:101FB00070E00E9469090DC08CE992E00E9440091E
:101FC000882339F08EE096E00E946D2984E08093AA
:101FD000300680913006882351F081E995E064E075
:101FE00070E00E94BB248EE096E00E947B298091E5
:101FF0003106909132060497A1F58CE992E00E9497
:102000003D0984E396E00E94272A8EE096E064E38F
:1020100076E00E9437108823A9F48EE096E064E30E
:1020200076E00E94640F882369F48EE096E064E312
:1020300076E00E94310D882329F484E396E065E080
:102040000E94752A8EE096E00E947B298CE096E043
:102050000E946D2808958091A202882309F493CFED
:102060008DCF089583EA92E00E941F2A08956F920F
:102070007F928F929F92AF92BF92CF92DF92EF9218
:10208000FF920F931F93DF93CF93CDB7DEB72C97BB
:102090000FB6F894DEBF0FBECDBF7C016B01FC0113
:1020A0008081882309F4E3C03701C70160E00E9402
:1020B000082A982F8077803709F0D9C09037B9F473
:1020C000C6010E94272A01E010E00AC0C301602F68
:1020D0000E94082A682FC6010E94752A0F5F1F4FB1
:1020E000F701808190E00817190784F390C09137B9
:1020F00009F4BDC0923709F4BAC0933709F07FC024
:102100000E9482015C010E947F014C01C5010E9476
:10211000272A01E010E00AC0C301602F0E94082AAC
:10212000682FC5010E94752A0F5F1F4FF70180813C
:1021300090E00817190784F38E010F5F1F4FC80145
:102140000E943909C80140E553EC60E070E00E944C
:102150006909F02E012F0FC08F2D902F0E9440098A
:10216000882349F0C60167E00E94752A81E995E05D
:1021700062E070E024C00E948501882369F38E012B
:10218000095F1F4FC8010E943909C80140E553EC9F
:1021900060E070E00E9469090E94D001F02E012FDA
:1021A00013C08F2D902F0E944009882359F0C6013B
:1021B00067E00E94752A81E995E061E070E00E9485
:1021C000BB2425C00E94A0010E949601882349F3E8
:1021D000740100E010E00AC0C701602F0E94082AC5
:1021E000682FC6010E94752A0F5F1F4FF40180817E
:1021F00090E00817190784F30E94930108C09437F0
:1022000041F40E942A0AC60161E00E94752A81E019
:102210002FC09637A1F4C70161E00E94082A182F49
:10222000C70162E00E94082A682F112329F481E97E
:1022300095E070E00E94BB24C60161E016C09737AC
:10224000B1F4C70161E00E94082A182FC60161E0BD
:102250000E94752A112339F481E995E00E94F22445
:10226000682FC60102C0C60160E00E94752A80E0A6
:102270002C960FB6F894DEBF0FBECDBFCF91DF9185
:102280001F910F91FF90EF90DF90CF90BF90AF9094
:102290009F908F907F906F900895FC01009711F0B0
:1022A000118210820895DF93CF9300D0CDB7DEB7AF
:1022B000DC01009781F16230710568F1ED91FC91CC
:1022C0001197660F771F80E090E016962D913D9153
:1022D0004D915C911997620F731F841F951F019098
:1022E000F081E02DAE014F5F5F4F22E030E00995B5
:1022F000882389F029813A812115310571F08FEF0A
:10230000273F380741F0C9014096079720F08FEF2B
:10231000283F380710F020E030E0C9010F900F90FF
:10232000CF91DF9108954F925F926F927F928F923B
:102330009F92AF92BF92CF92DF92EF92FF920F9354
:102340001F93DF93CF9300D0CDB7DEB75C0100972A
:1023500009F449C06230710508F445C0DC011696E5
:102360006D907D908D909C9019972E010894411C42
:10237000511C660F771F7B0100E010E0E60CF71C94
:10238000081D191DD501ED91FC910190F081E02D02
:10239000C801B701A20122E030E00995882319F1B4
:1023A000C980DA80C114D10401F1C60140960897B2
:1023B000D0F0B8EFCB16BFEFDB0610F0CC24DD2455
:1023C0001A821982D501ED91FC910480F581E02DEE
:1023D000C801B701A20122E030E00995B601C1149D
:1023E000D10439F602C080E001C081E00F900F9067
:1023F000CF91DF911F910F91FF90EF90DF90CF90E1
:10240000BF90AF909F908F907F906F905F904F9014
:1024100008952F923F924F925F926F927F928F9288
:102420009F92AF92BF92CF92DF92EF92FF920F9363
:102430001F93DF93CF93CDB7DEB72C970FB6F894E9
:10244000DEBF0FBECDBF4C011B01CA018114910438
:1024500009F4ABC0D401ED91FC9111972081318139
:102460003C872B87448155815A87498716962D9141
:102470003D914D915C9119972D833E834F835887F1
:102480005A96AD90BC905B971A962D913D914D91C7
:102490005C911D9756954795379527953C832B83DF
:1024A0005B961C921E925A973C012901CC24DD2494
:1024B00054C0B2E0AB16B10428F0EB81FC81AE163B
:1024C000BF0618F042E0A42EB12CC501880F991F59
:1024D0007C0100E010E02D813E814F815885E20EA5
:1024E000F31E041F151FC801B701AE014F5F5F4FF8
:1024F00022E030E0AB85BC85FD010995882309F415
:1025000054C089819A81892B11F56114710421F4D9
:10251000F401B38EA28E27C0C114D10429F42FEF89
:102520003FEF3A83298302C0DA82C982C801B7012A
:10253000AE014F5F5F4F22E030E0A985BA85FD0113
:102540000995882371F10894610871086501089460
:10255000410851080894A11CB11C4114510409F010
:10256000A8CF6728F1F4B2E02B16310400F1C9823C
:10257000DA82220C331CB10180E090E02D813E8193
:102580004F815885620F731F841F951FAE014F5FE7
:102590005F4F22E030E0A985BA85FD0109958823C7
:1025A00031F4C401B6010E949311CC24DD24C6018C
:1025B0002C960FB6F894DEBF0FBECDBFCF91DF9142
:1025C0001F910F91FF90EF90DF90CF90BF90AF9051
:1025D0009F908F907F906F905F904F903F902F9043
:1025E000089580E190E008952F923F924F925F927C
:1025F0006F927F928F929F92AF92BF92CF92DF9213
:10260000EF92FF920F931F93DF93CF93CDB7DEB777
:102610002A970FB6F894DEBF0FBECDBF2C017A8388
:1026200069835C834B83009709F409C1672B09F424
:1026300006C1452B09F403C1DC019D96AD90BD9008
:10264000CD90DC90D09795962D913D914D915C91D8
:102650009897EB81FC81CF01A0E0B0E08A0D9B1D33
:10266000AC1DBD1D281739074A075B0740F4B901A7
:102670006A197B097C836B83672B09F4E3C0D20161
:10268000ED91FC91119720883188D196ED91FC91C4
:10269000D297FA87E987EF2BF1F593962D913C912C
:1026A00094973A872987232B39F4A114B104C104E4
:1026B000D10409F4C7C0C3C0A114B104C104D1043A
:1026C00051F1860175013101882499246627772705
:1026D000CB0166197709880999096D837E838F83F9
:1026E000988714C0D2018D919C9169857A850E944A
:1026F00053119A878987892B09F4A1C06D817E8146
:102700008F819885E60EF71E081F191FE614F7043F
:102710000805190538F7089421083108A220B320CC
:102720000894211C311CCB80DC80D201ED90FC9000
:10273000E114F10409F1E985FA85E230F105E0F0F0
:102740003297BF0180E090E03296FA87E987D7019F
:1027500050962D913C91519740E050E00E94462BBD
:102760009B01AC01F70182899389A489B589280F5F
:10277000391F4A1F5B1F04C020E030E040E050E0FA
:1027800081010A191B09C016D10608F48601D70178
:10279000ED91FC91C501A0E0B0E0280F391F4A1F60
:1027A0005B1F0190F081E02DCA01B90149815A8176
:1027B00098010995882341F1C01AD10AC801A0E007
:1027C000B0E0F20125A536A547A550A9280F391F6D
:1027D0004A1F5B1FD2019D962D933D934D935C93B1
:1027E000D097C8018A0D9B1D82159305A0F08D918D
:1027F0009C9169857A850E9453119A878987892BD4
:1028000041F4F20112AA11AA4B815C814C195D09B5
:102810001BC0AA24BB24E985FA85D201D296FC9379
:10282000EE93D197C114D10439F029813A81200F58
:10283000311F3A83298379CF4B815C8105C04FEFEB
:102840005FEF02C040E050E0CA012A960FB6F8944C
:10285000DEBF0FBECDBFCF91DF911F910F91FF90D3
:10286000EF90DF90CF90BF90AF909F908F907F9030
:102870006F905F904F903F902F9008952F923F92CE
:102880004F925F926F927F928F929F92AF92BF9280
:10289000CF92DF92EF92FF920F931F93DF93CF932C
:1028A00000D000D000D0CDB7DEB76C017A83698349
:1028B0005C834B83009709F43AC1672B09F437C155
:1028C000452B09F434C1DC019D968D909D90AD900F
:1028D000BC90D09795968D919D910D90BC91A02D17
:1028E00088159905AA05BB0508F421C1D601ED910B
:1028F000FC91119720883188D1962D913C91D297E7
:102900003E832D83232B09F057C093968D919C9184
:1029100094979E838D83892BB9F481149104A1042B
:10292000B10409F004C1CF0160E070E041E050E083
:102930000E9409129E838D83D60194969C938E9358
:102940009397892B09F4F3C0F601E5A4F6A407A533
:1029500010A9E114F1040105110531F52DC0E418A9
:10296000F50806091709D6018D919C916D817E812C
:102970000E945311009719F09E838D8318C0E114B3
:10298000F1040105110509F0D2C0F60180819181A1
:102990006D817E8141E050E00E940912009709F4A8
:1029A000C6C09E838D8303C0210166247724E4146E
:1029B000F5040605170598F60894210831088220C9
:1029C00093200894211C311CAB80BC80D601ED9073
:1029D000FC90E114F10409F1ED81FE81E230F10592
:1029E000E0F03297BF0180E090E03296FE83ED8305
:1029F000D70150962D913C91519740E050E00E94B4
:102A0000462B9B01AC01F70182899389A489B58982
:102A1000280F391F4A1F5B1F04C020E030E040E050
:102A200050E0810108191909A016B10608F48501C2
:102A3000D701ED91FC91C401A0E0B0E0280F391F4F
:102A40004A1F5B1F0480F581E02DCA01B90149814D
:102A50005A8198010995882309F44DC0A01AB10A3A
:102A6000C801A0E0B0E0F60125A536A547A550A90C
:102A7000280F391F4A1F5B1FD6019D962D933D934A
:102A80004D935C93D097C801880D991D82159305CD
:102A900018F18D919C916D817E810E945311009758
:102AA00019F09E838D8316C0A114B10459F0F6016C
:102AB000808191816D817E8141E050E00E94091208
:102AC000009731F4D601D2961C921E92D19713C072
:102AD0009E838D83882499242D813E81F60132AB1B
:102AE00021ABA114B10439F089819A81800F911F23
:102AF0009A8389836BCFD6019D962D913D914D91FF
:102B00005C91D09795968D919D910D90BC91A02D43
:102B100082179307A407B50728F4F60125A336A367
:102B200047A350A74B815C814A195B0902C04FEF54
:102B30005FEFCA0126960FB6F894DEBF0FBECDBF79
:102B4000CF91DF911F910F91FF90EF90DF90CF9089
:102B5000BF90AF909F908F907F906F905F904F90BD
:102B60003F902F900895FC01009711F01182108280
:102B70000895FC01009711F480E0089583A194A1C9
:102B800096A785A710AA17A681E008957F928F9235
:102B90009F92AF92BF92CF92DF92EF92FF920F93EC
:102BA0001F93DF93CF93CDB7DEB72C970FB6F89472
:102BB000DEBF0FBECDBF6C015B01009709F44EC0B4
:102BC0006115710509F44AC0DB019796ED90FD90FF
:102BD0000D911C919A97E114F10401051105F1F191
:102BE0004E010894811C911C75EE772ED601ED9153
:102BF000FC910190F081E02DC801B701A4012CE007
:102C000030E00995882351F17982D601ED91FC914C
:102C10000480F581E02DC801B701A4012CE030E06B
:102C200009958823D9F08C858F3049F480E290E0B3
:102C3000A0E0B0E0E80EF91E0A1F1B1FD7CFD50198
:102C400091966D917C9192976115710529F0C6015D
:102C50000E949311882319F081E001C080E02C9636
:102C60000FB6F894DEBF0FBECDBFCF91DF911F919D
:102C70000F91FF90EF90DF90CF90BF90AF909F901B
:102C80008F907F900895CF92DF92EF92FF920F93F3
:102C90001F93DF93CF93CDB7DEB760970FB6F8944D
:102CA000DEBF0FBECDBF8C016230710510F480E035
:102CB00035C0009729F440E050E060E070E016C0B5
:102CC0006250704080E090E0F8012089318940E056
:102CD00050E00E94462BAB01BC01F8018289938928
:102CE000A489B589480F591F6A1F7B1FDE01119601
:102CF00080E1FD0111928A95E9F7F80180819181C7
:102D000020893189FC01C680D780CB01BA01AD0191
:102D100001EF12E1EE24FF24F601099560960FB64B
:102D2000F894DEBF0FBECDBFCF91DF911F910F9101
:102D3000FF90EF90DF90CF9008952F923F924F92A7
:102D40005F926F927F928F929F92AF92BF92CF923B
:102D5000DF92EF92FF920F931F93DF93CF93CDB744
:102D6000DEB7A6970FB6F894DEBF0FBECDBF2C011D
:102D7000009709F4A5C06115710509F4A1C0DC0133
:102D80008D909C901197F401208831889D96AD908C
:102D9000BC909E979F966D907C90D097FE01319647
:102DA00086E0DF011D928A95E9F7A114B10409F0CC
:102DB00076C0F4012288338886899789281A390ACF
:102DC0006EC0730100E010E0A114B10441F4D4011D
:102DD00056966D917D918D919C9159972DC081143E
:102DE000910421F1B2E0AB16B10400F1EEEFFFEF78
:102DF000AE0EBF1EB50180E090E022E030E0A20EF2
:102E0000B31ED40150962D913C91519740E050E073
:102E10000E94462B9B01AC01F40182899389A4890D
:102E2000B589280F391F4A1F5B1F04C020E030E01E
:102E300040E050E0CA01B9016E0D7F1D801F911F57
:102E40001C821B82D401ED91FC91810106191709A6
:102E50000280F381E02DAE01495F5F4F20E230E058
:102E6000AAE7EA2EA7E1FA2E6E010894C11CD11C34
:102E70000995882329F18B819C81680E791E621443
:102E8000730478F0C401B5010E9453115C016624FB
:102E90007724009731F4F201A3A0B4A006C07A838E
:102EA00069838E81882309F48CCFD2019E96BC92CF
:102EB000AE929D97D0967C926E929F978E8101C024
:102EC00080E0A6960FB6F894DEBF0FBECDBFCF91BF
:102ED000DF911F910F91FF90EF90DF90CF90BF9007
:102EE000AF909F908F907F906F905F904F903F90AA
:102EF0002F900895CF92DF92EF92FF920F931F933E
:102F0000CF93DF938C016A017B01A901D901CD9197
:102F1000DC91119712968D919C9113978096139640
:102F20009C938E931297F8019081953E11F099230E
:102F300021F4DA0114961C92C9C0F80183858F3000
:102F4000E1F5D90114969C91992319F0858598177C
:102F500071F08BE2FE0111928A95E9F7D8011D9676
:102F60008C91FA018483CFA2D8A6E9A6FAA6D8014B
:102F70008C9190E08F7390702DE030E0829FA001E3
:102F8000839F500D929F500D11244D505040A2E050
:102F9000B1E0C40FD51F0DC08D91F801E80FF11DF0
:102FA000808189934F5F5F4FE1E0AF30BE0709F446
:102FB0008DC04F31510580F389C088818823D1F0BD
:102FC000D90114966C91F801A1E0892F90E09C0141
:102FD000359527959695982F882797958795982FBB
:102FE000922B8181980FAF5F3196AB3071F76917E3
:102FF00009F457C08BE2FE0111928A95E9F7CFA23E
:10300000D8A6E9A6FAA6B801DE01780120E0F7010A
:1030100090819032A1F09C93F801848583FF08C0D1
:10302000F7018081813420F08B3510F4905E9C9301
:103030002F5F0894E11CF11C1196283041F788811C
:10304000853011F485EE8883D80118968C918032F2
:1030500021F1FE01E20FF11D8EE28083322F3F5FEE
:103060002C5FFB0190859032B9F0FE01E30FF11D5A
:103070009083D8011C968C9184FF09C0DB011896BF
:103080008C91813420F08B3510F4905E90833F5FFB
:103090006F5F7F4F321729F7232FFE01E20FF11DDB
:1030A0001082F801838588A3828D938D9AA389A3CA
:1030B000848D958DA68DB78D8BA39CA3ADA3BEA348
:1030C00081E0DA0115968C9380E001C081E0DF9108
:1030D000CF911F910F91FF90EF90DF90CF900895C7
:1030E0002F923F924F925F926F927F928F929F9218
:1030F000AF92BF92CF92DF92EF92FF920F931F9306
:10310000DF93CF93CDB7DEB7A8970FB6F894DEBFA5
:103110000FBECDBF98A78FA3009709F45CC1DC0157
:1031200014968D919C911597892B09F454C116968C
:103130008D919C911797892B09F44DC168C1EEE5DB
:10314000F3E08CE1DF011D928A95E9F7EFA1F8A584
:10315000F0935F03E0935E032184328443845484BC
:10316000A9E0220C331C441C551CAA95D1F7C201BE
:10317000B101655F7F4F8F4F9F4F0190F081E02D30
:10318000AE014F5F5F4F29E130E00995882309F4D4
:1031900045C1E981FA81FBA3EAA32C813D81FB8132
:1031A000FCA34E818F8198859EA38DA3E985FA8526
:1031B0006C857D856E887F88888C998C61147104FC
:1031C0008104910431F4309709F428C13F01882427
:1031D00099246115710509F421C1C901A0E0B0E08D
:1031E0008A8F9B8FAC8FBD8F80E090E0242F30E0E2
:1031F00040E050E00E94462B6E8F7F8F88A399A3FA
:10320000840173012A8D3B8D4C8D5D8DE21AF30A8A
:10321000040B150BE61AF70A080B190B8AA19BA1E0
:1032200001972DA13EA1F5E0220F331FFA95E1F79A
:10323000820F931F6AA17BA10E94652B80E090E022
:10324000E61AF70A080B190B8CA1282F30E040E092
:1032500050E0C801B7010E948C2B79018A0195EFDB
:10326000E9169FE0F90690E0090790E0190708F4D5
:10327000D5C0A5EFEA16AFEFFA06A0E00A07A0E076
:103280001A0728F486E0EFA1F8A5808705C08BE037
:10329000AFA1B8A518968C9388E1E0E6F3E0DF01D2
:1032A0001D928A95E9F7EAA1FBA15F01CC24DD24F8
:1032B000C401B301A60195010E94462B60936003EF
:1032C000709361038093620390936303C601B50119
:1032D0002A8D3B8D4C8D5D8D0E94462B260E371E10
:1032E000481E591E20926403309265034092660383
:1032F00050926703AFA1B8A518968C91863029F03B
:1033000064E070E080E090E004C062E070E080E0A3
:1033100090E022E030E040E050E0E20EF31E041FB7
:10332000151FA80197010E94462B609368037093B4
:10333000690380936A0390936B034AA15BA1509346
:103340006D0340936C035CA1852F90E0DC01EAA142
:10335000FBA1AE9FC001AF9F900DBE9F900D1124A9
:1033600090936F0380936E036E8D7F8D88A199A1DA
:10337000A60195010E94462B2091640330916503BC
:103380004091660350916703620F731F841F951F5E
:10339000609374037093750380937603909377031F
:1033A000ADA1BEA19D0140E050E0E5E0220F331F3A
:1033B000441F551FEA95D1F7620F731F841F951F95
:1033C00060937003709371038093720390937303FF
:1033D0002EE533E002C020E030E0C901A8960FB628
:1033E000F894DEBF0FBECDBFCF91DF911F910F913B
:1033F000FF90EF90DF90CF90BF90AF909F908F9015
:103400007F906F905F904F903F902F9008958091A4
:103410005E0390915F03892BF1F691CE10925F03CA
:1034200010925E03D8CF2F923F924F925F926F928D
:103430007F928F929F92AF92BF92CF92DF92EF9244
:10344000FF920F931F93DF93CF9300D00F92CDB7CE
:10345000DEB71C019B01009709F4D2C0411551054C
:1034600009F4CEC0FA0101900020E9F7E41BF50B46
:10347000CF010B966DE070E00E94652B862F8F5F69
:103480008B83D90193964D905C909497411451048D
:1034900051F0AA24BB246501EE24FF248701662491
:1034A000772443010BC0F101E688F788008D118D68
:1034B0006288738884889588570168011A82E614A7
:1034C000F7040805190509F06EC04114510409F408
:1034D00097C0E114F1040105110589F1C101B201A0
:1034E0000E945311009751F5C101B20141E050E033
:1034F0000E9409128C01009709F482C0025010400A
:10350000B80180E090E00E5F1F4FD10150962D91E1
:103510003C91519740E050E00E94462B5B016C01CA
:10352000F10182899389A489B589A80EB91ECA1EA2
:10353000DB1EC101B8010E94431665C02C01F2E0F8
:103540004F16510420F4EE24FF2487011DC02EEFF6
:103550003FEF420E531EB20180E090E0A2E0B0E0E7
:103560004A0E5B1EF1012089318940E050E00E9443
:10357000462B7B018C01F10182899389A489B5894D
:10358000E80EF91E0A1F1B1FD10150968D919C91C8
:1035900051973C01882499246E0C7F1C801E911E3B
:1035A000570168011A82D101ED91FC910190F081DF
:1035B000E02DC801B701AE014F5F5F4F21E030E061
:1035C00009958823E9F08981853E11F0882379F4F3
:1035D000BA81BF5FBA83EB81BE17A8F480E290E0A6
:1035E000A0E0B0E0E80EF91E0A1F1B1F68CF80E2C2
:1035F00090E0A0E0B0E0E80EF91E0A1F1B1F5CCFB0
:10360000AA24BB246501B501C6010F900F900F904D
:10361000CF91DF911F910F91FF90EF90DF90CF90AE
:10362000BF90AF909F908F907F906F905F904F90E2
:103630003F902F9008953F924F925F926F927F92AA
:103640008F929F92AF92BF92CF92DF92EF92FF92B2
:103650000F931F93DF93CF93CDB7DEB7A0970FB62D
:10366000F894DEBF0FBECDBFFC018B01009709F4BB
:1036700031C16115710509F42DC10190F081E02D72
:1036800044805580DB019796AD90BD90CD90DC9045
:103690009A97E62E912EFB0101900020E9F73197D1
:1036A000FE2EF61A8F2D90E00C966DE070E00E94D1
:1036B000792B762ECE01019660E270E04BE050E06F
:1036C0000E947900C8016EE270E00E94B100FC0126
:1036D0000097E1F09C012F5F3F4F81818823B1F07B
:1036E000D9010D900020E9F71197A21BB30B8A2F87
:1036F0008095F80EBE01675F7F4F4A2FA43008F017
:1037000043E0CB01B90150E00E947000CE01019668
:10371000B8E0BF1588F06E2D792D4F2D50E00E9436
:103720007000F80180818E3291F581818E3209F42A
:103730008281882359F12BC0DC018E2D992D9C01AB
:10374000F90188E001900D928150E1F7D80191963E
:103750002C91822F90E0203A40F4B4E09595879523
:10376000BA95E1F7982F905D07C0A4E095958795ED
:10377000AA95E1F7982F9F59822F8F708A3010F405
:10378000805D01C08F599F83888701C0772489811C
:10379000853E11F485E08983FCE08F2E912C8C0E00
:1037A0009D1E85E1F40111928A95E9F7D801909662
:1037B0008C9190978C8791968D919C9192979C8FEC
:1037C0008B8F93968D919D910D90BC91A02D8D8F97
:1037D0009E8FAF8FB8A3672D70E0E5E0660F771F6F
:1037E000EA95E1F780E090E06A0D7B1D8C1D9D1D40
:1037F000AE014F5F5F4F20E230E0F2010995882370
:1038000009F468C0E980FE013296A4018E2D90E093
:103810009C01359527959695982F8827979587959C
:10382000E82EE22A8191E80EE417F50779F7F72CE4
:103830004E010894811C911C8DE0382EBFE06B2E48
:1038400044C0C4016FEF70E040E250E00E94790094
:10385000F39CD00111241D97A00FB11F91E0F4013A
:10386000E90FF11D8C918083892F8F5FF401E80FA0
:10387000F11D10829E5F9B3019F09A3121F402C035
:103880009EE001C09CE18C91882321F09F3110F4CF
:103890001196E5CFF982F71419F48F2D806489838E
:1038A0006C86EE861D861B8E1C8EC601B501A4019A
:1038B00020E230E0F201099580E290E0A0E0B0E083
:1038C000A80EB91ECA1EDB1EFA94FF2009F0B9CF5C
:1038D00081E001C080E0A0960FB6F894DEBF0FBE75
:1038E000CDBFCF91DF911F910F91FF90EF90DF90AF
:1038F000CF90BF90AF909F908F907F906F905F9090
:103900004F903F900895AF92BF92CF92DF92EF9287
:10391000FF920F931F93CF93DF938C017B01EA01FA
:10392000009709F448C06115710509F444C0FB0112
:103930008081882309F43FC041155105E1F1B42E7F
:10394000AD2EC801BE010E949D16882379F0C701E3
:103950006B2D7A2D0E948B00009799F7F80183A1B7
:1039600094A196A785A710AA17A625C0F801C08024
:10397000D1808BE2FE0111928A95E9F78B2D9A2D69
:10398000B7014FE150E00E94A200C601B801AE01AC
:103990000E94131A6FA378A789A79AA761157105CA
:1039A0008105910541F0C601BE010E941B1B8823C1
:1039B00019F081E001C080E0DF91CF911F910F915C
:1039C000FF90EF90DF90CF90BF90AF900895CF938E
:1039D000DF93EC01009741F0FC0181919191BF01CF
:1039E0000E941B1B19821882DF91CF910895CF93FB
:1039F000DF93AC01DB01009789F16115710571F16D
:103A000090968C91909784FF29C08091C9029091E3
:103A1000CA02892B19F4E9ECF2E008C08091FA029D
:103A20009091FB02892BD1F4EAEFF2E09F012E5F27
:103A30003F4FBD018BE2EB010990BE01E901099204
:103A40009E018150C1F75183408391968D919C9145
:103A5000929796A785A710AA17A602C0E0E0F0E00B
:103A6000CF01DF91CF910895CF93DF939C01FB01AC
:103A7000009731F06115710519F080A184FF23C012
:103A800020E030E0C901DF91CF910895CDE2D3E08D
:103A9000DF018BE20D9009928150E1F730932C0306
:103AA00020932B03109258031092590310925A033B
:103AB00010925B0381A192A190935D0380935C03BC
:103AC0002BE233E0DFCF80912B0390912C03892BE5
:103AD000B9F6DCCF6F927F928F929F92AF92BF9296
:103AE000CF92DF92EF92FF920F931F93CF93DF93CA
:103AF0004C01EB017A01009709F467C0611571056B
:103B000009F463C08881882309F45FC04115510519
:103B100009F45BC08F3209F421968BE2F701119210
:103B20008A95E9F780E1F70180A3370101C0E5013B
:103B30008881882309F44BC0C401B7010E94F71C97
:103B40006C01009709F441C0CE016FE270E00E9461
:103B50008000009739F0482F4C1B5C010894A11C91
:103B6000B11C2AC0FE0101900020E9F731974E2FC9
:103B70004C1B5E01A40EB11C1FC0F301019000207C
:103B8000E9F73197E619F709E017F107B9F4CE0123
:103B9000B301A8010E949400009781F4F6011182FC
:103BA00010820C0F1D1FF8018081882381F0F7011E
:103BB00080A184FDBCCF09C0042F10E0C601B7016D
:103BC0000E949D168823C9F612C080E001C081E0E2
:103BD000DF91CF911F910F91FF90EF90DF90CF90E9
:103BE000BF90AF909F908F907F906F900895F60157
:103BF000118210829DCFFC01009711F480E008959E
:103C0000108681E008958F929F92AF92BF92CF92DB
:103C1000DF92EF92FF920F93DF93CF93CDB7DEB792
:103C200060970FB6F894DEBF0FBECDBF7C016B016D
:103C30005A014901009709F493C06115710509F40F
:103C40008FC004300CF08CC007FD1DC0602F77279B
:103C500067FD7095E4E0660F771FEA95E1F762541F
:103C60007E4F882777FD8095982FAE014F5F5F4F7D
:103C700020E130E0F7010995882309F471C08D81B6
:103C8000882309F46DC080918203882309F068C0FD
:103C90007CC08D81809382032A8530E040E050E033
:103CA000542F432F322F22278B8590E0A0E0B0E0E5
:103CB000DC0199278827282B392B4A2B5B2B8985F8
:103CC00090E0A0E0B0E0282B392B4A2B5B2B8C85B1
:103CD00090E0A0E0B0E0B82FAA2799278827282BEA
:103CE000392B4A2B5B2B209383033093840340931F
:103CF0008503509386032E8530E040E050E0542F3A
:103D0000432F322F22278F8590E0A0E0B0E0DC0126
:103D100099278827282B392B4A2B5B2B8D8590E000
:103D2000A0E0B0E0282B392B4A2B5B2B888990E050
:103D3000A0E0B0E0B82FAA2799278827282B392B95
:103D40004A2B5B2B2093870330938803409389038E
:103D500050938A0303C08FEF809382039F0102C0B8
:103D600020E030E0C90160960FB6F894DEBF0FBEC8
:103D7000CDBFCF91DF910F91FF90EF90DF90CF906B
:103D8000BF90AF909F908F900895EAE7F3E081E1B4
:103D9000DF011D928A95E9F7F0927B03E0927A03A6
:103DA000D0927D03C0927C03B0927F03A0927E03E9
:103DB000909281038092800307FF6BCFCCCFDF937B
:103DC000CF93CDB7DEB727970FB6F894DEBF0FBEFF
:103DD000CDBFDE011196EEEAF6E086E001900D928D
:103DE0008150E1F7EB81FC818081869586958695EF
:103DF0008095817027960FB6F894DEBF0FBECDBFB9
:103E0000CF91DF910895DF93CF93CDB7DEB727979A
:103E10000FB6F894DEBF0FBECDBFDE011196EEEAFD
:103E2000F6E086E001900D928150E1F7EB81FC8194
:103E3000808190E0959587959595879581702796D7
:103E40000FB6F894DEBF0FBECDBFCF91DF910895BE
:103E5000282F8FEF8EBD0DB407FEFDCF8DB58F7768
:103E60008DBD8EB5822F80648EBD0DB407FEFDCF53
:103E70008DB58F778DBD872F9927AA27BB278EBD3C
:103E80000DB407FEFDCF8DB58F778DBDCB01AA2771
:103E9000BB278EBD0DB407FEFDCF8DB58F778DBDD1
:103EA000BB27A72F962F852F8EBD0DB407FEFDCF04
:103EB0008DB58F778DBD4EBD0DB407FEFDCF8DB591
:103EC0008F778DBD222319F0283069F406C085E96B
:103ED0008EBD0DB407FEFDCF0BC087E88EBD0DB4BF
:103EE00007FEFDCF05C08FEF8EBD0DB407FEFDCFE1
:103EF0008DB58F778DBD90E02FEF2EBD0DB407FEF1
:103F0000FDCF8DB58F778DBD8EB58F3F19F49F5F37
:103F10009A3099F708952F923F924F925F926F9245
:103F20007F928F929F92AF92BF92CF92DF92EF9249
:103F3000FF920F931F93DF93CF93CDB7DEB72797F1
:103F40000FB6F894DEBF0FBECDBF3B014C011A0186
:103F50002901DE011196EEEAF6E086E001900D926D
:103F60008150E1F7EB81FC81808182FFABC0AFC063
:103F70001FEFC12E11E0D12EC620D720C601A0E030
:103F8000B0E084017301E81AF90A0A0B1B0BA12C9B
:103F9000B2E0BB2EAC18BD084A145B0408F4520111
:103FA00080918C0390918D03A0918E03B0918F032B
:103FB000E816F9060A071B0701F10E9483208823EF
:103FC00009F485C0C114D10429F480E0A81682E068
:103FD000B80658F4C801B70140E953E020E032E0E8
:103FE0000E949D20882309F472C0E0928C03F09215
:103FF0008D0300938E0310938F0380E9281683E0CE
:10400000380671F0960120573C4FC901B101A50156
:104010000E94700010928B034A145B0409F459C08B
:104020002C9888E1B801A7010E94281F882311F06D
:104030002C9A4DC08EEF8EBD0DB407FEFDCF8DB511
:104040008F778DBDE0E9F3E081918EBD0DB407FE61
:10405000FDCF8DB58F778DBD85E0E039F807A1F7ED
:104060008FEF8EBD0DB407FEFDCF8DB58F778DBD63
:104070008FEF8EBD0DB407FEFDCF8DB58F778DBD53
:104080008FEF8EBD0DB407FEFDCF8DB58F778DBD43
:104090008EB58F3FA9F78EBD0DB407FEFDCF8DB550
:1040A0008F778DBD8EB52C9A2A0C3B1CC501A0E0E4
:1040B000B0E0680E791E8A1E9B1E4A185B0881E0DC
:1040C00080938B034114510409F052CF02C080E069
:1040D00001C081E027960FB6F894DEBF0FBECDBFBA
:1040E000CF91DF911F910F91FF90EF90DF90CF90D4
:1040F000BF90AF909F908F907F906F905F904F9008
:104100003F902F90089580918B03882311F081E0D8
:10411000089560918C0370918D0380918E0390912E
:104120008F0340E953E020E032E00E948B1F882398
:1041300019F081E080938B0308953F924F925F9234
:104140006F927F928F929F92AF92BF92CF92DF92A7
:10415000EF92FF920F931F93CF93DF933B014C019C
:104160006A01290133243A948FC00FEFA02E01E099
:10417000B02EA620B720C501A0E0B0E084017301F5
:10418000E81AF90A0A0B1B0BC0E0D2E0CA19DB09D6
:104190004C165D0608F4E20180918C0390918D032A
:1041A000A0918E03B0918F03E816F9060A071B074A
:1041B00009F457C00E948320882309F46AC02C9810
:1041C00081E1B801A7010E94281F882319F02C9AC9
:1041D00080E05FC03EBC0DB407FEFDCF8DB58F778C
:1041E0008DBD8EB58E3FB1F7E0E9F3E03EBC0DB476
:1041F00007FEFDCF8DB58F778DBD8EB5808385E0B1
:10420000EF38F80711F03196F1CFE0928C03F0927D
:104210008D0300938E0310938F03950120573C4F1D
:10422000C601B901AE010E9470003EBC0DB407FE8C
:10423000FDCF8DB58F778DBD8EB53EBC0DB407FE1D
:10424000FDCF8DB58F778DBD8EB52C9A3EBC0DB44C
:1042500007FEFDCFCC0EDD1E8DB58F778DBD8EB5E3
:104260000AC0950120573C4FC601B901AE010E941A
:104270007000CC0EDD1E4C1A5D0ACE01A0E0B0E04D
:10428000680E791E8A1E9B1E4114510409F06DCFE1
:1042900081E0DF91CF911F910F91FF90EF90DF9020
:1042A000CF90BF90AF909F908F907F906F905F90D6
:1042B0004F903F9008952F923F924F925F926F924E
:1042C0007F928F929F92AF92BF92CF92DF92EF92A6
:1042D000FF920F931F93DF93CF9300D000D0CDB701
:1042E000DEB74B015C013A013C832B832701DA8264
:1042F000C98241155105A9F12115310591F1021726
:10430000130778F1E114F10461F11901309421945B
:1043100031083394021B130B6901EE24FF24C501FD
:10432000B401A3012B813C810E949D208823C9F008
:10433000C301B501A40129813A81F20109958823BD
:1043400091F0020D131D8B819C81800F911F2B8199
:104350003C818217930738F08C0C9D1CAE1CBF1C4F
:10436000DECF80E001C081E00F900F900F900F90A2
:10437000CF91DF911F910F91FF90EF90DF90CF9041
:10438000BF90AF909F908F907F906F905F904F9075
:104390003F902F900895EF92FF920F931F93DF931A
:1043A000CF93CDB7DEB765970FB6F894DEBF0FBEDB
:1043B000CDBFDE011196EEEAF6E086E001900D92A7
:1043C0008150E1F7ED81FE818081877F8083DE016E
:1043D0001896EEEAF6E086E001900D928150E1F742
:1043E000EC85FD8580818B7F8083259A279A249A8E
:1043F00026982C9A83E58CBD8DB58E7F8DBD10924D
:104400009005DE011F96EEEAF6E086E001900D923F
:104410008150E1F7E989FA89808183FD20C090E02D
:104420002FEF2EBD0DB407FEFDCF8DB58F778DBD5F
:104430008EB59F5F9A30A9F72C9800E010E080E0DD
:1044400040E050E060E070E00E94281FF82E81E01C
:10445000F81651F081E00F3F180719F42C9A80E00C
:1044600066C00F5F1F4FEBCF87E340E050E060E096
:1044700070E00E94281F89E240E050E060E070E0B8
:104480000E94281F82FD02C0F09290058091900545
:10449000E82EFF2483E0E822FF2400E010E0E1148E
:1044A000F10449F087E340E050E060E070E00E94F2
:1044B000281F89E201C081E040E050E060E070E048
:1044C0000E94281F80FF07C08FE70F3F180731F2B7
:1044D0000F5F1F4FE4CF80E140E052E060E070E00A
:1044E0000E94281F882309F0B9CF2C9A8CB58C7FA5
:1044F0008CBD8DB581608DBD8FEF9FEFAFEFBFEFAE
:1045000080938C0390938D03A0938E03B0938F03BD
:1045100081E080938B0360E070E080E090E040E910
:1045200053E020E032E00E949D20811181E06596F9
:104530000FB6F894DEBF0FBECDBFCF91DF911F91B4
:104540000F91FF90EF9008954F925F926F927F923C
:104550008F929F92AF92BF92CF92DF92EF92FF9293
:104560000F931F93CF93DF935B016C014A01E90125
:10457000380127014115510571F10115110559F156
:10458000FF242115310511F5FF24F3941FC0C40148
:10459000B601A5019201F30109958C010097E9F09C
:1045A000FF2019F4C817D907B0F0C601B501A4015E
:1045B00098010E948B1F882371F0C801A0E0B0E031
:1045C000A80EB91ECA1EDB1EC01BD10BFF20F9F6B8
:1045D0002097E9F602C080E001C081E0DF91CF9131
:1045E0001F910F91FF90EF90DF90CF90BF90AF9011
:1045F0009F908F907F906F905F904F900895DF9382
:10460000CF93CDB7DEB7C85DD0400FB6F894DEBF0C
:104610000FBECDBFAC01FC0120E030E01182108262
:1046200013821282158214821682108617821286D5
:10463000118614861386158617861686118A108AA7
:10464000138A128A148A168A158A108E178A128E75
:10465000118E138E158E148E178E168E11A210A227
:1046600012A22B5D3F4FB5962F363105B9F6DE010C
:104670001196E4EBF6E086E001900D928150E1F7AF
:10468000DE011896EAEBF6E086E001900D9281508B
:10469000E1F7DE011F96E4EBF6E086E001900D9273
:1046A0008150E1F7DE015696E4EBF6E086E00190FA
:1046B0000D928150E1F7DE015D96E4EBF6E086E0D5
:1046C00001900D928150E1F782E08F83DE01A659BF
:1046D000BF4FFE01319687E001900D928150E1F7C6
:1046E00087E08E87DE01AF58BF4FFE0138960190FC
:1046F0000D928150E1F783E08D8BDE01A858BF4F0A
:10470000FE013F9687E001900D928150E1F785E030
:104710008C8FDE01A158BF4FFE01769687E0019095
:104720000D928150E1F784E08BA3DE01AA57BF4FC1
:10473000FE017D9687E001900D928150E1F7FE0128
:10474000E659FF4F81E083A314A2DA0185E20190CC
:104750000D928150E1F7DE019496E4EBF6E086E0FD
:1047600001900D928150E1F7DE019B96E4EBF6E0BB
:1047700086E001900D928150E1F7DE01D296E8EAE1
:10478000F6E086E001900D928150E1F7DE01D996C6
:10479000E8EAF6E086E001900D928150E1F7DE0153
:1047A000A05CBF4FE8EAF6E086E001900D928150F0
:1047B000E1F786E08AA7DE01A157BF4FFE01B4965C
:1047C00087E001900D928150E1F787E089ABDE012F
:1047D000AA56BF4FFE01BB9601900D928150E1F7A2
:1047E00087E088AFDE01A356BF4FFE01F29601902D
:1047F0000D928150E1F785E08FAFDE01AC55BF4FE0
:10480000FE01F99687E001900D928150E1F786E074
:10481000FE01EA5BFF4F8083DE01A555BF4FFE011D
:10482000E05CFF4F87E001900D928150E1F7FE01BF
:10483000E157FF4F81E083A314A2DA01959685E248
:1048400001900D928150E1F7DE01A95BBF4FE8EACC
:10485000F6E086E001900D928150E1F7DE01A25B67
:10486000BF4FE8EAF6E086E001900D928150E1F753
:10487000DE01AB5ABF4FE8EAF6E086E001900D9208
:104880008150E1F7DE01A45ABF4FE8EAF6E086E086
:1048900001900D928150E1F7DE01AD59BF4FE8EA7A
:1048A000F6E086E001900D928150E1F7FE01E95BB0
:1048B000FF4F83E08683DE01AC54BF4F87E0019059
:1048C0000D928150E1F7FE01E25BFF4F84E08683A9
:1048D000DE01A554BF4F87E001900D928150E1F7B2
:1048E000FE01EB5AFF4F82E08683DE01AE53BF4FDD
:1048F00087E001900D928150E1F7FE01E45AFF4FED
:104900001682DE01A753BF4F87E001900D928150C0
:10491000E1F7FE01ED59FF4F81E08683DE01A053F0
:10492000BF4F87E001900D928150E1F7FE01EC54FA
:10493000FF4F81E083A314A2DA01A65BBF4F85E29B
:1049400001900D928150E1F7C852DF4F0FB6F894F5
:10495000DEBF0FBECDBFCF91DF910895FC018FB7B1
:10496000F894E059FF4F20813181428153818FBFFC
:10497000B901CA010895DF93CF93CDB7DEB727976A
:104980000FB6F894DEBF0FBECDBF6115710599F467
:104990001092070610920606DE011196EEEAF6E086
:1049A00086E001900D928150E1F7E981FA818081E2
:1049B0008E7F80830CC08091050690E08617970754
:1049C00031F082E090E090930706809306066093B2
:1049D000050627960FB6F894DEBF0FBECDBFCF9168
:1049E000DF9108958091050608951F920F920FB6EA
:1049F0000F9211242F933F938F939F93AF93BF9365
:104A0000EF93FF93DF93CF93CDB7DEB76597DEBF0C
:104A1000CDBF80910806909109061816190614F466
:104A200001973FC08091060690910706813091055D
:104A300019F580910A0690910B06019690930B064A
:104A400080930A0682E090E0909307068093060622
:104A500082E190E09093090680930806DE011196AA
:104A6000EEEAF6E086E001900D928150E1F7E981EF
:104A7000FA8180818E7F51C08230910579F58091D5
:104A8000050690E020910A0630910B062817390799
:104A90006CF083E090E0909307068093060680E533
:104AA00090E0909309068093080638C081E090E07A
:104AB000909307068093060682E190E090930906A2
:104AC00080930806DE011896EEEAF6E086E0019093
:104AD0000D928150E1F7E885F9851DC00397F1F447
:104AE00010920B0610920A0681E090E09093070660
:104AF0008093060682E190E0909309068093080671
:104B0000DE011F96EEEAF6E086E001900D928150FC
:104B1000E1F7EF85F8898081816080836596DEBF4B
:104B2000CDBFCF91DF91FF91EF91BF91AF919F9159
:104B30008F913F912F910F900FBE0F901F9018955E
:104B400081E995E00E94FF220895FC01E059FF4FA2
:104B500080819181A281B381805C9F4FAF4FBF4F15
:104B600080839183A283B3830E94F009882311F488
:104B70000E94000608951F920F920FB60F92112403
:104B80002F933F934F935F936F937F938F939F9355
:104B9000AF93BF93EF93FF9381E995E00E94A52522
:104BA000FF91EF91BF91AF919F918F917F916F9105
:104BB0005F914F913F912F910F900FBE0F901F90DB
:104BC0001895EF92FF920F931F93DF93CF93CDB77A
:104BD000DEB72E970FB6F894DEBF0FBECDBF7C01B7
:104BE0001092070610920606DE011896EEEAF6E02D
:104BF00086E001900D928150E1F7E885F98580818A
:104C00008E7F808310920506870101591F4FC801CE
:104C10000E946226C80161E00E949126C70160E0FF
:104C20000E942D27C701859661E00E942D27C701AC
:104C3000865B9F4F62E00E942D278CE096E061E04A
:104C40000E94DB278EE096E00E947B298AE596E0B1
:104C500061E00E94DB278CE596E00E947B291092A0
:104C6000800089E0809381001092820080E094E0CF
:104C7000909389008093880082E080936F00109267
:104C8000B00087E08093B10081E080937000DE0186
:104C90001196EEEAF6E086E001900D928150E1F780
:104CA000ED81FE818081816080832E960FB6F8941D
:104CB000DEBF0FBECDBFCF91DF911F910F91FF904F
:104CC000EF900895DF93CF93CDB7DEB72E970FB651
:104CD000F894DEBF0FBECDBFDE011196EAEBF6E021
:104CE00086E001900D928150E1F7ED81FE81808197
:104CF00080648083DE011896EAEBF6E086E001909E
:104D00000D928150E1F7E885F98580818F7B808362
:104D10002E960FB6F894DEBF0FBECDBFCF91DF91B8
:104D20000895DF93CF93CDB7DEB727970FB6F894EA
:104D3000DEBF0FBECDBFDE011196EAEBF6E086E0E6
:104D400001900D928150E1F7E981FA81908166230B
:104D500011F480E401C080E09F7B892B808327963B
:104D60000FB6F894DEBF0FBECDBFCF91DF9108958F
:104D7000FC0184A1882311F081E06827A081B18122
:104D80003C9181E090E0068002C0880F991F0A9450
:104D9000E2F7282F662309F480E020952323822B55
:104DA0008C930895FC01A781B0853C9181E090E04F
:104DB000058402C0880F991F0A94E2F7282F662302
:104DC00009F480E020952323822B8C930895FC0125
:104DD000A685B7853C9181E090E0048802C0880FE9
:104DE000991F0A94E2F7282F611180E02095232370
:104DF000822B8C930895DC015796ED91FC91589786
:104E0000808190E05B960C905B9702C095958795AA
:104E10000A94E2F7982F917093968C91882311F061
:104E200081E09827892F0895DC015E96ED91FC9131
:104E30005F97808190E092960C90929702C0959532
:104E400087950A94E2F7982F917093968C91882316
:104E500011F081E09827892F08950F931F93CF9326
:104E6000DF93EC01062FEC81FD81308141E050E0C1
:104E7000CA010E8002C0880F991F0A94E2F7282FFA
:104E800020952323282B2083EB85FC853081CA01C4
:104E90000D8402C0880F991F0A94E2F7282F2095ED
:104EA0002323282B2083EE85FF853081CA010C88BF
:104EB00002C0880F991F0A94E2F7282F2095232318
:104EC000282B2083EA89FB893081CA010C8802C023
:104ED000880F991F0A94E2F7282F20952323282B67
:104EE0002083E98DFA8D2081CA010B8C02C0880FC6
:104EF000991F0A94E2F7809582238083E8A1F9A1A3
:104F000080810AA002C0440F551F0A94E2F7409521
:104F10004823408382E090E062E00E940901182F5C
:104F200083E090E060E00E94090187FD02C031E06B
:104F300009C090E0002E02C0959587950A94E2F78B
:104F4000382F31703BA3812F90E002C09595879553
:104F50000A95E2F7817090708CA3ED89FE894081FB
:104F600081E090E00B8C02C0880F991F0A94E2F751
:104F7000282F332309F480E020952423822B80837B
:104F8000EC8DFD8D908121E030E00AA002C0220F5F
:104F9000331F0A94E2F7422F8BA1882311F0822F4E
:104FA00001C080E040954923842B8083DF91CF911D
:104FB0001F910F910895FC016183E081EE2361F45C
:104FC000662321F08091C100806C03C08091C100F4
:104FD0008F738093C1000895E13069F4662331F046
:104FE0008091C900806C8093C90008958091C900A8
:104FF0008F738093C90008951F920F920FB60F927E
:1050000011242F933F934F935F936F937F938F93CD
:105010009F93AF93BF93EF93FF938091A5069091D9
:10502000A606892B69F08091A5069091A6060497A3
:1050300039F082E896E00E942F2A8093CE0008C0C3
:105040008BB18F7C8BB98091C90080618093C9003E
:10505000FF91EF91BF91AF919F918F917F916F9150
:105060005F914F913F912F910F900FBE0F901F9026
:1050700018951F920F920FB60F9211242F933F9302
:105080004F935F936F937F938F939F93AF93BF9350
:10509000EF93FF938091570690915806892B61F00A
:1050A0008091570690915806049731F084E396E07A
:1050B0000E942F2A8093C600FF91EF91BF91AF917C
:1050C0009F918F917F916F915F914F913F912F9120
:1050D0000F900FBE0F901F901895CF93DF93EC01A8
:1050E00089818823B9F0CE0188960E942F2A982FB3
:1050F0008881882319F49093C6000CC0813051F444
:105100008BB180638BB98091C9008F7E8093C90079
:105110009093CE00DF91CF9108951F920F920FB61A
:105120000F9211242F933F934F935F936F937F932D
:105130008F939F93AF93BF93EF93FF936091CE00B4
:105140008CE596E00E948229FF91EF91BF91AF918B
:105150009F918F917F916F915F914F913F912F918F
:105160000F900FBE0F901F9018951F920F920FB6C1
:105170000F9211242F933F934F935F936F937F93DD
:105180008F939F93AF93BF93EF93FF936091C6006C
:105190008EE096E00E948229FF91EF91BF91AF913E
:1051A0009F918F917F916F915F914F913F912F913F
:1051B0000F900FBE0F901F9018950F931F938C01A7
:1051C000FC016083118202960E947429C8018896AE
:1051D0000E941F2AF8010081002371F41092C5007B
:1051E00089E18093C4001092C00088E18093C100DF
:1051F00086E08093C2001AC00130C1F41092CD0045
:1052000089E18093CC001092C80088E18093C900A6
:1052100086E08093CA008AB180638AB98BB18F7CA3
:105220008BB98091C90080618093C9001F910F9153
:1052300008958CE096E060E00E94DD288AE596E023
:1052400061E00E94DD28089582E290E09093A90633
:105250008093A80680E290E09093AB068093AA0624
:1052600081E290E09093AD068093AC0685E290E0F9
:105270009093AF068093AE0683E290E09093B106E0
:105280008093B00684E290E09093B3068093B206D8
:1052900088E290E09093B5068093B40686E290E0B1
:1052A0009093B7068093B60687E290E09093B90694
:1052B0008093B8068BE290E09093BB068093BA0689
:1052C00089E290E09093BD068093BC068AE290E06C
:1052D0009093BF068093BE060895FC011182108250
:1052E00012A214A213A20895FC011182108212A22C
:1052F00014A213A20895FC011182108212A214A21A
:1053000013A20895DC0193968D919C919497892B1B
:1053100091F4653D19F481E090E066C011961C920D
:1053200011971C9292961C92929794961C921E92A0
:10533000939781E020C093968D919C9194970197CB
:10534000E9F4603260F495966C93959795968C91FC
:105350009597882309F438C082E090E045C0119603
:105360001C9211971C9292961C92929794961C9262
:105370001E92939782E092968C93089593968D91C6
:105380009C919497029719F58C918032B8F41196FC
:105390008C911197862728E09CE880FB86950EF477
:1053A00089272A95D1F711968C9311978C91FD013D
:1053B000E80FF11D62838C918F5F8C939C91959681
:1053C0008C919597981718F183E090E00DC0939613
:1053D0008D919C9194970397D1F411968C9111978C
:1053E000861739F484E090E094969C938E9393977B
:1053F000089511961C9211971C9292961C92929766
:1054000094961C921E92939783E092968C930895A3
:10541000FC01E60FF11D82810895E62FF0E0DC012A
:10542000AE0FBF1F12962C913196E80FF91F4281E3
:10543000942F80E030E0282B392BC9010895FC011E
:105440001182108212A214A213A215A20895FC01C7
:105450001182108212A214A213A215A20895DC01D7
:1054600093968D919C919497892B41F481E090E0E3
:1054700094969C938E93939725ED35C093968D913A
:105480009C919497019739F42C918C918823B9F0D1
:1054900082E090E024C093968D919C91949702971E
:1054A00089F495968C919597FD01E80FF11D228165
:1054B0008F5F95968C9395979C918917A0F083E0C8
:1054C00090E00DC093968D919C919497039711F065
:1054D00020E009C011962C91119784E090E09496F9
:1054E0009C938E939397822F0895DC018C91803248
:1054F000B8F411968C911197862728E09CE880FBE0
:1055000086950EF489272A95D1F711968C931197D9
:105510008C91FD01E80FF11D62838C918F5F8C935C
:105520000895DC018C918032B8F411968C9111971A
:10553000862728E09CE880FB86950EF489272A952B
:10554000D1F711968C9311978C91FD01E80FF11D05
:1055500062838C918F5F8C938C918032B8F411961A
:105560008C911197872728E09CE880FB86950EF4A4
:1055700089272A95D1F711968C9311978C91FD016B
:10558000E80FF11D72838C918F5F8C930895EF92D9
:10559000FF920F931F93DC017A018B018C91803273
:1055A000B8F411968C911197842728E09CE880FB31
:1055B00086950EF489272A95D1F711968C93119729
:1055C0008C91FD01E80FF11D42838C918F5F8C93CC
:1055D0008C918032D8F45527412F302F2F2D1196E2
:1055E0008C911197822738E09CE880FB86950EF419
:1055F00089273A95D1F711968C9311978C91FD01DB
:10560000E80FF11D22838C918F5F8C938C918032F7
:10561000D0F498014427552711968C911197822731
:1056200038E09CE880FB86950EF489273A95D1F7FF
:1056300011968C9311978C91FD01E80FF11D228337
:105640008C918F5F8C938C918032D8F4212F3327EB
:105650004427552711968C911197822738E09CE8B2
:1056600080FB86950EF489273A95D1F711968C9395
:1056700011978C91FD01E80FF11D22838C918F5FB2
:105680008C931F910F91FF90EF900895629FD0012E
:10569000739FF001829FE00DF11D649FE00DF11DED
:1056A000929FF00D839FF00D749FF00D659FF00D9C
:1056B0009927729FB00DE11DF91F639FB00DE11D89
:1056C000F91FBD01CF0111240895AA1BBB1B51E195
:1056D00007C0AA1FBB1FA617B70710F0A61BB70B62
:1056E000881F991F5A95A9F780959095BC01CD0107
:1056F000089597FB092E07260AD077FD04D0E5DF31
:1057000006D000201AF4709561957F4F0895F6F742
:10571000909581959F4F0895A1E21A2EAA1BBB1B5D
:10572000FD010DC0AA1FBB1FEE1FFF1FA217B3076D
:10573000E407F50720F0A21BB30BE40BF50B661F83
:10574000771F881F991F1A9469F760957095809547
:1057500090959B01AC01BD01CF01089597FB092EE7
:1057600005260ED057FD04D0D7DF0AD0001C38F430
:1057700050954095309521953F4F4F4F5F4F08957D
:10578000F6F790958095709561957F4F8F4F9F4F5D
:1057900008952F923F924F925F926F927F928F92D5
:1057A0009F92AF92BF92CF92DF92EF92FF920F93B0
:1057B0001F93CF93DF93CDB7DEB7CA1BDB0B0FB6BA
:1057C000F894DEBF0FBECDBF09942A883988488877
:1057D0005F846E847D848C849B84AA84B984C8840D
:1057E000DF80EE80FD800C811B81AA81B981CE0F04
:1057F000D11D0FB6F894DEBF0FBECDBFED010895E9
:10580000EE0FFF1F0590F491E02D0994F894FFCF5F
:105810002F0001030507090E10121416181C1E0094
:00000001FF
