:100000000C9446000C946E000C946E000C946E00E0
:100010000C946E000C946E000C946E000C946E00A8
:100020000C946E000C946E000C946E000C943421B1
:100030000C946E000C94FA210C946E000C946E00DB
:100040000C946E000C946E000C946E000C946E0078
:100050000C9451240C946E000C94D5230C946E00D7
:100060000C946E000C946E000C946E000C946E0058
:100070000C9429240C946E000C94982310015E05B6
:100080009C08F50ADF21B524C024092511241FBED0
:10009000CFEFD0E1DEBFCDBF11E0A0E0B1E0E0E105
:1000A000F1E502C005900D92A031B107D9F716E035
:1000B000A0E1B1E001C01D92A23BB107E1F710E061
:1000C000CCE8D0E004C02297FE010E948228CC3701
:1000D000D107C9F70E94D8070C9486280C94000019
:1000E000FB01DC0102C001900D9241505040D8F755
:1000F0000895DC0101C06D9341505040E0F7089530
:10010000FC018191861721F08823D9F7992708955A
:100110003197CF010895FB01DC018D910190801989
:100120000110D9F3990B0895FB01DC0141505040B7
:1001300030F08D910190801919F40020B9F7881BD7
:10014000990B0895FB01DC014150504048F00190AB
:100150000D920020C9F701C01D9241505040E0F7B8
:100160000895FC0181E090E00190061609F4CF01AA
:100170000020D1F701970895A0E0B0E0E2ECF0E0B4
:100180000C9453287C01EB018A01690109C0CE015E
:100190002196F6010995F70181937F0101501040E6
:1001A00001151105A1F7CDB7DEB7E8E00C946F2873
:1001B000A0E0B0E0EEEDF0E00C945328EC017B0100
:1001C0008A01690109C0CE012196F70161917F0181
:1001D000F60109950150104001151105A1F7CDB7A1
:1001E000DEB7E8E00C946F2888E296E008958EE48C
:1001F00096E0089580911001882341F480911101C7
:10020000882321F481E080931101089580E008950E
:100210001092110108958091100191E089270895AD
:1002200082E191E00E9442070895809110018823A5
:1002300059F180914B0690914C06049719F4109255
:100240001001089580914A06882349F01092100108
:1002500083E695E063E070E00E942B21089582E13F
:1002600091E00E944907882379F088E296E00E9495
:10027000ED2584E080934A061092100183E695E014
:1002800061E070E00E942B2108950F931F9381E09D
:100290008093100182E191E040E553EC60E070E072
:1002A0000E94720708E216E0C8010E94FB25C801FF
:1002B00002970E9409241F910F910895FF920F93B6
:1002C0001F93DF93CF93CDB7DEB72C970FB6F8947B
:1002D000DEBF0FBECDBF8E010F5F1F4FC8010E9452
:1002E0004207C80140E45CE96FEF7FEF0E947207AC
:1002F000F02E012F8F2D902F0E944907882311F592
:10030000809110018823B1F780911101882391F722
:1003100019C080911001882311F481E007C08F2D4E
:10032000902F0E9449078823A1F380E02C960FB6F6
:10033000F894DEBF0FBECDBFCF91DF911F910F911B
:10034000FF9008951092100181E0809311018EE4D6
:1003500096E060E00E94F5268EE496E061E00E945F
:10036000F5260E9445018E01095F1F4FC8010E94BA
:100370004207C80140E45CE96FEF7FEF0E9472071B
:1003800010921101F02E012FCACF80912101089502
:1003900080912001089580912701089510922101F4
:1003A00080911E0190911F01009721F00E94601919
:1003B0000E94FC1C10921F0110921E010895809152
:1003C0002001882381F080911E0190911F010097E8
:1003D00021F00E9460190E94FC1C10921F011092D3
:1003E0001E01109220010E94FE0160912201709175
:1003F000230180912401909125010895809121018C
:10040000882311F00E94CE0180912001882311F0F1
:100410000E94DF0180911C0190911D01009731F035
:100420000E942C1210921D0110921C0180911A0141
:1004300090911B01009731F00E94C60D10921B0194
:1004400010921A018091180190911901009731F0D2
:100450000E94741A10921901109218010895809147
:100460001E0190911F0166E271E041E050E00E94A0
:100470006D0F10922701181619061CF481E0809365
:10048000270108951F93109126010E942F02812FAA
:100490001F910895CF93DF93EC0180911E019091FD
:1004A0001F010097E1F0BE016E5F7F4F488150E071
:1004B0000E94B71028818091220190912301A09180
:1004C0002401B0912501820F911DA11DB11D8093C2
:1004D000220190932301A0932401B0932501DF9181
:1004E000CF910895DF93CF93CDB7DEB7AB970FB61B
:1004F000F894DEBF0FBECDBFBC0180911C0190916E
:100500001D01AE014F5F5F4F0E94FC18811181E019
:10051000AB960FB6F894DEBF0FBECDBFCF91DF9183
:1005200008950F931F93CF93DF93EC018B010EC0BF
:10053000C801BE010E948B00009741F480911C010C
:1005400090911D010E94321281E009C080911C012E
:1005500090911D01B8010E941613882349F7DF917D
:10056000CF911F910F9108950F931F93DF93CF9316
:10057000CDB7DEB7AB970FB6F894DEBF0FBECDBFD9
:100580008E010F5F1F4FB8010E949102882341F036
:1005900080911A0190911B01B8010E943F1281E0E5
:1005A000AB960FB6F894DEBF0FBECDBFCF91DF91F3
:1005B0001F910F910895EF92FF920F931F93DF9376
:1005C000CF93CDB7DEB7AB970FB6F894DEBF0FBEB3
:1005D000CDBF7B018E010F5F1F4FB8010E949102BA
:1005E000882359F080911A0190911B01B8010E9453
:1005F000AD19F7019183808381E0AB960FB6F89433
:10060000DEBF0FBECDBFCF91DF911F910F91FF9045
:10061000EF900895DF92EF92FF920F931F93DF9375
:10062000CF93CDB7DEB7AB970FB6F894DEBF0FBE52
:10063000CDBF8C01D62E80911C0190911D017E01B1
:100640000894E11CF11CB7010E9416138823C9F01D
:10065000A0E0B0E08D2D90E00197B70105C0F80152
:10066000EA0FFB1F20831196A817B90734F4FB018A
:10067000EA0FFB1F2081222391F7A00FB11F1C92CC
:1006800002C0F801108280E090E0AB960FB6F894BB
:10069000DEBF0FBECDBFCF91DF911F910F91FF90B5
:1006A000EF90DF9008950F931F93DF93CF93CDB713
:1006B000DEB7AB970FB6F894DEBF0FBECDBF80910B
:1006C0001A0190911B0160E071E08E010F5F1F4FD6
:1006D000A8010E94E31980911A0190911B01B801B1
:1006E0000E94701990931D0180931C0120E0892BBA
:1006F00009F021E0822FAB960FB6F894DEBF0FBE53
:10070000CDBFCF91DF911F910F9108958091180176
:10071000909119010E94E91490931B0180931A0192
:1007200020E0892B09F021E0822F08950F9386E1C4
:100730009DE164ED7DE144E05CE12DE13FE100E01D
:100740000E947C1A9093190180931801892B79F4E7
:1007500086E19DE164ED7DE144E05CE12DE13FE176
:100760000FEF0E947C1A909319018093180120E0EA
:100770008091180190911901892B09F021E0822FB5
:100780000F9108950E94441E882371F40E94581B03
:10079000882329F40E94FE0121E030E029C00E9454
:1007A000FE0122E030E024C00E949603882329F451
:1007B0000E94FE0123E030E01BC00E9486038823D4
:1007C00029F40E94FE0124E030E012C00E9453038D
:1007D000882329F40E94FE0125E030E009C00E9430
:1007E0007C1B882319F420E030E002C026E030E0D2
:1007F000C90108950F931F93CF93DF938C010E943B
:10080000FE010E94C203EC010097D9F4109222016C
:1008100010922301109224011092250110921F01C1
:1008200010921E01C8016EE171E00E94DB02882374
:1008300031F080911E0190911F01892B41F4C7E096
:10084000D0E0CE01DF91CF911F910F91089581E00B
:10085000809321010E942F02F4CF0F931F93CF9317
:10086000DF93EC010E94FE010E94C2038C010097FD
:1008700069F5109222011092230110922401109226
:10088000250110921F0110921E01CE010E94B40298
:10089000CE010E947202882319F407E010E016C00E
:1008A000CE016EE171E00E94DB02882319F403E0BF
:1008B00010E00CC080911E0190911F01892B19F44A
:1008C00008E010E003C081E080932001C801DF91BF
:1008D000CF911F910F9108950E94FE010E94C203C3
:1008E0009C01009719F08630910541F480911C011C
:1008F00090911D010E94321220E030E0C90108955C
:10090000809128010895EF92FF920F931F93DF9338
:10091000CF93CDB7DEB761970FB6F894DEBF0FBEA9
:10092000CDBFBC011092280141E351E020E030E04E
:100930008BE1E82EF12C03E210E01E861F86188A58
:10094000198A1A861B861C861D861E821F8218869F
:1009500019861A821B821C821D822E9DF0012F9DFA
:10096000F00D3E9DF00D1124EF5CFE4F8981828FCA
:100970008A819B81AC81BD81868B978BA08FB18F43
:100980008E819F81A885B985828B938BA48BB58B33
:100990008A859B85AC85BD8586879787A08BB18B23
:1009A000DA011A961D921D921D921C921D971696A1
:1009B0001D921D921D921C9219978E859F85A88964
:1009C000B98982839383A483B583209FC001219F2B
:1009D000900D309F900D1124860F971FFA0191837F
:1009E00080832F5F3F4F455E5F4F2330310509F015
:1009F000A4CF61960FB6F894DEBF0FBECDBFCF91E6
:100A0000DF911F910F91FF90EF90089510922801B0
:100A10000895FC0180819181A281B381809333018B
:100A200090933401A0933501B09336018481958170
:100A3000A681B78180934E0190934F01A0935001FE
:100A4000B093510180859185A285B385809369011A
:100A500090936A01A0936B01B0936C010895EF929B
:100A6000FF920F931F93FC01809133019091340109
:100A7000A0913501B091360120914E0130914F0186
:100A80004091500150915101E0906901F0906A014C
:100A900000916B0110916C0180839183A283B383D9
:100AA0002483358346835783E086F1860287138744
:100AB000CF011F910F91FF90EF9008951092320196
:100AC0001092310110924D0110924C011092680168
:100AD0001092670108958F929F92AF92BF92CF922A
:100AE000DF92EF92FF920F931F93CF93DF9380914A
:100AF0002801882309F489C080912D0190912E014D
:100B0000A0912F01B09130010197A109B109809303
:100B10002D0190932E01A0932F01B09330010196E7
:100B2000A11DB11D0097A105B10519F4109228016E
:100B30006CC001E311E0EE24FF249BE1892E912C8F
:100B4000A0902901B0902A01C0902B01D0902C01D7
:100B5000E89CE001E99CD00DF89CD00D1124CF5CFD
:100B6000DE4F8A899B89AC89BD892E893F89488D52
:100B7000598D280F391F4A1F5B1F2A8B3B8B4C8BCB
:100B80005D8B8A899B89AC89BD89B7FD34C06A8D2C
:100B9000F801808191810E94E022F8018081918199
:100BA00061E00E94F5228A899B89AC89BD898A19F6
:100BB0009B09AC09BD098A8B9B8BAC8BBD8B8A8D45
:100BC000882341F08A819B81AC81BD810196A11D62
:100BD000B11D07C08A819B81AC81BD810197A109AC
:100BE000B1098A839B83AC83BD83F80180819181A5
:100BF00060E00E94F5220894E11CF11C055E1F4F85
:100C0000F3E0EF16F10409F09BCF80912801DF910A
:100C1000CF911F910F91FF90EF90DF90CF90BF90F9
:100C2000AF909F908F90089590E02BE130E0829FED
:100C3000F001839FF00D929FF00D1124EF5CFE4FA9
:100C4000808191810E940A2308953F924F925F9282
:100C50006F927F928F929F92AF92BF92CF92DF92CC
:100C6000EF92FF920F931F93DF93CF9300D000D0AA
:100C700000D0CDB7DEB749835A836B837C833C01B8
:100C800031E3832E31E0932EAA24BB2465011E821A
:100C90001D822BE1422E512C33243394F3018081A9
:100CA0009181A281B3812D813E81249DF001259DFA
:100CB000F00D349DF00D1124EF5CFE4F8687978771
:100CC000A08BB18B86859785A089B18922813381DC
:100CD00044815581821B930BA40BB50B868B978B9C
:100CE000A08FB18F328E86899789A08DB18D0097A4
:100CF000A105B10531F0F4018081918161E00E948C
:100D00000A232D813E81249DF001259DF00D349D07
:100D1000F00D1124EF5CFE4F86899789A08DB18D6F
:100D2000B7FF10C086899789A08DB18DB095A09529
:100D3000909581959F4FAF4FBF4F868B978BA08F1C
:100D4000B18F128E8D819E81849DF001859DF00D65
:100D5000949DF00D1124EF5CFE4FE688F788008D1E
:100D6000118D029759F4809167019091680160E0BC
:100D7000E114F1040105110551F008C0E114F1047A
:100D80000105110531F0F4018081918161E00E943B
:100D90000A23AE14BF04C006D10614F4570168013B
:100DA0002D813E812F5F3F4F3E832D8384E090E075
:100DB000680E791EEBE1F0E08E0E9F1E23303105A8
:100DC00009F06CCFC601B50129813A814B815C8164
:100DD0000E94C62720E430E040E050E00E942E2828
:100DE000B901CA016093290170932A0180932B01F4
:100DF00090932C0160932D0170932E0180932F010D
:100E00009093300122E030E040E050E00E942E2834
:100E100050954095309521953F4F4F4F5F4F209310
:100E20004301309344014093450150934601209380
:100E30005E0130935F014093600150936101209304
:100E4000790130937A0140937B0150937C0181E0DA
:100E50008093280126960FB6F894DEBF0FBECDBF53
:100E6000CF91DF911F910F91FF90EF90DF90CF9086
:100E7000BF90AF909F908F907F906F905F904F90BA
:100E80003F900895FC01108211820895FC011082A8
:100E90000895EF92FF920F931F93CF93DF93EC018E
:100EA00088818823B9F089818823A1F4EA80FB80B6
:100EB0000C811D8183E695E00E941E21E61AF70A47
:100EC000080B190B1E141F04100611061CF01882C3
:100ED00081E089838981DF91CF911F910F91FF90EC
:100EE000EF900895CF92DF92EF92FF920F931F93AE
:100EF0008C016A017B0181E0F8018083118283E625
:100F000095E00E941E216C0D7D1D8E1D9F1DF80118
:100F100062837383848395831F910F91FF90EF9079
:100F2000DF90CF900895FF920F931F93DF93CF939D
:100F300000D000D000D0CDB7DEB7F8940E94FE01FB
:100F40000E9406050E9431080E945E018823F9F480
:100F50008CEC95E060E00E94B9228E010F5F1F4F7C
:100F6000C8010E944207C80140EE53E96FEF7FEFCE
:100F70000E947207F02E012F8F2D902F0E9449079B
:100F80008823D1F38CEC95E060E00E94B92283E6DF
:100F900095E00E942022789426960FB6F894DEBF42
:100FA0000FBECDBFCF91DF911F910F91FF9008959C
:100FB00083E695E00E9483040E94930778940E9440
:100FC00015010E944C0D0E94B908F9CFF894809148
:100FD0008402909185022091820230918302281B25
:100FE000390B7894C901089580938C0208958091FB
:100FF0008C020895809184029091850220E0892BD3
:1010000009F421E0822F0895482F80918402909165
:101010008502609182027091830286179707E8F437
:1010200020918402309185028091860290918702FE
:10103000820F931F0E94E527E0918802F0918902B8
:10104000E80FF91F408380918402909185020196F8
:101050009093850280938402089581E080938A02B0
:101060000895109285021092840210928A021092C2
:101070008B0210928E0210928D020895CF93DF930F
:10108000EC018A819B81892B21F481E0898780E0B2
:1010900019C08C819D8128813981B9010E94E52781
:1010A000EE81FF81E80FF91F8C819D810196B901C6
:1010B0000E94E5279D838C838A819B8101979B8376
:1010C0008A838081DF91CF910895DF92EF92FF9222
:1010D0000F931F9302E812E0C8010E943E08D82E29
:1010E000C8010E943E08E82EC8010E943E08F82E62
:1010F000C8010E943E08982F6D2D7E2D8F2D1F91C7
:101100000F91FF90EF90DF900895FF920F931F9340
:1011100002E812E0C8010E943E08F82EC8010E94B1
:101120003E08982F8F2D1F910F91FF90089582E810
:1011300092E00E943E08089580E091E0909383023F
:10114000809382021092850210928402109287028C
:101150001092860282E891E090938902809388023F
:1011600010928A0210928B028FE892E00E9442074E
:1011700008956F927F928F929F92AF92BF92CF927B
:10118000DF92EF92FF920F931F93DF93CF93CDB730
:10119000DEB768970FB6F894DEBF0FBECDBF0E94D2
:1011A000C501882309F53FC0209184023091850252
:1011B0008091860290918702820F931F0E94E527FB
:1011C000E0918802F0918902E80FF91F4083809135
:1011D0008402909185020196909385028093840207
:1011E00004C010938A0201C011E020918402309162
:1011F000850280918202909183028217930799F071
:101200000E94CB01882379F00E944202482F8091EE
:101210008402909185026091820270918302861708
:10122000970710F2DECF80918C02882309F0B3C1BA
:1012300080918D0290918E02019741F40E9480046A
:10124000882321F410928E0210928D0280918D02DB
:1012500090918E02029751F48FE892E00E94490724
:10126000882321F010928E0210928D0280918D02BF
:1012700090918E02039771F50E94FA00882351F134
:101280000E94F7008C010E94F4007C01C8010E94BA
:10129000A726C80160E00E94F526C80166E10E9409
:1012A000F5260E94450102C00E9415010E940B0113
:1012B0008823D1F3F70182A1882351F4C70161E0AB
:1012C0000E948826882321F010928E0210928D02AF
:1012D0000E94080180918D0290918E02892B09F065
:1012E0005AC18091840290918502892B09F453C1DF
:1012F0008091860290918702E0908202F0908302B2
:101300000091880210918902B7010E94E527F80137
:10131000E80FF91FE081E13891F580918402909106
:101320008502419708F437C182E892E00E943E08A6
:1013300081E090E090938E0280938D020E94650878
:101340003B014C010E9465085B016C010E9465082D
:101350007B018C010E946508AB01BC0169827A8225
:101360008B829C82AD82BE82CF82D886E986FA8645
:101370000B871C87CE0101960E9425060CC1E6381A
:1013800081F48091840290918502029708F403C150
:1013900082E892E00E943E0882E892E00E943E08C5
:1013A000FAC0E93851F58091840290918502029744
:1013B00008F4F1C082E892E00E943E0882E892E0E0
:1013C0000E943E08D82EDD1CDD24DD1C00E010E06C
:1013D000E82EFF24C701002E02C0959587950A9438
:1013E000E2F780FF04C0802F6D2D0E9414060F5F6E
:1013F0001F4F0330110571F7CEC0E23831F58091EF
:101400008402909185020D9708F4C5C082E892E0AD
:101410000E943E080E9465085B016C010E946508FD
:101420007B018C010E946508AD86BE86CF86D88A76
:10143000E98AFA8A0B8B1C8B6D8B7E8B8F8B988F36
:10144000CE010D960E940905A6C0E53801F58091F0
:10145000840290918502059708F49DC082E090E097
:1014600090938E0280938D0282E892E00E943E0863
:101470000E94650828EE33E040E050E00E94C62755
:10148000AB01BC018FE892E00E94720784C0E33890
:1014900011F0E43881F480918402909185020897DC
:1014A00008F479C082E892E00E943E080E94970802
:1014B0000E94650819C0E738D1F4809184029091A8
:1014C0008502069708F467C083E090E090938E024F
:1014D00080938D0282E892E00E943E0882E892E0CA
:1014E0000E943E080E9485080E94850854C0E83882
:1014F00009F051C08091840290918502049708F40C
:101500004AC0809186029091870220918402309196
:1015100085020396B7010E94E527080F191FF801FD
:10152000808190E0049628173907A8F10E94FA00FC
:10153000882389F10E94F7007C010E94A72682E897
:1015400092E00E943E0882E892E00E943E08682FE6
:10155000C7010E94F52682E892E00E943E08682FAB
:10156000C7010E94F5260E949708C82EDD2400E0DE
:1015700010E00AC082E892E00E943E08682FC7018E
:101580000E94F5260F5F1F4F0C151D059CF30E944E
:1015900045010E94080168960FB6F894DEBF0FBEA1
:1015A000CDBFCF91DF911F910F91FF90EF90DF9012
:1015B000CF90BF90AF909F908F907F906F90089545
:1015C0009C01F999FECF32BD21BDF89A80B50895EE
:1015D0009C01F999FECF1FBA32BD21BD60BD0FB687
:1015E000F894FA9AF99A0FBE089585E992E00E945C
:1015F000420708956F927F928F929F92AF92BF920F
:10160000CF92DF92EF92FF920F931F93DF93CF93CE
:10161000CDB7DEB7C154D0400FB6F894DEBF0FBED1
:10162000CDBF7C015B01FC018081882309F4D0C11E
:101630003701C70160E00E94882687FDC9C18A3052
:1016400009F4D9C08B3090F4833081F1843028F4D0
:10165000813061F1823068F51FC0873039F1883000
:1016600009F4C0C0843009F0B3C12DC08E3009F434
:101670004BC08F3038F48C3009F449C18D3008F0FC
:101680006CC130C1803109F454C0803108F445C0C8
:10169000823109F09DC173C0C50161E00E94F52649
:1016A000C50168EC70E00E94112790C10E94930769
:1016B0009FC0C50161E00E94F5260E94E607AC01CB
:1016C00060E070E032C0F894CE0107960E942F05CA
:1016D000C50161E00E94F5264F81588569857A85AC
:1016E000C5010E9447274B855C856D857E85C501B8
:1016F0000E9447274F85588969897A89C5010E94C8
:101700004727C50160E0FFC0C50161E00E94F526E2
:10171000C70103960E942D042FC0C50161E00E94FD
:10172000F5260E94DF01AB01BC01C5010E944727DD
:101730004DC1C50161E00E94F52693E2C92ED12C6E
:10174000CC0EDD1E01E010E009C0C301602F0E9435
:101750008826F60181936F010F5F1F4FF70180818B
:1017600090E0081719078CF3FE01EF5BFF4F108222
:10177000CE0183960E94FA03682FC50125C1C501D9
:1017800061E00E94F526C70161E00E948826882357
:1017900049F00E946C04BC01009721F0C5010E9431
:1017A000F5261DC08E010D5D1F4FC8016FE10E941F
:1017B0000A03682FC5010E94F5268FE1E82EF12C5F
:1017C000E00EF11E08C0C5010E94F5260F5F1F4FF5
:1017D0000E151F0521F0F80160816623A1F7C501F0
:1017E00060E0F2C00E94F70791E089270E94F407A9
:1017F000C50161E0E9C0F7018081823048F4C5018C
:1018000060E00E94F52683E695E068E070E01EC087
:101810008E010F5F1F4FC8010E944207C80142E3BB
:1018200050E060E070E00E947207D02E012F11C0DE
:101830008D2D902F0E944907882359F0C50167E03C
:101840000E94F52683E695E062E070E00E942B217D
:10185000BDC00E94FA00882359F30E94F7004C0192
:101860000E94F4006C01C4010E94A72601E010E070
:101870000AC0C301602F0E948826682FC4010E94FD
:10188000F5260F5F1F4FF701808190E008171907B9
:1018900084F30E94450102C00E9415010E940B01C1
:1018A0008823D1F3F60182A1843021F0760100E093
:1018B00010E00FC0C50167E00E94F52610C0C70107
:1018C000602F0E948826682FC5010E94F5260F5FB1
:1018D0001F4FF601808190E00817190784F30E94DA
:1018E000080174C0C50161E00E94F526F8940E94C9
:1018F0008004882309F083C00E94FA07882309F432
:101900007EC061E0C5010E94F52678945FC0C701E2
:1019100061E00E948D266C01C70163E00E94882669
:10192000E82EFF248E010D5E1F4FC801B601A701EE
:1019300020EE3AE00E94BC00C50161E00E94F5265D
:10194000E00EF11E06C0C501F80161918F010E94F1
:10195000F5260E151F05B9F739C0C70161E00E94D1
:101960008D26C82E992EC70163E00E948826D82EA6
:101970008E010D5E1F4FC8016C2D792D4D2D50E04D
:1019800020EE3AE00E94BC00780114E00D2D0C5FBF
:1019900008C0C301612F0E948826F70181937F014F
:1019A0001F5F1017B1F78C2D992DBE016D5E7F4F13
:1019B0004D2D50E028EE3AE00E94D800C50161E0CC
:1019C0000E94F526C5016D2D0E94F52681E001C01B
:1019D00080E0CF5BDF4F0FB6F894DEBF0FBECDBF08
:1019E000CF91DF911F910F91FF90EF90DF90CF90FB
:1019F000BF90AF909F908F907F906F90089560E020
:101A000081CFCF92DF92EF92FF920F931F93CF93EC
:101A1000DF93EC017B0188818823A1F16E01CE0167
:101A200060E00E94882687FF2DC00E94C80188239D
:101A300041F0CE010E944A02C70161E00E94F526F2
:101A40001FC0F89418810E94E607212F30E082170A
:101A5000930788F0C0E0D0E0890107C0C6016C2F71
:101A60000E9488260E9404082196C017D107B4F36B
:101A7000C70161E002C0C70162E00E94F5267894C8
:101A800081E001C080E0DF91CF911F910F91FF9025
:101A9000EF90DF90CF9008958091230690912406D7
:101AA000892B09F46AC0809123069091240604973B
:101AB00009F06BC062C08091FD059091FE0504970E
:101AC000D1F080919502882349F485E992E040E2C3
:101AD0005EE460E070E00E9472070DC085E992E06C
:101AE0000E944907882339F08AED95E00E94ED2590
:101AF00084E08093FC058091FC05882351F083E607
:101B000095E064E070E00E942B218AED95E00E9450
:101B1000FB258091FD059091FE050497B1F585E9BF
:101B200092E00E94460780E096E00E94A7268AED98
:101B300095E060E076E00E940E258823A9F48AED06
:101B400095E060E076E00E94010D882369F48AED5B
:101B500095E060E076E00E94FA0A882329F480E0AC
:101B600096E065E00E94F5268AED95E00E94FB254F
:101B700088ED95E00E94092408958091FD059091DB
:101B8000FE05892B09F4B7CF96CF0895FC01009785
:101B900011F0118210820895DF93CF9300D0CDB75A
:101BA000DEB7DC01009781F16230710568F1ED91DB
:101BB000FC911197660F771F80E090E016962D91AB
:101BC0003D914D915C911997620F731F841F951F72
:101BD0000190F081E02DAE014F5F5F4F22E030E0D9
:101BE0000995882389F029813A812115310571F001
:101BF0008FEF273F380741F0C9014096079720F043
:101C00008FEF283F380710F020E030E0C9010F9037
:101C10000F90CF91DF9108954F925F926F927F92D4
:101C20008F929F92AF92BF92CF92DF92EF92FF92EC
:101C30000F931F93DF93CF9300D0CDB7DEB75C0136
:101C4000009709F449C06230710508F445C0DC0111
:101C500016966D907D908D909C9019972E0108940A
:101C6000411C511C660F771F7B0100E010E0E60C61
:101C7000F71C081D191DD501ED91FC910190F08113
:101C8000E02DC801B701A20122E030E009958823C8
:101C900019F1C980DA80C114D10401F1C60140965E
:101CA0000897D0F0B8EFCB16BFEFDB0610F0CC24CE
:101CB000DD241A821982D501ED91FC910480F58111
:101CC000E02DC801B701A20122E030E00995B6017C
:101CD000C114D10439F602C080E001C081E00F9048
:101CE0000F90CF91DF911F910F91FF90EF90DF90B8
:101CF000CF90BF90AF909F908F907F906F905F90AC
:101D00004F9008952F923F924F925F926F927F92E1
:101D10008F929F92AF92BF92CF92DF92EF92FF92FB
:101D20000F931F93DF93CF93CDB7DEB72C970FB6EA
:101D3000F894DEBF0FBECDBF4C011B01CA01811458
:101D4000910409F4ABC0D401ED91FC91119720816D
:101D500031813C872B87448155815A874987169664
:101D60002D913D914D915C9119972D833E834F8329
:101D700058875A96AD90BC905B971A962D913D91DD
:101D80004D915C911D9756954795379527953C83C6
:101D90002B835B961C921E925A973C012901CC24FE
:101DA000DD2454C0B2E0AB16B10428F0EB81FC8115
:101DB000AE16BF0618F042E0A42EB12CC501880F64
:101DC000991F7C0100E010E02D813E814F815885F4
:101DD000E20EF31E041F151FC801B701AE014F5FCD
:101DE0005F4F22E030E0AB85BC85FD01099588237B
:101DF00009F454C089819A81892B11F56114710409
:101E000021F4F401B38EA28E27C0C114D10429F4A9
:101E10002FEF3FEF3A83298302C0DA82C982C801DB
:101E2000B701AE014F5F5F4F22E030E0A985BA8570
:101E3000FD010995882371F1089461087108650115
:101E40000894410851080894A11CB11C4114510484
:101E500009F0A8CF6728F1F4B2E02B16310400F1A5
:101E6000C982DA82220C331CB10180E090E02D811E
:101E70003E814F815885620F731F841F951FAE01ED
:101E80004F5F5F4F22E030E0A985BA85FD010995DB
:101E9000882331F4C401B6010E940C0ECC24DD2449
:101EA000C6012C960FB6F894DEBF0FBECDBFCF9102
:101EB000DF911F910F91FF90EF90DF90CF90BF9037
:101EC000AF909F908F907F906F905F904F903F90DA
:101ED0002F90089580E190E008952F923F924F92C5
:101EE0005F926F927F928F929F92AF92BF92CF92AA
:101EF000DF92EF92FF920F931F93DF93CF93CDB7B3
:101F0000DEB72A970FB6F894DEBF0FBECDBF2C0107
:101F10007A8369835C834B83009709F409C1672B3B
:101F200009F406C1452B09F403C1DC019D96AD906F
:101F3000BD90CD90DC90D09795962D913D914D918F
:101F40005C919897EB81FC81CF01A0E0B0E08A0D15
:101F50009B1DAC1DBD1D281739074A075B0740F4C0
:101F6000B9016A197B097C836B83672B09F4E3C091
:101F7000D201ED91FC91119720883188D196ED9195
:101F8000FC91D297FA87E987EF2BF1F593962D9183
:101F90003C9194973A872987232B39F4A114B104F3
:101FA000C104D10409F4C7C0C3C0A114B104C10461
:101FB000D10451F1860175013101882499246627E5
:101FC0007727CB0166197709880999096D837E8384
:101FD0008F83988714C0D2018D919C9169857A85F1
:101FE0000E94CC0D9A878987892B09F4A1C06D8145
:101FF0007E818F819885E60EF71E081F191FE61453
:10200000F7040805190538F7089421083108A220BB
:10201000B3200894211C311CCB80DC80D201ED90D0
:10202000FC90E114F10409F1E985FA85E230F1054B
:10203000E0F03297BF0180E090E03296FA87E987BE
:10204000D70150962D913C91519740E050E00E946D
:10205000C6279B01AC01F70182899389A489B589C0
:10206000280F391F4A1F5B1F04C020E030E040E00A
:1020700050E081010A191B09C016D10608F4860137
:10208000D701ED91FC91C501A0E0B0E0280F391F08
:102090004A1F5B1F0190F081E02DCA01B9014981FF
:1020A0005A8198010995882341F1C01AD10AC801C3
:1020B000A0E0B0E0F20125A536A547A550A9280F5C
:1020C000391F4A1F5B1FD2019D962D933D934D935F
:1020D0005C93D097C8018A0D9B1D82159305A0F0D3
:1020E0008D919C9169857A850E94CC0D9A8789870C
:1020F000892B41F4F20112AA11AA4B815C814C197F
:102100005D091BC0AA24BB24E985FA85D201D296B9
:10211000FC93EE93D197C114D10439F029813A810F
:10212000200F311F3A83298379CF4B815C8105C011
:102130004FEF5FEF02C040E050E0CA012A960FB6B1
:10214000F894DEBF0FBECDBFCF91DF911F910F91ED
:10215000FF90EF90DF90CF90BF90AF909F908F90C7
:102160007F906F905F904F903F902F9008952F92A7
:102170003F924F925F926F927F928F929F92AF9217
:10218000BF92CF92DF92EF92FF920F931F93DF9354
:10219000CF9300D000D000D0CDB7DEB76C017A83EA
:1021A00069835C834B83009709F43AC1672B09F478
:1021B00037C1452B09F434C1DC019D968D909D906B
:1021C000AD90BC90D09795968D919D910D90BC91BE
:1021D000A02D88159905AA05BB0508F421C1D601D3
:1021E000ED91FC91119720883188D1962D913C91E9
:1021F000D2973E832D83232B09F057C093968D9160
:102200009C9194979E838D83892BB9F481149104BA
:10221000A104B10409F004C1CF0160E070E041E025
:1022200050E00E94820E9E838D83D60194969C93EB
:102230008E939397892B09F4F3C0F601E5A4F6A4D5
:1022400007A510A9E114F1040105110531F52DC010
:10225000E418F50806091709D6018D919C916D8146
:102260007E810E94CC0D009719F09E838D8318C04B
:10227000E114F1040105110509F0D2C0F6018081D5
:1022800091816D817E8141E050E00E94820E009735
:1022900009F4C6C09E838D8303C021016624772480
:1022A000E414F5040605170598F60894210831088A
:1022B000822093200894211C311CAB80BC80D60165
:1022C000ED90FC90E114F10409F1ED81FE81E23022
:1022D000F105E0F03297BF0180E090E03296FE8396
:1022E000ED83D70150962D913C91519740E050E0FD
:1022F0000E94C6279B01AC01F70182899389A489BA
:10230000B589280F391F4A1F5B1F04C020E030E049
:1023100040E050E0810108191909A016B10608F43F
:102320008501D701ED91FC91C401A0E0B0E0280F38
:10233000391F4A1F5B1F0480F581E02DCA01B901D6
:1023400049815A8198010995882309F44DC0A01A42
:10235000B10AC801A0E0B0E0F60125A536A547A561
:1023600050A9280F391F4A1F5B1FD6019D962D9338
:102370003D934D935C93D097C801880D991D8215AC
:10238000930518F18D919C916D817E810E94CC0DF9
:10239000009719F09E838D8316C0A114B10459F0E3
:1023A000F601808191816D817E8141E050E00E9443
:1023B000820E009731F4D601D2961C921E92D197CC
:1023C00013C09E838D83882499242D813E81F6013C
:1023D00032AB21ABA114B10439F089819A81800F0D
:1023E000911F9A8389836BCFD6019D962D913D9144
:1023F0004D915C91D09795968D919D910D90BC914A
:10240000A02D82179307A407B50728F4F60125A38A
:1024100036A347A350A74B815C814A195B0902C0D0
:102420004FEF5FEFCA0126960FB6F894DEBF0FBEDE
:10243000CDBFCF91DF911F910F91FF90EF90DF9073
:10244000CF90BF90AF909F908F907F906F905F9054
:102450004F903F902F900895FC01009711F011824A
:1024600010820895FC01009711F480E0089583A183
:1024700094A196A785A710AA17A681E008957F9238
:102480008F929F92AF92BF92CF92DF92EF92FF9284
:102490000F931F93DF93CF93CDB7DEB72C970FB673
:1024A000F894DEBF0FBECDBF6C015B01009709F44D
:1024B0004EC06115710509F44AC0DB019796ED9095
:1024C000FD900D911C919A97E114F10401051105FD
:1024D000F1F14E010894811C911C75EE772ED60106
:1024E000ED91FC910190F081E02DC801B701A401AC
:1024F0002CE030E00995882351F17982D601ED91E5
:10250000FC910480F581E02DC801B701A4012CE005
:1025100030E009958823D9F08C858F3049F480E22A
:1025200090E0A0E0B0E0E80EF91E0A1F1B1FD7CF15
:10253000D50191966D917C9192976115710529F065
:10254000C6010E940C0E882319F081E001C080E0D2
:102550002C960FB6F894DEBF0FBECDBFCF91DF91A2
:102560001F910F91FF90EF90DF90CF90BF90AF90B1
:102570009F908F907F900895CF92DF92EF92FF927D
:102580000F931F93DF93CF93CDB7DEB760970FB64E
:10259000F894DEBF0FBECDBF8C016230710510F420
:1025A00080E035C0009729F440E050E060E070E042
:1025B00016C06250704080E090E0F80120893189B7
:1025C00040E050E00E94C627AB01BC01F8018289BF
:1025D0009389A489B589480F591F6A1F7B1FDE01A3
:1025E000119680E1FD0111928A95E9F7F801808149
:1025F000918120893189FC01C680D780CB01BA0145
:10260000AD010AE61FE0EE24FF24F601099560966D
:102610000FB6F894DEBF0FBECDBFCF91DF911F91F3
:102620000F91FF90EF90DF90CF9008952F923F92FF
:102630004F925F926F927F928F929F92AF92BF92D2
:10264000CF92DF92EF92FF920F931F93DF93CF937E
:10265000CDB7DEB7A6970FB6F894DEBF0FBECDBFDD
:102660002C01009709F4A5C06115710509F4A1C0FA
:10267000DC018D909C901197F401208831889D9603
:10268000AD90BC909E979F966D907C90D097FE01E8
:10269000319686E0DF011D928A95E9F7A114B10415
:1026A00009F076C0F4012288338886899789281A30
:1026B000390A6EC0730100E010E0A114B10441F4C6
:1026C000D40156966D917D918D919C9159972DC015
:1026D0008114910421F1B2E0AB16B10400F1EEEFE8
:1026E000FFEFAE0EBF1EB50180E090E022E030E0CB
:1026F000A20EB31ED40150962D913C91519740E00B
:1027000050E00E94C6279B01AC01F40182899389A5
:10271000A489B589280F391F4A1F5B1F04C020E018
:1027200030E040E050E0CA01B9016E0D7F1D801F0E
:10273000911F1C821B82D401ED91FC91810106192D
:1027400017090280F381E02DAE01495F5F4F20E25F
:1027500030E0A3EFEA2EA3E1FA2E6E010894C11C2B
:10276000D11C0995882329F18B819C81680E791EE3
:102770006214730478F0C401B5010E94CC0D5C01B1
:1027800066247724009731F4F201A3A0B4A006C018
:102790007A8369838E81882309F48CCFD2019E9637
:1027A000BC92AE929D97D0967C926E929F978E81AE
:1027B00001C080E0A6960FB6F894DEBF0FBECDBF75
:1027C000CF91DF911F910F91FF90EF90DF90CF900D
:1027D000BF90AF909F908F907F906F905F904F9041
:1027E0003F902F900895CF92DF92EF92FF920F9338
:1027F0001F93CF93DF938C016A017B01A901D9015B
:10280000CD91DC91119712968D919C9113978096A2
:1028100013969C938E931297F8019081953E11F038
:10282000992321F4DA0114961C92C9C0F80183851A
:102830008F30E1F5D90114969C91992319F0858583
:10284000981771F08BE2FE0111928A95E9F7D80191
:102850001D968C91FA018483CFA2D8A6E9A6FAA688
:10286000D8018C9190E08F7390702DE030E0829FC2
:10287000A001839F500D929F500D11244D50504048
:10288000A2E0B1E0C40FD51F0DC08D91F801E80F93
:10289000F11D808189934F5F5F4FE1E0AF30BE074C
:1028A00009F48DC04F31510580F389C08881882398
:1028B000D1F0D90114966C91F801A1E0892F90E034
:1028C0009C01359527959695982F882797958795FC
:1028D000982F922B8181980FAF5F3196AB3071F7B3
:1028E000691709F457C08BE2FE0111928A95E9F746
:1028F000CFA2D8A6E9A6FAA6B801DE01780120E0A9
:10290000F70190819032A1F09C93F801848583FFB8
:1029100008C0F7018081813420F08B3510F4905E7F
:102920009C932F5F0894E11CF11C1196283041F70D
:102930008881853011F485EE8883D80118968C91B2
:10294000803221F1FE01E20FF11D8EE28083322FF1
:102950003F5F2C5FFB0190859032B9F0FE01E30FE1
:10296000F11D9083D8011C968C9184FF09C0DB0176
:1029700018968C91813420F08B3510F4905E908302
:102980003F5F6F5F7F4F321729F7232FFE01E20F62
:10299000F11D1082F801838588A3828D938D9AA3FF
:1029A00089A3848D958DA68DB78D8BA39CA3ADA394
:1029B000BEA381E0DA0115968C9380E001C081E02E
:1029C000DF91CF911F910F91FF90EF90DF90CF900B
:1029D00008952F923F924F925F926F927F928F92C3
:1029E0009F92AF92BF92CF92DF92EF92FF920F939E
:1029F0001F93DF93CF93CDB7DEB7A8970FB6F894A8
:102A0000DEBF0FBECDBF98A78FA3009709F45CC1AE
:102A1000DC0114968D919C911597892B09F454C172
:102A200016968D919C911797892B09F44DC168C119
:102A3000E0E3F3E08CE1DF011D928A95E9F7EFA175
:102A4000F8A5F0933103E09330032184328443846A
:102A50005484A9E0220C331C441C551CAA95D1F7C0
:102A6000C201B101655F7F4F8F4F9F4F0190F08191
:102A7000E02DAE014F5F5F4F29E130E009958823DB
:102A800009F445C1E981FA81FBA3EAA32C813D81C8
:102A9000FB81FCA34E818F8198859EA38DA3E98540
:102AA000FA856C857D856E887F88888C998C611409
:102AB00071048104910431F4309709F428C13F0175
:102AC000882499246115710509F421C1C901A0E088
:102AD000B0E08A8F9B8FAC8FBD8F80E090E0242F79
:102AE00030E040E050E00E94C6276E8F7F8F88A3C1
:102AF00099A3840173012A8D3B8D4C8D5D8DE21A63
:102B0000F30A040B150BE61AF70A080B190B8AA136
:102B10009BA101972DA13EA1F5E0220F331FFA954D
:102B2000E1F7820F931F6AA17BA10E94E52780E055
:102B300090E0E61AF70A080B190B8CA1282F30E059
:102B400040E050E0C801B7010E940C2879018A01D9
:102B500095EFE9169FE0F90690E0090790E0190764
:102B600008F4D5C0A5EFEA16AFEFFA06A0E00A0711
:102B7000A0E01A0728F486E0EFA1F8A5808705C039
:102B80008BE0AFA1B8A518968C9388E1E2E3F3E05F
:102B9000DF011D928A95E9F7EAA1FBA15F01CC2430
:102BA000DD24C401B301A60195010E94C6276093EC
:102BB0003203709333038093340390933503C6013B
:102BC000B5012A8D3B8D4C8D5D8D0E94C627260E4A
:102BD000371E481E591E209236033092370340920A
:102BE000380350923903AFA1B8A518968C9186305E
:102BF00029F064E070E080E090E004C062E070E002
:102C000080E090E022E030E040E050E0E20EF31E91
:102C1000041F151FA80197010E94C62760933A035D
:102C200070933B0380933C0390933D034AA15BA1C7
:102C300050933F0340933E035CA1852F90E0DC015D
:102C4000EAA1FBA1AE9FC001AF9F900DBE9F900D6A
:102C5000112490934103809340036E8D7F8D88A152
:102C600099A1A60195010E94C627209136033091B3
:102C700037034091380350913903620F731F841F4B
:102C8000951F609346037093470380934803909386
:102C90004903ADA1BEA19D0140E050E0E5E0220F57
:102CA000331F441F551FEA95D1F7620F731F841F0E
:102CB000951F609342037093430380934403909362
:102CC000450320E333E002C020E030E0C901A896CC
:102CD0000FB6F894DEBF0FBECDBFCF91DF911F912D
:102CE0000F91FF90EF90DF90CF90BF90AF909F90AB
:102CF0008F907F906F905F904F903F902F900895AE
:102D00008091300390913103892BF1F691CE10928E
:102D1000310310923003D8CF2F923F924F925F929F
:102D20006F927F928F929F92AF92BF92CF92DF92DB
:102D3000EF92FF920F931F93DF93CF9300D00F92E8
:102D4000CDB7DEB71C019B01009709F4D2C0411535
:102D5000510509F4CEC0FA0101900020E9F7E41B07
:102D6000F50BCF010B966DE070E00E94E527862FF2
:102D70008F5F8B83D90193964D905C90949741140B
:102D8000510451F0AA24BB246501EE24FF248701DD
:102D90006624772443010BC0F101E688F788008D93
:102DA000118D6288738884889588570168011A821A
:102DB000E614F7040805190509F06EC04114510422
:102DC00009F497C0E114F1040105110589F1C1016D
:102DD000B2010E94CC0D009751F5C101B20141E052
:102DE00050E00E94820E8C01009709F482C00250CC
:102DF0001040B80180E090E00E5F1F4FD101509667
:102E00002D913C91519740E050E00E94C6275B0114
:102E10006C01F10182899389A489B589A80EB91E34
:102E2000CA1EDB1EC101B8010E94BC1265C02C0184
:102E3000F2E04F16510420F4EE24FF2487011DC058
:102E40002EEF3FEF420E531EB20180E090E0A2E071
:102E5000B0E04A0E5B1EF1012089318940E050E06C
:102E60000E94C6277B018C01F10182899389A48984
:102E7000B589E80EF91E0A1F1B1FD10150968D91CE
:102E80009C9151973C01882499246E0C7F1C801ED4
:102E9000911E570168011A82D101ED91FC910190B8
:102EA000F081E02DC801B701AE014F5F5F4F21E017
:102EB00030E009958823E9F08981853E11F0882367
:102EC00079F4BA81BF5FBA83EB81BE17A8F480E2C0
:102ED00090E0A0E0B0E0E80EF91E0A1F1B1F68CFCB
:102EE00080E290E0A0E0B0E0E80EF91E0A1F1B1F90
:102EF0005CCFAA24BB246501B501C6010F900F90D9
:102F00000F90CF91DF911F910F91FF90EF90DF9085
:102F1000CF90BF90AF909F908F907F906F905F9079
:102F20004F903F902F9008953F924F925F926F92F3
:102F30007F928F929F92AF92BF92CF92DF92EF9249
:102F4000FF920F931F93DF93CF93CDB7DEB7A09778
:102F50000FB6F894DEBF0FBECDBFFC018B0100970A
:102F600009F431C16115710509F42DC10190F08199
:102F7000E02D44805580DB019796AD90BD90CD90BB
:102F8000DC909A97E62E912EFB0101900020E9F744
:102F90003197FE2EF61A8F2D90E00C966DE070E0C2
:102FA0000E94F927762ECE01019660E270E04BE098
:102FB00050E00E947900C8016EE270E00E94B1000A
:102FC000FC010097E1F09C012F5F3F4F8181882336
:102FD000B1F0D9010D900020E9F71197A21BB30BB6
:102FE0008A2F8095F80EBE01675F7F4F4A2FA4306D
:102FF00008F043E0CB01B90150E00E947000CE011F
:103000000196B8E0BF1588F06E2D792D4F2D50E058
:103010000E947000F80180818E3291F581818E329C
:1030200009F48281882359F12BC0DC018E2D992D62
:103030009C01F90188E001900D928150E1F7D801DF
:1030400091962C91822F90E0203A40F4B4E095952F
:103050008795BA95E1F7982F905D07C0A4E0959504
:103060008795AA95E1F7982F9F59822F8F708A3004
:1030700010F4805D01C08F599F83888701C0772439
:103080008981853E11F485E08983FCE08F2E912CA7
:103090008C0E9D1E85E1F40111928A95E9F7D80105
:1030A00090968C9190978C8791968D919C91929708
:1030B0009C8F8B8F93968D919D910D90BC91A02D9F
:1030C0008D8F9E8FAF8FB8A3672D70E0E5E0660F00
:1030D000771FEA95E1F780E090E06A0D7B1D8C1D7B
:1030E0009D1DAE014F5F5F4F20E230E0F201099578
:1030F000882309F468C0E980FE013296A4018E2D70
:1031000090E09C01359527959695982F882797955F
:103110008795E82EE22A8191E80EE417F50779F702
:10312000F72C4E010894811C911C8DE0382EBFE0D5
:103130006B2E44C0C4016FEF70E040E250E00E948B
:103140007900F39CD00111241D97A00FB11F91E0CD
:10315000F401E90FF11D8C918083892F8F5FF401B9
:10316000E80FF11D10829E5F9B3019F09A3121F417
:1031700002C09EE001C09CE18C91882321F09F3128
:1031800010F41196E5CFF982F71419F48F2D8064AD
:1031900089836C86EE861D861B8E1C8EC601B5014A
:1031A000A40120E230E0F201099580E290E0A0E085
:1031B000B0E0A80EB91ECA1EDB1EFA94FF2009F06B
:1031C000B9CF81E001C080E0A0960FB6F894DEBFD1
:1031D0000FBECDBFCF91DF911F910F91FF90EF9068
:1031E000DF90CF90BF90AF909F908F907F906F9027
:1031F0005F904F903F900895AF92BF92CF92DF9231
:10320000EF92FF920F931F93CF93DF938C017B017B
:10321000EA01009709F448C06115710509F444C03A
:10322000FB018081882309F43FC041155105E1F17C
:10323000B42EAD2EC801BE010E941613882379F06A
:10324000C7016B2D7A2D0E948B00009799F7F8012A
:1032500083A194A196A785A710AA17A625C0F80157
:10326000C080D1808BE2FE0111928A95E9F78B2D07
:103270009A2DB7014FE150E00E94A200C601B801AB
:10328000AE010E948C166FA378A789A79AA7611533
:1032900071058105910541F0C601BE010E94941798
:1032A000882319F081E001C080E0DF91CF911F9168
:1032B0000F91FF90EF90DF90CF90BF90AF90089567
:1032C000CF93DF93EC01009741F0FC018191919144
:1032D000BF010E94941719821882DF91CF9108953F
:1032E000CF93DF93AC01DB01009789F16115710584
:1032F00071F190968C91909784FF29C080919B02E8
:1033000090919C02892B19F4EBE9F2E008C08091BE
:10331000CC029091CD02892BD1F4ECECF2E09F012C
:103320002E5F3F4FBD018BE2EB010990BE01E90129
:1033300009929E018150C1F75183408391968D91EE
:103340009C91929796A785A710AA17A602C0E0E0C5
:10335000F0E0CF01DF91CF910895CF93DF939C01EF
:10336000FB01009731F06115710519F080A184FF10
:1033700023C020E030E0C901DF91CF910895CFEF65
:10338000D2E0DF018BE20D9009928150E1F730939A
:10339000FE022093FD0210922A0310922B0310923A
:1033A0002C0310922D0381A192A190932F0380935F
:1033B0002E032DEF32E0DFCF8091FD029091FE02CF
:1033C000892BB9F6DCCF6F927F928F929F92AF924A
:1033D000BF92CF92DF92EF92FF920F931F93CF9302
:1033E000DF934C01EB017A01009709F467C0611586
:1033F000710509F463C08881882309F45FC0411511
:10340000510509F45BC08F3209F421968BE2F70174
:1034100011928A95E9F780E1F70180A3370101C095
:10342000E5018881882309F44BC0C401B7010E94DB
:1034300070196C01009709F441C0CE016FE270E091
:103440000E948000009739F0482F4C1B5C010894C3
:10345000A11CB11C2AC0FE0101900020E9F73197A0
:103460004E2F4C1B5E01A40EB11C1FC0F301019036
:103470000020E9F73197E619F709E017F107B9F4E9
:10348000CE01B301A8010E949400009781F4F601D7
:10349000118210820C0F1D1FF8018081882381F09A
:1034A000F70180A184FDBCCF09C0042F10E0C60144
:1034B000B7010E9416138823C9F612C080E001C02C
:1034C00081E0DF91CF911F910F91FF90EF90DF90FE
:1034D000CF90BF90AF909F908F907F906F90089506
:1034E000F601118210829DCFFC01009711F480E05B
:1034F0000895108681E008958F929F92AF92BF92B7
:10350000CF92DF92EF92FF920F93DF93CF93CDB7DD
:10351000DEB760970FB6F894DEBF0FBECDBF7C015B
:103520006B015A014901009709F493C061157105B7
:1035300009F48FC004300CF08CC007FD1DC0602F53
:10354000772767FD7095E4E0660F771FEA95E1F74E
:1035500062547E4F882777FD8095982FAE014F5F8C
:103560005F4F20E130E0F7010995882309F471C02D
:103570008D81882309F46DC080915403882309F05C
:1035800068C07CC08D81809354032A8530E040E080
:1035900050E0542F432F322F22278B8590E0A0E05C
:1035A000B0E0DC0199278827282B392B4A2B5B2B8D
:1035B000898590E0A0E0B0E0282B392B4A2B5B2BCB
:1035C0008C8590E0A0E0B0E0B82FAA279927882743
:1035D000282B392B4A2B5B2B209355033093560312
:1035E00040935703509358032E8530E040E050E05D
:1035F000542F432F322F22278F8590E0A0E0B0E098
:10360000DC0199278827282B392B4A2B5B2B8D85AA
:1036100090E0A0E0B0E0282B392B4A2B5B2B888967
:1036200090E0A0E0B0E0B82FAA2799278827282BA0
:10363000392B4A2B5B2B2093590330935A03409329
:103640005B0350935C0303C08FEF809354039F018F
:1036500002C020E030E0C90160960FB6F894DEBFEA
:103660000FBECDBFCF91DF910F91FF90EF90DF9014
:10367000CF90BF90AF909F908F900895ECE4F3E0CF
:1036800081E1DF011D928A95E9F7F0924D03E09206
:103690004C03D0924F03C0924E03B0925103A092BC
:1036A0005003909253038092520307FF6BCFCCCF0D
:1036B000DF93CF93CDB7DEB727970FB6F894DEBF71
:1036C0000FBECDBFDE011196EAE7F6E086E001907D
:1036D0000D928150E1F7EB81FC8180818695869582
:1036E00086958095817027960FB6F894DEBF0FBE41
:1036F000CDBFCF91DF910895DF93CF93CDB7DEB7E4
:1037000027970FB6F894DEBF0FBECDBFDE0111962E
:10371000EAE7F6E086E001900D928150E1F7EB8157
:10372000FC81808190E0959587959595879581702E
:1037300027960FB6F894DEBF0FBECDBFCF91DF91B5
:103740000895282F8FEF8EBD0DB407FEFDCF8DB5E8
:103750008F778DBD8EB5822F80648EBD0DB407FE30
:10376000FDCF8DB58F778DBD872F9927AA27BB27D2
:103770008EBD0DB407FEFDCF8DB58F778DBDCB010E
:10378000AA27BB278EBD0DB407FEFDCF8DB58F7761
:103790008DBDBB27A72F962F852F8EBD0DB407FE9D
:1037A000FDCF8DB58F778DBD4EBD0DB407FEFDCF1E
:1037B0008DB58F778DBD222319F0283069F406C0AE
:1037C00085E98EBD0DB407FEFDCF0BC087E88EBD29
:1037D0000DB407FEFDCF05C08FEF8EBD0DB407FE03
:1037E000FDCF8DB58F778DBD90E02FEF2EBD0DB441
:1037F00007FEFDCF8DB58F778DBD8EB58F3F19F448
:103800009F5F9A3099F708952F923F924F925F925F
:103810006F927F928F929F92AF92BF92CF92DF92E0
:10382000EF92FF920F931F93DF93CF93CDB7DEB745
:1038300027970FB6F894DEBF0FBECDBF3B014C01FA
:103840001A012901DE011196EAE7F6E086E001900F
:103850000D928150E1F7EB81FC81808182FFABC04A
:10386000AFC01FEFC12E11E0D12EC620D720C60158
:10387000A0E0B0E084017301E81AF90A0A0B1B0BFF
:10388000A12CB2E0BB2EAC18BD084A145B0408F4AE
:10389000520180915E0390915F03A0916003B0910B
:1038A0006103E816F9060A071B0701F10E94FC1CD8
:1038B000882309F485C0C114D10429F480E0A81636
:1038C00082E0B80658F4C801B70142E653E020E0B0
:1038D00032E00E94161D882309F472C0E0925E0354
:1038E000F0925F03009360031093610382E6281651
:1038F00083E0380671F096012E593C4FC901B101A1
:10390000A5010E94700010925D034A145B0409F443
:1039100059C02C9888E1B801A7010E94A11B8823F7
:1039200011F02C9A4DC08EEF8EBD0DB407FEFDCF69
:103930008DB58F778DBDE2E6F3E081918EBD0DB43C
:1039400007FEFDCF8DB58F778DBD85E0E236F80798
:10395000A1F78FEF8EBD0DB407FEFDCF8DB58F772C
:103960008DBD8FEF8EBD0DB407FEFDCF8DB58F776A
:103970008DBD8FEF8EBD0DB407FEFDCF8DB58F775A
:103980008DBD8EB58F3FA9F78EBD0DB407FEFDCF5F
:103990008DB58F778DBD8EB52C9A2A0C3B1CC50139
:1039A000A0E0B0E0680E791E8A1E9B1E4A185B08D4
:1039B00081E080935D034114510409F052CF02C0AD
:1039C00080E001C081E027960FB6F894DEBF0FBEFD
:1039D000CDBFCF91DF911F910F91FF90EF90DF90BE
:1039E000CF90BF90AF909F908F907F906F905F909F
:1039F0004F903F902F90089580915D03882311F0A0
:103A000081E0089560915E0370915F03809160038F
:103A10009091610342E653E020E032E00E94041CF2
:103A2000882319F081E080935D0308953F924F92BF
:103A30005F926F927F928F929F92AF92BF92CF923E
:103A4000DF92EF92FF920F931F93CF93DF933B018F
:103A50004C016A01290133243A948FC00FEFA02E44
:103A600001E0B02EA620B720C501A0E0B0E084019F
:103A70007301E81AF90A0A0B1B0BC0E0D2E0CA195D
:103A8000DB094C165D0608F4E20180915E0390911B
:103A90005F03A0916003B0916103E816F9060A077D
:103AA0001B0709F457C00E94FC1C882309F46AC054
:103AB0002C9881E1B801A7010E94A11B882319F06D
:103AC0002C9A80E05FC03EBC0DB407FEFDCF8DB5E3
:103AD0008F778DBD8EB58E3FB1F7E2E6F3E03EBC49
:103AE0000DB407FEFDCF8DB58F778DBD8EB580836C
:103AF00085E0E136F80711F03196F1CFE0925E03F0
:103B0000F0925F03009360031093610395012E59B7
:103B10003C4FC601B901AE010E9470003EBC0DB41D
:103B200007FEFDCF8DB58F778DBD8EB53EBC0DB434
:103B300007FEFDCF8DB58F778DBD8EB52C9A3EBC1F
:103B40000DB407FEFDCFCC0EDD1E8DB58F778DBD7C
:103B50008EB50AC095012E593C4FC601B901AE0180
:103B60000E947000CC0EDD1E4C1A5D0ACE01A0E052
:103B7000B0E0680E791E8A1E9B1E4114510409F0A4
:103B80006DCF81E0DF91CF911F910F91FF90EF906A
:103B9000DF90CF90BF90AF909F908F907F906F906D
:103BA0005F904F903F9008952F923F924F925F9277
:103BB0006F927F928F929F92AF92BF92CF92DF923D
:103BC000EF92FF920F931F93DF93CF9300D000D01B
:103BD000CDB7DEB74B015C013A013C832B83270153
:103BE000DA82C98241155105A9F12115310591F1FA
:103BF0000217130778F1E114F10461F1190130940F
:103C0000219431083394021B130B6901EE24FF2425
:103C1000C501B401A3012B813C810E94161D88239C
:103C2000C9F0C301B501A40129813A81F2010995C6
:103C3000882391F0020D131D8B819C81800F911FB1
:103C40002B813C818217930738F08C0C9D1CAE1C95
:103C5000BF1CDECF80E001C081E00F900F900F907D
:103C60000F90CF91DF911F910F91FF90EF90DF9018
:103C7000CF90BF90AF909F908F907F906F905F900C
:103C80004F903F902F900895EF92FF920F931F93C4
:103C9000DF93CF93CDB7DEB765970FB6F894DEBF4D
:103CA0000FBECDBFDE011196EAE7F6E086E0019097
:103CB0000D928150E1F7ED81FE818081877F8083C5
:103CC000DE011896EAE7F6E086E001900D92815059
:103CD000E1F7EC85FD8580818B7F8083259A279A8B
:103CE000249A26982C9A83E58CBD8DB58E7F8DBD48
:103CF00010926205DE011F96EAE7F6E086E0019089
:103D00000D928150E1F7E989FA89808183FD20C015
:103D100090E02FEF2EBD0DB407FEFDCF8DB58F7750
:103D20008DBD8EB59F5F9A30A9F72C9800E010E00A
:103D300080E040E050E060E070E00E94A11BF82EBF
:103D400081E0F81651F081E00F3F180719F42C9A22
:103D500080E066C00F5F1F4FEBCF87E340E050E08D
:103D600060E070E00E94A11B89E240E050E060E06A
:103D700070E00E94A11B82FD02C0F092620580915A
:103D80006205E82EFF2483E0E822FF2400E010E033
:103D9000E114F10449F087E340E050E060E070E0B6
:103DA0000E94A11B89E201C081E040E050E060E098
:103DB00070E00E94A11B80FF07C08FE70F3F18072C
:103DC00031F20F5F1F4FE4CF80E140E052E060E04E
:103DD00070E00E94A11B882309F0B9CF2C9A8CB502
:103DE0008C7F8CBD8DB581608DBD8FEF9FEFAFEF68
:103DF000BFEF80935E0390935F03A0936003B09343
:103E0000610381E080935D0360E070E080E090E01A
:103E100042E653E020E032E00E94161D811181E06D
:103E200065960FB6F894DEBF0FBECDBFCF91DF9180
:103E30001F910F91FF90EF9008954F925F926F92B4
:103E40007F928F929F92AF92BF92CF92DF92EF922A
:103E5000FF920F931F93CF93DF935B016C014A0195
:103E6000E901380127014115510571F101151105CD
:103E700059F1FF242115310511F5FF24F3941FC0DA
:103E8000C401B601A5019201F30109958C010097C7
:103E9000E9F0FF2019F4C817D907B0F0C601B50141
:103EA000A40198010E94041C882371F0C801A0E0BD
:103EB000B0E0A80EB91ECA1EDB1EC01BD10BFF202E
:103EC000F9F62097E9F602C080E001C081E0DF91B9
:103ED000CF911F910F91FF90EF90DF90CF90BF9007
:103EE000AF909F908F907F906F905F904F900895CC
:103EF000DF93CF93CDB7DEB7C25DD0400FB6F89455
:103F0000DEBF0FBECDBFAC01FC0120E030E011826E
:103F100010821382128215821482168210861782F2
:103F20001286118614861386158617861686118AC0
:103F3000108A138A128A148A168A158A108E178A92
:103F4000128E118E138E158E148E178E168E11A250
:103F500010A212A22D5D3F4FB39629363105B9F656
:103F6000DE011196E0E8F6E086E001900D928150C6
:103F7000E1F7DE011896E6E8F6E086E001900D92A2
:103F80008150E1F7DE011F96E0E8F6E086E001905F
:103F90000D928150E1F7DE015696E0E8F6E086E00A
:103FA00001900D928150E1F7DE015D96E0E8F6E0C8
:103FB00086E001900D928150E1F782E08F83DE016F
:103FC000A659BF4FFE01319687E001900D928150B6
:103FD000E1F787E08E87DE01AF58BF4FFE013896CC
:103FE00001900D928150E1F783E08D8BDE01A8589E
:103FF000BF4FFE013F9687E001900D928150E1F79F
:1040000085E08C8FDE01A158BF4FFE01769687E0D8
:1040100001900D928150E1F784E08BA3DE01AA5755
:10402000BF4FFE017D9687E001900D928150E1F730
:10403000DA01FE01E659FF4F83E201900D928150B3
:10404000E1F7DE019496E0E8F6E086E001900D925B
:104050008150E1F7DE019B96E0E8F6E086E0019012
:104060000D928150E1F7DE01D296E4E7F6E086E0BA
:1040700001900D928150E1F7DE01D996E4E7F6E078
:1040800086E001900D928150E1F7DE01A05CBF4F08
:10409000E4E7F6E086E001900D928150E1F786E0DA
:1040A0008AA7DE01A357BF4FFE01B49687E00190B7
:1040B0000D928150E1F787E089ABDE01AC56BF4F2E
:1040C000FE01BB9601900D928150E1F787E088AF29
:1040D000DE01A556BF4FFE01F29601900D92815070
:1040E000E1F785E08FAFDE01AE55BF4FFE01F996D7
:1040F00087E001900D928150E1F786E0FE01EA5BD6
:10410000FF4F8083DE01A755BF4FFE01E05CFF4FEC
:1041100087E001900D928150E1F7DA019396FE015C
:10412000E357FF4F83E201900D928150E1F7DE01EA
:10413000A95BBF4FE4E7F6E086E001900D92815065
:10414000E1F7DE01A25BBF4FE4E7F6E086E0019015
:104150000D928150E1F7DE01AB5ABF4FE4E7F6E084
:1041600086E001900D928150E1F7DE01A45ABF4F25
:10417000E4E7F6E086E001900D928150E1F7DE0180
:10418000AD59BF4FE4E7F6E086E001900D92815013
:10419000E1F7FE01E95BFF4F83E08683DE01A05576
:1041A000BF4F87E001900D928150E1F7FE01E25B85
:1041B000FF4F84E08683DE01A954BF4F87E0019062
:1041C0000D928150E1F7FE01EB5AFF4F82E08683AA
:1041D000DE01A254BF4F87E001900D928150E1F7BC
:1041E000FE01E45AFF4F1682DE01AB53BF4F87E05A
:1041F00001900D928150E1F7FE01ED59FF4F81E0F2
:104200008683DE01A453BF4F87E001900D92815059
:10421000E1F7DA01AA5BBF4FFE01E055FF4F83E2F1
:1042200001900D928150E1F7CE52DF4F0FB6F89416
:10423000DEBF0FBECDBFCF91DF910895FC018FB7D8
:10424000F894E659FF4F20813181428153818FBF1D
:10425000B901CA0108956093D10582E090E090937E
:10426000D3058093D20508951F920F920FB60F9237
:1042700011242F933F938F939F93AF93BF93EF930B
:10428000FF93DF93CF93CDB7DEB76597DEBFCDBF8A
:104290008091D4059091D5051816190614F401974C
:1042A0003FC08091D2059091D3058130910519F5D9
:1042B0008091D6059091D70501969093D70580936C
:1042C000D60582E090E09093D3058093D20582E1F9
:1042D00090E09093D5058093D405DE011196EAE72E
:1042E000F6E086E001900D928150E1F7E981FA81D4
:1042F00080818E7F51C08230910579F58091D10502
:1043000090E02091D6053091D7052817390769F438
:1043100083E090E09093D3058093D20580E590E010
:104320009093D5058093D40538C081E090E09093B8
:10433000D3058093D20582E190E09093D5058093D8
:10434000D405DE011896EAE7F6E086E001900D92CA
:104350008150E1F7E885F9851DC00397F1F41092CB
:10436000D7051092D60581E090E09093D305809315
:10437000D20582E190E09093D5058093D405DE01CB
:104380001F96EAE7F6E086E001900D928150E1F792
:10439000EF85F8898081816080836596DEBFCDBF1F
:1043A000CF91DF91FF91EF91BF91AF919F918F914D
:1043B0003F912F910F900FBE0F901F90189583E69D
:1043C00095E00E94781F0895FC01E659FF4F808117
:1043D0009181A281B381805C9F4FAF4FBF4F80839B
:1043E0009183A283B3830E94F707882311F40E946C
:1043F0006B0508951F920F920FB60F9211242F9301
:104400003F934F935F936F937F938F939F93AF935C
:10441000BF93EF93FF9383E695E00E94E421FF9121
:10442000EF91BF91AF919F918F917F916F915F912C
:104430004F913F912F910F900FBE0F901F901895A5
:10444000EF92FF920F931F93DF93CF93CDB7DEB719
:1044500027970FB6F894DEBF0FBECDBF7C018C014D
:1044600007591F4FC8010E948A22C80161E00E94BB
:10447000B922C7010E941E23C70183960E941E23F2
:10448000C7018A5B9F4F0E941E2388ED95E061E083
:104490000E9477238AED95E00E94FB2586E296E054
:1044A00061E00E94772388E296E00E94FB2510924B
:1044B000800089E0809381001092820080E094E087
:1044C000909389008093880082E080936F0010921F
:1044D000B00087E08093B10081E080937000DE013E
:1044E0001196EAE7F6E086E001900D928150E1F73F
:1044F000ED81FE8180818160808327960FB6F894DC
:10450000DEBF0FBECDBFCF91DF911F910F91FF9006
:10451000EF900895DF93CF93CDB7DEB72E970FB608
:10452000F894DEBF0FBECDBFDE011196E6E8F6E0DF
:1045300086E001900D928150E1F7ED81FE8180814E
:1045400080648083DE011896E6E8F6E086E001905C
:104550000D928150E1F7E885F98580818F7B80831A
:104560002E960FB6F894DEBF0FBECDBFCF91DF9170
:104570000895DF93CF93CDB7DEB727970FB6F894A2
:10458000DEBF0FBECDBFDE011196E6E8F6E086E0A5
:1045900001900D928150E1F7E981FA8190816623C3
:1045A00011F480E401C080E09F7B892B80832796F3
:1045B0000FB6F894DEBF0FBECDBFCF91DF91089547
:1045C000FC01A081B1813C9181E090E0068002C0B5
:1045D000880F991F0A94E2F7282F662309F480E0D8
:1045E00020952323822B8C930895FC01A781B0850D
:1045F0003C9181E090E0058402C0880F991F0A94E5
:10460000E2F7282F662309F480E020952323822BEC
:104610008C930895FC01A685B7853C9181E090E0DC
:10462000048802C0880F991F0A94E2F7282F6111AD
:1046300080E020952323822B8C930895FC01A48194
:10464000B5813C9141E050E0CA01068002C0880F6C
:10465000991F0A94E2F7282F20952323282B2C93C7
:10466000A385B4853C91CA01058402C0880F991FB7
:104670000A94E2F7282F20952323282B2C93A68534
:10468000B7853C91CA01048802C0880F991F0A941B
:10469000E2F7282F20952323282B2C93A289B38976
:1046A0003C91CA01048802C0880F991F0A94E2F75E
:1046B000282F20952323282B2C93A18DB28D2C916C
:1046C000CA01038C02C0880F991F0A94E2F78095F3
:1046D00082238C93A0A1B1A18C9102A002C0440FAF
:1046E000551F0A94E2F7409548234C930895FC0126
:1046F0006183E081EE2361F4662321F08091C100A3
:10470000806C03C08091C1008F738093C1000895B5
:10471000E13069F4662331F08091C900806C8093A8
:10472000C90008958091C9008F738093C9000895CE
:104730001F920F920FB60F9211242F933F934F9316
:104740005F936F937F938F939F93AF93BF93EF93F9
:10475000FF938091710690917206892B69F0809188
:10476000710690917206049739F08EE496E00E94EB
:10477000AF268093CE0008C08BB18F7C8BB980911F
:10478000C90080618093C900FF91EF91BF91AF9103
:104790009F918F917F916F915F914F913F912F9159
:1047A0000F900FBE0F901F9018951F920F920FB68B
:1047B0000F9211242F933F934F935F936F937F93A7
:1047C0008F939F93AF93BF93EF93FF9380912306B3
:1047D00090912406892B61F0809123069091240604
:1047E000049731F080E096E00E94AF268093C600E7
:1047F000FF91EF91BF91AF919F918F917F916F91B9
:104800005F914F913F912F910F900FBE0F901F908E
:104810001895CF93DF93EC0189818823B9F0CE01FD
:1048200088960E94AF26982F8881882319F4909348
:10483000C6000CC0813051F48BB180638BB980917C
:10484000C9008F7E8093C9009093CE00DF91CF91F5
:1048500008951F920F920FB60F9211242F933F933A
:104860004F935F936F937F938F939F93AF93BF9378
:10487000EF93FF936091CE0088E296E00E940226BB
:10488000FF91EF91BF91AF919F918F917F916F9128
:104890005F914F913F912F910F900FBE0F901F90FE
:1048A00018951F920F920FB60F9211242F933F93DA
:1048B0004F935F936F937F938F939F93AF93BF9328
:1048C000EF93FF936091C6008AED95E00E94022667
:1048D000FF91EF91BF91AF919F918F917F916F91D8
:1048E0005F914F913F912F910F900FBE0F901F90AE
:1048F00018950F931F938C01FC016083118202961F
:104900000E94F425C80188960E949F26F801008124
:10491000002371F41092C50089E18093C4001092C5
:10492000C00088E18093C10086E08093C2001AC075
:104930000130C1F41092CD0089E18093CC00109237
:10494000C80088E18093C90086E08093CA008AB1DC
:1049500080638AB98BB18F7C8BB98091C9008061EB
:104960008093C9001F910F91089588ED95E060E054
:104970000E94792486E296E061E00E9479240895FD
:1049800082E290E0909375068093740680E290E056
:10499000909377068093760681E290E09093790673
:1049A0008093780685E290E090937B0680937A0668
:1049B00083E290E090937D0680937C0684E290E011
:1049C00090937F0680937E0688E290E09093810624
:1049D0008093800686E290E090938306809382061F
:1049E00087E290E090938506809384068BE290E0C6
:1049F000909387068093860689E290E090938906DB
:104A0000809388068AE290E090938B0680938A06D2
:104A100008958CE896E00E949F2608956F927F92F9
:104A20008F929F92AF92BF92CF92DF92EF92FF92BE
:104A30000F931F93DF93CF93CDB7DEB72C970FB6AD
:104A4000F894DEBF0FBECDBF7C014B01FC0180811D
:104A5000882309F4ACC03701C70160E00E948826B2
:104A6000982F8077803709F0A2C09037B9F4C4013D
:104A70000E94A72601E010E00AC0C301602F0E9437
:104A80008826682FC4010E94F5260F5F1F4FF7018B
:104A9000808190E00817190784F387C0913709F4E3
:104AA00086C0923709F483C0933709F080C00E9412
:104AB000F7006C010E94F4005C01C6010E94A72669
:104AC00001E010E00AC0C301602F0E948826682F11
:104AD000C6010E94F5260F5F1F4FF701808190E00D
:104AE0000817190784F38E010F5F1F4FC8010E943A
:104AF0004207C80140E553EC60E070E00E94720795
:104B0000F02E012F0FC08F2D902F0E944907882370
:104B100049F0C40167E00E94F52683E695E062E073
:104B200070E024C00E94FA00882369F38E01095FB7
:104B30001F4FC8010E944207C80140E553EC60E0E6
:104B400070E00E9472070E944501F02E012F13C0F1
:104B50008F2D902F0E944907882359F0C40167E0E8
:104B60000E94F52683E695E061E070E00E942B212B
:104B70001CC00E9415010E940B01882349F3750196
:104B800000E010E00AC0C701602F0E948826682F4D
:104B9000C4010E94F5260F5F1F4FF501808190E050
:104BA0000817190784F30E94080181E001C080E022
:104BB0002C960FB6F894DEBF0FBECDBFCF91DF911C
:104BC0001F910F91FF90EF90DF90CF90BF90AF902B
:104BD0009F908F907F906F900895FC0111821082BA
:104BE00012A214A213A20895FC011182108212A233
:104BF00014A213A20895FC011182108212A214A221
:104C000013A20895DC0193968D919C919497892B22
:104C100091F4653D19F481E090E066C011961C9214
:104C200011971C9292961C92929794961C921E92A7
:104C3000939781E020C093968D919C9194970197D2
:104C4000E9F4603260F495966C93959795968C9103
:104C50009597882309F438C082E090E045C011960A
:104C60001C9211971C9292961C92929794961C9269
:104C70001E92939782E092968C93089593968D91CD
:104C80009C919497029719F58C918032B8F4119603
:104C90008C911197862728E09CE880FB86950EF47E
:104CA00089272A95D1F711968C9311978C91FD0144
:104CB000E80FF11D62838C918F5F8C939C91959688
:104CC0008C919597981718F183E090E00DC093961A
:104CD0008D919C9194970397D1F411968C91119793
:104CE000861739F484E090E094969C938E93939782
:104CF000089511961C9211971C9292961C9292976D
:104D000094961C921E92939783E092968C930895AA
:104D1000FC01E60FF11D82810895E62FF0E0DC0131
:104D2000AE0FBF1F12962C913196E80FF91F4281EA
:104D3000942F80E030E0282B392BC9010895FC0125
:104D40001182108212A214A213A215A20895FC01CE
:104D50001182108212A214A213A215A20895DC01DE
:104D600093968D919C919497892B41F481E090E0EA
:104D700094969C938E93939725ED35C093968D9141
:104D80009C919497019739F42C918C918823B9F0D8
:104D900082E090E024C093968D919C919497029725
:104DA00089F495968C919597FD01E80FF11D22816C
:104DB0008F5F95968C9395979C918917A0F083E0CF
:104DC00090E00DC093968D919C919497039711F06C
:104DD00020E009C011962C91119784E090E0949600
:104DE0009C938E939397822F0895DC018C9180324F
:104DF000B8F411968C911197862728E09CE880FBE7
:104E000086950EF489272A95D1F711968C931197E0
:104E10008C91FD01E80FF11D62838C918F5F8C9363
:104E20000895DC018C918032B8F411968C91119721
:104E3000862728E09CE880FB86950EF489272A9532
:104E4000D1F711968C9311978C91FD01E80FF11D0C
:104E500062838C918F5F8C938C918032B8F4119621
:104E60008C911197872728E09CE880FB86950EF4AB
:104E700089272A95D1F711968C9311978C91FD0172
:104E8000E80FF11D72838C918F5F8C930895EF92E0
:104E9000FF920F931F93DC017A018B018C9180327A
:104EA000B8F411968C911197842728E09CE880FB38
:104EB00086950EF489272A95D1F711968C93119730
:104EC0008C91FD01E80FF11D42838C918F5F8C93D3
:104ED0008C918032D8F45527412F302F2F2D1196E9
:104EE0008C911197822738E09CE880FB86950EF420
:104EF00089273A95D1F711968C9311978C91FD01E2
:104F0000E80FF11D22838C918F5F8C938C918032FE
:104F1000D0F498014427552711968C911197822738
:104F200038E09CE880FB86950EF489273A95D1F706
:104F300011968C9311978C91FD01E80FF11D22833E
:104F40008C918F5F8C938C918032D8F4212F3327F2
:104F50004427552711968C911197822738E09CE8B9
:104F600080FB86950EF489273A95D1F711968C939C
:104F700011978C91FD01E80FF11D22838C918F5FB9
:104F80008C931F910F91FF90EF900895629FD00135
:104F9000739FF001829FE00DF11D649FE00DF11DF4
:104FA000929FF00D839FF00D749FF00D659FF00DA3
:104FB0009927729FB00DE11DF91F639FB00DE11D90
:104FC000F91FBD01CF0111240895AA1BBB1B51E19C
:104FD00007C0AA1FBB1FA617B70710F0A61BB70B69
:104FE000881F991F5A95A9F780959095BC01CD010E
:104FF000089597FB092E07260AD077FD04D0E5DF38
:1050000006D000201AF4709561957F4F0895F6F749
:10501000909581959F4F0895A1E21A2EAA1BBB1B64
:10502000FD010DC0AA1FBB1FEE1FFF1FA217B30774
:10503000E407F50720F0A21BB30BE40BF50B661F8A
:10504000771F881F991F1A9469F76095709580954E
:1050500090959B01AC01BD01CF01089597FB092EEE
:1050600005260ED057FD04D0D7DF0AD0001C38F437
:1050700050954095309521953F4F4F4F5F4F089584
:10508000F6F790958095709561957F4F8F4F9F4F64
:1050900008952F923F924F925F926F927F928F92DC
:1050A0009F92AF92BF92CF92DF92EF92FF920F93B7
:1050B0001F93CF93DF93CDB7DEB7CA1BDB0B0FB6C1
:1050C000F894DEBF0FBECDBF09942A88398848887E
:1050D0005F846E847D848C849B84AA84B984C88414
:1050E000DF80EE80FD800C811B81AA81B981CE0F0B
:1050F000D11D0FB6F894DEBF0FBECDBFED010895F0
:10510000EE0FFF1F0590F491E02D0994F894FFCF66
:105110002F0001030507090E10121416181C1E009B
:00000001FF
