:100000000C9485000C94AD000C94AD000C94AD00E4
:100010000C94AD000C94AD000C94AD000C94230E28
:100020000C94AD000C94AD000C94AD000C94AD009C
:100030000C94AD000C94AD000C94AD000C94AD008C
:100040000C94AD000C94AD000C94B0110C94AD0068
:100050000C9457110C94C20D0C94AD000C94AD008F
:100060000C94AD000C94AD001C093B093F094609F6
:10007000B4094E0AE6094E0ABF094E0ACC094E0AD7
:10008000F109FE09290A4E0A4E0A4E0A4E0A4E0A84
:100090004E0A4E0A0A0AAD094E0A4E0974094E0A62
:1000A0004E0A4E0A110A1A0A2C0A330A2409400A77
:1000B000010049033600FF006B00D100A000B8002A
:1000C000D500A6000A0199003F018E00740184004A
:1000D000A9017C00DE01740013026C004802650077
:1000E0007D025D00B2025600E7024E001C0346008E
:1000F00051033D0086033200BB032200F0030300DE
:10010000E908690C640F2412291211241FBECFEFD5
:10011000D4E0DEBFCDBF12E0A0E0B1E0E6EFFAE24E
:1001200002C005900D92AA32B107D9F713E0AAE2F6
:10013000B2E001C01D92A036B107E1F711E0CAE0BC
:10014000D1E004C02297FE010E944415C030D107BF
:10015000C9F70E940D0B0C9479150C940000A0E0D7
:10016000B0E0E5EBF0E00C940B15DC012B01FA019B
:100170009C91923008F439C1EB018881823008F4F7
:1001800033C1943069F4843009F02FC111969C91E9
:1001900011978981981709F428C1A9E0B1E025C118
:1001A000843009F421C18230A9F4923009F01DC1D4
:1001B0009A01AD0188E0EA010990AE01E9010992D6
:1001C0009E018150C1F7E201898111969C9189239A
:1001D000818308C1923009F407C112962D903C909A
:1001E0001397EB018A819B811496AD90BD90CD90C1
:1001F000DC901797EC80FD800E811F819101281BF8
:10020000390BB90137FF04C066277727621B730BD0
:10021000603271050CF061C0121613066CF53701DF
:100220004801062E04C096948794779467940A94A4
:10023000D2F721E030E040E050E004C0220F331F4D
:10024000441F551F6A95D2F721503040404050401E
:100250002E213F2140235123211531054105510510
:1002600021F021E030E040E050E079018A01E62809
:10027000F728082919293CC0232BD1F1260E371E57
:1002800035014601062E04C09694879477946794AE
:100290000A94D2F721E030E040E050E004C0220FA1
:1002A000331F441F551F6A95D2F7215030404040FC
:1002B00050402A213B214C215D212115310541056A
:1002C000510521F021E030E040E050E059016A01A1
:1002D000A628B728C828D9280BC0821593052CF06A
:1002E0001C01AA24BB24650103C0EE24FF2487015E
:1002F00011969C91D20111968C91981709F445C0E2
:10030000992339F0A80197012A193B094C095D0985
:1003100006C0A60195012E193F09400B510B57FD50
:1003200008C0118233822282248335834683578317
:100330001DC081E081833382228288279927DC01D6
:10034000821B930BA40BB50B84839583A683B78381
:100350000DC0220F331F441F551F2483358346834E
:10036000578382819381019793838283248135818E
:1003700046815781DA01C9010197A109B1098F5F4F
:100380009F4FAF4FBF4328F30BC09183338222822C
:10039000EA0CFB1C0C1D1D1DE482F58206831783ED
:1003A00083E08083248135814681578157FF1AC0BD
:1003B000C901AA2797FDA095BA2F81709070A070EF
:1003C000B0705695479537952795822B932BA42B84
:1003D000B52B84839583A683B7838281938101960D
:1003E00093838283DF0101C0D201CD01CDB7DEB797
:1003F000E2E10C942715A0E2B0E0E1E0F2E00C9419
:10040000171569837A838B839C832D833E834F8367
:100410005887E9E0EE2EF12CEC0EFD1ECE01019680
:10042000B7010E94D2058E010F5E1F4FCE010596C7
:10043000B8010E94D2058A8991E089278A8BC70179
:10044000B801AE01475E5F4F0E94AF000E94FD04FD
:10045000A096E6E00C943315A0E2B0E0E2E3F2E00F
:100460000C94171569837A838B839C832D833E8339
:100470004F835887F9E0EF2EF12CEC0EFD1ECE01D4
:100480000196B7010E94D2058E010F5E1F4FCE016B
:100490000596B8010E94D205C701B801AE01475EBA
:1004A0005F4F0E94AF000E94FD04A096E6E00C940E
:1004B0003315A0E2B0E0EFE5F2E00C940B15698390
:1004C0007A838B839C832D833E834F835887CE0111
:1004D0000196BE01675F7F4F0E94D205CE0105964F
:1004E000BE016F5E7F4F0E94D2059985923088F0E1
:1004F00089898230C8F0943019F4823051F404C0F4
:10050000843029F4923081F489E091E0C6C09230C1
:1005100049F420E09A858A89981321E02A87CE0140
:100520000996BBC0823049F420E09A858A899813E5
:1005300021E02A8BCE014196B0C02D843E844F84A9
:1005400058886D887E888F88988CEE24FF248701D8
:10055000AA24BB24650140E050E060E070E0E0E0E8
:10056000F0E0C10181709070892BE9F0E60CF71C76
:10057000081D191D9A01AB012A0D3B1D4C1D5D1D67
:1005800080E090E0A0E0B0E0E614F704080519056B
:1005900020F481E090E0A0E0B0E0BA01A901480FAA
:1005A000591F6A1F7B1FAA0CBB1CCC1CDD1C97FEAD
:1005B00008C081E090E0A0E0B0E0A82AB92ACA2AE9
:1005C000DB2A3196E032F10549F0660C771C881C75
:1005D000991C5694479437942794C3CFFA85EA8997
:1005E0002B893C898B859C85280F391F2E5F3F4FB7
:1005F00017C0CA0181709070892B61F0169507951C
:10060000F794E79480E090E0A0E0B0E8E82AF92AC7
:100610000A2B1B2B76956795579547952F5F3F4F74
:1006200077FDE7CF0CC0440F551F661F771F17FDDE
:100630004160EE0CFF1C001F111F21503040403064
:1006400090E0590790E0690790E4790760F32B8FF9
:100650003C8FDB01CA018F779070A070B07080343E
:100660009105A105B10561F447FD0AC0E114F1044B
:100670000105110529F0405C5F4F6F4F7F4F4078B7
:100680001A8EFE1711F081E08A8F4D8F5E8F6F8F6B
:1006900078A383E0898FCE0149960E94FD04A0963D
:1006A000E2E10C942715A8E1B0E0E9E5F3E00C9451
:1006B000171569837A838B839C832D833E834F83B5
:1006C000588789E0E82EF12CEC0EFD1ECE01019634
:1006D000B7010E94D2058E010F5E1F4FCE01059615
:1006E000B8010E94D2058985823040F08989823024
:1006F00028F0C701B8010E944A0601C081E068964F
:10070000E6E00C943315A8E0B0E0E9E8F3E00C94DF
:1007100014159B01AC0183E08983DA01C9018827A4
:10072000B7FD83959927AA27BB27B82E2115310538
:100730004105510519F482E089833AC08823A9F064
:10074000203080E0380780E0480780E8580729F427
:1007500060E070E080E09FEC30C0EE24FF24870171
:10076000E21AF30A040B150B02C079018A018EE12B
:10077000C82ED12CDC82CB82ED82FE820F831887BB
:10078000C801B7010E94AE0401971816190684F437
:10079000082E04C0EE0CFF1C001F111F0A94D2F794
:1007A000ED82FE820F831887C81AD90ADC82CB82B9
:1007B000BA82CE0101960E94FD042896E9E00C94CD
:1007C0003015ACE0B0E0E7EEF3E00C941B15698364
:1007D0007A838B839C83CE010196BE016B5F7F4F32
:1007E0000E94D2058D81823061F1823050F18430D7
:1007F00021F48E81882351F12EC02F81388537FD59
:1008000020C06E812F3131051CF06623F9F023C022
:100810008EE190E0821B930B29853A854B855C85A0
:1008200004C056954795379527958A95D2F7662344
:10083000B1F050954095309521953F4F4F4F5F4F08
:100840000EC020E030E040E050E009C02FEF3FEF65
:100850004FEF5FE704C020E030E040E050E8B9012E
:10086000CA012C96E2E00C943715A8E0B0E0EBE367
:10087000F4E00C9413157B018C0161157105810561
:10088000910519F482E0898360C083E089838EE159
:10089000C82ED12CDC82CB82ED82FE820F8318879A
:1008A000C801B7010E94AE04FC013197F7FF3BC0BD
:1008B000222733272E1B3F0B57016801022E04C04D
:1008C000D694C794B794A7940A94D2F740E050E026
:1008D00060E070E081E090E0A0E0B0E004C0880F4C
:1008E000991FAA1FBB1F2A95D2F70197A109B10929
:1008F0008E219F21A023B1230097A105B10521F0EE
:1009000041E050E060E070E04A295B296C297D29D4
:100910004D835E836F8378878EE190E08E1B9F0B03
:100920009C838B8312C0309781F00E2E04C0EE0C96
:10093000FF1C001F111F0A94D2F7ED82FE820F8365
:100940001887CE1ADF0ADC82CB821A82CE0101968A
:100950000E94FD042896EAE00C942F15EF92FF9276
:100960000F931F937B018C0180E0E81680E0F8066E
:1009700081E0080780E0180788F48FEFE816F1049B
:100980000105110531F028F088E090E0A0E0B0E02A
:1009900017C080E090E0A0E0B0E012C080E0E81670
:1009A00080E0F80680E0080781E0180728F088E179
:1009B00090E0A0E0B0E004C080E190E0A0E0B0E012
:1009C00020E230E040E050E0281B390B4A0B5B0B83
:1009D00004C016950795F794E7948A95D2F7F70126
:1009E000EF5EFE4F8081281B310941095109C90181
:1009F0001F910F91FF90EF900895DF92EF92FF9279
:100A00000F931F93FC01E480F58006811781D1804C
:100A10008081823048F480E090E0A0E1B0E0E82AF4
:100A2000F92A0A2B1B2BA5C0843009F49FC0823001
:100A300021F4EE24FF24870105C0E114F10401052F
:100A4000110519F4E0E0F0E096C0628173819FEF38
:100A5000623879070CF05BC022E83FEF261B370BAA
:100A60002A3131052CF020E030E040E050E02AC08F
:100A7000B801A701022E04C0769567955795479552
:100A80000A94D2F781E090E0A0E0B0E004C0880FC3
:100A9000991FAA1FBB1F2A95D2F70197A109B10977
:100AA0008E219F21A023B1230097A105B10521F03C
:100AB00081E090E0A0E0B0E09A01AB01282B392B57
:100AC0004A2B5B2BDA01C9018F779070A070B07050
:100AD00080349105A105B10539F427FF09C0205CD8
:100AE0003F4F4F4F5F4F04C0215C3F4F4F4F5F4F11
:100AF000E0E0F0E02030A0E03A07A0E04A07A0E400
:100B00005A0710F0E1E0F0E079018A0127C060386F
:100B1000710564F5FB01E158FF4FD801C7018F77DC
:100B20009070A070B07080349105A105B10539F4C2
:100B3000E7FE0DC080E490E0A0E0B0E004C08FE3E9
:100B400090E0A0E0B0E0E80EF91E0A1F1B1F17FF9F
:100B500005C016950795F794E794319687E01695AA
:100B60000795F794E7948A95D1F705C0EE24FF2402
:100B70008701EFEFF0E06E2F679566276795902F5E
:100B80009F77D794DD24D7948E2F8695492F462BB7
:100B9000582F5D29B701CA011F910F91FF90EF9067
:100BA000DF900895FC01DB01408151812281622F99
:100BB0006F7770E0221F2227221F9381892F880FD1
:100BC000822B282F30E0991F9927991F11969C930B
:100BD000119721153105A9F54115510561057105DB
:100BE00011F482E037C082E89FEF13969C938E93B6
:100BF00012979A01AB0167E0220F331F441F551F64
:100C00006A95D1F783E08C930DC0220F331F441FE8
:100C1000551F12968D919C911397019713969C9353
:100C20008E931297203080E0380780E0480780E4F8
:100C3000580758F314962D933D934D935C93179753
:100C400008952F3F310579F441155105610571056E
:100C500019F484E08C93089564FF03C081E08C93C1
:100C600012C01C9210C02F57304013963C932E9305
:100C7000129783E08C9387E0440F551F661F771F00
:100C80008A95D1F7706414964D935D936D937C9320
:100C9000179708951F93DC01FB019C91923008F493
:100CA00047C08081823008F443C0943051F41196DB
:100CB0001C91843099F58181682F70E0611B710966
:100CC0003FC0843021F0923031F48230B9F181811B
:100CD000882389F12DC011961C9111978230F1F073
:100CE00081811817D9F412962D913C911397828126
:100CF00093818217930794F028173907BCF0149654
:100D00008D919D910D90BC91A02D248135814681BE
:100D10005781281739074A075B0718F4112341F058
:100D20000AC082179307A407B50740F4112319F0EE
:100D300061E070E005C06FEF7FEF02C060E070E03F
:100D4000CB011F910895CF92DF92EF92FF920F9304
:100D50001F93CF93DF938C017B01FC01808188235B
:100D600051F16801C80160E00E94EF13982F80776D
:100D7000803709F59037B1F4C7010E942514C1E00E
:100D8000D0E009C0C6016C2F0E94EF13682FC70185
:100D90000E9473142196F801808190E0C817D9074A
:100DA0008CF307C0913739F0923729F080E0933700
:100DB00019F481E001C080E0DF91CF911F910F9184
:100DC000FF90EF90DF90CF900895EF92FF920F93F6
:100DD0001F93DF93CF9300D0CDB7DEB79C01F42EE5
:100DE000052F162FE72ECE010196B90142E050E003
:100DF0000E94511569816F3F19F48A818F3FE9F094
:100E000070E080E090E00E9435047B018C016A81F3
:100E100070E080E090E00E94350420E030E040E89F
:100E20005BE30E9459029B01AC01C801B7010E941B
:100E30002C02F62E072F182FE92E2F2D302F412FA1
:100E40005E2DB901CA010F900F90CF91DF911F91D4
:100E50000F91FF90EF9008950F931F93DF93CF931F
:100E600000D0CDB7DEB79C018B01CE010196B90150
:100E700042E050E00E94511589819A818F5F9F4F17
:100E800011F41A83098389819A810F900F90CF9171
:100E9000DF911F910F9108951F93DF93CF930F92CE
:100EA000CDB7DEB79C01162FCE010196B90141E006
:100EB00050E00E94511589818F3F09F4198389817F
:100EC0000F90CF91DF911F910895DF93CF9300D0C2
:100ED000CDB7DEB7CE01019660E070E042E050E0B1
:100EE0000E9451153A8184E6389FC001112429815E
:100EF000820F911D8E3C9105A1F032503D3F28F0AC
:100F000082E090E06BE10E946B1586E0898382E0CD
:100F10008A83CE01019660E070E042E050E00E94DA
:100F200061150F900F90CF91DF910895FC0176AF7E
:100F300065AF0895FC01448D558D25AD36ADC901D1
:100F400002974817590714F480E0089580E02E5F57
:100F50003F4F241735070CF081E00895FC0185AD63
:100F600096AD0895FC010190F081E02D228133813E
:100F7000C90108950F931F93CF93DF93EC018C0168
:100F8000025F1F4FC8010E94560D882391F0E8812F
:100F9000F981A081B1812D913C91CF01F901099591
:100FA0008823E1F1488D598D6A8D7B8DC8010E949F
:100FB0007B0D8E010C5F1F4FC8010E94560D8823C8
:100FC00069F1C80140E251EA67E070E00E947B0DE0
:100FD000E881F981228133812C8F3D8FCE0180966B
:100FE000B9010E946812BC0197FF03C060E070E085
:100FF00006C08F3F910519F014F06FEF70E08DADD2
:101000009EAD892B11F460E070E0EA81FB81A08144
:10101000B1812D913C91CF01F9010995DF91CF91DB
:101020001F910F9108956F927F928F929F92AF922E
:10103000BF92CF92DF92EF92FF920F931F93CF93C5
:10104000DF93EC011D8E1C8E8E8D9F8D40E050E055
:1010500060EE70E40E94E5063B014C018E8D9F8D91
:10106000029646E656E666EA7EE30E94E5065B01E6
:101070006C018E8D9F8D049640E050E060E172E43B
:101080000E94E5067B018C01CE0180960E943312FE
:10109000C401B30120E030E040E050E00E9453037F
:1010A000882391F5C601B50120E030E040E050E032
:1010B0000E945303882341F5C801B70120E030E0C6
:1010C00040E050E00E9453038823F1F40F2EF0E03B
:1010D0006F2EF0E07F2EF0EE8F2EF0E49F2EF02D9D
:1010E0000F2EF6E6AF2EF6E6BF2EF6EACF2EFEE383
:1010F000DF2EF02D0F2EF0E0EF2EF0E0FF2EF0E1CE
:101100000F2FF2E41F2FF02D68A279A28AA29BA2D2
:10111000ACA2BDA2CEA2DFA2E8A6F9A60AA71BA791
:101120001EAE1DAECE01049640E251EA67E070E0CB
:101130000E947B0D488D598D6A8D7B8DCE010E9658
:101140000E947B0DDF91CF911F910F91FF90EF9047
:10115000DF90CF90BF90AF909F908F907F906F90D7
:101160000895AF92BF92CF92DF92EF92FF920F93CA
:101170001F93CF93DF93EC01580169017983688352
:101180005B834A8304960E944F0DCE010E960E9407
:101190004F0DA88EB98ECA8EDB8EFF8EEE8ECE01DD
:1011A00080960E9433128E8D9F8D892B21F48CE0C6
:1011B00090E09F8F8E8FCE010E941308DF91CF9118
:1011C0001F910F91FF90EF90DF90CF90BF90AF9065
:1011D00008958AE292E00E944F0D08957F928F92C7
:1011E0009F92AF92BF92CF92DF92EF92FF920F93B6
:1011F0001F93DF93CF93CDB7DEB760970FB6F89408
:10120000DEBF0FBECDBFFC016B018081882309F4D6
:1012100045C17F01CF0161E00E94EF13E82FF0E0AC
:10122000E432F10508F03AC1EC5CFF4FEE0FFF1F0E
:101230000590F491E02D0994C60161E00E947314B9
:10124000C6016EEC70E019C1C60161E00E94731422
:1012500000E011E0C601F80160810E947314F801FA
:101260008081882309F418C10F5F1F4FF1E00F310F
:101270001F0781F711C181E08093340272C0C6015B
:1012800061E00E94731489E892E0D1C0C70162E076
:101290000E94F413BC0189E892E0D8C0C70162E063
:1012A0000E94F4135C01C70164E00E94EF138131D6
:1012B00048F5E82EFF248E010F5F1F4FC801B501CE
:1012C000A7010E945115C60161E00E947314E00E4F
:1012D000F11E06C0C601F80161918F010E947314CE
:1012E0000E151F05B9F7D8C0C70162E00E94F413BC
:1012F000882E792EC70164E00E94EF13982EF0E14A
:10130000F81718F4C60162E0C5C08E010F5F1F4FC9
:10131000C801682D772D492D50E00E9451155801C4
:1013200015E0092D0B5F08C0C701612F0E94EF1364
:10133000F50181935F011F5F1017B1F7CE01019690
:10134000682D772D492D50E00E946115C60161E09E
:101350000E947314C601692D9DC085E392E00E942E
:10136000250BC60161E096C0C70162E00E94EF1341
:10137000682F85E392E070E00E94180BF2CFC7015E
:1013800062E00E94EF1360E0813009F461E085E3E0
:1013900092E00E942B0BE5CFC70162E00E94EF13A1
:1013A000682F70E076956795617085E392E00E9402
:1013B0002B0BC70162E00E94EF13682F70E0617091
:1013C000707085E392E00E942E0BCBCFC70162E0E4
:1013D0000E940614AB01BC0185E392E00E941D0B44
:1013E000C0CFC70162E00E94EF13682F70E0617008
:1013F00070708AE692E00E94F60DB3CFC70162E0FA
:101400000E94EF13682F70E0617070708AE692E0BE
:101410000E94040EC60161E00E94731489E892E004
:1014200035C0C60161E00E94731488EC92E00E940E
:10143000B20721C08AE692E061E00E941E0EC70159
:1014400062E00E94F413BC0188EC92E00E949607CF
:1014500088CFC60165E01EC0C60161E00E9473141A
:1014600089E892E006C0C60161E00E94731488EC2E
:1014700092E00E94AE07BC01C6010E948F140CC00E
:10148000C60161E00E94731488EC92E00E949A0702
:10149000682FC6010E94731481E001C080E060964D
:1014A0000FB6F894DEBF0FBECDBFCF91DF911F9175
:1014B0000F91FF90EF90DF90CF90BF90AF909F90F3
:1014C0008F907F9008950F931F9380915803909170
:1014D0005903892B09F489C08091580390915903CD
:1014E000049709F088C081C0109234020E94FE0A5D
:1014F0008091320390913303892B21F18091320343
:10150000909133030497F1F080912A02882349F4E3
:101510008AE292E040E25EE460E070E00E947B0DCF
:1015200011C08AE292E00E94560D882359F08FE0A4
:1015300093E00E94541384E0809331038EE093E0A3
:101540000E943C1180913103882361F08AE292E08D
:101550000E94530D8FE093E00E9462138EE093E0AF
:101560000E943C118091320390913303049709F05B
:1015700042C085E393E00E9425148AE190E060E098
:101580000E944C07082F8FE093E060E00E94EF1369
:10159000182F8AE292E00E94530D8FE093E065E3FA
:1015A00073E00E94A3068823B9F4101711F01F3FBF
:1015B00071F48FE093E065E373E00E94EE08882306
:1015C00059F485E393E065E00E94731405C08FE051
:1015D00093E00E9462130FC08FE093E00E946213B9
:1015E0008EE093E00E94971106C080913402882318
:1015F00009F47ECF79CF1F910F910895F8940E943E
:10160000910C0E9465078AE692E00E94800E85E3B5
:1016100092E00E944B0C789408950E94FE0A0E946A
:10162000630A0E946E0C85E392E00E94750BF7CF6F
:10163000FC017483638310820895FC014583568303
:101640006783708781E080830895FC01818591E044
:10165000892781870895FC01618308951F93CF93A3
:10166000DF93EC01162F8A81662319F58823C1F1D7
:1016700089818823A9F18A85882391F1CE01479633
:101680000E94560D882361F181E090E09C878B8752
:1016900069A17AA18BA19CA128EE33E040E050E043
:1016A0000E94C514AB01BC01CE010D960E947B0DBA
:1016B00017C0882399F48981882381F06DA57EA5C0
:1016C0008FA598A928EE33E040E050E00E94C514B1
:1016D000AB01BC01CE0147960E947B0D1C861B8688
:1016E0001A83DF91CF911F9108950F931F93CF938A
:1016F000DF93EC018A85882309F471C08B859C8572
:10170000892B09F46CC08E01035F1F4FC8010E9432
:10171000560D882309F47EC08B859C858230910507
:1017200039F18330910524F4019709F073C007C0A3
:1017300083309105A9F1049709F06CC047C082E09D
:1017400090E09C878B876DA17EA18FA198A528EE44
:1017500033E040E050E00E94C514AB01BC01C80179
:101760000E947B0D6B817C81709561957F4F4EC08F
:1017700083E090E09C878B8769A17AA18BA19CA1D3
:1017800028EE33E040E050E00E94C514AB01BC01FC
:10179000C8010E947B0D8AE692E060E070E038C0EC
:1017A00084E090E09C878B8769A57AA58BA59CA592
:1017B00028EE33E040E050E00E94C514AB01BC01CC
:1017C000C8010E947B0D6B817C8120C08AE692E07B
:1017D00060E070E00E947C0E1C861B861BC0888126
:1017E0008823C1F48985882379F48A81882361F06C
:1017F00089812B813C81882311F0B90107C06627BC
:101800007727621B730B02C060E070E08AE692E00B
:101810000E947C0EDF91CF911F910F9108950F933D
:101820001F938C01FC01128684E090E065E070E07B
:101830000E942C07A0E0B0E0F80181A392A3A3A32B
:10184000B4A386E090E064EF71E00E942C07A0E072
:10185000B0E0F80185A396A3A7A3B0A788E090E025
:101860006CE271E00E942C07A0E0B0E0F80181A7D3
:1018700092A7A3A7B4A78AE090E06CE271E00E946F
:101880002C07A0E0B0E0F80185A796A7A7A7B0AB0A
:101890001F910F910895FC0181E0818311861282CE
:1018A00014821382108214861386CF010E940F0CBB
:1018B00008950F931F938C010D960E944F0DC80140
:1018C00047960E944F0DC8010E944B0C1F910F912B
:1018D000089585E392E00E94590C089589E892E00A
:1018E0000E94BA0780910703882321F088EC92E0D8
:1018F0000E94BA070895DF93CF930F92CDB7DEB75A
:10190000BC01CE01019641E050E00E94511590E0EB
:1019100089818F3F09F091E0892F0F90CF91DF915E
:10192000089580E091E00E947B0C8093660280E83D
:1019300091E00E947B0C809367020895DF93CF9320
:1019400000D000D0CDB7DEB7982FE62FFF27E7FDF8
:10195000F095EA59FD4F80818823C1F0662319F084
:1019600060E871E002C060E071E0892F992787FD8F
:101970009095880F991F880F991F680F791FCE01C6
:10198000019644E050E00E94511510C0692F77275E
:1019900067FD7095660F771F660F771F60557F4F45
:1019A000CE01019644E050E00E94481569817A8199
:1019B0008B819C810F900F900F900F90CF91DF91B2
:1019C0000895AF92BF92CF92DF92EF92FF920F9362
:1019D0001F93CF93DF937C01A62E00E033E1B32E5B
:1019E00019E0812F6A2D0E949E0C412F552747FD3B
:1019F0005095E616F70664F4802F992787FD909599
:101A0000840F951F62E070E00E94E414B12E0BC0B9
:101A10008B2D992787FD9095840F951F62E070E0CC
:101A20000E94E414012F162F0617DCF2802F6A2D76
:101A30000E949E0C6C01EB018B2D6A2D0E949E0C66
:101A40009C01002319F4EC16FD06DCF083E1B816C6
:101A500019F46E157F05ACF0EC1AFD0A2C193D093E
:101A60006C1B7D0BE29EC001E39E900DF29E900DDB
:101A700011240E94E4146C0D7D1D6F3F710519F057
:101A800014F06FEF70E0CB01DF91CF911F910F91B8
:101A9000FF90EF90DF90CF90BF90AF900895FC0142
:101AA000108211820895FC0110820895CF93DF9374
:101AB000EC0188818823D9F089818823C1F48AE6E2
:101AC00092E00E94E90D2A813B814C815D81621B7D
:101AD000730B840B950B2E813F81488559856217C6
:101AE00073078407950718F0188281E0898389813C
:101AF000DF91CF910895CF92DF92EF92FF920F93F3
:101B00001F938C016A017B0181E0F80180831182BF
:101B10008AE692E00E94E90DF80162837383848370
:101B20009583C682D782E086F1861F910F91FF9040
:101B3000EF90DF90CF90089597B18095982397B953
:101B400098B1982398B9EAE7F0E080818F688083A4
:101B50000895282F80917A0086FF02C080E00895C2
:101B60009FB7F89470936902609368022F702064A5
:101B700020937C0080917A00806480937A009FBFDC
:101B800081E008951F920F920FB60F9211242F93A8
:101B90003F934F938F939F93EF93FF932091780000
:101BA00040917900E0916802F0916902942F80E001
:101BB00030E0822B932B91838083FF91EF919F9153
:101BC0008F914F913F912F910F900FBE0F901F90CB
:101BD0001895FC018FB7F894E256FF4F20813181B0
:101BE000428153818FBFB901CA01089580915D037D
:101BF000E82FF0E09281662311F084E001C080E0DC
:101C00009B7F892B82830895FC012FB7F894E356BC
:101C1000FF4F1082809180008F73809380008091AD
:101C20005D03E82FF0E09281662311F082E001C0AD
:101C300080E09D7F892B82832FBF0895FC01E356AE
:101C4000FF4F608308951F920F920FB60F921124D9
:101C50008F939F93AF93BF93809108039091090353
:101C6000A0910A03B0910B03805C9F4FAF4FBF4F11
:101C70008093080390930903A0930A03B0930B0386
:101C8000BF91AF919F918F910F900FBE0F901F90BA
:101C900018952FB7F894862F81508E3F88F084B521
:101CA0008F7384BD80915F03E82FF0E092816F3FD6
:101CB00011F480E401C080E09F7B892B828304C003
:101CC00067BD84B5806884BD2FBF08952FB7F89491
:101CD000809180008F738093800080915D03E82F56
:101CE000F0E09281662311F082E001C080E09D7FE8
:101CF000892B82832FBF0895CB010E94870F0895FF
:101D00000F931F938C010E94690FE0915D03F0E037
:101D100082818B7F8283E0915D03F0E0818184602A
:101D20008183E0915D03F0E082818D7F8283E09189
:101D30005D03F0E0818182608183E0915F03F0E0E8
:101D400082818F7B8283E0915F03F0E081818064F8
:101D5000818392E09093B00083E08093B10080E2B1
:101D60008093B3009093700081E0809380008BE0BB
:101D700080938100109289001092880010928B004D
:101D800010928A0010926F00C8010E944110C80191
:101D90000A960E941010C8014F960E941308C801AD
:101DA000825A9F4F0E94130880E090E00E94870FA4
:101DB0000EE013E0C80161E00E944811C8010196DD
:101DC0000E9462131F910F910895AF92BF92CF921C
:101DD000DF92EF92FF920F931F93DF93CF9300D088
:101DE00000D000D0CDB7DEB76C0180915F0389834E
:101DF0008A81807F84608A8390915D039B838C813C
:101E0000807F85608C839D838E81807F84608E83BC
:101E1000C601BE016F5F7F4FAE014D5F5F4F9E01F8
:101E20002B5F3F4F0E941D10AAE0AA2EB12CAC0CD4
:101E3000BD1CC50166E041E00E94D40F8BE192E039
:101E4000F601948F838F85E192E0968F858FA601AE
:101E5000455E5F4FC6014F96B60100E211EA27E0EA
:101E600030E0FCE0EF2EF12C0E94B108C601825A4E
:101E70009F4FB5012DE130E0C20ED31EA60100E553
:101E800013EC20E030E0E2E1EE2EF12C0E94B108EC
:101E900080E890E0C80ED91E81E0F601819310829F
:101EA00011821282138226960FB6F894DEBF0FBEFF
:101EB000CDBFCF91DF911F910F91FF90EF90DF90F9
:101EC000CF90BF90AF9008958AE692E00E94E50E11
:101ED000089510920D0310920C0383E084BD86E0F8
:101EE00085BD18BC10926E00E0915F03F0E0818127
:101EF00080628183E0915F03F0E082818F7D828345
:101F0000E0915D03F0E081818160818308959C010F
:101F100080910C0390910D032817390709F443C0F1
:101F200030930D0320930C0360E037FF04C061E0A1
:101F3000309521953F4FA9012F3F310519F014F03D
:101F40004FEF50E03FB7F8944115510519F04F3F5E
:101F5000510591F484B58F7C84BD80915F03E82F97
:101F6000F0E022814F3F510511F480E201C080E092
:101F70002F7D822B828309C0E0915F03F0E0828194
:101F80008062828384B5806284BD80915D03E82F86
:101F9000F0E082818E7F90E0662309F491E0892B46
:101FA000828348BD3FBF0895FC0181E292E09183A6
:101FB000808364831786408B108617821286118671
:101FC000148613861686158608950F931F93CF9354
:101FD000DF93EC018FB7F8940D811E818FBFBE0196
:101FE0006B5F7F4F8C810E94A90D8823A1F08F85A4
:101FF00090E0FC01EE0FFF1FEC0FFD1F1087078321
:102000000196837090708F87C80168890E94E10CE7
:102010009B838A8381E0DF91CF911F910F91089577
:1020200021E030E0FC01048002C0220F331F0A943B
:10203000E2F7822F0E949C0D0895FC01DB0187E2EC
:1020400092E0918380836C9111969C919F70858121
:10205000807F892B85836483DA016C9111969C9132
:102060009F708781807F892B87836683D9014C91FC
:1020700011969C919F708185807F892B81874087F5
:102080000895DC011496EC911497F0E031811596D7
:102090008C9115978F7041E050E0BA0102C0660F35
:1020A000771F8A95E2F7262F20952323262B21835D
:1020B0001696EC911697F0E0318117968C91179750
:1020C0008F70BA0102C0660F771F8A95E2F7262F3C
:1020D00020952323262B21831896EC911897F0E066
:1020E000918119968C918F7002C0440F551F8A956B
:1020F000E2F740954923418308950F931F93CF93AF
:10210000DF93DC011496EC911497F0E03281159680
:102110002C9115972F7081E090E002C0880F991FD5
:102120002A95E2F780958323828300000000000057
:10213000000000001696EC911697F0E03281179699
:102140002C9117972F7081E090E002C0880F991FA3
:102150002A95E2F780958323828300000000000027
:102160000000000060E070E04FEF5FEFC1E0D0E002
:102170001696EC911697F0E0328117968C9117978E
:102180008F708E0102C0000F111F8A95E2F7202F79
:1021900020952323202B2283000000000000000054
:1021A00000004A30510598F4660F771F1896EC919D
:1021B0001897F0E0808190E019962C9119972F7074
:1021C00002C0959587952A95E2F780FD6160169685
:1021D000EC911697F0E0228117968C9117978F70EB
:1021E0008E0102C0000F111F8A95E2F7C801809589
:1021F00082238283000000000000000000004F5F87
:102200005F4F4F30510509F0B3CF1496EC911497FE
:10221000F0E0328115962C9115972F7081E090E0B7
:1022200002C0880F991F2A95E2F7282F20952323B3
:10223000282B2283000000000000000000001696FA
:10224000EC911697F0E0328117962C9117972F702A
:1022500081E090E002C0880F991F2A95E2F78095EF
:102260008323828313967C936E93129781E0DF9190
:10227000CF911F910F9108958FB7F89410925B033F
:10228000E0915E03F0E092819E7F92838FBF08957C
:10229000FC0160838081882321F08091C100806CE3
:1022A00003C08091C1008F738093C10008951F9275
:1022B0000F920FB60F9211242F933F934F935F937A
:1022C0006F937F938F939F93AF93BF93EF93FF93FE
:1022D0008091580390915903892B91F08091580374
:1022E00090915903049761F080915B038F5F809315
:1022F0005B0385E393E00E942D148093C60006C023
:10230000E0915E03F0E082818E7F8283FF91EF9106
:10231000BF91AF919F918F917F916F915F914F91FD
:102320003F912F910F900FBE0F901F9018951F9304
:10233000FC018081882391F01FB7F894CF01879624
:102340000E942D14E0915E03F0E0928191609283EF
:1023500091E090935B038093C6001FBF1F91089587
:102360001F920F920FB60F9211242F933F934F930A
:102370005F936F937F938F939F93AF93BF93EF93ED
:10238000FF938091C60080935C0380915B03882358
:1023900031F080915B03815080935B0306C06091B4
:1023A0005C038FE093E00E946913FF91EF91BF916E
:1023B000AF919F918F917F916F915F914F913F91DD
:1023C0002F910F900FBE0F901F9018950F931F9392
:1023D0008C01FC011192CF010E945B13C80187960A
:1023E0000E941D141092C50089E18093C40080E40E
:1023F0008093C00088E18093C10086E08093C20092
:10240000E0915E03F0E0818181608183E0915E0371
:10241000F0E0818182608183E0915E03F0E082815F
:102420008D7F8283E0915F03F0E081818E7F8183E5
:10243000828181608283E0915E03F0E082818E7F01
:1024400082831F910F9108958EE093E00E94E61120
:10245000089583E280935D0386E280935E0389E2C0
:1024600080935F030895CF93DF93EC011C8E1B8E46
:102470001A8E198E1E8E1D8E80E090E0A0E0B0E0D6
:1024800088879987AA87BB878C839D83AE83BF8308
:1024900088839983AA83BB83188E0BC0E82FF0E052
:1024A0003696EE0FFF1FEC0FFD1F118210828F5F1B
:1024B000888F888D843090F3188E80E090E0A0E0C3
:1024C000B0E08C8B9D8BAE8BBF8BDF91CF9108954D
:1024D0002F923F924F925F926F927F928F929F9234
:1024E000AF92BF92CF92DF92EF92FF920F931F9322
:1024F000DF93CF93CDB7DEB728970FB6F894DEBF42
:102500000FBECDBF98878F83FC01058CF68DE02D23
:10251000E61BF70BFA83E983FC01838D948D2981F7
:102520003A81820F931F948F838F8150914024F0C2
:1025300080E091E0948F838FEF81F885838D948D77
:1025400080509F4F34F480E09FEFEF81F885948FA7
:10255000838F29813A81B901882777FD8095982F4B
:102560000E948303EF81F88520813181428153816C
:102570000E9459026B837C838D839E83EF81F88553
:10258000638D748D882777FD8095982F0E94830333
:10259000EF81F88524813581468157810E94590257
:1025A0001B012C01EF81F885818D928DC980DA8025
:1025B000C81AD90A008D10E00A5F1F4F3801660C57
:1025C000771C6E0E7F1EF30160817181882777FD75
:1025D0008095982F0E9483039B01AC01EF81F885C1
:1025E00064897589868997890E94FB014B015C018A
:1025F000EF81F885648B758B868B978BF301D18285
:10260000C082EE24D7FCE094FE2CC701B6010E94E4
:1026100083039B01AC01C501B4010E942C02EF8130
:10262000F885648B758B868B978B055010400370F3
:102630001070008F20853185428553850E94590294
:102640007B018C0129813A81EF81F885328F218FBE
:102650006B817C818D819E81A20191010E942C025F
:10266000A80197010E942C020E94E1039B01AC018A
:10267000220F331FC90128960FB6F894DEBF0FBE94
:10268000CDBFCF91DF911F910F91FF90EF90DF9021
:10269000CF90BF90AF909F908F907F906F905F9002
:1026A0004F903F902F900895FC011182108212A24A
:1026B00014A213A20895FC011182108212A214A286
:1026C00013A20895FC011182108212A214A213A277
:1026D0000895DC0193968D919C919497892B91F4A8
:1026E000653D19F481E090E066C011961C92119747
:1026F0001C9292961C92929794961C921E9293977B
:1027000081E020C093968D919C9194970197E9F474
:10271000603260F495966C93959795968C91959709
:10272000882309F438C082E090E045C011961C92DD
:1027300011971C9292961C92929794961C921E92BC
:10274000939782E092968C93089593968D919C91A5
:102750009497029719F58C918032B8F411968C9168
:102760001197862728E09CE880FB86950EF4892740
:102770002A95D1F711968C9311978C91FD01E80F52
:10278000F11D62838C918F5F8C939C9195968C91B7
:102790009597981718F183E090E00DC093968D916E
:1027A0009C9194970397D1F411968C911197861769
:1027B00039F484E090E094969C938E9393970895D7
:1027C00011961C9211971C9292961C929297949635
:1027D0001C921E92939783E092968C930895FC012D
:1027E000E60FF11D82810895E62FF0E0DC01AE0FC7
:1027F000BF1F12962C913196E80FF91F4281942F3A
:1028000080E030E0282B392BC9010895A62FB0E0D5
:10281000FC01EA0FFB1F6281FD013196E80FF91FF1
:1028200072811296FC01EA0FFB1F22811196A80FFC
:10283000B91F12969C91822F0895FC01118210827B
:1028400012A214A213A215A20895FC0111821082F3
:1028500012A214A213A215A20895DC0193968D91E1
:102860009C919497892B41F481E090E094969C93FD
:102870008E93939725ED35C093968D919C91949767
:10288000019739F42C918C918823B9F082E090E083
:1028900024C093968D919C919497029789F4959674
:1028A0008C919597FD01E80FF11D22818F5F959620
:1028B0008C9395979C918917A0F083E090E00DC0D0
:1028C00093968D919C919497039711F020E009C005
:1028D00011962C91119784E090E094969C938E939E
:1028E0009397822F0895DC018C918032B8F4119671
:1028F0008C911197862728E09CE880FB86950EF442
:1029000089272A95D1F711968C9311978C91FD0107
:10291000E80FF11D62838C918F5F8C930895DC0129
:102920008C918032B8F411968C911197862728E00B
:102930009CE880FB86950EF489272A95D1F711969D
:102940008C9311978C91FD01E80FF11D62838C919E
:102950008F5F8C938C918032B8F411968C91119783
:10296000872728E09CE880FB86950EF489272A9526
:10297000D1F711968C9311978C91FD01E80FF11D01
:1029800072838C918F5F8C930895629FD001739FA7
:10299000F001829FE00DF11D649FE00DF11D929FFB
:1029A000F00D839FF00D749FF00D659FF00D99273A
:1029B000729FB00DE11DF91F639FB00DE11DF91F5E
:1029C000BD01CF011124089597FB092E07260AD0D7
:1029D00077FD04D00CD006D000201AF470956195D4
:1029E0007F4F0895F6F7909581959F4F0895AA1B04
:1029F000BB1B51E107C0AA1FBB1FA617B70710F0EA
:102A0000A61BB70B881F991F5A95A9F7809590951B
:102A1000BC01CD0108952F923F924F925F926F9229
:102A20007F928F929F92AF92BF92CF92DF92EF925E
:102A3000FF920F931F93CF93DF93CDB7DEB7CA1BDF
:102A4000DB0B0FB6F894DEBF0FBECDBF09942A880A
:102A5000398848885F846E847D848C849B84AA84B2
:102A6000B984C884DF80EE80FD800C811B81AA813F
:102A7000B981CE0FD11D0FB6F894DEBF0FBECDBF0A
:102A8000ED010895EE0FFF1F0590F491E02D0994DC
:102A9000FB01DC0102C005900D9241505040D8F777
:102AA0000895DC01CB01FC01F999FECF06C0F2BD0F
:102AB000E1BDF89A319600B40D9241505040B8F7FC
:102AC0000895DC01CB0103C02D910E946C1541508B
:102AD0005040D0F70895262FF999FECF1FBA92BD26
:102AE00081BD20BD0FB6F894FA9AF99A0FBE0196EF
:062AF0000895F894FFCFE9
:102AF600457874727564657200000000000000007D
:102B06000000010202030303030404040404040492
:102B16000405050505050505050505050505050560
:102B26000506060606060606060606060606060640
:102B3600060606060606060606060606060606062F
:102B46000607070707070707070707070707070710
:102B560007070707070707070707070707070707FF
:102B660007070707070707070707070707070707EF
:102B760007070707070707070707070707070707DF
:102B860007080808080808080808080808080808C0
:102B960008080808080808080808080808080808AF
:102BA600080808080808080808080808080808089F
:102BB600080808080808080808080808080808088F
:102BC600080808080808080808080808080808087F
:102BD600080808080808080808080808080808086F
:102BE600080808080808080808080808080808085F
:102BF600080808080808080808080808080808084F
:102C06000800000000660E00000000490E000000EB
:0A2C160000E50F000000007D100033
:00000001FF
