:100000000C9486000C94AE000C94AE000C94AE00E0
:100010000C94AE000C94AE000C94AE000C94AE00A8
:100020000C94BE0F0C94830F0C94410F0C94670F2B
:100030000C94AE000C94AE000C9420130C94AE0003
:100040000C945D120C94AE000C94F0140C94AE0061
:100050000C9497140C94EB0D0C94AE000C94AE0021
:100060000C94AE000C94AE001D093C0940094709F0
:10007000B509630AE709630AC009630ACD09630A7F
:10008000F209FF092A0A630A630A630A630A630A18
:10009000630A630A0B0AAE09630A4F097509630A0A
:1000A000630A630A120A1B0A410A480A2509550A0B
:1000B000010049033600FF006B00D100A000B8002A
:1000C000D500A6000A0199003F018E00740184004A
:1000D000A9017C00DE01740013026C004802650077
:1000E0007D025D00B2025600E7024E001C0346008E
:1000F00051033D0086033200BB032200F0030300DE
:10010000EA08920C2D119D136415691511241FBE68
:10011000CFEFD4E0DEBFCDBF12E0A0E0B1E0EAEB6C
:10012000F1E302C005900D92AA32B107D9F713E0AE
:10013000AAE2B2E001C01D92A638B107E1F711E0D2
:10014000CCE0D1E004C02297FE010E94A618C03086
:10015000D107C9F70E94220B0C94DB180C94000005
:10016000A0E0B0E0E6EBF0E00C946D18DC012B01B0
:10017000FA019C91923008F439C1EB0188818230F8
:1001800008F433C1943069F4843009F02FC111961A
:100190009C9111978981981709F428C1A9E0B1E0D1
:1001A00025C1843009F421C18230A9F4923009F0CC
:1001B0001DC19A01AD0188E0EA010990AE01E90193
:1001C00009929E018150C1F7E201898111969C91AB
:1001D0008923818308C1923009F407C112962D90BA
:1001E0003C901397EB018A819B811496AD90BD9052
:1001F000CD90DC901797EC80FD800E811F819101DE
:10020000281B390BB90137FF04C066277727621B0B
:10021000730B603271050CF061C0121613066CF599
:1002200037014801062E04C096948794779467940A
:100230000A94D2F721E030E040E050E004C0220F01
:10024000331F441F551F6A95D2F72150304040405C
:1002500050402E213F2140235123211531054105D6
:10026000510521F021E030E040E050E079018A01C1
:10027000E628F728082919293CC0232BD1F1260E9E
:10028000371E35014601062E04C096948794779454
:1002900067940A94D2F721E030E040E050E004C0D7
:1002A000220F331F441F551F6A95D2F7215030404B
:1002B000404050402A213B214C215D212115310530
:1002C0004105510521F021E030E040E050E05901C6
:1002D0006A01A628B728C828D9280BC0821593051B
:1002E0002CF01C01AA24BB24650103C0EE24FF24CA
:1002F000870111969C91D20111968C91981709F45F
:1003000045C0992339F0A80197012A193B094C09E6
:100310005D0906C0A60195012E193F09400B510B3E
:1003200057FD08C01182338222822483358346839D
:1003300057831DC081E081833382228288279927D9
:10034000DC01821B930BA40BB50B84839583A683DE
:10035000B7830DC0220F331F441F551F24833583DD
:10036000468357838281938101979383828324817B
:10037000358146815781DA01C9010197A109B10987
:100380008F5F9F4FAF4FBF4328F30BC091833382E2
:100390002282EA0CFB1C0C1D1D1DE482F5820683E3
:1003A000178383E08083248135814681578157FFFD
:1003B0001AC0C901AA2797FDA095BA2F8170907025
:1003C000A070B0705695479537952795822B932B43
:1003D000A42BB52B84839583A683B78382819381D5
:1003E000019693838283DF0101C0D201CD01CDB795
:1003F000DEB7E2E10C948918A0E2B0E0E2E0F2E0BE
:100400000C94791869837A838B839C832D833E8334
:100410004F835887E9E0EE2EF12CEC0EFD1ECE0145
:100420000196B7010E94D3058E010F5E1F4FCE01CA
:100430000596B8010E94D3058A8991E089278A8BA5
:10044000C701B801AE01475E5F4F0E94B0000E9435
:10045000FE04A096E6E00C949518A0E2B0E0E3E379
:10046000F2E00C94791869837A838B839C832D83C3
:100470003E834F835887F9E0EF2EF12CEC0EFD1EE2
:10048000CE010196B7010E94D3058E010F5E1F4F6A
:10049000CE010596B8010E94D305C701B801AE018F
:1004A000475E5F4F0E94B0000E94FE04A096E6E007
:1004B0000C949518A0E2B0E0E0E6F2E00C946D1820
:1004C00069837A838B839C832D833E834F835887F4
:1004D000CE010196BE01675F7F4F0E94D305CE011A
:1004E0000596BE016F5E7F4F0E94D30599859230BD
:1004F00088F089898230C8F0943019F4823051F440
:1005000004C0843029F4923081F489E091E0C6C0BF
:10051000923049F420E09A858A89981321E02A874D
:10052000CE010996BBC0823049F420E09A858A89C1
:10053000981321E02A8BCE014196B0C02D843E84D1
:100540004F8458886D887E888F88988CEE24FF248D
:100550008701AA24BB24650140E050E060E070E020
:10056000E0E0F0E0C10181709070892BE9F0E60CC9
:10057000F71C081D191D9A01AB012A0D3B1D4C1DCE
:100580005D1D80E090E0A0E0B0E0E614F70408050F
:10059000190520F481E090E0A0E0B0E0BA01A901E3
:1005A000480F591F6A1F7B1FAA0CBB1CCC1CDD1CEB
:1005B00097FE08C081E090E0A0E0B0E0A82AB92A48
:1005C000CA2ADB2A3196E032F10549F0660C771C25
:1005D000881C991C5694479437942794C3CFFA8566
:1005E000EA892B893C898B859C85280F391F2E5FD2
:1005F0003F4F17C0CA0181709070892B61F016952A
:100600000795F794E79480E090E0A0E0B0E8E82A4E
:10061000F92A0A2B1B2B76956795579547952F5FDF
:100620003F4F77FDE7CF0CC0440F551F661F771F64
:1006300017FD4160EE0CFF1C001F111F21503040C0
:10064000403090E0590790E0690790E4790760F343
:100650002B8F3C8FDB01CA018F779070A070B07038
:1006600080349105A105B10561F447FD0AC0E1148C
:10067000F1040105110529F0405C5F4F6F4F7F4F7A
:1006800040781A8EFE1711F081E08A8F4D8F5E8FB1
:100690006F8F78A383E0898FCE0149960E94FE0474
:1006A000A096E2E10C948918A8E1B0E0EAE5F3E055
:1006B0000C94791869837A838B839C832D833E8382
:1006C0004F83588789E0E82EF12CEC0EFD1ECE01F9
:1006D0000196B7010E94D3058E010F5E1F4FCE0118
:1006E0000596B8010E94D3058985823040F089893A
:1006F000823028F0C701B8010E944B0601C081E09A
:100700006896E6E00C949518A8E0B0E0EAE8F3E01B
:100710000C9476189B01AC0183E08983DA01C9014E
:100720008827B7FD83959927AA27BB27B82E2115BF
:1007300031054105510519F482E089833AC08823C7
:10074000A9F0203080E0380780E0480780E85807AB
:1007500029F460E070E080E09FEC30C0EE24FF24DC
:100760008701E21AF30A040B150B02C079018A0112
:100770008EE1C82ED12CDC82CB82ED82FE820F83EB
:100780001887C801B7010E94AF040197181619060F
:1007900084F4082E04C0EE0CFF1C001F111F0A94E5
:1007A000D2F7ED82FE820F831887C81AD90ADC823D
:1007B000CB82BA82CE0101960E94FE042896E9E01F
:1007C0000C949218ACE0B0E0E8EEF3E00C947D18E5
:1007D00069837A838B839C83CE010196BE016B5F14
:1007E0007F4F0E94D3058D81823061F1823050F1BC
:1007F000843021F48E81882351F12EC02F813885D9
:1008000037FD20C06E812F3131051CF06623F9F0D1
:1008100023C08EE190E0821B930B29853A854B859E
:100820005C8504C056954795379527958A95D2F7EC
:100830006623B1F050954095309521953F4F4F4F2D
:100840005F4F0EC020E030E040E050E009C02FEFE5
:100850003FEF4FEF5FE704C020E030E040E050E8BA
:10086000B901CA012C96E2E00C949918A8E0B0E016
:10087000ECE3F4E00C9475187B018C0161157105B3
:100880008105910519F482E0898360C083E0898342
:100890008EE1C82ED12CDC82CB82ED82FE820F83CA
:1008A0001887C801B7010E94AF04FC013197F7FF18
:1008B0003BC0222733272E1B3F0B57016801022E16
:1008C00004C0D694C794B794A7940A94D2F740E092
:1008D00050E060E070E081E090E0A0E0B0E004C0B3
:1008E000880F991FAA1FBB1F2A95D2F70197A1094C
:1008F000B1098E219F21A023B1230097A105B10545
:1009000021F041E050E060E070E04A295B296C2969
:100910007D294D835E836F8378878EE190E08E1B07
:100920009F0B9C838B8312C0309781F00E2E04C0E6
:10093000EE0CFF1C001F111F0A94D2F7ED82FE82FD
:100940000F831887CE1ADF0ADC82CB821A82CE018F
:1009500001960E94FE042896EAE00C949118EF920A
:10096000FF920F931F937B018C0180E0E81680E0DB
:10097000F80681E0080780E0180788F48FEFE81692
:10098000F1040105110531F028F088E090E0A0E0C5
:10099000B0E017C080E090E0A0E0B0E012C080E0DE
:1009A000E81680E0F80680E0080781E0180728F0E4
:1009B00088E190E0A0E0B0E004C080E190E0A0E039
:1009C000B0E020E230E040E050E0281B390B4A0B59
:1009D0005B0B04C016950795F794E7948A95D2F7B8
:1009E000F701EF5EFE4F8081281B31094109510953
:1009F000C9011F910F91FF90EF900895DF92EF9240
:100A0000FF920F931F93FC01E480F580068117810C
:100A1000D1808081823048F480E090E0A0E1B0E0B5
:100A2000E82AF92A0A2B1B2BA5C0843009F49FC0A1
:100A3000823021F4EE24FF24870105C0E114F10483
:100A40000105110519F4E0E0F0E096C062817381C0
:100A50009FEF623879070CF05BC022E83FEF261B5E
:100A6000370B2A3131052CF020E030E040E050E037
:100A70002AC0B801A701022E04C076956795579544
:100A800047950A94D2F781E090E0A0E0B0E004C07E
:100A9000880F991FAA1FBB1F2A95D2F70197A1099A
:100AA000B1098E219F21A023B1230097A105B10593
:100AB00021F081E090E0A0E0B0E09A01AB01282BAA
:100AC000392B4A2B5B2BDA01C9018F779070A0700C
:100AD000B07080349105A105B10539F427FF09C034
:100AE000205C3F4F4F4F5F4F04C0215C3F4F4F4F43
:100AF0005F4FE0E0F0E02030A0E03A07A0E04A07D6
:100B0000A0E45A0710F0E1E0F0E079018A0127C083
:100B10006038710564F5FB01E158FF4FD801C7014A
:100B20008F779070A070B07080349105A105B105E9
:100B300039F4E7FE0DC080E490E0A0E0B0E004C02E
:100B40008FE390E0A0E0B0E0E80EF91E0A1F1B1F43
:100B500017FF05C016950795F794E794319687E03F
:100B600016950795F794E7948A95D1F705C0EE247A
:100B7000FF248701EFEFF0E06E2F679566276795FA
:100B8000902F9F77D794DD24D7948E2F8695492F69
:100B9000462B582F5D29B701CA011F910F91FF9075
:100BA000EF90DF900895FC01DB01408151812281AB
:100BB000622F6F7770E0221F2227221F9381892FD7
:100BC000880F822B282F30E0991F9927991F1196A3
:100BD0009C93119721153105A9F541155105610522
:100BE000710511F482E037C082E89FEF13969C9361
:100BF0008E9312979A01AB0167E0220F331F441FB7
:100C0000551F6A95D1F783E08C930DC0220F331FD7
:100C1000441F551F12968D919C911397019713961F
:100C20009C938E931297203080E0380780E048072D
:100C300080E4580758F314962D933D934D935C939D
:100C4000179708952F3F310579F441155105610536
:100C5000710519F484E08C93089564FF03C081E06A
:100C60008C9312C01C9210C02F57304013963C93A7
:100C70002E93129783E08C9387E0440F551F661FD5
:100C8000771F8A95D1F7706414964D935D936D9399
:100C90007C93179708951F93DC01FB019C91923080
:100CA00008F447C08081823008F443C0943051F486
:100CB00011961C91843099F58181682F70E0611B39
:100CC00071093FC0843021F0923031F48230B9F1A3
:100CD0008181882389F12DC011961C911197823052
:100CE000F1F081811817D9F412962D913C91139748
:100CF000828193818217930794F028173907BCF0FB
:100D000014968D919D910D90BC91A02D24813581DB
:100D100046815781281739074A075B0718F41123C2
:100D200041F00AC082179307A407B50740F41123C6
:100D300019F061E070E005C06FEF7FEF02C060E086
:100D400070E0CB011F910895CF92DF92EF92FF9256
:100D50000F931F93CF93DF938C017B01FC01808164
:100D6000882351F16801C80160E00E942F17982F75
:100D70008077803709F59037B1F4C7010E94651775
:100D8000C1E0D0E009C0C6016C2F0E942F17682F68
:100D9000C7010E94B3172196F801808190E0C8171F
:100DA000D9078CF307C0913739F0923729F080E0EA
:100DB000933719F481E001C080E0DF91CF911F915A
:100DC0000F91FF90EF90DF90CF900895EF92FF92F8
:100DD0000F931F93DF93CF9300D0CDB7DEB79C0165
:100DE000F42E052F162FE72ECE010196B90142E011
:100DF00050E00E94B31869816F3F19F48A818F3FD8
:100E0000E9F070E080E090E00E9436047B018C0104
:100E10006A8170E080E090E00E94360420E030E0DB
:100E200040E85BE30E945A029B01AC01C801B70194
:100E30000E942D02F62E072F182FE92E2F2D302F6E
:100E4000412F5E2DB901CA010F900F90CF91DF9114
:100E50001F910F91FF90EF9008950F931F93DF93D1
:100E6000CF9300D0CDB7DEB79C018B01CE010196A8
:100E7000B90142E050E00E94B31889819A818F5FE6
:100E80009F4F11F41A83098389819A810F900F90E3
:100E9000CF91DF911F910F9108951F93DF93CF930F
:100EA0000F92CDB7DEB79C01162FCE010196B90186
:100EB00041E050E00E94B31889818F3F09F4198303
:100EC00089810F90CF91DF911F910895DF93CF9388
:100ED00000D0CDB7DEB7CE01019660E070E042E011
:100EE00050E00E94B3183A8184E6389FC001112473
:100EF0002981820F911D8E3C9105A1F032503D3F1A
:100F000028F082E090E06BE10E94CD1886E08983B2
:100F100082E08A83CE01019660E070E042E050E01A
:100F20000E94C3180F900F90CF91DF910895FC019C
:100F300076AF65AF0895FC01448D558D25AD36AD76
:100F4000C90102974817590714F480E0089580E01A
:100F50002E5F3F4F241735070CF081E00895FC0108
:100F600085AD96AD0895FC010190F081E02D2281C0
:100F70003381C90108950F931F93CF93DF93EC0141
:100F80008C01025F1F4FC8010E947F0D882391F0E2
:100F9000E881F981A081B1812D913C91CF01F901C6
:100FA00009958823E1F1488D598D6A8D7B8DC801A3
:100FB0000E94A40D8E010C5F1F4FC8010E947F0D7F
:100FC000882369F1C80140E251EA67E070E00E94BD
:100FD000A40DE881F981228133812C8F3D8FCE01D0
:100FE0008096B9010E94A815BC0197FF03C060E07C
:100FF00070E006C08F3F910519F014F06FEF70E0BC
:101000008DAD9EAD892B11F460E070E0EA81FB812B
:10101000A081B1812D913C91CF01F9010995DF911A
:10102000CF911F910F9108956F927F928F929F920F
:10103000AF92BF92CF92DF92EF92FF920F931F93E6
:10104000CF93DF93EC011D8E1C8E8E8D9F8D40E023
:1010500050E060EE70E40E94E6063B014C018E8D8C
:101060009F8D029646E656E666EA7EE30E94E60615
:101070005B016C018E8D9F8D049640E050E060E135
:1010800072E40E94E6067B018C01CE0180960E94EC
:101090007315C401B30120E030E040E050E00E944D
:1010A0005403882391F5C601B50120E030E040E00B
:1010B00050E00E945403882341F5C801B70120E0A5
:1010C00030E040E050E00E9454038823F1F40F2EFA
:1010D000F0E06F2EF0E07F2EF0EE8F2EF0E49F2EEA
:1010E000F02D0F2EF6E6AF2EF6E6BF2EF6EACF2E47
:1010F000FEE3DF2EF02D0F2EF0E0EF2EF0E0FF2EBE
:10110000F0E10F2FF2E41F2FF02D68A279A28AA23E
:101110009BA2ACA2BDA2CEA2DFA2E8A6F9A60AA716
:101120001BA71EAE1DAECE01049640E251EA67E059
:1011300070E00E94A40D488D598D6A8D7B8DCE0183
:101140000E960E94A40DDF91CF911F910F91FF90F9
:10115000EF90DF90CF90BF90AF909F908F907F9057
:101160006F900895AF92BF92CF92DF92EF92FF926D
:101170000F931F93CF93DF93EC015801690179839B
:1011800068835B834A8304960E94780DCE010E9695
:101190000E94780DA88EB98ECA8EDB8EFF8EEE8EE1
:1011A000CE0180960E9473158E8D9F8D892B21F420
:1011B0008CE090E09F8F8E8FCE010E941408DF910B
:1011C000CF911F910F91FF90EF90DF90CF90BF9044
:1011D000AF9008958AE292E00E94780D08957F9280
:1011E0008F929F92AF92BF92CF92DF92EF92FF9237
:1011F0000F931F93DF93CF93CDB7DEB760970FB6F2
:10120000F894DEBF0FBECDBFFC016B018081882347
:1012100009F459C17F01CF0161E00E942F17E82F27
:10122000F0E0E432F10508F04EC1EC5CFF4FEE0F48
:10123000FF1F0590F491E02D0994C60161E00E9422
:10124000B317C6016EEC70E02DC1C60161E00E94CB
:10125000B31700E011E0C601F80160810E94B317E6
:10126000F8018081882309F42CC10F5F1F4FF1E042
:101270000F311F0781F725C181E08093340272C0CE
:10128000C60161E00E94B31780E992E0D1C0C701B6
:1012900062E00E943417BC0180E992E0D8C0C70127
:1012A00062E00E9434175C01C70164E00E942F17BE
:1012B000813148F5E82EFF248E010F5F1F4FC801D2
:1012C000B501A7010E94B318C60161E00E94B317DF
:1012D000E00EF11E06C0C601F80161918F010E9467
:1012E000B3170E151F05B9F7ECC0C70162E00E94E5
:1012F0003417882E792EC70164E00E942F17982E8C
:10130000F0E1F81718F4C60162E0D9C08E010F5F52
:101310001F4FC801682D772D492D50E00E94B3184A
:10132000580115E0092D0B5F08C0C701612F0E940D
:101330002F17F50181935F011F5F1017B1F7CE01E1
:101340000196682D772D492D50E00E94C318C601E3
:1013500061E00E94B317C601692DB1C085E392E038
:101360000E943A0BC60161E0AAC0C70162E00E9478
:101370002F17682F85E392E070E00E942D0BF2CFCB
:10138000C70162E00E942F1760E0813009F461E03C
:1013900085E392E00E94400BE5CFC70162E00E9426
:1013A0002F17682F70E076956795617085E392E05E
:1013B0000E94400BC70162E00E942F17682F70E067
:1013C0006170707085E392E00E94430BCBCFC70140
:1013D00062E00E944617AB01BC0185E392E00E94E7
:1013E000320BC0CFC70162E00E942F17682F70E058
:1013F000617070708AE692E00E94CB0EB3CFC70195
:1014000062E00E942F17682F70E0617070708AE6AA
:1014100092E00E94D50EC60161E00E94B31780E9F8
:1014200092E049C0C60161E00E94B3178FEC92E0E0
:101430000E94B30735C08AE692E061E00E943C0F4B
:10144000C70162E00E943417BC018FEC92E00E9459
:10145000970788CFC70162E00E942F17482F8F3F60
:1014600031F48AE692E060E04FEF5FEF07C0853B22
:1014700008F044EB8AE692E060E050E00E942E0E15
:1014800071CFC60161E00E94B31780E992E006C007
:10149000C60161E00E94B3178FEC92E00E94AF0793
:1014A000BC01C6010E94CF170CC0C60161E00E94BA
:1014B000B3178FEC92E00E949B07682FC6010E9431
:1014C000B31781E001C080E060960FB6F894DEBFEC
:1014D0000FBECDBFCF91DF911F910F91FF90EF9085
:1014E000DF90CF90BF90AF909F908F907F900895A6
:1014F0000F931F9380917E0390917F03892B09F4B2
:1015000089C080917E0390917F03049709F088C081
:1015100081C0109234020E94130B80915803909165
:101520005903892B21F18091580390915903049715
:10153000F1F080912A02882349F48AE292E040E2A5
:101540005EE460E070E00E94A40D11C08AE292E0C7
:101550000E947F0D882359F085E393E00E94941642
:1015600084E08093570384E393E00E947C1480918D
:101570005703882361F08AE292E00E947C0D85E3A4
:1015800093E00E94A21684E393E00E947C14809171
:10159000580390915903049709F042C08BE593E0FA
:1015A0000E9465178AE190E060E00E944D07082FD5
:1015B00085E393E060E00E942F17182F8AE292E003
:1015C0000E947C0D85E393E06BE573E00E94A40626
:1015D0008823B9F4101711F01F3F71F485E393E0ED
:1015E0006BE573E00E94EF08882359F48BE593E0E4
:1015F00065E00E94B31705C085E393E00E94A21640
:101600000FC085E393E00E94A21684E393E00E945A
:10161000D71406C080913402882309F47ECF79CF95
:101620001F910F910895F8940E94BA0C0E946607CA
:101630008AE692E00E94FF0F85E392E00E94740C1C
:10164000789408950E94130B0E94780A0E94970CC8
:1016500085E392E00E948A0BF7CFFC0174836383D9
:1016600010820895FC01458356836783708781E06B
:1016700080830895FC01818591E089278187089501
:10168000FC01618308951F93CF93DF93EC01162F24
:101690008A81662319F58823C1F189818823A9F1FC
:1016A0008A85882391F1CE0147960E947F0D882379
:1016B00061F181E090E09C878B8769A17AA18BA181
:1016C0009CA128EE33E040E050E00E940518AB01F9
:1016D000BC01CE010D960E94A40D17C0882399F479
:1016E0008981882381F06DA57EA58FA598A928EE14
:1016F00033E040E050E00E940518AB01BC01CE0190
:1017000047960E94A40D1C861B861A83DF91CF91F9
:101710001F9108950F931F93CF93DF93EC018A8558
:10172000882309F473C08B859C85892B09F46EC0CE
:101730008E01035F1F4FC8010E947F0D882309F4AB
:1017400092C08B859C858230910539F1833091055B
:1017500024F4019709F087C007C083309105B9F1DF
:10176000049709F080C049C082E090E09C878B8795
:101770006DA17EA18FA198A528EE33E040E050E056
:101780000E940518AB01BC01C8010E94A40D6B8129
:101790007C81709561957F4F50C083E090E09C877D
:1017A0008B8769A17AA18BA19CA128EE33E040E050
:1017B00050E00E940518AB01BC01C8010E94A40DB5
:1017C0008AE692E060E070E00E94FB0F4CC084E08B
:1017D00090E09C878B8769A57AA58BA59CA528EEB0
:1017E00033E040E050E00E940518AB01BC01C801A5
:1017F0000E94A40D6B817C8120C08AE692E060E0AB
:1018000070E00E94FB0F1C861B862DC08881998585
:101810008823B1F4992379F48A81882361F089813E
:101820002B813C81882311F0B90107C066277727F7
:10183000621B730B02C060E070E08AE692E0C4CFE6
:10184000992341F48A81882329F04D815E816F813B
:10185000788504C040E050E060E070E08AE692E005
:1018600029810E94F50FDF91CF911F910F9108956B
:101870000F931F938C01FC01128684E090E065E0D9
:1018800070E00E942D07A0E0B0E0F80181A392A3D0
:10189000A3A3B4A386E090E064EF71E00E942D075B
:1018A000A0E0B0E0F80185A396A3A7A3B0A788E0C5
:1018B00090E06CE271E00E942D07A0E0B0E0F8013A
:1018C00081A792A7A3A7B4A78AE090E06CE271E099
:1018D0000E942D07A0E0B0E0F80185A796A7A7A772
:1018E000B0AB1F910F910895FC0181E081831186B7
:1018F000128214821382108214861386CF010E94F2
:10190000380C08950F931F938C010D960E94780D4B
:10191000C80147960E94780DC8010E94740C1F915F
:101920000F91089585E392E00E94820C089580E96A
:1019300092E00E94BB0780910E03882321F08FEC78
:1019400092E00E94BB070895DF93CF930F92CDB72B
:10195000DEB7BC01CE01019641E050E00E94B31811
:1019600090E089818F3F09F091E0892F0F90CF910E
:10197000DF91089580E091E00E94A40C80936602BC
:1019800080E891E00E94A40C809367020895DF93A1
:10199000CF9300D000D0CDB7DEB7982FE62FFF272A
:1019A000E7FDF095EA59FD4F80818823C1F0662359
:1019B00019F060E871E002C060E071E0892F9927BA
:1019C00087FD9095880F991F880F991F680F791FC1
:1019D000CE01019644E050E00E94B31810C0692F78
:1019E000772767FD7095660F771F660F771F605525
:1019F0007F4FCE01019644E050E00E94AA18698111
:101A00007A818B819C810F900F900F900F90CF91D6
:101A1000DF910895AF92BF92CF92DF92EF92FF9243
:101A20000F931F93CF93DF937C01A62E00E033E149
:101A3000B32E19E0812F6A2D0E94C70C412F552724
:101A400047FD5095E616F70664F4802F992787FD29
:101A50009095840F951F62E070E00E942418B12ECB
:101A60000BC08B2D992787FD9095840F951F62E001
:101A700070E00E942418012F162F0617DCF2802F29
:101A80006A2D0E94C70C6C01EB018B2D6A2D0E9400
:101A9000C70C9C01002319F4EC16FD06DCF083E171
:101AA000B81619F46E157F05ACF0EC1AFD0A2C1966
:101AB0003D096C1B7D0BE29EC001E39E900DF29EE2
:101AC000900D11240E9424186C0D7D1D6F3F71052F
:101AD00019F014F06FEF70E0CB01DF91CF911F91FF
:101AE0000F91FF90EF90DF90CF90BF90AF9008954F
:101AF000FC01108211820895FC0110820895CF9399
:101B0000DF93EC0188818823D9F089818823C1F48F
:101B10008AE692E00E94370E2A813B814C815D81EA
:101B2000621B730B840B950B2E813F814885598571
:101B3000621773078407950718F0188281E089837C
:101B40008981DF91CF910895CF92DF92EF92FF923A
:101B50000F931F938C016A017B0181E0F801808360
:101B600011828AE692E00E94370EF8016283738345
:101B700084839583C682D782E086F1861F910F9178
:101B8000FF90EF90DF90CF90089597B180959823C4
:101B900097B998B1982398B9EAE7F0E080818F6807
:101BA00080830895282F80917A0086FF02C080E00C
:101BB00008959FB7F89470936902609368022F703C
:101BC000206420937C0080917A00806480937A0066
:101BD0009FBF81E008951F920F920FB60F921124BC
:101BE0002F933F934F938F939F93EF93FF93209166
:101BF000780040917900E0916802F0916902942F99
:101C000080E030E0822B932B91838083FF91EF91D2
:101C10009F918F914F913F912F910F900FBE0F90F9
:101C20001F901895FC018081A82FB0E012964C916E
:101C3000129781818F7021E030E002C0220F331FA4
:101C40008A95E2F7922F662311F0822F01C080E07F
:101C500090959423892B12968C930895E62FF0E0AB
:101C6000EE0FFF1FEA5EFC4F518340830895FC0195
:101C70008FB7F894EB55FF4F20813181428153811A
:101C80008FBFB901CA0108951F93DF93CF93CDB7DA
:101C9000DEB72A970FB6F894DEBF0FBECDBF262F52
:101CA000009769F51FB7F894442379F010927000FB
:101CB0008091840389838A81807F81608A8360E048
:101CC000211161E0CE01019644C0862F81508E3FE4
:101CD00080F010927000809184038B838C81807FD0
:101CE00081608C8360E02F3F09F461E0CE010396B0
:101CF00030C06093B40085E08093700032C00197DB
:101D000091F51FB7F894442381F083E08093B000ED
:101D1000809183038D838E81807F83608E8360E0DA
:101D2000211161E0CE01059614C0862F81508E3FAF
:101D300098F083E08093B000809183038F8388853F
:101D4000807F8360888760E02F3F09F461E0CE01E7
:101D500007960E94120E05C06093B30083E880933B
:101D6000B0001FBF0EC08091830389878A85807F62
:101D700084608A8760E0211161E0CE0109960E94AB
:101D8000120E2A960FB6F894DEBF0FBECDBFCF91CC
:101D9000DF911F91089580911302909114026111B7
:101DA0006FEF41E00E94440E0895FC01EC55FF4F97
:101DB000108261116FEF80E090E041E00E94440EDC
:101DC0000895DF93CF9300D0CDB7DEB78091830322
:101DD00089838A81807F85608A8320E0672B09F070
:101DE00021E0CE010196622F0E94120E0F900F90FB
:101DF000CF91DF910895FC01EB55FF4F80819181D8
:101E0000A281B3818C53964FAF4FBF4F8083918394
:101E1000A283B3838AE692E060E070E00E94E10E64
:101E2000809118038823E1F48091160390911703A1
:101E30008F5F9F4FA9F0299A2091160330911703C5
:101E400080EA90E0AC01249FC001259F900D349F53
:101E5000900D112480589A4D9093890080938800AA
:101E6000809118038F5F8093180380911803893045
:101E700010F0109218030895FC01EC55FF4F608399
:101E800008951F920F920FB60F9211242F933F9334
:101E90004F935F936F937F938F939F93AF93BF9372
:101EA000EF93FF938AE692E00E94FB0EFF91EF9181
:101EB000BF91AF919F918F917F916F915F914F9162
:101EC0003F912F910F900FBE0F901F9018951F926A
:101ED0000F920FB60F92112429980F900FBE0F90FA
:101EE0001F90189540911503809111029091120254
:101EF0000E94440E0895809113039091140341E0D1
:101F00000E94440E08951F920F920FB60F92112453
:101F10002F933F934F935F936F937F938F939F93F1
:101F2000AF93BF93EF93FF93DF93CF9300D0CDB7E1
:101F3000DEB78091B400882361F0809184038983A7
:101F40008A81807F81608A83CE01019661E00E9450
:101F5000120E0F900F90CF91DF91FF91EF91BF91F3
:101F6000AF919F918F917F916F915F914F913F9131
:101F70002F910F900FBE0F901F9018951F920F92E8
:101F80000FB60F9211242F933F934F935F936F934C
:101F90007F938F939F93AF93BF93EF93FF93DF93C1
:101FA000CF9300D0CDB7DEB78091840389838A8137
:101FB000807F81608A83CE01019660E00E94120ECC
:101FC0000F900F90CF91DF91FF91EF91BF91AF9163
:101FD0009F918F917F916F915F914F913F912F9141
:101FE0000F900FBE0F901F901895CB01BA01422F92
:101FF0000E9409120895CB010E9432110895EF92B8
:10200000FF920F931F93DF93CF9300D000D000D0A7
:10201000CDB7DEB78C018FEF9FEF909317038093BE
:1020200016030E94CA1382E08093800089E18093A6
:1020300081001092820080E49CE990938700809355
:10204000860082E280936F0090E7E92EF12CF70181
:102050001082E0918303F0E081818062818380912E
:10206000840389838A81807F81608A83CE0101967F
:1020700060E00E94120EE0918403F0E081818260B2
:102080008183809183038B838C81807F83608C83A9
:10209000CE01039660E00E94120EE0918303F0E00F
:1020A000818188608183809183038D838E81807F8D
:1020B00084608E83CE01059660E00E94120EE0914E
:1020C0008303F0E081818061818383E88093B000A5
:1020D00086E08093B1001092B3001092B40085E0C6
:1020E000F7018083C8010E946F14C80141960E94C5
:1020F0006F14C80186960E941408C8018B599F4F1F
:102100000E94140804E313E0C80161E00E948814EF
:10211000C80101960E94A21680E060E00E948E1124
:1021200085B1897F85B984B1866084B981E0809367
:10213000150380E090E00E94321160E070E080E0E2
:1021400090E041E00E94091226960FB6F894DEBF97
:102150000FBECDBFCF91DF911F910F91FF90EF90F8
:102160000895AF92BF92CF92DF92EF92FF920F93BA
:102170001F936C0163E040E00E943314A1E1AA2E9A
:10218000B12CAC0CBD1CC50166E041E00E943314CB
:1021900081E292E0F60193A382A38BE192E095A302
:1021A00084A3A6014E5D5F4FC6018696B60100E589
:1021B00013EC20E030E0FCE0EF2EF12C0E94B2089E
:1021C000C6018B599F4FB50124E230E0C20ED31EE9
:1021D000A60100E513EC20E030E0E2E1EE2EF12C68
:1021E0000E94B20880E890E0C80ED91E81E0F60196
:1021F0008193108211821282138288E190E064E858
:1022000070E40E942D079C013695279536952795F9
:1022100023703070309312022093110234E09695AF
:1022200087953A95E1F79C01237030703093140341
:102230002093130396958795969587958370907054
:1022400090931402809313021F910F91FF90EF90CF
:10225000DF90CF90BF90AF9008958AE692E00E9401
:10226000B11008951F93CF93DF93EC018091190370
:1022700090911A03C817D90709F44CC0D0931A03D8
:10228000C09319031FB7F89480911B03882309F0AA
:1022900040C080911C038823E1F510926E002097C6
:1022A00031F483E084BD81E293E060E008C0CF3F79
:1022B000D10541F483E084BD81E293E061E00E94B6
:1022C000120E0DC081E293E061E00E94120E809137
:1022D0002003882311F083E801C083E284BD60E01D
:1022E000D7FF04C061E0D095C195DF4FCF3FD10546
:1022F00019F014F0CFEFD0E081E0682783E293E09B
:102300000E94120E80912003882311F0C7BD01C0E6
:10231000C8BD1FBFDF91CF911F9108950F931F93E9
:10232000882311F490E002C091E0962790931B035C
:10233000882311F460E002C0611161E060931C0326
:10234000992339F014BC83E085BD81E080936E0051
:102350005DC0662309F44EC0E0912503F0E03181B1
:10236000809126038F7001E010E0A80102C0440FA5
:10237000551F8A95E2F7242F20952323242B2183B0
:1023800085E293E061E00E94120EE0912703F0E005
:102390003181809128038F70A80102C0440F551F1E
:1023A0008A95E2F7242F20952323242B218387E28B
:1023B00093E061E00E94120EE0912903F0E0918128
:1023C00080912A038F7002C0000F111F8A95E2F7D7
:1023D000802F80958923802B818389E293E060E0C0
:1023E0000E94120E92E094BD90936E0087EC87BD20
:1023F00095BD0CC083E084BD85BD18BC10926E00F5
:102400008091190390911A030E9432111F910F912C
:102410000895EF92FF920F931F938B019C01F42E6E
:1024200080911C03882309F443C0EFB6F89401158A
:1024300011052105310561F1C901B80128EC30E031
:1024400040E050E00E943718CA01B90120911502FE
:102450003091160240E050E00E943718C901DA01BD
:1024600080932B0390932C03A0932D03B0932E0302
:1024700087E293E06F2D0E94120E85E293E060E008
:102480000E94120E89E293E060E00E94120E0FC0DB
:1024900010926E0085E293E061E00E94120E1092AD
:1024A0002B0310922C0310922D0310922E03EFBEDB
:1024B0001F910F91FF90EF9008951F920F920FB60A
:1024C0000F921124EF92FF920F931F932F933F933C
:1024D0004F935F936F937F938F939F93AF93BF932C
:1024E000EF93FF93DF93CF93CDB7DEB72897DEBF8F
:1024F000CDBF2091190330911A0380911D03909153
:102500001E03820F931F90931E0380931D034CE0C4
:102510008337940754F083579C4090931E03809315
:102520001D0380911F038E5F0BC097FF0CC08D5859
:10253000934F90931E0380931D0380911F0382503D
:10254000877080931F03232B59F0809133038F5F93
:1025500080933303815080FD03C0EE24E39401C0D7
:10256000EE2421E030E000901F0302C0220F331F51
:102570000A94E2F78091850389838A81807F87604E
:102580008A83022F10E060E0822F837C09F061E0F3
:10259000CE0101960E94120E90918503FF24F394C0
:1025A000FE2411F060E005C060E0802F8D7D09F011
:1025B00061E08C81807F85608C839B83CE01039654
:1025C0000E94120E809183038D838E81807F8E8383
:1025D00060E0802F807F09F061E0CE0105960E94C7
:1025E000120E90918503FF2011F060E006C060E0BC
:1025F00007771070012B09F061E08885807F866085
:1026000088879F83CE0107960E94120E2896DEBF10
:10261000CDBFCF91DF91FF91EF91BF91AF919F918E
:102620008F917F916F915F914F913F912F911F916A
:102630000F91FF90EF900F900FBE0F901F90189585
:102640001F920F920FB60F9211242F933F934F9327
:102650005F936F937F938F939F93AF93BF93EF930A
:10266000FF9380912B0390912C03A0912D03B091A7
:102670002E030097A105B10509F44EC080912F03E8
:1026800090913003A0913103B09132030196A11DC6
:10269000B11D80932F0390933003A0933103B09327
:1026A000320320912F033091300340913103509138
:1026B000320380912B0390912C03A0912D03B091B4
:1026C0002E03281739074A075B0730F189E293E0A8
:1026D00061E00E94120E80912F0390913003A0912F
:1026E0003103B091320320912B0330912C034091A0
:1026F0002D0350912E03821B930BA40BB50B8093DB
:102700002F0390933003A0933103B093320389E2F7
:1027100093E060E00E94120EFF91EF91BF91AF91A4
:102720009F918F917F916F915F914F913F912F91E9
:102730000F900FBE0F901F90189590918503909366
:10274000210380912203807F8560809322039093F0
:10275000230380912403807F8760809324038091EA
:1027600083038093250380912603807F826080937A
:1027700026039093270380912803807F82608093B3
:1027800028039093290380912A03807F836080939C
:102790002A0308951F93DF93CF9300D000D0CDB7C5
:1027A000DEB710921A0310921903E0918503F0E04E
:1027B0008181806281838091850389838A81807F82
:1027C00085608A83CE01019660E00E94120EE0913E
:1027D0008503F0E0818180688183E0918503F0E0EA
:1027E000818180648183809185038B838C81807F4C
:1027F00086608C83CE01039660E00E94120EE09109
:102800008303F0E081818160818310921B03109229
:102810001E0310921D0311E010931F0388E190E046
:1028200064E870E40E942D0780FF15C01093200318
:102830009091850380912203807F8660809322039C
:10284000909321039091830380912403807F809350
:102850002403909323030F900F900F900F90CF912C
:10286000DF911F910895FC0187E292E091838083BC
:1028700064831786408B1086178212861186148611
:1028800013861686158608950F931F93CF93DF93B3
:10289000EC018FB7F8940D811E818FBFBE016B5F75
:1028A0007F4F8C810E94D20D8823A1F08F8590E00C
:1028B000FC01EE0FFF1FEC0FFD1F10870783019631
:1028C000837090708F87C80168890E940A0D9B836E
:1028D0008A8381E0DF91CF911F910F91089521E0CC
:1028E00030E0FC01048002C0220F331F0A94E2F79B
:1028F000822F0E94C50D08958FB7F894109281031E
:10290000E0918403F0E092819B7F92838FBF0895D2
:10291000FC0160838081882321F08091C100806C5C
:1029200003C08091C1008F738093C10008951F92EE
:102930000F920FB60F9211242F933F934F935F93F3
:102940006F937F938F939F93AF93BF93EF93FF9377
:1029500080917E0390917F03892B91F080917E037B
:1029600090917F03049761F0809181038F5F809342
:1029700081038BE593E00E946D178093C60006C02B
:10298000E0918403F0E082818B7F8283FF91EF915D
:10299000BF91AF919F918F917F916F915F914F9177
:1029A0003F912F910F900FBE0F901F9018951F937E
:1029B000FC018081882391F01FB7F894CF0187969E
:1029C0000E946D17E0918403F0E0928194609283FD
:1029D00091E0909381038093C6001FBF1F910895DB
:1029E0001F920F920FB60F9211242F933F934F9384
:1029F0005F936F937F938F939F93AF93BF93EF9367
:102A0000FF938091C6008093820380918103882385
:102A100031F08091810381508093810306C06091E1
:102A2000820385E393E00E94A916FF91EF91BF9185
:102A3000AF919F918F917F916F915F914F913F9156
:102A40002F910F900FBE0F901F9018950F931F930B
:102A50008C01FC011192CF010E949B16C801879640
:102A60000E945D171092C50089E18093C40080E444
:102A70008093C00088E18093C10086E08093C2000B
:102A8000E0918403F0E0818184608183E09185039B
:102A9000F0E0818180618183E0918503F0E08281B3
:102AA0008F7E8283E0918503F0E081818E7F818338
:102AB000828181608283E0918403F0E082818B7F58
:102AC00082831F910F91089584E393E00E9426155D
:102AD000089583E28093830386E28093840389E2EE
:102AE000809385030895CF93DF93EC011C8E1B8E9A
:102AF0001A8E198E1E8E1D8E80E090E0A0E0B0E050
:102B000088879987AA87BB878C839D83AE83BF8381
:102B100088839983AA83BB83188E0BC0E82FF0E0CB
:102B20003696EE0FFF1FEC0FFD1F118210828F5F94
:102B3000888F888D843090F3188E80E090E0A0E03C
:102B4000B0E08C8B9D8BAE8BBF8BDF91CF910895C6
:102B50002F923F924F925F926F927F928F929F92AD
:102B6000AF92BF92CF92DF92EF92FF920F931F939B
:102B7000DF93CF93CDB7DEB728970FB6F894DEBFBB
:102B80000FBECDBF98878F83FC01058CF68DE02D9D
:102B9000E61BF70BFA83E983FC01838D948D298171
:102BA0003A81820F931F948F838F8150914024F03C
:102BB00080E091E0948F838FEF81F885838D948DF1
:102BC00080509F4F34F480E09FEFEF81F885948F21
:102BD000838F29813A81B901882777FD8095982FC5
:102BE0000E948403EF81F8852081318142815381E5
:102BF0000E945A026B837C838D839E83EF81F885CC
:102C0000638D748D882777FD8095982F0E948403AB
:102C1000EF81F88524813581468157810E945A02CF
:102C20001B012C01EF81F885818D928DC980DA809E
:102C3000C81AD90A008D10E00A5F1F4F3801660CD0
:102C4000771C6E0E7F1EF30160817181882777FDEE
:102C50008095982F0E9484039B01AC01EF81F88539
:102C600064897589868997890E94FC014B015C0102
:102C7000EF81F885648B758B868B978BF301D182FE
:102C8000C082EE24D7FCE094FE2CC701B6010E945E
:102C900084039B01AC01C501B4010E942D02EF81A8
:102CA000F885648B758B868B978B0550104003706D
:102CB0001070008F20853185428553850E945A020D
:102CC0007B018C0129813A81EF81F885328F218F38
:102CD0006B817C818D819E81A20191010E942D02D8
:102CE000A80197010E942D020E94E2039B01AC0102
:102CF000220F331FC90128960FB6F894DEBF0FBE0E
:102D0000CDBFCF91DF911F910F91FF90EF90DF909A
:102D1000CF90BF90AF909F908F907F906F905F907B
:102D20004F903F902F900895FC011182108212A2C3
:102D300014A213A20895FC011182108212A214A2FF
:102D400013A20895FC011182108212A214A213A2F0
:102D50000895DC0193968D919C919497892B91F421
:102D6000653D19F481E090E066C011961C921197C0
:102D70001C9292961C92929794961C921E929397F4
:102D800081E020C093968D919C9194970197E9F4EE
:102D9000603260F495966C93959795968C91959783
:102DA000882309F438C082E090E045C011961C9257
:102DB00011971C9292961C92929794961C921E9236
:102DC000939782E092968C93089593968D919C911F
:102DD0009497029719F58C918032B8F411968C91E2
:102DE0001197862728E09CE880FB86950EF48927BA
:102DF0002A95D1F711968C9311978C91FD01E80FCC
:102E0000F11D62838C918F5F8C939C9195968C9130
:102E10009597981718F183E090E00DC093968D91E7
:102E20009C9194970397D1F411968C9111978617E2
:102E300039F484E090E094969C938E939397089550
:102E400011961C9211971C9292961C9292979496AE
:102E50001C921E92939783E092968C930895FC01A6
:102E6000E60FF11D82810895E62FF0E0DC01AE0F40
:102E7000BF1F12962C913196E80FF91F4281942FB3
:102E800080E030E0282B392BC9010895A62FB0E04F
:102E9000FC01EA0FFB1F6281FD013196E80FF91F6B
:102EA00072811296FC01EA0FFB1F22811196A80F76
:102EB000B91F12969C91822F0895FC0111821082F5
:102EC00012A214A213A215A20895FC01118210826D
:102ED00012A214A213A215A20895DC0193968D915B
:102EE0009C919497892B41F481E090E094969C9377
:102EF0008E93939725ED35C093968D919C919497E1
:102F0000019739F42C918C918823B9F082E090E0FC
:102F100024C093968D919C919497029789F49596ED
:102F20008C919597FD01E80FF11D22818F5F959699
:102F30008C9395979C918917A0F083E090E00DC049
:102F400093968D919C919497039711F020E009C07E
:102F500011962C91119784E090E094969C938E9317
:102F60009397822F0895DC018C918032B8F41196EA
:102F70008C911197862728E09CE880FB86950EF4BB
:102F800089272A95D1F711968C9311978C91FD0181
:102F9000E80FF11D62838C918F5F8C930895DC01A3
:102FA0008C918032B8F411968C911197862728E085
:102FB0009CE880FB86950EF489272A95D1F7119617
:102FC0008C9311978C91FD01E80FF11D62838C9118
:102FD0008F5F8C938C918032B8F411968C911197FD
:102FE000872728E09CE880FB86950EF489272A95A0
:102FF000D1F711968C9311978C91FD01E80FF11D7B
:1030000072838C918F5F8C930895629FD001739F20
:10301000F001829FE00DF11D649FE00DF11D929F74
:10302000F00D839FF00D749FF00D659FF00D9927B3
:10303000729FB00DE11DF91F639FB00DE11DF91FD7
:10304000BD01CF011124089597FB092E07260AD050
:1030500077FD04D02ED006D000201AF4709561952B
:103060007F4F0895F6F7909581959F4F0895A1E2BF
:103070001A2EAA1BBB1BFD010DC0AA1FBB1FEE1FF2
:10308000FF1FA217B307E407F50720F0A21BB30B3D
:10309000E40BF50B661F771F881F991F1A9469F7B9
:1030A00060957095809590959B01AC01BD01CF0115
:1030B0000895AA1BBB1B51E107C0AA1FBB1FA6177F
:1030C000B70710F0A61BB70B881F991F5A95A9F7D1
:1030D00080959095BC01CD0108952F923F924F921B
:1030E0005F926F927F928F929F92AF92BF92CF9298
:1030F000DF92EF92FF920F931F93CF93DF93CDB7A1
:10310000DEB7CA1BDB0B0FB6F894DEBF0FBECDBF18
:1031100009942A88398848885F846E847D848C84E9
:103120009B84AA84B984C884DF80EE80FD800C81F2
:103130001B81AA81B981CE0FD11D0FB6F894DEBFD5
:103140000FBECDBFED010895EE0FFF1F0590F49166
:10315000E02D0994FB01DC0102C005900D92415065
:103160005040D8F70895DC01CB01FC01F999FECF5E
:1031700006C0F2BDE1BDF89A319600B40D924150FF
:103180005040B8F70895DC01CB0103C02D910E9497
:10319000CE1841505040D0F70895262FF999FECF10
:1031A0001FBA92BD81BD20BD0FB6F894FA9AF99A64
:0A31B0000FBE01960895F894FFCFBA
:1031BA0045787472756465720000000000000000B2
:1031CA0000000102020303030304040404040404C8
:1031DA000405050505050505050505050505050596
:1031EA000506060606060606060606060606060676
:1031FA000606060606060606060606060606060665
:10320A000607070707070707070707070707070745
:10321A000707070707070707070707070707070734
:10322A000707070707070707070707070707070724
:10323A000707070707070707070707070707070714
:10324A0007080808080808080808080808080808F5
:10325A0008080808080808080808080808080808E4
:10326A0008080808080808080808080808080808D4
:10327A0008080808080808080808080808080808C4
:10328A0008080808080808080808080808080808B4
:10329A0008080808080808080808080808080808A4
:1032AA000808080808080808080808080808080894
:1032BA000808080808080808080808080808080884
:1032CA000801000200C800000000007B0F00000097
:0A32DA0000720F0000000044140011
:00000001FF
