:100000000C945B000C9483000C9483000C9483008C
:100010000C9483000C9483000C9483000C94830054
:100020000C9483000C9483000C9483000C94B323F1
:100030000C9483000C943F240C9483000C94830054
:100040000C9483000C9483000C9483000C94830024
:100050000C940B270C9483000C9486260C9483003C
:100060000C9483000C9483000C9483000C94830004
:100070000C94E3260C9483000C944F26D505C306FC
:10008000FA05F6050406B007B007F605BA06B0078C
:10009000C6063C07510777074A0653065F06F60572
:1000A0008606B007DF054001AA031A05B00C6310ED
:1000B00026246927742711241FBECFEFD0E1DEBFAD
:1000C000CDBF11E0A0E0B1E0EEEBF4E502C0059099
:1000D0000D92A831B107D9F717E0A8E1B1E001C04E
:1000E0001D92AA37B107E1F710E0C6EBD0E004C0DB
:1000F0002297FE010E94E529C63AD107C9F70E945E
:10010000FB080C945D2A0C940000F89480911A036B
:1001100090911B032091180330911903281B390B70
:100120007894C90108958093220308958091220351
:10013000089580911A0390911B0320E0892B09F404
:1001400021E0822F089510921B0310921A0310923F
:100150002003109221031092240310922303089588
:10016000FC01CB012481358160817181820F931F55
:100170000E947F2926813781280F391FC9010895E0
:100180001F93182F20911A0330911B03809118039D
:100190009091190328173907A0F460911A03709100
:1001A0001B0388E193E00E94B000FC011083809162
:1001B0001A0390911B03019690931B0380931A03DB
:1001C00003C081E0809320031F910895CF93DF93B4
:1001D000EC018A819B81892B21F481E0898780E071
:1001E00015C0CE0160E070E00E94B000FC018C817F
:1001F0009D816881798101960E947F299D838C83EE
:100200008A819B8101979B838A838081DF91CF9133
:100210000895DF92EF92FF920F931F9308E113E08E
:10022000C8010E94E600D82EC8010E94E600E82E10
:10023000C8010E94E600F82EC8010E94E600982F2F
:100240006D2D7E2D8F2D1F910F91FF90EF90DF90E0
:100250000895FF920F931F9308E113E0C8010E94D5
:10026000E600F82EC8010E94E600982F8F2D1F91FE
:100270000F91FF90089588E193E00E94E6000895B1
:1002800080E092E0909319038093180310921B036F
:1002900010921A0310921D0310921C0388E191E042
:1002A00090931F0380931E0310922003109221034A
:1002B00085E293E00E94FA0F8FE293E00E94FA0F2A
:1002C00008956F927F928F929F92AF92BF92CF923A
:1002D000DF92EF92FF920F931F93DF93CF93CDB7EF
:1002E000DEB768970FB6F894DEBF0FBECDBF0E9491
:1002F0000A098823C1F436C060911A0370911B0368
:1003000088E193E00E94B000FC01108380911A0301
:1003100090911B03019690931B0380931A0304C0D2
:100320000093200301C001E020911A0330911B03C8
:1003300080911803909119038217930799F00E94F6
:100340001009882379F00E948709182F20911A0339
:1003500030911B03809118039091190328173907D6
:10036000F8F6CACF80912203882309F0DEC180917C
:10037000230390912403039781F40E94CF0B8823D9
:1003800041F08FE293E00E940110882331F00E9437
:10039000560C109224031092230380912303909112
:1003A0002403019741F40E94CF0B882321F410927B
:1003B0002403109223038091230390912403029736
:1003C00051F485E293E00E940110882321F01092FD
:1003D0002403109223038091230390912403049714
:1003E00071F50E944D10882351F10E944A108C0132
:1003F0000E9447107C01C8010E943B28C80160E0B0
:100400000E948F28C80166E10E948F280E94681010
:1004100002C00E9484100E945E108823D1F3F7016D
:1004200082A1882351F4C70161E00E941C2888231F
:1004300021F010922403109223030E945B108091FC
:10044000230390912403892B09F06FC180911A0333
:1004500090911B03892B09F468C188E193E060E067
:1004600070E00E94B000FC011081113891F580917C
:100470001A0390911B03419708F457C188E193E058
:100480000E94E60081E090E0909324038093230390
:100490000E9409013B014C010E9409015B016C01B2
:1004A0000E9409017B018C010E940901AB01BC0182
:1004B00069827A828B829C82AD82BE82CF82D8860C
:1004C000E986FA860B871C87CE0101960E94D90E19
:1004D0002CC1163881F480911A0390911B03029766
:1004E00008F423C188E193E00E94E60088E193E0EC
:1004F0000E94E6001AC1193851F580911A039091B3
:100500001B03029708F411C188E193E00E94E60002
:1005100088E193E00E94E600D82EDD1CDD24DD1C7E
:1005200000E010E0E82EFF24C701002E02C09595E0
:1005300087950A94E2F780FF04C0802F6D2D0E94FA
:10054000240E0F5F1F4F0330110571F7EEC01238F4
:1005500031F580911A0390911B030D9708F4E5C0C3
:1005600088E193E00E94E6000E9409015B016C01B2
:100570000E9409017B018C010E940901AD86BE86A3
:10058000CF86D88AE98AFA8A0B8B1C8B6D8B7E8B7F
:100590008F8B988FCE010D960E945B0CC6C01538CC
:1005A00001F580911A0390911B03059708F4BDC0D3
:1005B00082E090E0909324038093230388E193E00A
:1005C0000E94E6000E94090128EE33E040E050E07E
:1005D0000E946029AB01BC0185E293E00E942610D5
:1005E000A4C0812F83588230A0F580911A03909186
:1005F0001B03089708F499C088E193E00E94E60085
:100600000E943B01082F0E9409016B017C010E949E
:10061000290123E030E03093240320932303A0E05A
:10062000B0E0BC01CD0120E432E44FE050E00E9494
:100630006029AB01BC018FE293E00E94261080E0AC
:10064000143809F481E0602FA70196010E94350E4D
:100650006CC01738D1F480911A0390911B03069750
:1006600008F463C084E090E0909324038093230314
:1006700088E193E00E94E60088E193E00E94E600B2
:100680000E9429010E94290150C0183809F04DC06C
:1006900080911A0390911B03049708F446C088E1E7
:1006A00093E063E070E00E94B000FC0120911A0327
:1006B00030911B03808190E0049628173907A8F138
:1006C0000E944D10882389F10E944A107C010E94EB
:1006D0003B2888E193E00E94E60088E193E00E94D5
:1006E000E600682FC7010E948F2888E193E00E94EE
:1006F000E600682FC7010E948F280E943B01C82E88
:10070000DD2400E010E00AC088E193E00E94E600EA
:10071000682FC7010E948F280F5F1F4F0C151D0502
:100720009CF30E9468100E945B1068960FB6F894C4
:10073000DEBF0FBECDBFCF91DF911F910F91FF9014
:10074000EF90DF90CF90BF90AF909F908F907F9071
:100750006F90089589E393E00E94332808956F9283
:100760007F928F929F92AF92BF92CF92DF92EF9241
:10077000FF920F931F93DF93CF93CDB7DEB76497AC
:100780000FB6F894DEBF0FBECDBF7C016B01FC013C
:100790008081882309F4E2C03701C70160E00E942C
:1007A0001C28982F8077803709F0D8C09037B9F48B
:1007B000C6010E943B2801E010E00AC0C301602F7F
:1007C0000E941C28682FC6010E948F280F5F1F4FB0
:1007D000F701808190E00817190784F3C1C09137B1
:1007E00009F4BCC0923709F4B9C0933709F07FC04F
:1007F0000E944A105C010E9447104C01C5010E94F2
:100800003B2801E010E00AC0C301602F0E941C28B1
:10081000682FC5010E948F280F5F1F4FF70180814D
:1008200090E00817190784F38E010F5F1F4FC8016E
:100830000E94FA0FC80140E553EC60E070E00E94AE
:100840002610F02E012F0FC08F2D902F0E94011027
:10085000882349F0C60168E00E948F288AEA96E062
:1008600062E070E026C00E944D10882369F38E017B
:10087000055F1F4FC8010E94FA0FC80140E553EC05
:1008800060E070E00E9426100E9468100E945B10D9
:10089000F02E012F13C08F2D902F0E94011088235E
:1008A00059F0C60167E00E948F288AEA96E061E06D
:1008B00070E00E94932354C00E9484100E945E1036
:1008C000882349F3740100E010E00AC0C701602FDB
:1008D0000E941C28682FC6010E948F280F5F1F4F9F
:1008E000F401808190E00817190784F339C0943728
:1008F00039F40E94A300C60161E00E948F2830C035
:100900009637A1F4C70161E00E941C28182FC70187
:1009100062E00E941C28682F112329F48AEA96E0DD
:1009200070E00E949323C60161E016C09737B1F4CE
:10093000C70161E00E941C28182FC60161E00E94D7
:100940008F28112339F48AEA96E00E94B023682F99
:10095000C60102C0C60160E00E948F2880E001C08D
:1009600081E064960FB6F894DEBF0FBECDBFCF9185
:10097000DF911F910F91FF90EF90DF90CF90BF908C
:10098000AF909F908F907F906F9008951F93DF930B
:10099000CF930F92CDB7DEB79C01162FCE010196F3
:1009A000B90141E050E00E94352A89818F3F09F466
:1009B000198389810F90CF91DF911F910895DF9363
:1009C000CF9300D0CDB7DEB7CE01019660E070E0E6
:1009D00042E050E00E94352A3A8184E6389FC00107
:1009E00011242981820F911D8B3C9105F1F0325029
:1009F0003D3F78F082E090E062E00E944F2A83E081
:100A000090E06FE10E944F2A80E290E060E00E9457
:100A10004F2A83E0898382E08A83CE01019660E0D9
:100A200070E042E050E00E94452A0F900F90CF9175
:100A3000DF9108958FE593E00E94FA0F0895AF9239
:100A4000BF92CF92DF92EF92FF920F931F93DF93AB
:100A5000CF93CDB7DEB72A970FB6F894DEBF0FBE9F
:100A6000CDBF6C018E010F5F1F4FC8010E94FA0FAE
:100A7000C80142E350E060E070E00E942610F02ED2
:100A8000012F11C08F2D902F0E940110882359F043
:100A9000C60167E00E948F288AEA96E062E070E073
:100AA0000E9493233DC00E944D10882359F30E9459
:100AB0004A108C010E9447107C01C8010E943B280B
:100AC000C80160E00E948F28C80167E10E948F285A
:100AD0000E9468100E945B1002C00E9484100E9455
:100AE0005E108823D1F3F70182A1843021F05701F1
:100AF00000E010E00FC0C60167E00E948F2810C020
:100B0000C501602F0E941C28682FC6010E948F28F3
:100B10000F5F1F4FF701808190E00817190784F3DA
:100B20002A960FB6F894DEBF0FBECDBFCF91DF91EE
:100B30001F910F91FF90EF90DF90CF90BF90AF90FB
:100B400008956F927F928F929F92AF92BF92CF92B1
:100B5000DF92EF92FF920F931F93DF93CF93CDB766
:100B6000DEB7C554D0400FB6F894DEBF0FBECDBF80
:100B70007C015B01FC018081882309F4F1C17E2C9A
:100B80006F2CC70160E00E941C2887FDE9C1E82F97
:100B9000F0E0E531F10508F0E3C1E25CFF4FEE0F54
:100BA000FF1F0590F491E02D0994C50161E00E94BA
:100BB0008F28C5016BEC70E00E94AB28CFC1C50146
:100BC00061E00E948F2800E011E0C501F80160811A
:100BD0000E948F28F8018081882309F4BFC10F5F2C
:100BE0001F4FF1E00F311F0781F7B8C181E08093FB
:100BF0006903C9C0C50161E00E948F280E94850079
:100C0000AC0160E070E057C0F894CE010B960E94F2
:100C1000810CC50161E00E948F284B855C856D8544
:100C20007E85C5010E94E1284F85588969897A89A6
:100C3000C5010E94E1284B895C896D897E89C501C7
:100C40000E94E12853E0E52EF12CCC240894E10821
:100C5000F1088701000F111F0E0D1F1D000F111F3E
:100C6000000F111F0655194FC8010E942D2588231A
:100C700011F4DD2402C022E0D22EC8010E944725D3
:100C8000CC0CCC0CCD28C82AE114F104F9F6C5012E
:100C90006C2D03C1C50161E00E948F28C701039636
:100CA0000E947C0B30C0C50161E00E948F280E9429
:100CB0002409AB01BC01C5010E94E1284FC1C50157
:100CC00061E00E948F2897E2C92ED12CCC0EDD1E48
:100CD00001E010E00AC0872D962D602F0E941C288D
:100CE000F60181936F010F5F1F4FF701808190E044
:100CF0000817190784F3FE01EB5BFF4F1082CE014A
:100D000087960E94490B682FC50126C1C50161E085
:100D10000E948F288E2D9F2D61E00E941C28882321
:100D200049F00E94BB0BBC01009721F0C5010E9455
:100D30008F281DC08E01095D1F4FC8016FE10E9401
:100D40004F0A682FC5010E948F288FE1E82EF12CF1
:100D5000E00EF11E08C0C5010E948F280F5F1F4FD3
:100D60000E151F0521F0F80160816623A1F7C5016A
:100D700060E0F2C00E94960091E089270E949300F3
:100D8000C5010E941F05C50161E0E6C0F701808131
:100D9000823048F4C50160E00E948F288AEA96E01C
:100DA00068E070E01EC08E010F5F1F4FC8010E94F7
:100DB000FA0FC80142E350E060E070E00E942610A4
:100DC000D02E012F11C08D2D902F0E94011088234D
:100DD00059F0C50167E00E948F288AEA96E062E038
:100DE00070E00E949323BAC00E944D10882359F3EB
:100DF0000E944A104C010E9447106C01C4010E94DD
:100E00003B2801E010E00BC0872D962D602F0E943B
:100E10001C28682FC4010E948F280F5F1F4FF70105
:100E2000808190E0081719077CF30E9468100E94E7
:100E30005B1002C00E9484100E945E108823D1F3D0
:100E4000F60182A1843021F0760100E010E00DC0AF
:100E5000C50167E081C0C701602F0E941C28682F70
:100E6000C5010E948F280F5F1F4FF601808190E01F
:100E70000817190784F372C0C50161E00E948F282A
:100E8000F8940E94CF0B882309F081C00E9499003A
:100E9000882309F47CC061E0C5010E948F28789402
:100EA0005DC08E2D9F2D61E00E9421286C018E2D4A
:100EB0009F2D63E00E941C28E82EFF248E01095E0E
:100EC0001F4FC801B601A7010E94352AC50161E084
:100ED0000E948F28E00EF11E06C0C501F801619145
:100EE0008F010E948F280E151F05B9F737C08E2D70
:100EF0009F2D61E00E942128C82E992E8E2D9F2DB6
:100F000063E00E941C28D82E8E01095E1F4FC80185
:100F10006C2D792D4D2D50E00E94352A780114E07A
:100F20000D2D0C5F09C0872D962D612F0E941C2866
:100F3000F70181937F011F5F1017A9F7CE01479634
:100F40006C2D792D4D2D50E00E94452AC50161E0A0
:100F50000E948F28C5016D2D0E948F2881E001C05D
:100F600080E0CB5BDF4F0FB6F894DEBF0FBECDBF86
:100F7000CF91DF911F910F91FF90EF90DF90CF9075
:100F8000BF90AF909F908F907F906F90089560E09A
:100F900083CFCF92DF92EF92FF920F931F93CF9365
:100FA000DF93EC017B0188818823A1F16E01CE01E2
:100FB00060E00E941C2887FF2DC00E940D09882335
:100FC00041F0CE010E948F09C70161E00E948F2885
:100FD0001FC0F89418810E948500212F30E08217ED
:100FE000930788F0C0E0D0E0890107C0C6016C2FEC
:100FF0000E941C280E94C0002196C017D107B4F39C
:10100000C70161E002C0C70162E00E948F287894A6
:1010100081E001C080E0DF91CF911F910F91FF909F
:10102000EF90DF90CF90089580912507909126074B
:10103000892B09F476C080912507909126070497A3
:1010400009F075C06EC01092690380E00E94980894
:1010500008958091FF0690910007892B01F18091FE
:10106000FF06909100070497D1F080915F038823D9
:1010700049F48FE593E040E25EE460E070E00E94B6
:1010800026100DC08FE593E00E940110882339F0EF
:101090008CED96E00E94812784E08093FE0680918B
:1010A000FE06882351F08AEA96E064E070E00E9430
:1010B00093238CED96E00E948F278091FF069091FC
:1010C00000070497A1F58FE593E00E94FE0F82E0F0
:1010D00097E00E943B288CED96E062E077E00E946A
:1010E000AF038823A9F48CED96E062E077E00E94DC
:1010F000C907882369F48CED96E062E077E00E94EE
:10110000A105882329F482E097E065E00E948F28FA
:101110008CED96E00E948F278AED96E00E94BA2619
:10112000089580916903882309F493CF8CCF0895A3
:10113000FF920F931F93DF93CF93CDB7DEB72A971C
:101140000FB6F894DEBF0FBECDBF182FF8940E94E3
:1011500043090E94560C0E94A3000E94DF048AEA01
:1011600096E00E94652478941123A9F08E010F5F08
:101170001F4FC8010E94FA0FC80140EA55E266E21B
:1011800070E00E942610F02E012F8F2D902F0E94CC
:1011900001108823D1F30E94D5108823F9F48EEC36
:1011A00096E060E00E94BC248E010F5F1F4FC801D3
:1011B0000E94FA0FC80140EE53E964E070E00E941B
:1011C0002610F02E012F8F2D902F0E9401108823C2
:1011D000D1F38EEC96E061E00E94BC2478942A96CC
:1011E0000FB6F894DEBF0FBECDBFCF91DF911F9138
:1011F0000F91FF9008958AEA96E00E94D80B81E053
:101200000E94980878940E9484100E9414080E94FA
:101210006101F9CF8091730308958091720308955D
:1012200080917903089510927303809170039091D7
:101230007103009721F00E94101D0E945E20109201
:10124000710310927003089580917203882381F0D6
:101250008091700390917103009721F00E94101DFE
:101260000E945E201092710310927003109272031C
:101270000E94430960917403709175038091760315
:1012800090917703089580917303882311F00E9451
:10129000130980917203882311F00E942409809120
:1012A0006E0390916F03009731F00E94A715109282
:1012B0006F0310926E0380916C0390916D03009701
:1012C00031F00E94411110926D0310926C038091D5
:1012D0006A0390916B03009731F00E94241E1092D4
:1012E0006B0310926A0308958091700390917103CB
:1012F00068E773E041E050E00E94E8121092790341
:10130000181619061CF481E08093790308951F9341
:10131000109178030E947409812F1F910895CF9333
:10132000DF93EC0180917003909171030097E1F0DD
:10133000BE016E5F7F4F488150E00E9432142881C9
:101340008091740390917503A0917603B091770317
:10135000820F911DA11DB11D80937403909375039D
:10136000A0937603B0937703DF91CF910895DF9335
:10137000CF93CDB7DEB7AB970FB6F894DEBF0FBEF5
:10138000CDBFBC0180916E0390916F03AE014F5FA2
:101390005F4F0E94AC1C811181E0AB960FB6F894B0
:1013A000DEBF0FBECDBFCF91DF9108950F931F9386
:1013B000CF93DF93EC018B010EC0C801BE010E94E8
:1013C000042A009741F480916E0390916F030E946C
:1013D000AD1581E009C080916E0390916F03B80153
:1013E0000E949116882349F7DF91CF911F910F91A9
:1013F00008950F931F93DF93CF93CDB7DEB7AB97CD
:101400000FB6F894DEBF0FBECDBF8E010F5F1F4F2A
:10141000B8010E94D609882341F080916C03909115
:101420006D03B8010E94BA1581E0AB960FB6F8942F
:10143000DEBF0FBECDBFCF91DF911F910F910895F9
:10144000EF92FF920F931F93DF93CF93CDB7DEB749
:10145000AB970FB6F894DEBF0FBECDBF7B018E01F8
:101460000F5F1F4FB8010E94D609882359F0809161
:101470006C0390916D03B8010E945D1DF70191838B
:10148000808381E0AB960FB6F894DEBF0FBECDBF70
:10149000CF91DF911F910F91FF90EF900895AF9240
:1014A000BF92DF92EF92FF920F931F93DF93CF9340
:1014B000CDB7DEB7AB970FB6F894DEBF0FBECDBF8A
:1014C0007C0185E0D82E5E010894A11CB11C062F7A
:1014D00010E00150104080916E0390916F03B501B0
:1014E0000E9491168823D1F080E090E005C0F701BA
:1014F000E80FF91F208301968017910734F4F50156
:10150000E80FF91F2081222391F7F701E80FF91F57
:101510001082892B29F4DA94F1F602C0F7011082C7
:1015200080E090E0AB960FB6F894DEBF0FBECDBF63
:10153000CF91DF911F910F91FF90EF90DF90BF90BF
:10154000AF9008950F931F93DF93CF93CDB7DEB77E
:10155000AB970FB6F894DEBF0FBECDBF80916C0382
:1015600090916D0368E071E08E010F5F1F4FA8013D
:101570000E94931D80916C0390916D03B8010E94AD
:10158000201D90936F0380936E0320E0892B09F058
:1015900021E0822FAB960FB6F894DEBF0FBECDBF11
:1015A000CF91DF911F910F91089580916A039091DF
:1015B0006B030E948F1890936D0380936C0320E05F
:1015C000892B09F021E0822F08950F9388E790E29C
:1015D00066E371E240E85FE121E532E200E00E946B
:1015E0002C1E90936B0380936A03892B79F488E710
:1015F00090E266E371E240E85FE121E532E20FEF5D
:101600000E942C1E90936B0380936A0320E08091CC
:101610006A0390916B03892B09F021E0822F0F91CF
:1016200008950E94A621882371F40E94081F882330
:1016300029F40E94430921E030E029C00E944309B7
:1016400022E030E024C00E94E50A882329F40E94A9
:10165000430923E030E01BC00E94D50A882329F407
:101660000E94430924E030E012C00E94A20A8823AD
:1016700029F40E94430925E030E009C00E94121FAE
:10168000882319F420E030E002C026E030E0C901F0
:1016900008950F931F93CF93DF938C010E9443090A
:1016A0000E94110BEC010097D9F410927403109270
:1016B00075031092760310927703109271031092C3
:1016C0007003C80160E773E00E94200A882331F0AC
:1016D0008091700390917103892B41F4C7E0D0E0B1
:1016E000CE01DF91CF911F910F91089581E08093FA
:1016F00073030E947409F4CF0F931F93CF93DF936A
:10170000EC010E9443090E94110B8C01009769F5BE
:10171000109274031092750310927603109277035F
:101720001092710310927003CE010E94F909CE014C
:101730000E94B709882319F407E010E016C0CE0113
:1017400060E773E00E94200A882319F403E010E0A8
:101750000CC08091700390917103892B19F408E0FB
:1017600010E003C081E080937203C801DF91CF9144
:101770001F910F9108950E9443090E94110B9C0133
:10178000009719F08630910541F480916E03909195
:101790006F030E94AD1520E030E0C90108958091EB
:1017A0007A03882311F081E008958091D40308958D
:1017B0000F931F93DF93CF93CDB7DEB761970FB62B
:1017C000F894DEBF0FBECDBFBC0110927A0343E890
:1017D00053E020E030E00BE110E01E861F86188AFF
:1017E000198A1A861B861C861D861E821F821886F1
:1017F00019861A821B821C821D82209FF001219F64
:10180000F00D309FF00D1124ED57FC4F8981828F30
:101810008A819B81AC81BD81868B978BA08FB18F94
:101820008E819F81A885B985828B938BA48BB58B84
:101830008A859B85AC85BD8586879787A08BB18B74
:10184000DA011A961D921D921D921C921D971696F2
:101850001D921D921D921C9219978E859F85A889B5
:10186000B98982839383A483B583C901880F991FA3
:10187000820F931F880F991F880F991F860F971F3C
:10188000FA01918380832F5F3F4F455E5F4F233086
:10189000310509F0A2CF61960FB6F894DEBF0FBEF6
:1018A000CDBFCF91DF911F910F91089510927A03D0
:1018B0001092D4030895FC0180819181A281B381AB
:1018C0008093850390938603A0938703B093880346
:1018D00084819581A681B7818093A0039093A10311
:1018E000A093A203B093A30380859185A285B385BD
:1018F0008093BB039093BC03A093BD03B093BE033E
:101900000895EF92FF920F931F93FC01809185033E
:1019100090918603A0918703B09188032091A00342
:101920003091A1034091A2035091A303E090BB0327
:10193000F090BC030091BD031091BE03808391839E
:10194000A283B3832483358346835783E086F1865D
:1019500002871387CF011F910F91FF90EF90089599
:10196000109284031092830310929F0310929E039F
:101970001092BA031092B90308958F929F92AF927A
:10198000BF92CF92DF92EF92FF920F931F93CF936C
:10199000DF9380917A03882309F4B1C080917F039B
:1019A00090918003A0918103B09182030197A109D6
:1019B000B10980937F0390938003A0938103B09338
:1019C00082030196A11DB11D0097A105B10519F46F
:1019D00010927A0391C003E813E0EE24FF24BBE1E8
:1019E0008B2E912CA0907B03B0907C03C0907D0344
:1019F000D0907E03E89CE001E99CD00DF89CD00DCE
:101A00001124CD57DC4F8A899B89AC89BD892E89E9
:101A10003F89488D598D280F391F4A1F5B1F2A8B1C
:101A20003B8B4C8B5D8B8A899B89AC89BD89B7FDCB
:101A300059C06A8DF801808191810E94D4248A89DD
:101A40009B89AC89BD898A199B09AC09BD098A8B20
:101A50009B8BAC8BBD8B8A8DF801208131818823D3
:101A6000E1F0C9010E942D25882331F4F80180811D
:101A7000918161E00E94F524E89CF001E99CF00D61
:101A8000F89CF00D1124ED57FC4F82819381A481C5
:101A9000B5810196A11DB11D1BC0C9010E9447253A
:101AA000882331F4F8018081918161E00E94F5245E
:101AB000E89CF001E99CF00DF89CF00D1124ED5725
:101AC000FC4F82819381A481B5810197A109B1095D
:101AD00082839383A483B583F8018081918160E040
:101AE0000E94F5240894E11CF11C055E1F4FF3E0F1
:101AF000EF16F10409F076CF80917A0398C08091B7
:101B0000D403882309F493C01092D40303E813E0AC
:101B1000AA24BB24ABE18A2E912CC0907B03D090E9
:101B20007C03E0907D03F0907E03A89CE001A99CDB
:101B3000D00DB89CD00D1124CD57DC4F8E899F89D4
:101B4000A88DB98D0097A105B10509F45EC08A89F9
:101B50009B89AC89BD892E893F89488D598D280F75
:101B6000391F4A1F5B1F2A8B3B8B4C8B5D8B8A89ED
:101B70009B89AC89BD89B7FD4BC06A8DF801808116
:101B800091810E94D4248A899B89AC89BD898C1952
:101B90009D09AE09BF098A8B9B8BAC8BBD8B8A8D4F
:101BA000F80120813181882399F0C9010E942D25F7
:101BB000882359F5F8018081918161E00E94F52424
:101BC0008A819B81AC81BD810196A11DB11D12C08E
:101BD000C9010E9447258823C1F4F80180819181C1
:101BE00061E00E94F5248A819B81AC81BD810197CF
:101BF000A109B1098A839B83AC83BD83F8018081ED
:101C0000918160E00E94F52403C08091D40381118A
:101C100081E08093D4030894A11CB11C055E1F4F82
:101C2000F3E0AF16B10409F078CF8091D403DF91CF
:101C3000CF911F910F91FF90EF90DF90CF90BF90C9
:101C4000AF909F908F90089590E02BE130E0829FBD
:101C5000F001839FF00D929FF00D1124ED57FC4F82
:101C6000808191810E94112508952F923F924F9279
:101C70005F926F927F928F929F92AF92BF92CF921C
:101C8000DF92EF92FF920F931F93DF93CF9300D0D9
:101C90000F92CDB7DEB78983162F8FEF9FEFAFEF8F
:101CA000BFE780937F0390938003A0938103B09359
:101CB000820366E056954795379527956A95D1F743
:101CC00020937B0330937C0340937D0350937E03EA
:101CD000CA01B90122E030E040E050E00E94C8298A
:101CE000882499245401821A930AA40AB50A23E885
:101CF000C22E23E0D22EEE24FF249BE1292E312C8C
:101D0000012F10E081E0482E512C612C712CE29CB7
:101D1000C001E39C900DF29C900D11248D579C4FB7
:101D20009B838A83FC01828A938AA48AB58AC8012C
:101D30000E2C02C0959587950A94E2F780FF0FC09C
:101D40008981828FF6018081918161E00E94112555
:101D5000EA81FB81468A578A608E718E06C0EA81CD
:101D6000FB81168A178A108E118E0894E11CF11CD3
:101D70008BE190E0C80ED91E93E0E916F10439F624
:101D800081E08093D4030F900F900F90CF91DF915B
:101D90001F910F91FF90EF90DF90CF90BF90AF9089
:101DA0009F908F907F906F905F904F903F902F907B
:101DB00008953F924F925F926F927F928F929F927F
:101DC000AF92BF92CF92DF92EF92FF920F931F9349
:101DD000DF93CF9300D000D000D0CDB7DEB74983DA
:101DE0005A836B837C833C01E3E88E2EE3E09E2ED6
:101DF000AA24BB2465011E821D827BE1472E512C43
:101E000033243394F30180819181A281B3812D81A8
:101E10003E81249DF001259DF00D349DF00D11248F
:101E2000ED57FC4F86879787A08BB18B868597856A
:101E3000A089B1892281338144815581821B930B12
:101E4000A40BB50B868B978BA08FB18F328E8689B2
:101E50009789A08DB18D0097A105B10531F0F401EE
:101E60008081918161E00E9411252D813E81249D18
:101E7000F001259DF00D349DF00D1124ED57FC4F20
:101E800086899789A08DB18DB7FF10C08689978903
:101E9000A08DB18DB095A095909581959F4FAF4F36
:101EA000BF4F868B978BA08FB18F128E8D819E81B5
:101EB000849DF001859DF00D949DF00D1124ED574A
:101EC000FC4FE688F788008D118D029779F4809198
:101ED000D503882359F48091B9039091BA0360E047
:101EE000E114F1040105110551F008C0E114F104F9
:101EF0000105110531F0F4018081918161E00E94BA
:101F00001125AE14BF04C006D10614F457016801B0
:101F10002D813E812F5F3F4F3E832D8384E090E0F3
:101F2000680E791EEBE1F0E08E0E9F1E2330310526
:101F300009F068CFC601B50129813A814B815C81E6
:101F40000E94602920E430E040E050E00E94C8296F
:101F5000B901CA0160937B0370937C0380937D0376
:101F600090937E0360937F0370938003809381033B
:101F70009093820322E030E040E050E00E94C829C4
:101F800050954095309521953F4F4F4F5F4F20938F
:101F900095033093960340939703509398032093AF
:101FA000B0033093B1034093B2035093B303209333
:101FB000CB033093CC034093CD035093CE0381E009
:101FC00080937A0326960FB6F894DEBF0FBECDBF7E
:101FD000CF91DF911F910F91FF90EF90DF90CF9005
:101FE000BF90AF909F908F907F906F905F904F9039
:101FF0003F900895FC01108211820895FC01108227
:102000000895CF93DF93EC0188818823D9F08981EB
:102010008823C1F48AEA96E00E9488232A813B81C2
:102020004C815D81621B730B840B950B2E813F816C
:1020300048855985621773078407950718F0188239
:1020400081E089838981DF91CF910895CF92DF92DA
:10205000EF92FF920F931F938C016A017B0181E045
:10206000F801808311828AEA96E00E948823F801B1
:102070006283738384839583C682D782E086F186E8
:102080001F910F91FF90EF90DF90CF9008958AE21B
:1020900097E0089580E597E008958091D60388231E
:1020A00041F48091D703882321F481E08093D70302
:1020B000089580E008951092D70308958091D60383
:1020C00091E08927089588ED93E00E94FA0F089522
:1020D0000F931F9381E08093D60388ED93E040E552
:1020E00053EC60E070E00E94261083E080930A01C8
:1020F0000AE217E0C8010E948F27C80102970E94D8
:10210000BA261F910F9108958091D603882309F470
:102110004BC080914D0790914E07049719F410928F
:10212000D603089580914C07882369F080910A01B5
:10213000882399F41092D6038AEA96E063E070E06F
:102140000E949323089588ED93E00E940110882354
:1021500059F180910A018823C1F0815080930A01CE
:1021600088ED93E040E553EC60E070E00E942610BB
:1021700080E597E00E9443288AE297E00E948F273B
:1021800088E297E00E94BA2608958AE297E00E94CA
:10219000812784E080934C071092D6038AEA96E068
:1021A00061E070E00E9493230895FF920F931F93C4
:1021B000DF93CF93CDB7DEB72A970FB6F894DEBF83
:1021C0000FBECDBF8E010F5F1F4FC8010E94FA0FD7
:1021D000C80140E553EC60E070E00E942610F02E4C
:1021E000012F06C081E08093D7031092D60313C05D
:1021F0008091D603882341F48091D703882321F46A
:1022000081E08093D70307C08F2D902F0E9401108B
:10221000882371F3E7CF80E597E00E943B2880E5B3
:1022200097E060E00E948F2880E597E061E00E94DF
:102230008F280E94681088ED93E040E553EC60E041
:1022400070E00E9426101092D70302C00E948410F2
:102250008091D6038823D1F780914D0790914E0746
:1022600020E0049709F421E0822F2A960FB6F89413
:10227000DEBF0FBECDBFCF91DF911F910F91FF90B9
:102280000895FC01009711F0118210820895DF93E8
:10229000CF9300D0CDB7DEB7DC01009781F162307B
:1022A000710568F1ED91FC911197660F771F80E041
:1022B00090E016962D913D914D915C911997620F8A
:1022C000731F841F951F0190F081E02DAE014F5FB9
:1022D0005F4F22E030E00995882389F029813A8117
:1022E0002115310571F08FEF273F380741F0C90103
:1022F0004096079720F08FEF283F380710F020E036
:1023000030E0C9010F900F90CF91DF9108954F9267
:102310005F926F927F928F929F92AF92BF92CF9275
:10232000DF92EF92FF920F931F93DF93CF9300D032
:10233000CDB7DEB75C01009709F449C06230710582
:1023400008F445C0DC0116966D907D908D909C90B0
:1023500019972E010894411C511C660F771F7B01B1
:1023600000E010E0E60CF71C081D191DD501ED91E9
:10237000FC910190F081E02DC801B701A20122E09B
:1023800030E00995882319F1C980DA80C114D1049D
:1023900001F1C60140960897D0F0B8EFCB16BFEF19
:1023A000DB0610F0CC24DD241A821982D501ED91D0
:1023B000FC910480F581E02DC801B701A20122E063
:1023C00030E00995B601C114D10439F602C080E0AD
:1023D00001C081E00F900F90CF91DF911F910F917D
:1023E000FF90EF90DF90CF90BF90AF909F908F9035
:1023F0007F906F905F904F9008952F923F924F92F1
:102400005F926F927F928F929F92AF92BF92CF9284
:10241000DF92EF92FF920F931F93DF93CF93CDB78D
:10242000DEB72C970FB6F894DEBF0FBECDBF4C01C0
:102430001B01CA018114910409F4ABC0D401ED91D0
:10244000FC911197208131813C872B8744815581F4
:102450005A87498716962D913D914D915C91199718
:102460002D833E834F8358875A96AD90BC905B97DF
:102470001A962D913D914D915C911D9756954795DA
:10248000379527953C832B835B961C921E925A9717
:102490003C012901CC24DD2454C0B2E0AB16B104C8
:1024A00028F0EB81FC81AE16BF0618F042E0A42EA6
:1024B000B12CC501880F991F7C0100E010E02D812F
:1024C0003E814F815885E20EF31E041F151FC8017F
:1024D000B701AE014F5F5F4F22E030E0AB85BC85B6
:1024E000FD010995882309F454C089819A81892BBB
:1024F00011F56114710421F4F401B38EA28E27C08A
:10250000C114D10429F42FEF3FEF3A83298302C08D
:10251000DA82C982C801B701AE014F5F5F4F22E086
:1025200030E0A985BA85FD010995882371F10894E9
:102530006108710865010894410851080894A11CBC
:10254000B11C4114510409F0A8CF6728F1F4B2E09E
:102550002B16310400F1C982DA82220C331CB1013E
:1025600080E090E02D813E814F815885620F731F7E
:10257000841F951FAE014F5F5F4F22E030E0A985B9
:10258000BA85FD010995882331F4C401B6010E9482
:102590008711CC24DD24C6012C960FB6F894DEBF3B
:1025A0000FBECDBFCF91DF911F910F91FF90EF90A4
:1025B000DF90CF90BF90AF909F908F907F906F9063
:1025C0005F904F903F902F90089580E190E00895A4
:1025D0002F923F924F925F926F927F928F929F9233
:1025E000AF92BF92CF92DF92EF92FF920F931F9321
:1025F000DF93CF93CDB7DEB72A970FB6F894DEBF3F
:102600000FBECDBF2C017A8369835C834B83009717
:1026100009F409C1672B09F406C1452B09F403C16C
:10262000DC019D96AD90BD90CD90DC90D0979596B5
:102630002D913D914D915C919897EB81FC81CF015B
:10264000A0E0B0E08A0D9B1DAC1DBD1D2817390709
:102650004A075B0740F4B9016A197B097C836B83E5
:10266000672B09F4E3C0D201ED91FC91119720880A
:102670003188D196ED91FC91D297FA87E987EF2BBB
:10268000F1F593962D913C9194973A872987232BC6
:1026900039F4A114B104C104D10409F4C7C0C3C002
:1026A000A114B104C104D10451F1860175013101B5
:1026B0008824992466277727CB016619770988092A
:1026C00099096D837E838F83988714C0D2018D9181
:1026D0009C9169857A850E9447119A878987892B01
:1026E00009F4A1C06D817E818F819885E60EF71E69
:1026F000081F191FE614F7040805190538F7089490
:1027000021083108A220B3200894211C311CCB8061
:10271000DC80D201ED90FC90E114F10409F1E9852F
:10272000FA85E230F105E0F03297BF0180E090E0F9
:102730003296FA87E987D70150962D913C915197AF
:1027400040E050E00E9460299B01AC01F7018289C2
:102750009389A489B589280F391F4A1F5B1F04C0BC
:1027600020E030E040E050E081010A191B09C0166A
:10277000D10608F48601D701ED91FC91C501A0E0D6
:10278000B0E0280F391F4A1F5B1F0190F081E02D38
:10279000CA01B90149815A8198010995882341F1FB
:1027A000C01AD10AC801A0E0B0E0F20125A536A503
:1027B00047A550A9280F391F4A1F5B1FD2019D96BC
:1027C0002D933D934D935C93D097C8018A0D9B1D2B
:1027D00082159305A0F08D919C9169857A850E9460
:1027E00047119A878987892B41F4F20112AA11AA0D
:1027F0004B815C814C195D091BC0AA24BB24E9856F
:10280000FA85D201D296FC93EE93D197C114D104EC
:1028100039F029813A81200F311F3A83298379CFFA
:102820004B815C8105C04FEF5FEF02C040E050E09C
:10283000CA012A960FB6F894DEBF0FBECDBFCF9166
:10284000DF911F910F91FF90EF90DF90CF90BF909D
:10285000AF909F908F907F906F905F904F903F9040
:102860002F9008952F923F924F925F926F927F9296
:102870008F929F92AF92BF92CF92DF92EF92FF9290
:102880000F931F93DF93CF9300D000D000D0CDB72C
:10289000DEB76C017A8369835C834B83009709F40C
:1028A0003AC1672B09F437C1452B09F434C1DC0167
:1028B0009D968D909D90AD90BC90D09795968D9162
:1028C0009D910D90BC91A02D88159905AA05BB0579
:1028D00008F421C1D601ED91FC911197208831882F
:1028E000D1962D913C91D2973E832D83232B09F0D5
:1028F00057C093968D919C9194979E838D83892B3D
:10290000B9F481149104A104B10409F004C1CF0108
:1029100060E070E041E050E00E94FD119E838D83F5
:10292000D60194969C938E939397892B09F4F3C0C8
:10293000F601E5A4F6A407A510A9E114F104010528
:10294000110531F52DC0E418F50806091709D6015F
:102950008D919C916D817E810E944711009719F0A5
:102960009E838D8318C0E114F1040105110509F05F
:10297000D2C0F601808191816D817E8141E050E07D
:102980000E94FD11009709F4C6C09E838D8303C089
:10299000210166247724E414F5040605170598F64A
:1029A000089421083108822093200894211C311CAE
:1029B000AB80BC80D601ED90FC90E114F10409F1EC
:1029C000ED81FE81E230F105E0F03297BF0180E059
:1029D00090E03296FE83ED83D70150962D913C9185
:1029E000519740E050E00E9460299B01AC01F70143
:1029F00082899389A489B589280F391F4A1F5B1FD3
:102A000004C020E030E040E050E0810108191909DD
:102A1000A016B10608F48501D701ED91FC91C4011F
:102A2000A0E0B0E0280F391F4A1F5B1F0480F5812A
:102A3000E02DCA01B90149815A819801099588237D
:102A400009F44DC0A01AB10AC801A0E0B0E0F60137
:102A500025A536A547A550A9280F391F4A1F5B1F7A
:102A6000D6019D962D933D934D935C93D097C801CD
:102A7000880D991D8215930518F18D919C916D819A
:102A80007E810E944711009719F09E838D8316C0A6
:102A9000A114B10459F0F601808191816D817E818C
:102AA00041E050E00E94FD11009731F4D601D2962A
:102AB0001C921E92D19713C09E838D8388249924E3
:102AC0002D813E81F60132AB21ABA114B10439F066
:102AD00089819A81800F911F9A8389836BCFD60158
:102AE0009D962D913D914D915C91D09795968D91AC
:102AF0009D910D90BC91A02D82179307A407B50757
:102B000028F4F60125A336A347A350A74B815C8187
:102B10004A195B0902C04FEF5FEFCA0126960FB654
:102B2000F894DEBF0FBECDBFCF91DF911F910F9103
:102B3000FF90EF90DF90CF90BF90AF909F908F90DD
:102B40007F906F905F904F903F902F900895FC0181
:102B5000009711F0118210820895FC01009711F482
:102B600080E0089583A194A196A785A710AA17A62F
:102B700081E008957F928F929F92AF92BF92CF9201
:102B8000DF92EF92FF920F931F93DF93CF93CDB716
:102B9000DEB72C970FB6F894DEBF0FBECDBF6C0129
:102BA0005B01009709F44EC06115710509F44AC034
:102BB000DB019796ED90FD900D911C919A97E11491
:102BC000F10401051105F1F14E010894811C911CDD
:102BD00075EE772ED601ED91FC910190F081E02DFC
:102BE000C801B701A4012CE030E00995882351F118
:102BF0007982D601ED91FC910480F581E02DC80128
:102C0000B701A4012CE030E009958823D9F08C8528
:102C10008F3049F480E290E0A0E0B0E0E80EF91EC9
:102C20000A1F1B1FD7CFD50191966D917C9192976A
:102C30006115710529F0C6010E948711882319F0DA
:102C400081E001C080E02C960FB6F894DEBF0FBE85
:102C5000CDBFCF91DF911F910F91FF90EF90DF904B
:102C6000CF90BF90AF909F908F907F900895CF921C
:102C7000DF92EF92FF920F931F93DF93CF93CDB725
:102C8000DEB760970FB6F894DEBF0FBECDBF8C01E4
:102C90006230710510F480E035C0009729F440E0FF
:102CA00050E060E070E016C06250704080E090E05C
:102CB000F8012089318940E050E00E946029AB0191
:102CC000BC01F80182899389A489B589480F591FED
:102CD0006A1F7B1FDE01119680E1FD0111928A952A
:102CE000E9F7F8018081918120893189FC01C68052
:102CF000D780CB01BA01AD0105EE12E1EE24FF242D
:102D0000F601099560960FB6F894DEBF0FBECDBFF1
:102D1000CF91DF911F910F91FF90EF90DF90CF90B7
:102D200008952F923F924F925F926F927F928F926F
:102D30009F92AF92BF92CF92DF92EF92FF920F934A
:102D40001F93DF93CF93CDB7DEB7A6970FB6F89456
:102D5000DEBF0FBECDBF2C01009709F4A5C06115E1
:102D6000710509F4A1C0DC018D909C901197F401CC
:102D7000208831889D96AD90BC909E979F966D90CF
:102D80007C90D097FE01319686E0DF011D928A95F6
:102D9000E9F7A114B10409F076C0F4012288338860
:102DA00086899789281A390A6EC0730100E010E0FD
:102DB000A114B10441F4D40156966D917D918D9189
:102DC0009C9159972DC08114910421F1B2E0AB166A
:102DD000B10400F1EEEFFFEFAE0EBF1EB50180E0D3
:102DE00090E022E030E0A20EB31ED40150962D9167
:102DF0003C91519740E050E00E9460299B01AC015A
:102E0000F40182899389A489B589280F391F4A1F43
:102E10005B1F04C020E030E040E050E0CA01B9018F
:102E20006E0D7F1D801F911F1C821B82D401ED91AE
:102E3000FC918101061917090280F381E02DAE0192
:102E4000495F5F4F20E230E0AEE6EA2EA7E1FA2EBE
:102E50006E010894C11CD11C0995882329F18B812E
:102E60009C81680E791E6214730478F0C401B50168
:102E70000E9447115C0166247724009731F4F20127
:102E8000A3A0B4A006C07A8369838E81882309F445
:102E90008CCFD2019E96BC92AE929D97D0967C929A
:102EA0006E929F978E8101C080E0A6960FB6F8942F
:102EB000DEBF0FBECDBFCF91DF911F910F91FF906D
:102EC000EF90DF90CF90BF90AF909F908F907F90CA
:102ED0006F905F904F903F902F900895CF92DF9228
:102EE000EF92FF920F931F93DF93CF93CDB7DEB78F
:102EF0002D970FB6F894DEBF0FBECDBF8C016A01CF
:102F00007B01B901D9014D915C91119712968D9178
:102F10009C911397809613969C938E931297F80129
:102F20009081953E11F0992321F4DB0114961C92B7
:102F3000E6C0F80183858F3009F04FC0D90114969F
:102F40009C91992319F08585981789F08BE2FA01F5
:102F500011928A95E9F7D8011D968C91FB01848323
:102F6000DA019796CD92DD92ED92FC929A97F80154
:102F7000808190E08F73907001972DE030E0829F08
:102F8000B001839F700D929F700D1124DE01119688
:102F9000EBE0F1E08DE001900D928150E1F7DA0174
:102FA000A60FB71F20E030E0AE014F5F5F4F0FC0AC
:102FB000FA01E20FF31F8081F801E80FF11D808113
:102FC0008D932F5F3F4F2D30310509F498C0C90113
:102FD000860F971F4F9760F392C0DA018C91882378
:102FE000C9F0F901B481F801A1E0892F90E09C01BA
:102FF000359527959695982F882797958795982F9B
:10300000922B8181980FAF5F3196AB3071F7B91772
:1030100009F45AC08BE2DA011D928A95E9F7FA01A8
:10302000C7A2D0A6E1A6F2A67801DA01680120E0E5
:10303000F60190819032A1F09C93F801848583FF82
:1030400008C0F6018081813420F08B3510F4905E49
:103050009C932F5F0894C11CD11C1196283041F716
:10306000DA018C91853011F485EE8C93F80180851E
:10307000803231F1FA01E20FF11D8EE28083322FAE
:103080003F5F2C5FD70118969C919032C1F0FA01F6
:10309000E30FF11D9083D8011C968C9184FF09C029
:1030A000D70118968C91813420F08B3510F4905E06
:1030B00090833F5F0894E11CF11C321719F7232F0E
:1030C000FA01E20FF11D1082F8018385DA01909672
:1030D0008C939097828D938D92969C938E939197DB
:1030E000848D958DA68DB78DFA0183A394A3A5A396
:1030F000B6A381E0DB0115968C9380E001C081E0EE
:103100002D960FB6F894DEBF0FBECDBFCF91DF91E5
:103110001F910F91FF90EF90DF90CF9008952F9225
:103120003F924F925F926F927F928F929F92AF9257
:10313000BF92CF92DF92EF92FF920F931F93DF9394
:10314000CF93CDB7DEB7A8970FB6F894DEBF0FBE0A
:10315000CDBF98A78FA3009709F436C1DC01149660
:103160008D919C911597892B09F42EC116968D91FE
:103170009C911797892B09F427C16DC1E981FA81C8
:10318000FBA3EAA32C813D81FB81FCA34E818F81AF
:1031900098859EA38DA3E985FA856C857D856E88CB
:1031A0007F88888C998C611471048104910431F4B6
:1031B000309709F405C13F018824992461157105F0
:1031C00009F4FEC0C901A0E0B0E08A8F9B8FAC8FEC
:1031D000BD8F80E090E0242F30E040E050E00E947E
:1031E00060296E8F7F8F88A399A3840173012A8D34
:1031F0003B8D4C8D5D8DE21AF30A040B150BE61A1C
:10320000F70A080B190B8AA19BA101972DA13EA1DA
:10321000F5E0220F331FFA95E1F7820F931F6AA1A1
:103220007BA10E947F2980E090E0E61AF70A080B54
:10323000190B8CA1282F30E040E050E0C801B70105
:103240000E94A62979018A0195EFE9169FE0F90607
:1032500090E0090790E0190708F4B2C0A5EFEA165C
:10326000AFEFFA06A0E00A07A0E01A0728F486E00C
:10327000EFA1F8A5808705C08BE0AFA1B8A518968F
:103280008C9388E1E9E7F4E0DF011D928A95E9F784
:10329000EAA1FBA15F01CC24DD24C401B301A60196
:1032A00095010E9460296093790470937A04809359
:1032B0007B0490937C04C601B5012A8D3B8D4C8D17
:1032C0005D8D0E946029260E371E481E591E2092D1
:1032D0007D0430927E0440927F0450928004AFA11E
:1032E000B8A518968C91863029F064E070E080E0F3
:1032F00090E004C062E070E080E090E022E030E026
:1033000040E050E0E20EF31E041F151FA8019701D4
:103310000E946029609381047093820480938304E7
:10332000909384044AA15BA1509386044093850442
:103330005CA1852F90E0DC01EAA1FBA1AE9FC0015A
:10334000AF9F900DBE9F900D1124909388048093A1
:1033500087046E8D7F8D88A199A1A60195010E9499
:10336000602920917D0430917E0440917F0450912A
:103370008004620F731F841F951F60938D047093E8
:103380008E0480938F0490939004ADA1BEA19D0103
:1033900040E050E0E5E0220F331F441F551FEA953F
:1033A000D1F7620F731F841F951F60938904709378
:1033B0008A0480938B0490938C0427E734E006C042
:1033C000109278041092770420E030E0C901A896AA
:1033D0000FB6F894DEBF0FBECDBFCF91DF911F9126
:1033E0000F91FF90EF90DF90CF90BF90AF909F90A4
:1033F0008F907F906F905F904F903F902F900895A7
:10340000E7E7F4E08CE1DF011D928A95E9F7EFA18F
:10341000F8A5F0937804E093770421843284438400
:10342000548489E0220C331C441C551C8A95D1F726
:10343000C201B101655F7F4F8F4F9F4F0190F081B7
:10344000E02DAE014F5F5F4F29E130E00995882301
:1034500009F4B6CF93CE8091770490917804892BAC
:1034600009F0B2CFCDCF2F923F924F925F926F92E1
:103470007F928F929F92AF92BF92CF92DF92EF9204
:10348000FF920F931F93DF93CF9300D00F92CDB78E
:10349000DEB71C019B01009709F4D2C0411551050C
:1034A00009F4CEC0FA0101900020E9F7E41BF50B06
:1034B000CF010B966DE070E00E947F29862F8F5F11
:1034C0008B83D90193964D905C909497411451044D
:1034D00051F0AA24BB246501EE24FF248701662451
:1034E000772443010BC0F101E688F788008D118D28
:1034F0006288738884889588570168011A82E61467
:10350000F7040805190509F06EC04114510409F4C7
:1035100097C0E114F1040105110589F1C101B2015F
:103520000E944711009751F5C101B20141E050E0FE
:103530000E94FD118C01009709F482C002501040D6
:10354000B80180E090E00E5F1F4FD10150962D91A1
:103550003C91519740E050E00E9460295B016C0172
:10356000F10182899389A489B589A80EB91ECA1E62
:10357000DB1EC101B8010E94371665C02C01F2E0C4
:103580004F16510420F4EE24FF2487011DC02EEFB6
:103590003FEF420E531EB20180E090E0A2E0B0E0A7
:1035A0004A0E5B1EF1012089318940E050E00E9403
:1035B00060297B018C01F10182899389A489B589F5
:1035C000E80EF91E0A1F1B1FD10150968D919C9188
:1035D00051973C01882499246E0C7F1C801E911EFB
:1035E000570168011A82D101ED91FC910190F0819F
:1035F000E02DC801B701AE014F5F5F4F21E030E021
:1036000009958823E9F08981853E11F0882379F4B2
:10361000BA81BF5FBA83EB81BE17A8F480E290E065
:10362000A0E0B0E0E80EF91E0A1F1B1F68CF80E281
:1036300090E0A0E0B0E0E80EF91E0A1F1B1F5CCF6F
:10364000AA24BB246501B501C6010F900F900F900D
:10365000CF91DF911F910F91FF90EF90DF90CF906E
:10366000BF90AF909F908F907F906F905F904F90A2
:103670003F902F9008952F923F924F925F926F92BA
:103680007F928F929F92AF92BF92CF92DF92EF92F2
:10369000FF920F931F93DF93CF93CDB7DEB7A09721
:1036A0000FB6F894DEBF0FBECDBFFC018B010097B3
:1036B00009F438C16115710509F434C10190F08134
:1036C000E02D24803580DB019796AD90BD90CD90A4
:1036D000DC909A97E62E912EFB0101900020E9F7ED
:1036E0003197FE2EF61A8F2D90E00C966DE070E06B
:1036F0000E949329762ECE01019660E270E04BE0A5
:1037000050E00E94F229C8016EE270E00E942A2A6D
:10371000FC010097E1F09C012F5F3F4F81818823DE
:10372000B1F0D9010D900020E9F71197A21BB30B5E
:103730008A2F8095F80EBE01675F7F4F4A2FA43015
:1037400008F043E0CB01B90150E00E94E929CE0125
:103750000196B8E0BF1588F06E2D792D4F2D50E001
:103760000E94E929F80180818E3291F581818E32A3
:1037700009F48281882359F12BC0DC018E2D992D0B
:103780009C01F90188E001900D928150E1F7D80188
:1037900091962C91822F90E0203A40F4B4E09595D8
:1037A0008795BA95E1F7982F905D07C0A4E09595AD
:1037B0008795AA95E1F7982F9F59822F8F708A30AD
:1037C00010F4805D01C08F599F83888701C07724E2
:1037D0008981853E11F485E08983FCE08F2E912C50
:1037E0008C0E9D1E85E1F40111928A95E9F7D801AE
:1037F00090968C9190978C8791968D919C919297B1
:103800009C8F8B8F93968D919D910D90BC91A02D47
:103810008D8F9E8FAF8FB8A3672D70E0E5E0660FA8
:10382000771FEA95E1F780E090E06A0D7B1D8C1D23
:103830009D1DAE014F5F5F4F20E230E0F101099521
:10384000882309F46FC0E980FE013296A4018E2D11
:1038500090E09C01359527959695982F8827979508
:103860008795E82EE22A8191E80EE417F50779F7AB
:10387000F72C4E010894811C911CBDE04B2E512C5D
:10388000AFE06A2E4AC0C4016FEF70E040E250E042
:103890000E94F2298F2D90E00197849DD001859D93
:1038A000B00D949DB00D1124A00FB11F91E0F40153
:1038B000E90FF11D8C918083892F8F5FF401E80F50
:1038C000F11D10829E5F9B3019F09A3121F402C0E5
:1038D0009EE001C09CE18C91882321F09F3110F47F
:1038E0001196E5CFF982F71419F48F2D806489833E
:1038F0006C86EE861D861B8E1C8EC601B501A4014A
:1039000020E230E0F101099580E290E0A0E0B0E033
:10391000A80EB91ECA1EDB1EFA94FF2009F0B3CF11
:1039200081E001C080E0A0960FB6F894DEBF0FBE24
:10393000CDBFCF91DF911F910F91FF90EF90DF905E
:10394000CF90BF90AF909F908F907F906F905F903F
:103950004F903F902F900895AF92BF92CF92DF92F9
:10396000EF92FF920F931F93CF93DF938C017B0114
:10397000EA01009709F448C06115710509F444C0D3
:10398000FB018081882309F43FC041155105E1F115
:10399000B42EAD2EC801BE010E949116882379F085
:1039A000C7016B2D7A2D0E94042A009799F7F80120
:1039B00083A194A196A785A710AA17A625C0F801F0
:1039C000C080D1808BE2FE0111928A95E9F78B2DA0
:1039D0009A2DB7014FE150E00E941B2AC601B801A1
:1039E000AE010E94331A6FA378A789A79AA7611521
:1039F00071058105910541F0C601BE010E943B1B86
:103A0000882319F081E001C080E0DF91CF911F9100
:103A10000F91FF90EF90DF90CF90BF90AF900895FF
:103A2000CF93DF93EC01009741F0FC0181919191DC
:103A3000BF010E943B1B19821882DF91CF9108952C
:103A4000CF93DF93AC01DB01009789F1611571051C
:103A500071F190968C91909784FF29C08091E20338
:103A60009091E303892B19F4E2EEF3E008C0809112
:103A7000130490911404892BD1F4E3E1F4E09F0145
:103A80002E5F3F4FBD018BE2EB010990BE01E901C2
:103A900009929E018150C1F75183408391968D9187
:103AA0009C91929796A785A710AA17A602C0E0E05E
:103AB000F0E0CF01DF91CF910895CF93DF939C0188
:103AC000FB01009731F06115710519F080A184FFA9
:103AD00023C020E030E0C901DF91CF910895C6E412
:103AE000D4E0DF018BE20D9009928150E1F7309331
:103AF00045042093440410927104109272041092B1
:103B000073041092740481A192A19093760480931F
:103B1000750424E434E0DFCF80914404909145049F
:103B2000892BB9F6DCCF6F927F928F929F92AF92E2
:103B3000BF92CF92DF92EF92FF920F931F93CF939A
:103B4000DF934C01EB017A01009709F467C061151E
:103B5000710509F463C08881882309F45FC04115A9
:103B6000510509F45BC08F3209F421968BE2F7010D
:103B700011928A95E9F780E1F70180A3370101C02E
:103B8000E5018881882309F44BC0C401B7010E9474
:103B9000201D6C01009709F441C0CE016FE270E076
:103BA0000E94F929009739F0482F4C1B5C010894BA
:103BB000A11CB11C2AC0FE0101900020E9F7319739
:103BC0004E2F4C1B5E01A40EB11C1FC0F3010190CF
:103BD0000020E9F73197E619F709E017F107B9F482
:103BE000CE01B301A8010E940D2A009781F4F601CD
:103BF000118210820C0F1D1FF8018081882381F033
:103C0000F70180A184FDBCCF09C0042F10E0C601DC
:103C1000B7010E9491168823C9F612C080E001C046
:103C200081E0DF91CF911F910F91FF90EF90DF9096
:103C3000CF90BF90AF909F908F907F906F9008959E
:103C4000F601118210829DCFFC01009711F480E0F3
:103C50000895108681E008958F929F92AF92BF924F
:103C6000CF92DF92EF92FF920F93DF93CF93CDB776
:103C7000DEB760970FB6F894DEBF0FBECDBF7C01F4
:103C80006B015A014901009709F493C06115710550
:103C900009F48FC004300CF08CC007FD1DC0602FEC
:103CA000772767FD7095E4E0660F771FEA95E1F7E7
:103CB00062547E4F882777FD8095982FAE014F5F25
:103CC0005F4F20E130E0F7010995882309F471C0C6
:103CD0008D81882309F46DC080919B04882309F0AD
:103CE00068C07CC08D8180939B042A8530E040E0D1
:103CF00050E0542F432F322F22278B8590E0A0E0F5
:103D0000B0E0DC0199278827282B392B4A2B5B2B25
:103D1000898590E0A0E0B0E0282B392B4A2B5B2B63
:103D20008C8590E0A0E0B0E0B82FAA2799278827DB
:103D3000282B392B4A2B5B2B20939C0430939D041A
:103D400040939E0450939F042E8530E040E050E065
:103D5000542F432F322F22278F8590E0A0E0B0E030
:103D6000DC0199278827282B392B4A2B5B2B8D8543
:103D700090E0A0E0B0E0282B392B4A2B5B2B888900
:103D800090E0A0E0B0E0B82FAA2799278827282B39
:103D9000392B4A2B5B2B2093A0043093A104409332
:103DA000A2045093A30403C08FEF80939B049F0150
:103DB00002C020E030E0C90160960FB6F894DEBF83
:103DC0000FBECDBFCF91DF910F91FF90EF90DF90AD
:103DD000CF90BF90AF909F908F900895E3E9F4E06B
:103DE00081E1DF011D928A95E9F7F0929404E09257
:103DF0009304D0929604C0929504B0929804A09235
:103E0000970490929A048092990407FF6BCFCCCFCD
:103E1000E0917707F0E0808186958695869580957C
:103E200081700895E0917707F0E0808190E09595AA
:103E300087959595879581700895282F8FEF8EBD72
:103E40000DB407FEFDCF8DB58F778DBD8EB5822F5A
:103E500080648EBD0DB407FEFDCF8DB58F778DBD0F
:103E6000872F9927AA27BB278EBD0DB407FEFDCF4C
:103E70008DB58F778DBDCB01AA27BB278EBD0DB425
:103E800007FEFDCF8DB58F778DBDBB27A72F962F52
:103E9000852F8EBD0DB407FEFDCF8DB58F778DBDFF
:103EA0004EBD0DB407FEFDCF8DB58F778DBD22239E
:103EB00019F0283069F406C085E98EBD0DB407FEFF
:103EC000FDCF0BC087E88EBD0DB407FEFDCF05C04A
:103ED0008FEF8EBD0DB407FEFDCF8DB58F778DBDF5
:103EE00090E02FEF2EBD0DB407FEFDCF8DB58F777F
:103EF0008DBD8EB58F3F19F49F5F9A3099F7089565
:103F00002F923F924F925F926F927F928F929F92E9
:103F1000AF92BF92CF92DF92EF92FF920F931F93D7
:103F2000CF93DF934B015C012A013901E0917707C0
:103F3000F0E0808182FFA3C0ABC0E401D170CE016C
:103F4000A0E0B0E085017401E81AF90A0A0B1B0B26
:103F5000C12CB2E0DB2ECC1ADD0A6C147D0408F40F
:103F600063018091A5049091A604A091A704B0914B
:103F7000A804E816F9060A071B07F9F00E945E205C
:103F8000882309F485C0209729F480E0C81682E0D0
:103F9000D80658F4C801B70149EA54E020E032E0FD
:103FA0000E947820882309F473C0E092A504F0925F
:103FB000A6040093A7041093A80489EA481684E095
:103FC000580671F09E0127553B4FC901B201A60169
:103FD0000E94E9291092A4046C147D0409F45AC0CB
:103FE0002C9888E1B801A7010E941D1F882311F0B9
:103FF0002C9A4EC08EEF8EBD0DB407FEFDCF8DB551
:104000008F778DBDE9EAF4E081918EBD0DB407FE96
:10401000FDCF8DB58F778DBD86E0E93AF807A1F722
:104020003EBC0DB407FEFDCF8DB58F778DBD3EBC78
:104030000DB407FEFDCF8DB58F778DBD3EBC0DB4A1
:1040400007FEFDCF8DB58F778DBD8EB58F3FB1F754
:104050008EBD0DB407FEFDCF8DB58F778DBD8EB5AE
:104060002C9A4C0C5D1CC601A0E0B0E0880E991E95
:10407000AA1EBB1E6C187D082092A40404C0332421
:104080003A94222423946114710409F056CF02C09B
:1040900080E001C081E0DF91CF911F910F91FF90EF
:1040A000EF90DF90CF90BF90AF909F908F907F90D8
:1040B0006F905F904F903F902F9008958091A4044F
:1040C000882311F081E008956091A5047091A60401
:1040D0008091A7049091A80449EA54E020E032E0DE
:1040E0000E94801F882319F081E08093A404089522
:1040F0003F924F925F926F927F928F929F92AF9278
:10410000BF92CF92DF92EF92FF920F931F93CF93C4
:10411000DF933B014C016A01290133243A948FC09B
:104120001FEFA12E11E0B12EA620B720C501A0E0FF
:10413000B0E084017301E81AF90A0A0B1B0BC0E016
:10414000D2E0CA19DB094C165D0608F4E201809141
:10415000A5049091A604A091A704B091A804E81624
:10416000F9060A071B0709F457C00E945E2088233E
:1041700009F46AC02C9881E1B801A7010E941D1FB3
:10418000882319F02C9A80E05FC03EBC0DB407FE76
:10419000FDCF8DB58F778DBD8EB58E3FB1F7E9EA36
:1041A000F4E03EBC0DB407FEFDCF8DB58F778DBD1D
:1041B0008EB5808386E0E83AF80711F03196F1CFAA
:1041C000E092A504F092A6040093A7041093A8041B
:1041D000950127553B4FC601B901AE010E94E9295F
:1041E0003EBC0DB407FEFDCF8DB58F778DBD8EB56E
:1041F0003EBC0DB407FEFDCF8DB58F778DBD8EB55E
:104200002C9A3EBC0DB407FEFDCFCC0EDD1E8DB545
:104210008F778DBD8EB50AC0950127553B4FC601DE
:10422000B901AE010E94E929CC0EDD1E4C1A5D0ACF
:10423000CE01A0E0B0E0680E791E8A1E9B1E4114DC
:10424000510409F06DCF81E0DF91CF911F910F9163
:10425000FF90EF90DF90CF90BF90AF909F908F90A6
:104260007F906F905F904F903F9008952F923F9274
:104270004F925F926F927F928F929F92AF92BF9276
:10428000CF92DF92EF92FF920F931F93DF93CF9322
:1042900000D000D0CDB7DEB74B015C013A013C83C2
:1042A0002B832701DA82C98241155105A9F1211515
:1042B000310591F10217130778F1E114F10461F16E
:1042C00019013094219431083394021B130B6901B6
:1042D000EE24FF24C501B401A3012B813C810E947F
:1042E00078208823C9F0C301B501A40129813A814E
:1042F000F2010995882391F0020D131D8B819C8199
:10430000800F911F2B813C818217930738F08C0C12
:104310009D1CAE1CBF1CDECF80E001C081E00F9071
:104320000F900F900F90CF91DF911F910F91FF9001
:10433000EF90DF90CF90BF90AF909F908F907F9045
:104340006F905F904F903F902F9008950F931F9321
:10435000CF93DF93E0917707F0E08181877F8183BE
:10436000E0917707F0E081818B7F8183259A279AFE
:10437000249A26982C9A83E58CBD8DB58E7F8DBDB1
:104380001092A906E0917707F0E0808183FD1FC0BD
:1043900090E02FEF2EBD0DB407FEFDCF8DB58F77CA
:1043A0008DBD8EB59F5F9A30A9F72C98C0E0D0E004
:1043B00080E040E050E060E070E00E941D1F182F98
:1043C000813049F081E0CF3FD80719F42C9A80E082
:1043D00063C02196EDCF87E340E050E060E070E0FD
:1043E0000E941D1F89E240E050E060E070E00E9402
:1043F0001D1F82FD02C01093A9068091A906082FF7
:1044000010E003701070C0E0D0E00115110549F014
:1044100087E340E050E060E070E00E941D1F89E209
:1044200001C081E040E050E060E070E00E941D1FAC
:1044300080FF06C08FE7CF3FD80741F22196E5CF36
:1044400080E140E052E060E070E00E941D1F8823A0
:1044500009F0BCCF2C9A8CB58C7F8CBD8DB581605A
:104460008DBD8FEF9FEFAFEFBFEF8093A5049093CB
:10447000A604A093A704B093A80481E08093A404A9
:1044800060E070E080E090E049EA54E020E032E053
:104490000E947820811181E0DF91CF911F910F91CF
:1044A00008954F925F926F927F928F929F92AF92F8
:1044B000BF92CF92DF92EF92FF920F931F93CF9311
:1044C000DF935B016C014A01E901380127014115C5
:1044D000510571F10115110559F1FF24211531051F
:1044E00011F5FF24F3941FC0C401B601A501920188
:1044F000F30109958C010097E9F0FF2019F4C81722
:10450000D907B0F0C601B501A40198010E94801F2F
:10451000882371F0C801A0E0B0E0A80EB91ECA1E41
:10452000DB1EC01BD10BFF20F9F62097E9F602C075
:1045300080E001C081E0DF91CF911F910F91FF904A
:10454000EF90DF90CF90BF90AF909F908F907F9033
:104550006F905F904F900895DC01FC0120E030E007
:104560009FEF90838181807F818392838381807F8D
:10457000838394838581807F858396838781807FF1
:10458000878390878185807F8187245F3F4F3C961A
:104590002432310531F790917807309179071B96D5
:1045A0001C921B9721E01A962C931A9718969C93AD
:1045B000189719968C911997807F846019968C931F
:1045C000199716969C93169717968C911797807F3C
:1045D000856017968C93179714969C93149715964D
:1045E0008C911597807F836015968C931597129602
:1045F0003C93129713968C911397807F8760139644
:104600008C9313979C9311968C911197807F826065
:1046100011968C9311973091780790917607579661
:104620001C92579756962C93569754969C93549752
:1046300055968C915597807F866055968C935597AB
:1046400052969C93529753968C915397807F856096
:1046500053968C93539750969C93509751968C9168
:104660005197807F876051968C9351971E963C930B
:104670001E971F968C911F97807F87601F968C9343
:104680001F971C963C931C971D968C911D97807FBD
:1046900086601D968C931D9793961C929397929685
:1046A0002C93929790969C93909791968C9191973A
:1046B000807F816091968C9391975E969C935E9794
:1046C0005F968C915F97807F5F968C935F975C96E7
:1046D0009C935C975D968C915D97807F82605D96E0
:1046E0008C935D975A969C935A975B968C915B97A7
:1046F000807F84605B968C935B9758969C935897C9
:1047000059968C915997807F836059968C93089520
:10471000FC018FB7F89425A136A147A150A58FBF02
:10472000B901CA0108956115710559F41092D506B1
:104730001092D406E0917707F0E082818E7F828329
:104740000CC08091D30690E08617970731F082E085
:1047500090E09093D5068093D4066093D306089595
:104760008091D30608951F920F920FB60F921124D5
:104770002F933F938F939F93EF93FF938091D60650
:104780009091D7061816190614F4019737C0809136
:10479000D4069091D50681309105D9F48091D80640
:1047A0009091D90601969093D9068093D80682E01D
:1047B00090E09093D5068093D40682E190E09093A8
:1047C000D7068093D606E0917707F0E082818E7F4E
:1047D00031C082309105B9F48091D30690E02091E8
:1047E000D8063091D906281739079CF083E090E06D
:1047F0009093D5068093D40680E590E09093D706F9
:104800008093D60618C00397B1F41092D90610927F
:10481000D80681E090E09093D5068093D40682E19B
:1048200090E09093D7068093D606E0917707F0E06A
:10483000828181608283FF91EF919F918F913F915F
:104840002F910F900FBE0F901F9018958AEA96E057
:104850000E94AC220895FC0185A196A1A7A1B0A554
:10486000805C9F4FAF4FBF4F85A396A3A7A3B0A770
:104870000E949600882311F40E94BD0C08951F9297
:104880000F920FB60F9211242F933F934F935F9384
:104890006F937F938F939F93AF93BF93EF93FF9308
:1048A0008AEA96E00E942B24FF91EF91BF91AF918D
:1048B0009F918F917F916F915F914F913F912F9138
:1048C0000F900FBE0F901F901895EF92FF920F93CD
:1048D0001F937C0160E070E00E94932387010C5DD0
:1048E0001F4FC8010E94CA24C80161E00E94BC2475
:1048F000C70160E00E946125C7010C9661E00E943B
:104900006125C701489662E00E9461250AED16E024
:10491000C80161E00E942E26C80102960E948F27DE
:1049200088E297E061E00E942E268AE297E00E94EA
:104930008F271092800089E080938100109282007E
:1049400080E094E0909389008093880082E08093D7
:104950006F001092B00087E08093B10081E08093F7
:104960007000E0917707F0E08181816081831F9181
:104970000F91FF90EF90089580917907E82FF0E074
:104980009281662311F480E401C080E09F7B892B33
:1049900082830895E0917907F0E0218120642183EA
:1049A00061E00E94BC240895FC018385882311F0F6
:1049B00081E068278081A82FB0E012964C91129771
:1049C00081818F7021E030E002C0220F331F8A9571
:1049D000E2F7922F662311F0822F01C080E09095BC
:1049E0009423892B12968C930895FC018281A82F21
:1049F000B0E012964C91129783818F7021E030E0E5
:104A000002C0220F331F8A95E2F7922F662311F01E
:104A1000822F01C080E090959423892B12968C936D
:104A20000895FC018481A82FB0E012964C91129752
:104A300085818F7021E030E002C0220F331F8A95FC
:104A4000E2F7922F662311F4822F01C080E0909547
:104A50009423892B12968C930895DC011696EC9181
:104A60001697F0E0808190E017962C9117972F70A1
:104A700002C0959587952A95E2F7982F91701A961E
:104A80008C91882311F081E09827892F0895DC010B
:104A90001896EC911897F0E0808190E019962C918F
:104AA00019972F7002C0959587952A95E2F7982F50
:104AB00091701A968C91882311F081E09827892FA4
:104AC00008950F931F93CF93DF93EC01062FE88196
:104AD000F0E0318189818F7041E050E0BA0102C07D
:104AE000660F771F8A95E2F7262F20952323262B22
:104AF0002183EA81F0E031818B818F70BA0102C09D
:104B0000660F771F8A95E2F7262F20952323262B01
:104B10002183EC81F0E032818D818F70BA0102C077
:104B2000660F771F8A95E2F7262F20952323262BE1
:104B30002283EC81F0E031818D818F70BA0102C057
:104B4000660F771F8A95E2F7262F20952323262BC1
:104B50002183EE81F0E021818F818F70BA0102C044
:104B6000660F771F8A95E2F7CB01809582238183B8
:104B7000E885F0E0918189858F7002C0440F551F50
:104B80008A95E2F740954923418382E090E062E014
:104B90000E94C604182F83E090E060E00E94C604E3
:104BA00087FD02C041E009C090E0002E02C095954B
:104BB00087950A94E2F7482F41704A87812F90E049
:104BC00002C0959587950A95E2F7817090708B8762
:104BD0008E81E82FF0E052818F818F7021E030E0EC
:104BE00002C0220F331F8A95E2F7922F442311F05F
:104BF000822F01C080E090959523892B8283888540
:104C0000E82FF0E0928189858F7021E030E002C0CA
:104C1000220F331F8A95E2F7422F8A85882311F0ED
:104C2000822F01C080E040954923842B8283DF914D
:104C3000CF911F910F910895E0917907F0E0828163
:104C40008F7E8283E0917907F0E082818F7D82837D
:104C5000E9ECF0E08081806180830895FC0161834C
:104C6000E081EE2361F4662321F08091C100806C25
:104C700003C08091C1008F738093C1000895E1301B
:104C800069F4662331F08091C900806C8093C9007B
:104C900008958091C9008F738093C90008951F9271
:104CA0000F920FB60F9211242F933F934F935F9360
:104CB0006F937F938F939F93AF93BF93EF93FF93E4
:104CC0008091730790917407892B69F08091730725
:104CD00090917407049739F080E597E00E94492885
:104CE0008093CE0002C00E941C26FF91EF91BF91DD
:104CF000AF919F918F917F916F915F914F913F9174
:104D00002F910F900FBE0F901F9018951F920F922A
:104D10000FB60F9211242F933F934F935F936F938E
:104D20007F938F939F93AF93BF93EF93FF93809164
:104D3000250790912607892B61F080912507909196
:104D40002607049731F082E097E00E94492880937B
:104D5000C600FF91EF91BF91AF919F918F917F918D
:104D60006F915F914F913F912F910F900FBE0F90D8
:104D70001F901895CF93DF93EC018981882301F16F
:104D8000CE0188960E944928982F8881882319F49B
:104D90009093C60015C0813099F4E0917907F0E056
:104DA000828180618283E0917907F0E08281806274
:104DB00082838091C9008F7E8093C9009093CE003A
:104DC000DF91CF9108951F920F920FB60F92112489
:104DD0002F933F934F935F936F937F938F939F9303
:104DE000AF93BF93EF93FF936091CE008AE297E079
:104DF0000E949627FF91EF91BF91AF919F918F9164
:104E00007F916F915F914F913F912F910F900FBEC6
:104E10000F901F9018951F920F920FB60F921124AA
:104E20002F933F934F935F936F937F938F939F93B2
:104E3000AF93BF93EF93FF936091C6008CED96E024
:104E40000E949627FF91EF91BF91AF919F918F9113
:104E50007F916F915F914F913F912F910F900FBE76
:104E60000F901F9018950F931F938C01FC01608386
:104E7000118202960E948827C80188960E943328D2
:104E8000F8010081002371F41092C50089E180933C
:104E9000C4001092C00088E18093C10086E0809336
:104EA000C20014C0013091F41092CD0089E18093CA
:104EB000CC001092C80088E18093C90086E08093FE
:104EC000CA008AB180638AB90E941C261F910F9183
:104ED00008958AED96E060E00E94332788E297E02B
:104EE00061E00E943327089580E28093760783E291
:104EF0008093770786E28093780789E28093790729
:104F00000895FC011182108212A214A213A2089526
:104F1000FC011182108212A214A213A20895FC01B6
:104F20001182108212A214A213A20895DC0193969A
:104F30008D919C919497892B91F4653D19F481E0B2
:104F400090E066C011961C9211971C9292961C924A
:104F5000929794961C921E92939781E020C093960C
:104F60008D919C9194970197E9F4603260F4959645
:104F70006C93959795968C919597882309F438C0F2
:104F800082E090E045C011961C9211971C92929677
:104F90001C92929794961C921E92939782E09296FE
:104FA0008C93089593968D919C919497029719F5FF
:104FB0008C918032B8F411968C911197862728E055
:104FC0009CE880FB86950EF489272A95D1F71196E7
:104FD0008C9311978C91FD01E80FF11D62838C91E8
:104FE0008F5F8C939C9195968C919597981718F15B
:104FF00083E090E00DC093968D919C9194970397D8
:10500000D1F411968C911197861739F484E090E0D1
:1050100094969C938E939397089511961C92119752
:105020001C9292961C92929794961C921E92939721
:1050300083E092968C930895FC01E60FF11D828126
:105040000895E62FF0E0DC01AE0FBF1F12962C9101
:105050003196E80FF91F4281942F80E030E0282B31
:10506000392BC9010895FC011182108212A214A2E9
:1050700013A215A20895FC011182108212A214A29B
:1050800013A215A20895FC0112A214A213A215A244
:105090000895DC0193968D919C919497892B41F40E
:1050A00081E090E094969C938E93939725ED35C084
:1050B00093968D919C919497019739F42C918C91B2
:1050C0008823B9F082E090E024C093968D919C9162
:1050D0009497029789F495968C919597FD01E80F26
:1050E000F11D22818F5F95968C9395979C918917DE
:1050F000A0F083E090E00DC093968D919C919497E1
:10510000039711F020E009C011962C91119784E0CB
:1051100090E094969C938E939397822F0895DC0150
:105120008C918032B8F411968C911197862728E0E3
:105130009CE880FB86950EF489272A95D1F7119675
:105140008C9311978C91FD01E80FF11D62838C9176
:105150008F5F8C930895DC018C918032B8F41196A6
:105160008C911197862728E09CE880FB86950EF4A9
:1051700089272A95D1F711968C9311978C91FD016F
:10518000E80FF11D62838C918F5F8C938C9180323C
:10519000B8F411968C911197872728E09CE880FB42
:1051A00086950EF489272A95D1F711968C9311973D
:1051B0008C91FD01E80FF11D72838C918F5F8C93B0
:1051C0000895EF92FF920F931F93DC017A018B01F8
:1051D0008C918032B8F411968C911197842728E035
:1051E0009CE880FB86950EF489272A95D1F71196C5
:1051F0008C9311978C91FD01E80FF11D42838C91E6
:105200008F5F8C938C918032D8F45527412F302FAB
:105210002F2D11968C911197822738E09CE880FB06
:1052200086950EF489273A95D1F711968C931197AC
:105230008C91FD01E80FF11D22838C918F5F8C937F
:105240008C918032D0F498014427552711968C9187
:105250001197822738E09CE880FB86950EF4892719
:105260003A95D1F711968C9311978C91FD01E80F27
:10527000F11D22838C918F5F8C938C918032D8F4B6
:10528000212F33274427552711968C911197822778
:1052900038E09CE880FB86950EF489273A95D1F793
:1052A00011968C9311978C91FD01E80FF11D2283CB
:1052B0008C918F5F8C931F910F91FF90EF900895C9
:1052C000629FD001739FF001829FE00DF11D649FEA
:1052D000E00DF11D929FF00D839FF00D749FF00D76
:1052E000659FF00D9927729FB00DE11DF91F639F17
:1052F000B00DE11DF91FBD01CF0111240895AA1BB6
:10530000BB1B51E107C0AA1FBB1FA617B70710F0B0
:10531000A61BB70B881F991F5A95A9F780959095E2
:10532000BC01CD01089597FB092E07260AD077FD11
:1053300004D0E5DF06D000201AF4709561957F4F08
:105340000895F6F7909581959F4F0895A1E21A2E42
:10535000AA1BBB1BFD010DC0AA1FBB1FEE1FFF1F19
:10536000A217B307E407F50720F0A21BB30BE40B69
:10537000F50B661F771F881F991F1A9469F76095B0
:105380007095809590959B01AC01BD01CF0108956A
:1053900097FB092E05260ED057FD04D0D7DF0AD083
:1053A000001C38F450954095309521953F4F4F4F54
:1053B0005F4F0895F6F790958095709561957F4FB2
:1053C0008F4F9F4F0895EE0FFF1F0590F491E02D32
:1053D0000994FB01DC0102C001900D924150504044
:1053E000D8F70895DC0101C06D9341505040E0F7BB
:1053F0000895FC018191861721F08823D9F7992718
:1054000008953197CF010895FB01DC018D91019042
:1054100080190110D9F3990B0895FB01DC0141506B
:10542000504030F08D910190801919F40020B9F7A7
:10543000881B990B0895FB01DC014150504048F056
:1054400001900D920020C9F701C01D9241505040BB
:10545000E0F70895FC0181E090E00190061609F460
:10546000CF010020D1F701970895DC01CB01FC01A9
:10547000F999FECF06C0F2BDE1BDF89A319600B4AD
:105480000D9241505040B8F70895DC01CB0103C0A4
:105490002D910E94502A41505040D0F70895262F58
:1054A000F999FECF1FBA92BD81BD20BD0FB6F89409
:0E54B000FA9AF99A0FBE01960895F894FFCF6C
:1054BE0043757063616B65002F00050103050709D5
:0854CE000E10121416181C1E2A
:00000001FF
