:200000000C9479000C94A1000C94A1000C94A1000C94A1000C94A1000C94A1000C94A10000
:200020000C94A1000C94A1000C94A1000C94A1000C94A1000C9483080C94A1000C94A100CE
:200040000C94A1000C94A1000C94CA150C94A1000C943C180C94A1000C94A1000C94A100A7
:200060000C94A1000C94A1000C94A1000C94A1000C9479180C94A1000C94A100002124275D
:200080002A002225282B0020232629020202020202020204040404040404040303030303CB
:2000A000030303010101010101010101020408102040800102040810204080010204081012
:2000C00020408080402010080402010000000102000000000000000403070600000000002A
:2000E000000000000000000000000000CC048D14C50411241FBECFEFD0E1DEBFCDBF12E02A
:20010000A0E0B1E0EAE5F2E302C005900D92A232B107D9F717E0A2E2B2E001C01D92AE3578
:20012000B107E1F710E0C0EFD0E004C02297FE010E941C19CC3ED107C9F70E9486140C940F
:2001400020190C940000DC0113961C92139708C0FD01E80FF11D14828F5F13968C93139727
:2001600013968C911397803298F395961C92959708C0FD01E80FF11D16A28F5F95968C9312
:20018000959795968C919597803298F311961C921E92A95BBF4F81E090E011969C938E93A3
:2001A000A754B04012961C92129713961C92139794961C92949795961C929597AA5BBF4F39
:2001C0001C920895FC01E75BFF4F71836083E954F040CF010E94A3000895CF93DF93EC0190
:2001E000288139812115310541F4653D09F046C00E94A30081E090E03FC02130310561F469
:200200006A831B8282E090E099838883613208F435C0C95BDF4F2EC022303105F9F49B8106
:200220008A819817A0F48CA1862728E03CE880FB86950EF483272A95D1F78CA3903220F49C
:20024000FE01E90FF11D64838B818F5F8B839B818A81981798F083E090E00EC02330310522
:2002600069F48CA1861731F0C95BDF4F39832883C754D04084E090E099838883DF91CF9187
:200280000895FC0120E080819181049709F421E0822F0895FC0183810895FC01E95BFF4F9D
:2002A000808191810895FC01E95BFF4F85E090E0918380830895FC01E95BFF4F82E090E015
:2002C0009183808308956F927F928F929F92AF92BF92DF92EF92FF920F931F93CF93DF93C9
:2002E000EC0196E4A92EB12CAC0EBD1E8E01095B1F4FD8019C9180E0892798E02CE880FBD0
:2003000086950EF482279A95D1F7F501808389E4E82EF12CEC0EFD1ED701ED91FC9185ED1D
:2003200009958DA1D701ED91FC918F5F0995D701ED91FC91D8018C910995DD24450137018C
:200340001AC08E010D0D111DD301ED91FC91D80196968C910995F4018081D80196969C9125
:20036000892798E02CE880FB86950EF482279A95D1F78083D3948DA1D81618F3D701ED9122
:20038000FC91D5018C910995CE010E94A300DF91CF911F910F91FF90EF90DF90BF90AF9000
:2003A0009F908F907F906F9008956F927F928F929F92BF92CF92DF92EF92FF920F931F9357
:2003C000CF93DF93EC0136E4C32ED12CC80ED91ED6011C9229E4E22EF12CE80EF91ED701E3
:2003E000ED91FC9185ED0995D701ED91FC918DA10995BB24460137011AC08E010B0D111D26
:20040000D301ED91FC91D80196968C910995F4018081D80196969C91892798E02CE880FB5E
:2004200086950EF482279A95D1F78083B3948DA1B81618F3D701ED91FC91D6018C91099539
:20044000DF91CF911F910F91FF90EF90DF90CF90BF909F908F907F906F900895DC01952FB7
:2004600095968C919597803240F4FD01E80FF11D46A38F5F95968C93959795968C9195975E
:20048000803240F4FD01E80FF11D96A38F5F95968C939597AB0166277727952F95968C91F3
:2004A0009597803240F4FD01E80FF11D46A38F5F95968C93959795968C919597803238F488
:2004C000FD01E80FF11D96A38F5F95968C930895DC0195968C919597803240F4FD01E80FDF
:2004E000F11D66A38F5F95968C93959795968C919597803238F4FD01E80FF11D76A38F5F25
:2005000095968C930895DC0195968C919597803238F4FD01E80FF11D66A38F5F95968C9381
:200520000895FC01E60FF11D84810895FC016F5FDC01A60FB11D615014969C9180E0E60F74
:20054000F11D248130E0282B392BC90108950F931F938C01862F8E5F6D5FF801E60FF11D6F
:20056000348120E0F801E80FF11D848190E0282B392B40E050E0A901332722276250F80154
:20058000E60FF11D6150948180E0060F111DF801648170E0862B972BA0E0B0E0282B392B87
:2005A0004A2B5B2BB901CA011F910F910895603020E0720721E0820720E0920708F440C0A6
:2005C000693F2FEF720727E0820720E0920740F453E096958795779567955A95D1F730C056
:2005E000613C2FEF72072FE3820720E0920740F446E096958795779567954A95D1F720C063
:2006000061302FEF72072FEF820720E0920730F4BB27A92F982F872FBC0112C061302CEFDC
:2006200072072FEF820723E0920718F06FEF7FEF07C02AE096958795779567952A95D1F783
:20064000CB010895EF92FF920F931F937B018C0164E0EE0CFF1C001F111F6A95D1F7C8018A
:20066000B7010E94D702909389008093880080E0E81680E0F80681E0080780E0180710F451
:2006800091E022C089EFE8168FEFF80687E0080780E0180710F492E017C081ECE8168FEFEA
:2006A000F8068FE3080780E0180710F493E00CC081E0E8168FEFF8068FEF080780E0180712
:2006C00010F095E001C094E080918100887F8093810080918100982B909381001F910F91FA
:2006E000FF90EF900895CF93DF93E0E8F0E01082A1E8B0E01C92109282002FE630E0E90157
:2007000018828C918F7E8C938C9188608C9380818D7F808380818E7F808380818F778083A7
:2007200080818F7B808380818F7D808380818F7E80838C91887F8C938C9185608C938FEFA8
:200740009FEF909389008093880088818D7F888388818F7D8883DF91CF910895CF93DF9343
:20076000EC018885998501962A813B8128173907A8F0E881F9818C819D81E80FF91F60834C
:200780008C819D816A817B8101960E94B6189D838C8388859985019699878887DF91CF9150
:2007A0000895CF92DF92EF92FF920F931F936C017A018B01642F0E94AE035527412F302FBF
:2007C0002F2DC601622F0E94AE03980144275527C601622F0E94AE03E12EFF240027112756
:2007E000C6016E2D0E94AE031F910F91FF90EF90DF90CF900895CF93DF93EC01288539854F
:200800002115310511F4E0E012C08E819F81E881F981E80FF91FE0816A817B8101960E9433
:20082000B6189F838E8321503040398728878E2FDF91CF910895EF92FF920F931F937C015A
:200840000E94FB03082FC7010E94FB03382F20E010E0022B132BC8011F910F91FF90EF9070
:2008600008954F925F926F927F928F929F92AF92BF92CF92DF92EF92FF920F931F932C01AE
:200880000E94FB03682EC2010E94FB03E82EC2010E94FB03A82EC2010E94FB03FF2400E00A
:2008A00010E0102F0F2DFE2CEE24BB24CC24DD246501BB24AA24EA28FB280C291D29772463
:2008C00088249924E628F7280829192990E0A0E0B0E0B82FAA2799278827E82AF92A0A2BFE
:2008E0001B2BB701C8011F910F91FF90EF90DF90CF90BF90AF909F908F907F906F905F902C
:200900004F900895019709F03FC06F5F7F4FE1F588E492E065EC73E10E94E20083E992E074
:2009200064EE73E10E94E20080E092E0909325058093240582E293E09093230580932205D6
:200940001092290510922805109227051092260510922B0510922A0580E091E090932F0691
:2009600080932E068CE295E090932D0680932C06109233061092320610923106109230064C
:200980001092350610923406089580E090E06FEF7FEF0E948204089581E090E06FEF7FEF03
:2009A0000E94820408958F929F92AF92BF92CF92DF92EF92FF920F931F938C010E943A16D7
:2009C0006B017C014801AA2497FCA094BA2CC80CD91CEA1CFB1C6CC087E496E00E94A7141A
:2009E000882309F443C087E496E00E94A214682F83E992E00E94ED0080912602909127028C
:200A0000A0912802B09129020196A11DB11D8093260290932702A0932802B09329020E94F8
:200A20003A166B017C01C80CD91CEA1CFB1C83E992E00E944D010397C9F48091320290910C
:200A40003302A0913402B09135020196A11DB11D8093320290933302A0933402B0933502DD
:200A600084E496E060E071E00E94E0140E943A16C616D706E806F906D8F4809136029091A3
:200A80003702A0913802B09139020196A11DB11D8093360290933702A0933802B093390281
:200AA00084E496E063E171E00E94E01480E008C083E992E00E944101882309F48DCF81E0DE
:200AC0001F910F91FF90EF90DF90CF90BF90AF909F908F9008951F93182F61E00E94CA16B5
:200AE000812F60E00E94CA161F9108950F931F93162F042F882321F083E160E00E94CA1689
:200B0000112321F088E160E00E94CA16002321F08DE160E00E94CA161F910F9108950F9372
:200B20001F93162F042F882321F083E161E00E94CA16112321F088E161E00E94CA16002314
:200B400021F08DE161E00E94CA161F910F910895EF92FF920F931F9380910A0390910B03B3
:200B6000A0910C03B0910D0320910E0330910F034091100350911103E0901203F09013035B
:200B8000009114031091150370E0181619061A061B060CF471E060E012161306140615060F
:200BA0000CF461E040E01E141F04100611060CF441E0872F0E947605809112039091130301
:200BC000A0911403B0911503181619061A061B062CF080E060E041E00E948F051F910F9183
:200BE000FF90EF90089582EC90E00197F1F78CE061E00E94CA1682E290E00197F1F783E9FD
:200C000092E00E94D5018CE060E00E94CA1680912A0290912B02A0912C02B0912D020196CB
:200C2000A11DB11D80932A0290932B02A0932C02B0932D0288EE93E00E94D30408950F9325
:200C40001F9383E992E00E94A3008CE296E00E94FB03682F83E992E00E9483028CE296E0BB
:200C60000E94FB03682F83E992E00E9483028CE296E00E94FB03082F10E00AC08CE296E0DF
:200C80000E94FB03682F83E992E00E9483021F5F1017A0F30E94F3051F910F9108951F93A7
:200CA000182F83E992E00E94A30083E992E0612F0E94830283E992E066E10E9483020E9447
:200CC000F305882311F490E009C083E992E061E00E94910290E0813009F491E0892F1F91E8
:200CE00008950E943A1620913F063091400640914106509142066217730784079507A8F471
:200D00000E943A1620913B0630913C0640913D0650913E066217730784079507B8F08091E0
:200D200043060E944F06882319F010923A0608950E943A166C597F4F8F4F9F4F60933B06BB
:200D400070933C0680933D0690933E0608951F9383E992E00E94A30011E00BC088E492E085
:200D6000612F0E949102682F83E992E00E9483021F5F88E492E00E944A01181778F30E948D
:200D8000F30511E00BC083E992E0612F0E949102682F88E492E00E9483021F5F83E992E004
:200DA0000E944A01181778F31F9108959F92AF92BF92CF92DF92EF92FF920F931F93CF9302
:200DC000DF93982EEB018A016115710511F4C4E6D0E00115110511F40CE310E00E943A1617
:200DE00028EE33E0A901049F9001059F300D149F300D112479010027F7FC0095102FE60E8A
:200E0000F71E081F191F5E01CC24B7FCC094DC2C0E943A166E157F058007910750F4892DEE
:200E20000E944F06882329F4C601B5010E944816EFCFDF91CF911F910F91FF90EF90DF901B
:200E4000CF90BF90AF909F900895FF920F931F93F82E8093430603E912E0C8010E94A30086
:200E6000C8016F2D0E948302C80165E10E9483020E94F3058F2D60E070E040E050E00E94D8
:200E8000D6061F910F91FF9008952F923F924F925F926F927F928F929F92AF92BF92CF923F
:200EA000DF92EF92FF920F931F933B014C0119012A0106C061E070E080E090E00E94481666
:200EC000809124059091250520912A0530912B05821B930B409770F380916F008D7F8093A8
:200EE0006F0080916F008F7D80936F0082E295E0B401A3010E94D10382E295E0B201A1019F
:200F00000E94D10382E295E0B801A7010E94D10382E295E0B601A5010E94D1031092160245
:200F200080916F00826080936F001F910F91FF90EF90DF90CF90BF90AF909F908F907F90B6
:200F40006F905F904F903F902F90089580911602882309F43FC02091F2023091F30240919D
:200F6000F4025091F5028091FE029091FF02A0910003B0910103281739074A075B0751F57F
:200F80002091F6023091F7024091F8025091F9028091020390910303A0910403B091050389
:200FA000281739074A075B07A9F42091FA023091FB024091FC025091FD028091060390910D
:200FC0000703A0910803B0910903281739074A075B0739F061E070E080E090E00E944816C2
:200FE000B5CF08958EE060E00E94CA1660ED77E080E090E00E94481608951F93182F0E94F4
:201000001517892B11F020E007C0812F0E94151720E0892B09F421E0822F1F910895EF9279
:20102000FF920F931F938FE10E94FD07E82E8EE10E94FD07F82E8AE10E94FD07082F89E1B2
:201040000E94FD07182F85E10E94FD07000F000F000FF29490EFF922F02A110F110F1F29A8
:20106000880F812BE294EE0C10EEE122E82A84E10E94FD078E291F910F91FF90EF900895ED
:201080008091E702882329F085E10E94FD07882349F48091E702882349F484E10E94FD07B1
:2010A000882321F083E161E00E94CA168091EC02882329F08AE10E94FD07882349F4809180
:2010C000EC02882349F489E10E94FD07882321F088E161E00E94CA168091F102882329F07A
:2010E0008FE10E94FD07882349F48091F102882349F48EE10E94FD07882321F08DE161E086
:201100000E94CA1608951F920F920FB60F9211242F933F934F935F936F937F938F939F93F3
:20112000AF93BF93EF93FF930E9440082091F2023091F3024091F4025091F5028091FE0212
:201140009091FF02A0910003B0910103281739074A075B0709F46CC08091E3029091E4029C
:20116000A091E502B091E60220910A0330910B0340910C0350910D03280F391F4A1F5B1F5E
:201180002093E3023093E4024093E5025093E6028091E3029091E402A091E502B091E6024B
:2011A000181619061A061B060CF042C08FE00E946B058091E3029091E402A091E502B091CC
:2011C000E6022091DF023091E0024091E1025091E202821B930BA40BB50B8093E3029093B4
:2011E000E402A093E502B093E6028091E702882361F08091F2029091F302A091F402B0914B
:20120000F5020196A11DB11D0BC08091F2029091F302A091F402B091F5020197A109B10973
:201220008093F2029093F302A093F402B093F5022091F6023091F7024091F8025091F90222
:201240008091020390910303A0910403B0910503281739074A075B0709F46CC08091E8027A
:201260009091E902A091EA02B091EB0220910E0330910F034091100350911103280F391F1A
:201280004A1F5B1F2093E8023093E9024093EA025093EB028091E8029091E902A091EA026D
:2012A000B091EB02181619061A061B060CF042C087E10E946B058091E8029091E902A091C2
:2012C000EA02B091EB022091DF023091E0024091E1025091E202821B930BA40BB50B809389
:2012E000E8029093E902A093EA02B093EB028091EC02882361F08091F6029091F702A09158
:20130000F802B091F9020196A11DB11D0BC08091F6029091F702A091F802B091F902019787
:20132000A109B1098093F6029093F702A093F802B093F9022091FA023091FB024091FC027D
:201340005091FD028091060390910703A0910803B0910903281739074A075B0709F46CC084
:201360008091ED029091EE02A091EF02B091F0022091120330911303409114035091150389
:20138000280F391F4A1F5B1F2093ED023093EE024093EF025093F0028091ED029091EE02DC
:2013A000A091EF02B091F002181619061A061B060CF042C08BE10E946B058091ED029091AD
:2013C000EE02A091EF02B091F0022091DF023091E0024091E1025091E202821B930BA40B30
:2013E000B50B8093ED029093EE02A093EF02B093F0028091F102882361F08091FA02909191
:20140000FB02A091FC02B091FD020196A11DB11D0BC08091FA029091FB02A091FC02B091D7
:20142000FD020197A109B1098093FA029093FB02A093FC02B093FD022091F2023091F302B4
:201440004091F4025091F5028091FE029091FF02A0910003B0910103281739074A075B070F
:2014600009F04FC22091F6023091F7024091F8025091F9028091020390910303A0910403E3
:20148000B0910503281739074A075B0709F039C22091FA023091FB024091FC025091FD02C3
:2014A0008091060390910703A0910803B0910903281739074A075B0709F023C280912A050E
:2014C00090912B05409708F419C282E295E00E9431049B01AC012093FE023093FF024093CA
:2014E00000035093010382E295E00E9431049B01AC012093020330930303409304035093CB
:20150000050382E295E00E9431049B01AC0120930603309307034093080350930903809163
:20152000FE029091FF02A0910003B09101032091F2023091F3024091F4025091F502821B79
:20154000930BA40BB50B80930A0390930B03A0930C03B0930D038091020390910303A0912A
:201560000403B09105032091F6023091F7024091F8025091F902821B930BA40BB50B809354
:201580000E0390930F03A0931003B09311038091060390910703A0910803B09109032091E9
:2015A000FA023091FB024091FC025091FD02821B930BA40BB50B8093120390931303A09384
:2015C0001403B093150380910A0390910B03A0910C03B0910D0380959095A095B095882758
:2015E000B7FD83959927AA27BB278093E70280910E0390910F03A0911003B09111038095AD
:201600009095A095B0958827B7FD83959927AA27BB278093EC028091120390911303A091AE
:201620001403B091150380959095A095B0958827B7FD83959927AA27BB278093F1026091A1
:20164000E70282E10E94CA166091EC0286E10E94CA166091F1028CE10E94CA1680910A0303
:2016600090910B03A0910C03B0910D03181619061A061B064CF420910A0330910B0340917E
:201680000C0350910D030FC080910A0390910B03A0910C03B0910D0322273327A901281B0D
:2016A000390B4A0B5B0B20930A0330930B0340930C0350930D0380910E0390910F03A0913F
:2016C0001003B0911103181619061A061B064CF420910E0330910F03409110035091110366
:2016E0000FC080910E0390910F03A0911003B091110322273327A901281B390B4A0B5B0B9E
:2017000020930E0330930F0340931003509311038091120390911303A0911403B091150355
:20172000181619061A061B064CF4209112033091130340911403509115030FC08091120368
:2017400090911303A0911403B091150322273327A901281B390B4A0B5B0B20931203309397
:20176000130340931403509315030E94A8051092DF021092E0021092E1021092E20220915C
:201780000A0330910B0340910C0350910D0380910E0390910F03A0911003B0911103821715
:2017A0009307A407B5074CF480910A0390910B03A0910C03B0910D0308C080910E039091FF
:2017C0000F03A0911003B09111038093DF029093E002A093E102B093E202209112033091A1
:2017E000130340911403509115038091DF029091E002A091E102B091E20282179307A407E6
:20180000B5074CF48091120390911303A0911403B091150308C08091DF029091E002A091E0
:20182000E102B091E2028093DF029093E002A093E102B093E2026091DF027091E0028091A4
:20184000E1029091E20222E030E040E050E00E94FF1850954095309521953F4F4F4F5F4F76
:201860002093E3023093E4024093E5025093E6026091DF027091E0028091E1029091E202F4
:2018800022E030E040E050E00E94FF1850954095309521953F4F4F4F5F4F2093E8023093BE
:2018A000E9024093EA025093EB026091DF027091E0028091E1029091E20222E030E040E0CE
:2018C00050E00E94FF1850954095309521953F4F4F4F5F4F2093ED023093EE024093EF02F7
:2018E0005093F00282E295E00E9431040E94220380916F00826080936F0003C081E0809381
:201900001602FF91EF91BF91AF919F918F917F916F915F914F913F912F910F900FBE0F9044
:201920001F901895EF92FF920F931F93F82E162FE42E022F842F0E94FD078823E9F061E019
:201940006027812F0E94CA1609C08F2D0E946B0564EF71E080E090E00E9448168E2D0E9466
:20196000FD07882391F7812F602F0E94CA168F2D0E946B0581E008C0812F602F0E94CA16B7
:201980008F2D0E946B0580E01F910F91FF90EF90089521E00E94920C08952F923F924F92CD
:2019A0005F926F927F928F929F92AF92BF92CF92DF92EF92FF920F931F93DF93CF93CDB7B0
:2019C000DEB729970FB6F894DEBF0FBECDBF89836A834B83380149010E943A160E943A163D
:2019E0005B016C0188EE93E09C01E29EC001E39E900DF29E900D1124A0E0B0E0A80EB91E3A
:201A0000CA1EDB1E2980222011F0222423943A80332011F0332433944B80442011F0442438
:201A20004394822D632D442D0E947605C3010197998788878C01000F111F000F111F02501A
:201A40001040C401B30128EE33E040E050E00E94DD182C833D834E835F835524EE24FF24DD
:201A600074C02220C1F05520B1F48FE062E145E10E94C90C582E8091F2029091F302A09104
:201A8000F402B091F5028093160390931703A0931803B09319033320C1F0EE20B1F487E1E3
:201AA00066E14AE10E94C90CE82E8091F6029091F702A091F802B091F90280931A0390934A
:201AC0001B03A0931C03B0931D034420C1F0FF20B1F48BE16CE14FE10E94C90CF82E8091C3
:201AE000FA029091FB02A091FC02B091FD0280931E0390931F03A0932003B093210399810D
:201B0000992311F0552051F0EA81EE2311F0EE2029F0FB81FF2309F1FF20F9F420E0621692
:201B200020E0720621E0820620E0920640F488859985892B51F0C8010197F1F706C06C81BC
:201B40007D818E819F810E9448160E943A166A157B058C059D0508F484CF81E061E041E022
:201B60000E948F0529960FB6F894DEBF0FBECDBFCF91DF911F910F91FF90EF90DF90CF902D
:201B8000BF90AF909F908F907F906F905F904F903F902F90089520E00E94920C08952F92C4
:201BA0003F924F925F926F927F928F929F92AF92BF92CF92DF92EF92FF920F931F93DF93E2
:201BC000CF93CDB7DEB729970FB6F894DEBF0FBECDBF89836A834B83380149010E943A1647
:201BE0000E943A165B016C0188EE93E09C01E29EC001E39E900DF29E900D1124A0E0B0E0D3
:201C0000A80EB91ECA1EDB1E2980222011F0222423943A80332011F0332433944B80442012
:201C200011F044244394822D632D442D0E947605C3010197998788878C01000F111F000F31
:201C4000111F02501040C401B30128EE33E040E050E00E94DD182C833D834E835F8355248E
:201C6000EE24FF245CC0222081F0552071F48FE062E144E10E94CB0D582E1092F202109277
:201C8000F3021092F4021092F502332081F0EE2071F487E166E149E10E94CB0DE82E1092DC
:201CA000F6021092F7021092F8021092F902442081F0FF2071F48BE16CE14EE10E94CB0D9D
:201CC000F82E1092FA021092FB021092FC021092FD029981992311F0552051F0EA81EE2357
:201CE00011F0EE2029F0FB81FF2309F1FF20F9F420E0621620E0720621E0820620E0920607
:201D000040F488859985892B51F0C8010197F1F706C06C817D818E819F810E9448160E94A4
:201D20003A166A157B058C059D0508F49CCF81E061E041E00E948F0529960FB6F894DEBF14
:201D40000FBECDBFCF91DF911F910F91FF90EF90DF90CF90BF90AF909F908F907F906F9044
:201D60005F904F903F902F9008951092290510922805109227051092260510922B051092BC
:201D80002A058FE061E00E94AC1682E161E00E94AC1683E161E00E94AC1684E160E00E94A8
:201DA000AC1685E160E00E94AC1687E161E00E94AC1686E161E00E94AC1688E161E00E94F2
:201DC000AC1689E160E00E94AC168AE160E00E94AC168BE161E00E94AC168CE161E00E94C3
:201DE000AC168DE161E00E94AC168EE160E00E94AC168FE160E00E94AC1684E161E00E949F
:201E0000CA1685E161E00E94CA1689E161E00E94CA168AE161E00E94CA168EE161E00E940C
:201E2000CA168FE161E00E94CA1681E061E041E00E948F0510920A0310920B0310920C0386
:201E400010920D0310920E0310920F031092100310921103109212031092130310921403D6
:201E6000109215031092F2021092F3021092F4021092F5021092F6021092F7021092F80279
:201E80001092F9021092FA021092FB021092FC021092FD021092FE021092FF02109200033D
:201EA0001092010310920203109203031092040310920503109206031092070310920803D6
:201EC000109209030E94730364EC79E080E090E00E942203EFE6F0E08081826080830895D4
:201EE0008EE061E00E94AC160E94F20708951092DE020E94700F1092360610923706109295
:201F00003806109239060E94B50E0895EFE6F0E080818D7F808380818F7D808381E061E039
:201F200041E00E948F050E94770F08952F923F924F925F926F927F928F929F92AF92BF922B
:201F4000CF92DF92EF92FF920F931F938091340690913506892B09F49BC160912E0670916F
:201F60002F0680913206909133060E94B618E0912C06F0912D06E80FF91F8081813809F000
:201F800064C1809124059091250520912A0530912B05821B930B409708F057C179C18CE2FC
:201FA00096E00E9431041B012C018CE296E00E9431043B014C018CE296E00E9431047B0110
:201FC0008C018CE296E00E9431045B016C01C201B101A40193010E9445075AC10E94A607EA
:201FE000F8948CE296E00E9431049B01AC012093F2023093F3024093F4025093F50280913E
:20200000F2029091F302A091F402B091F5028093FE029093FF02A0930003B09301038CE235
:2020200096E00E9431049B01AC012093F6023093F7024093F8025093F9028091F6029091CE
:20204000F702A091F802B091F9028093020390930303A0930403B09305038CE296E00E94D4
:2020600031049B01AC012093FA023093FB024093FC025093FD028091FA029091FB02A09164
:20208000FC02B091FD028093060390930703A0930803B09309037894FBC00E94A607809105
:2020A0006F008D7F80936F0080916F008F7D80936F008CE296E00E94FB03182F8CE296E066
:2020C0000E9431045B016C018CE296E00E941B047C01412F4470812F81701270612F9601D0
:2020E00085010E94CF0D1EC00E94A60780916F008D7F80936F0080916F008F7D80936F0093
:202100008CE296E00E9431045B016C018CE296E00E941B047C0180E060E040E0960185013C
:202120000E94CD0C80916F00826080936F00B0C00E94A6078CE296E00E9431040E944816C6
:20214000A7C00E94A6078CE296E00E94FB030E9425079EC00E94A6078CE296E00E94FB0346
:20216000809343068CE296E00E941B0490931802809317028CE296E00E941B0490931A0211
:2021800080931902809143060E944F06882309F07FC00E943A16209117023091180240E026
:2021A00050E0260F371F481F591F20933B0630933C0640933D0650933E060E943A1640918C
:2021C000190250911A0228EE33E0F9014E9F90014F9F300D5E9F300D112440E050E0260F27
:2021E000371F481F591F20933F0630934006409341065093420681E080933A0649C00E9405
:20220000A6070E941F0644C00E94A6078CE296E00E94FB03282F30E0F901E170F070369596
:202220002795622F617036952795422F417087FF04C08E2F0E94760503C08E2F0E948F05FD
:2022400088E492E00E94530123C08CE296E00E94FB03853809F46CCF863870F4823809F475
:20226000BDCE833818F4813859F799CE833809F414CF843829F738CF873809F46BCF873869
:2022800008F45FCF883809F4BACF8938C9F6BCCF1F910F91FF90EF90DF90CF90BF90AF9009
:2022A0009F908F907F906F905F904F903F902F900895853009F47DC0863080F48230A9F164
:2022C000833030F4882301F1813009F06EC12AC08330D1F1843009F068C143C0883009F4C4
:2022E000BEC0893038F4863009F488C0873009F05CC1B2C08A3009F4D3C08A3008F455C12B
:202300008B3009F052C1CFC088E492E061E00E949602909347028093460288E492E065E61E
:2023200070E00FC00E94770F089560912E0670912F068091340690913506681B790B88E444
:2023400092E00E946802089510923306109232061092310610923006109235061092340643
:2023600008954091F2025091F3026091F4027091F50288E492E00E942E024091F6025091EC
:20238000F7026091F8027091F90288E492E00E942E024091FA025091FB026091FC02709112
:2023A000FD0288E492E00E942E020E940F08682FF7C0409116035091170360911803709175
:2023C000190388E492E00E942E0240911A0350911B0360911C0370911D0388E492E00E9493
:2023E0002E0240911E0350911F03609120037091210388E492E00E942E02089588E492E054
:2024000061E00E94A7029B01AC012093160330931703409318035093190388E492E065E02E
:202420000E94A7029B01AC0120931A0330931B0340931C0350931D0388E492E069E00E9499
:20244000A7029B01AC0120931E0330931F03409320035093210308950E94860F0895809152
:20246000DE02882351F01092DE020E94A80580916F00826080936F00089581E08093DE02EA
:2024800080916F008D7F80936F0080916F008F7D80936F0081E061E041E00E948F0508958A
:2024A0000E94A706089580911602882309F477C02091F2023091F3024091F4025091F5022E
:2024C0008091FE029091FF02A0910003B0910103281739074A075B0709F061C02091F6025B
:2024E0003091F7024091F8025091F9028091020390910303A0910403B0910503281739073E
:202500004A075B0709F04BC02091FA023091FB024091FC025091FD028091060390910703A5
:20252000A0910803B0910903281739074A075B07B1F540C02091F6023091F7024091F8020C
:202540005091F9028091020390910303A0910403B0910503281739074A075B0701F5209108
:20256000FA023091FB024091FC025091FD028091060390910703A0910803B09109032817E5
:2025800039074A075B0759F460E08091340690913506892B09F061E081E0682701C060E035
:2025A00088E492E00E948302089588E492E00E94530108952091F2023091F3024091F402E6
:2025C0005091F5028091FE029091FF02A0910003B0910103281739074A075B0701F7AACFD4
:2025E000EF92FF920F931F930E943A167B018C0188EE93E0A0E0B0E0E80EF91E0A1F1B1F11
:2026000050C084E496E00E94A7148823E1F180E061E00E94CA1684E496E00E94A214682F02
:2026200088E492E00E94ED0080913E0290913F02A0914002B09141020196A11DB11D80934D
:202640003E0290933F02A0934002B09341020E943A167B018C0188E492E00E944D01039778
:2026600031F484E496E061E271E00E94E01488EE93E0A0E0B0E0E80EF91E0A1F1B1F80E064
:2026800060E00E94CA160E943A166E157F058007910738F084E496E063E371E00E94E0142D
:2026A00007C088E492E00E944101882309F4A9CF88E492E00E944101882309F447C08091EF
:2026C000420290914302A0914402B09145020196A11DB11D8093420290934302A0934402F6
:2026E000B093450288E492E060E00E94910287FF2BC000912E0610912F0680913406909185
:202700003506081B190B88E492E00E944A0190E008171907A0F010E00BC088E492E0612F04
:202720000E949102682F8CE296E00E94AE031F5F88E492E00E944A01181778F307C088E480
:2027400092E00E945B0102C00E94591188E492E00E9463011F910F91FF90EF90089584E4F4
:2027600096E00E94A714882311F00E94F01280913A06882319F40E94960F04C0813011F46C
:202780000E9471060E944008089520913A0230913B0240913C0250913D022F5F3F4F4F4FC5
:2027A0005F4F20933A0230933B0240933C0250933D02482F50E060E070E084E496E020E034
:2027C00030E00E94AA150895CF92DF92EF92FF920F931F93CF93DF93182F80912202909142
:2027E0002302A0912402B09125020196A11DB11D8093220290932302A0932402B093250290
:20280000412F50E060E070E087E496E020E030E00E94AA150E943A166B017C018AE090E081
:20282000A0E0B0E0C80ED91EEA1EFB1E87E496E00E94A214EC01012F10E026C087E496E08D
:202840000E94A214EC010E943A16C616D706E806F906D0F480912E0290912F02A0913002E1
:20286000B09131020196A11DB11D80932E0290932F02A0933002B093310284E496E06BEF17
:2028800071E00E94E01403C0C017D107B9F6DF91CF911F910F91FF90EF90DF90CF90089597
:2028A0008DE061E00E94AC168CE061E00E94AC168DE060E00E94CA1684E496E040E056E989
:2028C00060E070E00E94AC1487E496E040E056E960E070E00E94AC1408950F931F930E9441
:2028E00050140E94770F04E416E0C80169E072E00E94B114C80145E650E060E070E02AE0E5
:2029000030E00E94BF151F910F9108950E9472160E946D140E94AF13FDCF8FE192E09093C2
:2029200045068093440610924606909348068093470681E0809349060895FC0182810E942E
:20294000E9170895FC0182810E940F180895FC0182810E94F9170895FC0182810E9461170B
:2029600008950F931F93CF93DF938C01EB0109C02196D801ED91FC910190F081E02DC801DD
:20298000099568816623A1F7DF91CF911F910F9108950F931F938C01DC01ED91FC91019078
:2029A000F081E02D6DE00995D801ED91FC910190F081E02DC8016AE009951F910F9108951D
:2029C0000F931F938C010E94B114C8010E94C9141F910F9108952F923F924F925F926F9215
:2029E0007F928F929F92AF92BF92CF92DF92EF92FF920F931F93DF93CF93CDB7DEB7A09786
:202A00000FB6F894DEBF0FBECDBF1C016A017B01411551056105710549F4DC01ED91FC91BE
:202A20000190F081E02D60E3099554C0882499245401422E55246624772401E010E00C0FDA
:202A40001D1F080D191DC701B601A30192010E94DD18F80160830894811C911CA11CB11C56
:202A6000C701B601A30192010E94DD18C901DA016C017D01C114D104E104F104F1F681E0AD
:202A8000E82EF12CEC0EFD1EE80CF91C3E010894611C711CD501C4010197A109B1096C01FC
:202AA000C818D90814C0F601EE0DFF1D60816A3010F4605D01C0695CD101ED91FC91019043
:202AC000F081E02DC10109950894E108F1086E147F0449F7A0960FB6F894DEBF0FBECDBFD8
:202AE000CF91DF911F910F91FF90EF90DF90CF90BF90AF909F908F907F906F905F904F9022
:202B00003F902F900895EF92FF920F931F93CF93DF93EC017A018B0177FF0FC0E881F98134
:202B20000190F081E02D6DE2099510950095F094E094E11CF11C011D111DCE01B801A701E1
:202B40002AE00E94EB14DF91CF911F910F91FF90EF900895DC012115310541F4ED91FC9176
:202B60000190F081E02D642F099508952A30310519F40E94831508950E94EB1408950F9324
:202B80001F938C010E94AA15C8010E94C9141F910F9108951F920F920FB60F9211242F93B1
:202BA0008F939F93AF93BF9380914A0690914B06A0914C06B0914D060196A11DB11D80930D
:202BC0004A0690934B06A0934C06B0934D0680914E0690914F06A0915006B091510680504C
:202BE000904CAF4FBF4F80934E0690934F06A0935006B093510627C080914E0690914F0629
:202C0000A0915006B091510680589E43A040B04080934E0690934F06A0935006B09351060A
:202C20008091520690915306A0915406B09155060196A11DB11D8093520690935306A0934D
:202C40005406B093550680914E0690914F06A0915006B091510681589E43A040B04060F6A2
:202C6000BF91AF919F918F912F910F900FBE0F901F9018958FB7F894209152063091530658
:202C800040915406509155068FBFB901CA010895EF92FF920F931F937B018C018FB7F8941C
:202CA000409152065091530660915406709155068FBF2FB7F8948091520690915306A09136
:202CC0005406B09155062FBF841B950BA60BB70BE816F9060A071B0760F71F910F91FF90F8
:202CE000EF900895789484B5826084BD84B5816084BD85B5826085BD85B5816085BDEEE666
:202D0000F0E0808181608083E1E8F0E0808182608083808181608083E0E8F0E08081816020
:202D20008083E1EBF0E0808184608083E0EBF0E0808181608083EAE7F0E080818460808303
:202D40008081826080838081816080838081806880831092C1000895282F30E0C9018555B1
:202D60009F4FFC01949125573F4FF9018491882381F0E82FF0E0E458FF4FE491F0E06623CF
:202D800029F4808190958923808308958081892B80830895482F50E0CA0185539F4FFC011A
:202DA0002491CA0185559F4FFC01949145575F4FFA0134913323C1F1222331F1213019F4D2
:202DC00084B58F7704C0223021F484B58F7D84BD1BC0233021F4809180008F7705C0243010
:202DE00031F4809180008F7D809380000DC0263021F48091B0008F7705C0273029F4809135
:202E0000B0008F7D8093B000E32FF0E0EF57FF4FE491F0E0662329F48081909589238083FD
:202E200008958081892B80830895482F50E0CA0185539F4FFC012491CA0185559F4FFC0126
:202E4000949145575F4FFA013491332319F420E030E035C0222331F1213019F484B58F77D7
:202E600004C0223021F484B58F7D84BD1BC0233021F4809180008F7705C0243031F4809178
:202E800080008F7D809380000DC0263021F48091B0008F7705C0273029F48091B0008F7D0E
:202EA0008093B000E32FF0E0EA57FF4FE491F0E0808120E030E0892311F021E030E0C90100
:202EC0000895EF92FF920F931F937A018B018823F1F5CB01BA0122E030E040E050E00E94CC
:202EE000FF18205C3D4B404F5F4FCA01B901A80197010E94FF18C901DA010197A109B1095A
:202F0000292F3A2F4B2F552747FD5A950196A11DB11D2093C50081508093C4001092C00022
:202F20001092C1001092C2008091C10080618093C1008091C10088608093C1008091C100E3
:202F400080688093C10086E08093C2003DC0CB01BA0122E030E040E050E00E94FF18205C5F
:202F60003D4B404F5F4FCA01B901A80197010E94FF18C901DA010197A109B109292F3A2FAB
:202F80004B2F552747FD5A950196A11DB11D2093CD0081508093CC001092C8001092C900E0
:202FA0001092CA008091C90080618093C9008091C90088608093C9008091C900806880939B
:202FC000C90086E08093CA001F910F91FF90EF900895882339F48091C00085FFFCCF6093FF
:202FE000C60008958091C80085FFFCCF6093CE000895E82FF0E0EE0FFF1FDF01AA5AB94FFA
:203000008D919C9180589F4FE65AF94F20813181821B930B60E870E00E94CA180895CF936E
:20302000DF93A82FB0E0FD01EE0FFF1FEF01C65AD94F48815981EA5AF94F80819181841789
:20304000950719F42FEF3FEF13C0B695BA2FAA27B795A795A40FB51FA25AB94F2C91CA0108
:20306000019660E870E00E94CA189983888330E0C901DF91CF9108951F920F920FB60F9277
:2030800011242F933F934F935F936F937F938F939F93AF93BF93EF93FF934091C600E0917B
:2030A0005606F0915706CF01019660E870E00E94CA189C0180915A0690915B062817390744
:2030C00039F0E25AF94F40833093570620935606FF91EF91BF91AF919F918F917F916F9151
:2030E0005F914F913F912F910F900FBE0F901F9018951F920F920FB60F9211242F933F9388
:203100004F935F936F937F938F939F93AF93BF93EF93FF934091CE00E0915806F09159067D
:20312000CF01019660E870E00E94CA189C0180915C0690915D062817390739F0E252F94F54
:2031400040833093590620935806FF91EF91BF91AF919F918F917F916F915F914F913F91D9
:203160002F910F900FBE0F901F901895AA1BBB1B51E107C0AA1FBB1FA617B70710F0A61BB5
:20318000B70B881F991F5A95A9F780959095BC01CD01089597FB092E07260AD077FD04D005
:2031A000E5DF06D000201AF4709561957F4F0895F6F7909581959F4F0895A1E21A2EAA1B9E
:2031C000BB1BFD010DC0AA1FBB1FEE1FFF1FA217B307E407F50720F0A21BB30BE40BF50BAC
:2031E000661F771F881F991F1A9469F760957095809590959B01AC01BD01CF01089597FB0D
:20320000092E05260ED057FD04D0D7DF0AD0001C38F450954095309521953F4F4F4F5F4F5F
:203220000895F6F790958095709561957F4F8F4F9F4F0895EE0FFF1F0590F491E02D0994B9
:2032400010E0C0EFD0E004C0FE010E941C192296C23FD107C9F7F894FFCF536C61766520BF
:20326000435243204D69736D6174636800536C6176652054696D656F757400486F73742060
:20328000435243204D69736D6174636800486F73742074696D656F75740053746174733AF2
:2032A00000536C61766520545820436F756E743A00536C61766520525820436F756E743ABC
:2032C00000536C617665205061636B657420436F756E743A2000536C6176652043524320E5
:2032E0004572726F72733A2000536C6176652074696D656F7574733A200073746172746971
:203300006E6720726F756E642000666F727761726400757000646F776E00746F6F6C2023DD
:2033200000200066696C616D656E743A20006D322070776D3A20006D312070776D3A2000EA
:203340007365742074656D7020746F3A200074656D703A20004C6F6F706261636B204661EC
:20336000696C00523347204D61737465722076000164007800000000009D1400FFFFFFFF00
:20338000FFFFFFFFFFFFFFFFFFFFFFFFFFFFFFFFFFFFFFFFFFFFFFFFFFFFFFFFFFFFFFFF4D
:2033A000FFFFFFFFFFFFFFFFFFFFFFFFFFFFFFFFFFFFFFFFFFFFFFFFFFFFFFFFFFFFFFFF2D
:2033C000FFFFFFFFFFFFFFFFFFFFFFFFFFFFFFFFFFFFFFFFFFFFFFFFFFFFFFFFFFFFFFFF0D
:2033E000FFFFFFFFFFFFFFFFFFFFFFFFFFFFFFFFFFFFFFFFFFFFFFFFFFFFFFFFFFFFFFFFED
:20F800000C943E7C0C945B7C0C945B7C0C945B7C0C945B7C0C945B7C0C945B7C0C945B7C4D
:20F820000C945B7C0C945B7C0C945B7C0C945B7C0C945B7C0C945B7C0C945B7C0C945B7C10
:20F840000C945B7C0C945B7C0C945B7C0C945B7C0C945B7C0C945B7C0C945B7C0C945B7CF0
:20F860000C945B7C0C945B7C0C945B7C0C945B7C0C945B7C0C945B7C0C945B7C11241FBE35
:20F88000CFEFD0E1DEBFCDBF11E0A0E0B1E0E6E6FFEF02C005900D92A030B107D9F712E0D4
:20F8A000A0E0B1E001C01D92A930B107E1F70E94537D0C94B27F0C94007CCF93DF93CDB7A7
:20F8C000DEB724970FB6F894DEBF0FBECDBF882309F481E020E0482F55274115510509F4EC
:20F8E0003DC0289A19821A821B821C820BC089819A81AB81BC810196A11DB11D89839A8332
:20F90000AB83BC8389819A81AB81BC8180589E43A040B04060F3289819821A821B821C82DE
:20F920000BC089819A81AB81BC810196A11DB11D89839A83AB83BC8389819A81AB81BC8127
:20F9400080509A4FA040B04060F32F5F822F992787FD9095841795070CF4C3CF19821A8223
:20F960001B821C8289819A81AB81BC8180509147A240B040A0F489819A81AB81BC8101968B
:20F98000A11DB11D89839A83AB83BC8389819A81AB81BC8180509147A240B04060F3249630
:20F9A0000FB6F894DEBF0FBECDBFDF91CF910895EF92FF920F931F93EE24FF2487012898B0
:20F9C0008091C00087FD17C00894E11CF11C011D111D81E0E81689E0F8068DE3080780E064
:20F9E000180770F3E0910001F091010109958091C00087FFE9CF289A8091C600992787FD06
:20FA000090951F910F91FF90EF900895982F8091C00085FFFCCF9093C60008950E94D87C63
:20FA2000803271F0809102018F5F80930201853009F00895E0910001F09101010995089520
:20FA400084E10E94067D80E10E94067D0895CF93C82F0E94D87C803241F0809102018F5FC5
:20FA600080930201853081F40AC084E10E94067D8C2F0E94067D80E10E94067D05C0E09156
:20FA80000001F09101010995CF910895282F90E007C08091C0008823E4F78091C6009F5F8D
:20FAA0009217B8F30895CFEFD0E1DEBFCDBF000094B714BE80916000886180936000109231
:20FAC000600091FF74C189E18093C4001092C50088E18093C10086E08093C2005098589A07
:20FAE000209A83E00E945D7C81E00E945D7C0E94D87C8033B9F18133C1F1803409F456C012
:20FB0000813409F45CC0823409F46EC0853409F471C0803539F1813509F4F3C0823511F151
:20FB2000853509F4D3C0863509F4CBC0843609F465C0843709F4EBC0853709F4D2C08637F1
:20FB400009F44AC0809102018F5F80930201853071F6E0910001F091010109950E94D87CE1
:20FB6000803349F60E940E7DC2CF0E94D87CC82F803241F784E10E94067D81E40E94067DEA
:20FB800086E50E94067D82E50E94067D8C2F0E94067D89E40E94067D83E50E94067D80E5E5
:20FBA0000E94067D80E10E94067DA1CF0E94D87C8638C0F20E94D87C0E940E7D98CF0E9498
:20FBC000D87C803809F407C1813809F400C1823809F4F9C0883921F080E00E94277D87CF9F
:20FBE00083E00E94277D83CF84E10E94467D0E940E7D7DCF85E00E94467DF9CF0E94D87C3F
:20FC0000809306020E94D87C80930502809108028E7F809308020E94D87C853409F44BC0BD
:20FC2000E5E0F1E0119281E0E438F807D9F3D0F3C0E0D0E0809105029091060218161906A2
:20FC400078F405E011E00E94D87CF80181938F0121968091050290910602C817D90798F38D
:20FC60000E94D87C803209F06DCF8091080280FFB6C0C0E0D0E0209105023091060212169E
:20FC80001306B8F4E0910301F0910401A5E0B1E0F999FECFF2BDE1BD8D9180BDFA9AF99A60
:20FCA00031962196C217D30798F3F0930401E093030184E175CF80910802816080930802C7
:20FCC000AFCF84E00E94467D80E087CF0E94D87C809303010E94D87C809304010E940E7DDF
:20FCE00006CF0E94D87C803209F02CCF84E10E94067D8EE10E94067D86E90E94067D8AE077
:20FD00004FCF0E940E7D88E080936000FFCF0E94D87C809306020E94D87C809305020E942C
:20FD2000D87C853409F449C0809108028E7F809308028091030190910401880F991F9093BE
:20FD40000401809303010E94D87C803209F0CFCE84E10E94067DC0E0D0E0209105023091F6
:20FD600006021216130608F01DCFE0910301F09104018091080280FF96C0F999FECFF2BD5D
:20FD8000E1BDF89A80B50E94067DE0910301F09104013196F0930401E09303012091050260
:20FDA000309106022196C217D30718F3FBCEE0910001F0910101099586CE80910802816059
:20FDC00080930802C0CF80E10E94277D90CE81E00E94277D8CCE82E00E94277D88CE809162
:20FDE000030190910401880F991F90930401809303018091050280FF09C0809105029091B2
:20FE0000060201969093060280930502F999FECF1127E0910301F0910401C5E0D1E0809105
:20FE2000050290910602103091F40091570001700130D9F303E000935700E8950091570045
:20FE400001700130D9F301E100935700E895099019900091570001700130D9F301E00093DF
:20FE60005700E8951395103898F011270091570001700130D9F305E000935700E8950091CB
:20FE8000570001700130D9F301E100935700E8953296029709F0C7CF103011F00296E5CFD7
:20FEA000112484E17DCE869580FF06C03196F0930401E093030176CF84910E94067D209107
:20FEC000050230910602E0910301F0910401EECF1F93CF930E94D87CC82F0E94067D0E94D2
:20FEE000D87C182F0E94067DC1362CF0C75511363CF0175508C0C033D4F3C0531136CCF795
:20FF000010330CF01053C295C07FC10F8C2F992787FD9095CF911F910895CF93282F99278F
:20FF200087FD9095807F9070959587959595879595958795959587958A303CF0895AC22F47
:20FF4000CF70CA303CF0C95A06C0805DC22FCF70CA30CCF7C05D0E94067D8C2F0E94067D67
:06FF6000CF910895FFCFD0
:00000001FF
